{
	"data": {
		"bytecode": {
			"linkReferences": {},
			"object": "608060405234801561000f575f80fd5b5061001e61002360201b60201c565b610183565b5f61003261012160201b60201c565b9050805f0160089054906101000a900460ff161561007c576040517ff92ee8a900000000000000000000000000000000000000000000000000000000815260040160405180910390fd5b67ffffffffffffffff8016815f015f9054906101000a900467ffffffffffffffff1667ffffffffffffffff161461011e5767ffffffffffffffff815f015f6101000a81548167ffffffffffffffff021916908367ffffffffffffffff1602179055507fc7f505b2f371ae2175ee4913f4499e1f2633a7b5936321eed1cdaeb6115181d267ffffffffffffffff604051610115919061016a565b60405180910390a15b50565b5f7ff0c57e16840df040f15088dc2f81fe391c3923bec73e23a9662efc9c229c6a00905090565b5f67ffffffffffffffff82169050919050565b61016481610148565b82525050565b5f60208201905061017d5f83018461015b565b92915050565b6146d5806101905f395ff3fe608060405234801561000f575f80fd5b506004361061023b575f3560e01c8063715018a611610139578063a9059cbb116100b6578063d547741f1161007a578063d547741f14610683578063d6d681771461069f578063dd62ed3e146106d0578063f1215d2514610700578063f2fde38b1461071c5761023b565b8063a9059cbb146105e1578063c4d66de814610611578063c5b779de1461062d578063d0b3a9bd1461064b578063d505accf146106675761023b565b806384b0196e116100fd57806384b0196e146105335780638da5cb5b1461055757806391d148541461057557806395d89b41146105a5578063a217fddf146105c35761023b565b8063715018a6146104c9578063776c6a7b146104d357806379cc6790146104dd5780637ecebe00146104f95780638456cb59146105295761023b565b8063313ce567116101c7578063528fdc631161018b578063528fdc631461042157806356995d661461043f5780635c975abb1461045d5780635dbdda691461047b57806370a08231146104995761023b565b8063313ce567146103a35780633644e515146103c157806336568abe146103df5780633f4ba83a146103fb57806342966c68146104055761023b565b8063189a5a171161020e578063189a5a17146102db57806323b872dd1461030b578063248a9ca31461033b5780632e1a7d4d1461036b5780632f2ff15d146103875761023b565b806301ffc9a71461023f57806306fdde031461026f578063095ea7b31461028d57806318160ddd146102bd575b5f80fd5b610259600480360381019061025491906132d2565b610738565b6040516102669190613317565b60405180910390f35b6102776107b1565b60405161028491906133a0565b60405180910390f35b6102a760048036038101906102a2919061344d565b61084f565b6040516102b49190613317565b60405180910390f35b6102c5610871565b6040516102d2919061349a565b60405180910390f35b6102f560048036038101906102f091906134b3565b610888565b604051610302919061349a565b60405180910390f35b610325600480360381019061032091906134de565b6108a2565b6040516103329190613317565b60405180910390f35b61035560048036038101906103509190613561565b610a89565b604051610362919061359b565b60405180910390f35b610385600480360381019061038091906135b4565b610ab3565b005b6103a1600480360381019061039c91906135df565b610e56565b005b6103ab610e78565b6040516103b89190613638565b60405180910390f35b6103c9610e80565b6040516103d6919061359b565b60405180910390f35b6103f960048036038101906103f491906135df565b610e8e565b005b610403610f09565b005b61041f600480360381019061041a91906135b4565b610f1b565b005b610429610f2f565b6040516104369190613660565b60405180910390f35b610447610f52565b604051610454919061359b565b60405180910390f35b610465610f76565b6040516104729190613317565b60405180910390f35b610483610f98565b604051610490919061349a565b60405180910390f35b6104b360048036038101906104ae91906134b3565b610f9f565b6040516104c0919061349a565b60405180910390f35b6104d1610ff2565b005b6104db611005565b005b6104f760048036038101906104f2919061344d565b6110a8565b005b610513600480360381019061050e91906134b3565b6110c8565b604051610520919061349a565b60405180910390f35b6105316110d9565b005b61053b6110eb565b60405161054e979695949392919061376a565b60405180910390f35b61055f6111f4565b60405161056c9190613660565b60405180910390f35b61058f600480360381019061058a91906135df565b611229565b60405161059c9190613317565b60405180910390f35b6105ad61129a565b6040516105ba91906133a0565b60405180910390f35b6105cb611338565b6040516105d8919061359b565b60405180910390f35b6105fb60048036038101906105f6919061344d565b61133e565b6040516106089190613317565b60405180910390f35b61062b600480360381019061062691906134b3565b61144f565b005b610635611711565b604051610642919061349a565b60405180910390f35b610665600480360381019061066091906134b3565b61171a565b005b610681600480360381019061067c9190613816565b61182b565b005b61069d600480360381019061069891906135df565b611970565b005b6106b960048036038101906106b4919061344d565b611992565b6040516106c79291906138b3565b60405180910390f35b6106ea60048036038101906106e591906138e1565b611a52565b6040516106f7919061349a565b60405180910390f35b61071a60048036038101906107159190613a4b565b611ae2565b005b610736600480360381019061073191906134b3565b611be8565b005b5f7f7965db0b000000000000000000000000000000000000000000000000000000007bffffffffffffffffffffffffffffffffffffffffffffffffffffffff1916827bffffffffffffffffffffffffffffffffffffffffffffffffffffffff191614806107aa57506107a982611c6c565b5b9050919050565b60605f6107bc611cd5565b90508060030180546107cd90613ad2565b80601f01602080910402602001604051908101604052809291908181526020018280546107f990613ad2565b80156108445780601f1061081b57610100808354040283529160200191610844565b820191905f5260205f20905b81548152906001019060200180831161082757829003601f168201915b505050505091505090565b5f80610859611cfc565b9050610866818585611d03565b600191505092915050565b5f8061087b611cd5565b9050806002015491505090565b6002602052805f5260405f205f91509050805f0154905081565b5f8073ffffffffffffffffffffffffffffffffffffffff168473ffffffffffffffffffffffffffffffffffffffff1603610911576040517f08c379a000000000000000000000000000000000000000000000000000000000815260040161090890613b4c565b60405180910390fd5b5f73ffffffffffffffffffffffffffffffffffffffff168373ffffffffffffffffffffffffffffffffffffffff160361097f576040517f08c379a000000000000000000000000000000000000000000000000000000000815260040161097690613bb4565b60405180910390fd5b5f82116109c1576040517f08c379a00000000000000000000000000000000000000000000000000000000081526004016109b890613c42565b60405180910390fd5b816109cb85610f9f565b1015610a0c576040517f08c379a0000000000000000000000000000000000000000000000000000000008152600401610a0390613cd0565b60405180910390fd5b5f610a178533611a52565b905082811015610a5c576040517f08c379a0000000000000000000000000000000000000000000000000000000008152600401610a5390613d5e565b60405180910390fd5b610a67858585611d15565b610a7d85338584610a789190613da9565b611d03565b60019150509392505050565b5f80610a93611e05565b9050805f015f8481526020019081526020015f2060010154915050919050565b5f8111610af5576040517f08c379a0000000000000000000000000000000000000000000000000000000008152600401610aec90613e26565b60405180910390fd5b5f610afe610e78565b600a610b0a9190613f73565b82610b159190613fbd565b905080610b2133610f9f565b1015610b62576040517f08c379a0000000000000000000000000000000000000000000000000000000008152600401610b5990614048565b60405180910390fd5b610b6c3382611e2c565b5f8190505f60605b5f83118015610bc257505f60015f3373ffffffffffffffffffffffffffffffffffffffff1673ffffffffffffffffffffffffffffffffffffffff1681526020019081526020015f2080549050115b15610e4f575f60015f3373ffffffffffffffffffffffffffffffffffffffff1673ffffffffffffffffffffffffffffffffffffffff1681526020019081526020015f206001805f3373ffffffffffffffffffffffffffffffffffffffff1673ffffffffffffffffffffffffffffffffffffffff1681526020019081526020015f2080549050610c519190613da9565b81548110610c6257610c61614066565b5b905f5260205f209060020201905083815f015411610d9c57805f01549250806001018054610c8f90613ad2565b80601f0160208091040260200160405190810160405280929190818152602001828054610cbb90613ad2565b8015610d065780601f10610cdd57610100808354040283529160200191610d06565b820191905f5260205f20905b815481529060010190602001808311610ce957829003601f168201915b50505050509150805f015484610d1c9190613da9565b935060015f3373ffffffffffffffffffffffffffffffffffffffff1673ffffffffffffffffffffffffffffffffffffffff1681526020019081526020015f20805480610d6b57610d6a614093565b5b600190038181905f5260205f2090600202015f8082015f9055600182015f610d939190613214565b50509055610e49565b83925083815f015f828254610db19190613da9565b925050819055505f9350806001018054610dca90613ad2565b80601f0160208091040260200160405190810160405280929190818152602001828054610df690613ad2565b8015610e415780601f10610e1857610100808354040283529160200191610e41565b820191905f5260205f20905b815481529060010190602001808311610e2457829003601f168201915b505050505091505b50610b74565b5050505050565b610e5f82610a89565b610e6881611eab565b610e728383611ebf565b50505050565b5f6008905090565b5f610e89611fb7565b905090565b610e96611cfc565b73ffffffffffffffffffffffffffffffffffffffff168173ffffffffffffffffffffffffffffffffffffffff1614610efa576040517f6697b23200000000000000000000000000000000000000000000000000000000815260040160405180910390fd5b610f048282611fc5565b505050565b610f116120bd565b610f19612144565b565b610f2c610f26611cfc565b82611e2c565b50565b5f8054906101000a900473ffffffffffffffffffffffffffffffffffffffff1681565b7f7c105786814b0c4fcbfedb986f6a4ba41397f144d5100761ad2dbfa395b0382681565b5f80610f806121b2565b9050805f015f9054906101000a900460ff1691505090565b6201518081565b5f80610fa9611cd5565b9050805f015f8473ffffffffffffffffffffffffffffffffffffffff1673ffffffffffffffffffffffffffffffffffffffff1681526020019081526020015f2054915050919050565b610ffa6120bd565b6110035f6121d9565b565b5f4190505f73ffffffffffffffffffffffffffffffffffffffff168173ffffffffffffffffffffffffffffffffffffffff1603611077576040517f08c379a000000000000000000000000000000000000000000000000000000000815260040161106e9061410a565b60405180910390fd5b5f611080610e78565b600a61108c9190613f73565b600a6110989190613fbd565b90506110a482826122aa565b5050565b6110ba826110b4611cfc565b83612329565b6110c48282611e2c565b5050565b5f6110d2826123bb565b9050919050565b6110e16120bd565b6110e961240e565b565b5f6060805f805f60605f6110fd61247d565b90505f801b815f015414801561111857505f801b8160010154145b611157576040517f08c379a000000000000000000000000000000000000000000000000000000000815260040161114e90614172565b60405180910390fd5b61115f6124a4565b611167612542565b46305f801b5f67ffffffffffffffff81111561118657611185613927565b5b6040519080825280602002602001820160405280156111b45781602001602082028036833780820191505090505b507f0f0000000000000000000000000000000000000000000000000000000000000095949392919097509750975097509750975097505090919293949596565b5f806111fe6125e0565b9050805f015f9054906101000a900473ffffffffffffffffffffffffffffffffffffffff1691505090565b5f80611233611e05565b9050805f015f8581526020019081526020015f205f015f8473ffffffffffffffffffffffffffffffffffffffff1673ffffffffffffffffffffffffffffffffffffffff1681526020019081526020015f205f9054906101000a900460ff1691505092915050565b60605f6112a5611cd5565b90508060040180546112b690613ad2565b80601f01602080910402602001604051908101604052809291908181526020018280546112e290613ad2565b801561132d5780601f106113045761010080835404028352916020019161132d565b820191905f5260205f20905b81548152906001019060200180831161131057829003601f168201915b505050505091505090565b5f801b81565b5f8073ffffffffffffffffffffffffffffffffffffffff168373ffffffffffffffffffffffffffffffffffffffff16036113ad576040517f08c379a00000000000000000000000000000000000000000000000000000000081526004016113a490613bb4565b60405180910390fd5b5f82116113ef576040517f08c379a00000000000000000000000000000000000000000000000000000000081526004016113e690613c42565b60405180910390fd5b816113f933610f9f565b101561143a576040517f08c379a000000000000000000000000000000000000000000000000000000000815260040161143190613cd0565b60405180910390fd5b611445338484611d15565b6001905092915050565b5f611458612607565b90505f815f0160089054906101000a900460ff161590505f825f015f9054906101000a900467ffffffffffffffff1690505f808267ffffffffffffffff161480156114a05750825b90505f60018367ffffffffffffffff161480156114d357505f3073ffffffffffffffffffffffffffffffffffffffff163b145b9050811580156114e1575080155b15611518576040517ff92ee8a900000000000000000000000000000000000000000000000000000000815260040160405180910390fd5b6001855f015f6101000a81548167ffffffffffffffff021916908367ffffffffffffffff1602179055508315611565576001855f0160086101000a81548160ff0219169083151502179055505b6115d96040518060400160405280600981526020017f42616e6b546f6b656e00000000000000000000000000000000000000000000008152506040518060400160405280600481526020017f42414e4b0000000000000000000000000000000000000000000000000000000081525061262e565b6115e1612644565b6115e961264e565b6116276040518060400160405280600981526020017f42616e6b546f6b656e0000000000000000000000000000000000000000000000815250612660565b61162f6126aa565b611638336126b4565b855f806101000a81548173ffffffffffffffffffffffffffffffffffffffff021916908373ffffffffffffffffffffffffffffffffffffffff1602179055506116835f801b33611ebf565b506116ae7f7c105786814b0c4fcbfedb986f6a4ba41397f144d5100761ad2dbfa395b0382687611ebf565b508315611709575f855f0160086101000a81548160ff0219169083151502179055507fc7f505b2f371ae2175ee4913f4499e1f2633a7b5936321eed1cdaeb6115181d2600160405161170091906141e5565b60405180910390a15b505050505050565b64e8d4a5100081565b7f7c105786814b0c4fcbfedb986f6a4ba41397f144d5100761ad2dbfa395b0382661174481611eab565b6201518060025f8473ffffffffffffffffffffffffffffffffffffffff1673ffffffffffffffffffffffffffffffffffffffff1681526020019081526020015f205f015461179291906141fe565b4210156117d4576040517f08c379a00000000000000000000000000000000000000000000000000000000081526004016117cb9061427b565b60405180910390fd5b6117e38264e8d4a510006122aa565b4260025f8473ffffffffffffffffffffffffffffffffffffffff1673ffffffffffffffffffffffffffffffffffffffff1681526020019081526020015f205f01819055505050565b8342111561187057836040517f62791302000000000000000000000000000000000000000000000000000000008152600401611867919061349a565b60405180910390fd5b5f7f6e71edae12b1b97f4d1f60370fef10105fa2faae0126114a169c64845d6126c988888861189e8c6126c8565b896040516020016118b496959493929190614299565b6040516020818303038152906040528051906020012090505f6118d682612728565b90505f6118e582878787612741565b90508973ffffffffffffffffffffffffffffffffffffffff168173ffffffffffffffffffffffffffffffffffffffff161461195957808a6040517f4b800e460000000000000000000000000000000000000000000000000000000081526004016119509291906142f8565b60405180910390fd5b6119648a8a8a611d03565b50505050505050505050565b61197982610a89565b61198281611eab565b61198c8383611fc5565b50505050565b6001602052815f5260405f2081815481106119ab575f80fd5b905f5260205f2090600202015f9150915050805f0154908060010180546119d190613ad2565b80601f01602080910402602001604051908101604052809291908181526020018280546119fd90613ad2565b8015611a485780601f10611a1f57610100808354040283529160200191611a48565b820191905f5260205f20905b815481529060010190602001808311611a2b57829003601f168201915b5050505050905082565b5f80611a5c611cd5565b9050806001015f8573ffffffffffffffffffffffffffffffffffffffff1673ffffffffffffffffffffffffffffffffffffffff1681526020019081526020015f205f8473ffffffffffffffffffffffffffffffffffffffff1673ffffffffffffffffffffffffffffffffffffffff1681526020019081526020015f205491505092915050565b5f8211611b24576040517f08c379a0000000000000000000000000000000000000000000000000000000008152600401611b1b90613e26565b60405180910390fd5b60015f3373ffffffffffffffffffffffffffffffffffffffff1673ffffffffffffffffffffffffffffffffffffffff1681526020019081526020015f20604051806040016040528084815260200183815250908060018154018082558091505060019003905f5260205f2090600202015f909190919091505f820151815f01556020820151816001019081611bb991906144b3565b505050611be433611bc8610e78565b600a611bd49190613f73565b84611bdf9190613fbd565b6122aa565b5050565b611bf06120bd565b5f73ffffffffffffffffffffffffffffffffffffffff168173ffffffffffffffffffffffffffffffffffffffff1603611c60575f6040517f1e4fbdf7000000000000000000000000000000000000000000000000000000008152600401611c579190613660565b60405180910390fd5b611c69816121d9565b50565b5f7f01ffc9a7000000000000000000000000000000000000000000000000000000007bffffffffffffffffffffffffffffffffffffffffffffffffffffffff1916827bffffffffffffffffffffffffffffffffffffffffffffffffffffffff1916149050919050565b5f7f52c63247e1f47db19d5ce0460030c497f067ca4cebf71ba98eeadabe20bace00905090565b5f33905090565b611d10838383600161276f565b505050565b5f73ffffffffffffffffffffffffffffffffffffffff168373ffffffffffffffffffffffffffffffffffffffff1603611d85575f6040517f96c6fd1e000000000000000000000000000000000000000000000000000000008152600401611d7c9190613660565b60405180910390fd5b5f73ffffffffffffffffffffffffffffffffffffffff168273ffffffffffffffffffffffffffffffffffffffff1603611df5575f6040517fec442f05000000000000000000000000000000000000000000000000000000008152600401611dec9190613660565b60405180910390fd5b611e0083838361294c565b505050565b5f7f02dd7bc7dec4dceedda775e58dd541e08a116c6c53815c0bd028192f7b626800905090565b5f73ffffffffffffffffffffffffffffffffffffffff168273ffffffffffffffffffffffffffffffffffffffff1603611e9c575f6040517f96c6fd1e000000000000000000000000000000000000000000000000000000008152600401611e939190613660565b60405180910390fd5b611ea7825f8361294c565b5050565b611ebc81611eb7611cfc565b61295c565b50565b5f80611ec9611e05565b9050611ed58484611229565b611fac576001815f015f8681526020019081526020015f205f015f8573ffffffffffffffffffffffffffffffffffffffff1673ffffffffffffffffffffffffffffffffffffffff1681526020019081526020015f205f6101000a81548160ff021916908315150217905550611f48611cfc565b73ffffffffffffffffffffffffffffffffffffffff168373ffffffffffffffffffffffffffffffffffffffff16857f2f8788117e7eff1d82e926ec794901d17c78024a50270940304540a733656f0d60405160405180910390a46001915050611fb1565b5f9150505b92915050565b5f611fc06129ad565b905090565b5f80611fcf611e05565b9050611fdb8484611229565b156120b2575f815f015f8681526020019081526020015f205f015f8573ffffffffffffffffffffffffffffffffffffffff1673ffffffffffffffffffffffffffffffffffffffff1681526020019081526020015f205f6101000a81548160ff02191690831515021790555061204e611cfc565b73ffffffffffffffffffffffffffffffffffffffff168373ffffffffffffffffffffffffffffffffffffffff16857ff6391f5c32d9c69d2a47ea670b442974b53935d1edc7fd64eb21e047a839171b60405160405180910390a460019150506120b7565b5f9150505b92915050565b6120c5611cfc565b73ffffffffffffffffffffffffffffffffffffffff166120e36111f4565b73ffffffffffffffffffffffffffffffffffffffff161461214257612106611cfc565b6040517f118cdaa70000000000000000000000000000000000000000000000000000000081526004016121399190613660565b60405180910390fd5b565b61214c612a10565b5f6121556121b2565b90505f815f015f6101000a81548160ff0219169083151502179055507f5db9ee0a495bf2e6ff9c91a7834c1ba4fdd244a5e8aa4e537bd38aeae4b073aa61219a611cfc565b6040516121a79190613660565b60405180910390a150565b5f7fcd5ed15c6e187e77e9aee88184c21f4f2182ab5827cb3b7e07fbedcd63f03300905090565b5f6121e26125e0565b90505f815f015f9054906101000a900473ffffffffffffffffffffffffffffffffffffffff16905082825f015f6101000a81548173ffffffffffffffffffffffffffffffffffffffff021916908373ffffffffffffffffffffffffffffffffffffffff1602179055508273ffffffffffffffffffffffffffffffffffffffff168173ffffffffffffffffffffffffffffffffffffffff167f8be0079c531659141344cd1fd0a4f28419497f9722a3daafe3b4186f6b6457e060405160405180910390a3505050565b5f73ffffffffffffffffffffffffffffffffffffffff168273ffffffffffffffffffffffffffffffffffffffff160361231a575f6040517fec442f050000000000000000000000000000000000000000000000000000000081526004016123119190613660565b60405180910390fd5b6123255f838361294c565b5050565b5f6123348484611a52565b90507fffffffffffffffffffffffffffffffffffffffffffffffffffffffffffffffff81146123b557818110156123a6578281836040517ffb8f41b200000000000000000000000000000000000000000000000000000000815260040161239d93929190614582565b60405180910390fd5b6123b484848484035f61276f565b5b50505050565b5f806123c5612a50565b9050805f015f8473ffffffffffffffffffffffffffffffffffffffff1673ffffffffffffffffffffffffffffffffffffffff1681526020019081526020015f2054915050919050565b612416612a77565b5f61241f6121b2565b90506001815f015f6101000a81548160ff0219169083151502179055507f62e78cea01bee320cd4e420270b5ea74000d11b0c9f74754ebdbfc544b05a258612465611cfc565b6040516124729190613660565b60405180910390a150565b5f7fa16a46d94261c7517cc8ff89f61c0ce93598e3c849801011dee649a6a557d100905090565b60605f6124af61247d565b90508060020180546124c090613ad2565b80601f01602080910402602001604051908101604052809291908181526020018280546124ec90613ad2565b80156125375780601f1061250e57610100808354040283529160200191612537565b820191905f5260205f20905b81548152906001019060200180831161251a57829003601f168201915b505050505091505090565b60605f61254d61247d565b905080600301805461255e90613ad2565b80601f016020809104026020016040519081016040528092919081815260200182805461258a90613ad2565b80156125d55780601f106125ac576101008083540402835291602001916125d5565b820191905f5260205f20905b8154815290600101906020018083116125b857829003601f168201915b505050505091505090565b5f7f9016d09d72d40fdae2fd8ceac6b6234c7706214fd39c1cd1e609a0528c199300905090565b5f7ff0c57e16840df040f15088dc2f81fe391c3923bec73e23a9662efc9c229c6a00905090565b612636612ab8565b6126408282612af8565b5050565b61264c612ab8565b565b612656612ab8565b61265e612b34565b565b612668612ab8565b6126a7816040518060400160405280600181526020017f3100000000000000000000000000000000000000000000000000000000000000815250612b64565b50565b6126b2612ab8565b565b6126bc612ab8565b6126c581612bb5565b50565b5f806126d2612a50565b9050805f015f8473ffffffffffffffffffffffffffffffffffffffff1673ffffffffffffffffffffffffffffffffffffffff1681526020019081526020015f205f81548092919060010191905055915050919050565b5f61273a612734611fb7565b83612c39565b9050919050565b5f805f8061275188888888612c79565b9250925092506127618282612d60565b829350505050949350505050565b5f612778611cd5565b90505f73ffffffffffffffffffffffffffffffffffffffff168573ffffffffffffffffffffffffffffffffffffffff16036127ea575f6040517fe602df050000000000000000000000000000000000000000000000000000000081526004016127e19190613660565b60405180910390fd5b5f73ffffffffffffffffffffffffffffffffffffffff168473ffffffffffffffffffffffffffffffffffffffff160361285a575f6040517f94280d620000000000000000000000000000000000000000000000000000000081526004016128519190613660565b60405180910390fd5b82816001015f8773ffffffffffffffffffffffffffffffffffffffff1673ffffffffffffffffffffffffffffffffffffffff1681526020019081526020015f205f8673ffffffffffffffffffffffffffffffffffffffff1673ffffffffffffffffffffffffffffffffffffffff1681526020019081526020015f20819055508115612945578373ffffffffffffffffffffffffffffffffffffffff168573ffffffffffffffffffffffffffffffffffffffff167f8c5be1e5ebec7d5bd14f71427d1e84f3dd0314c0f7b2291e5b200ac8c7c3b9258560405161293c919061349a565b60405180910390a35b5050505050565b612957838383612ec2565b505050565b6129668282611229565b6129a95780826040517fe2517d3f0000000000000000000000000000000000000000000000000000000081526004016129a09291906145b7565b60405180910390fd5b5050565b5f7f8b73c3c69bb8fe3d512ecc4cf759cc79239f7b179b0ffacaa9a75d522b39400f6129d7612eda565b6129df612f50565b46306040516020016129f59594939291906145de565b60405160208183030381529060405280519060200120905090565b612a18610f76565b612a4e576040517f8dfc202b00000000000000000000000000000000000000000000000000000000815260040160405180910390fd5b565b5f7f5ab42ced628888259c08ac98db1eb0cf702fc1501344311d8b100cd1bfe4bb00905090565b612a7f610f76565b15612ab6576040517fd93c066500000000000000000000000000000000000000000000000000000000815260040160405180910390fd5b565b612ac0612fc7565b612af6576040517fd7e6bcf800000000000000000000000000000000000000000000000000000000815260040160405180910390fd5b565b612b00612ab8565b5f612b09611cd5565b905082816003019081612b1c91906144b3565b5081816004019081612b2e91906144b3565b50505050565b612b3c612ab8565b5f612b456121b2565b90505f815f015f6101000a81548160ff02191690831515021790555050565b612b6c612ab8565b5f612b7561247d565b905082816002019081612b8891906144b3565b5081816003019081612b9a91906144b3565b505f801b815f01819055505f801b8160010181905550505050565b612bbd612ab8565b5f73ffffffffffffffffffffffffffffffffffffffff168173ffffffffffffffffffffffffffffffffffffffff1603612c2d575f6040517f1e4fbdf7000000000000000000000000000000000000000000000000000000008152600401612c249190613660565b60405180910390fd5b612c36816121d9565b50565b5f6040517f190100000000000000000000000000000000000000000000000000000000000081528360028201528260228201526042812091505092915050565b5f805f7f7fffffffffffffffffffffffffffffff5d576e7357a4501ddfe92f46681b20a0845f1c1115612cb5575f600385925092509250612d56565b5f6001888888886040515f8152602001604052604051612cd8949392919061462f565b6020604051602081039080840390855afa158015612cf8573d5f803e3d5ffd5b5050506020604051035190505f73ffffffffffffffffffffffffffffffffffffffff168173ffffffffffffffffffffffffffffffffffffffff1603612d49575f60015f801b93509350935050612d56565b805f805f1b935093509350505b9450945094915050565b5f6003811115612d7357612d72614672565b5b826003811115612d8657612d85614672565b5b0315612ebe5760016003811115612da057612d9f614672565b5b826003811115612db357612db2614672565b5b03612dea576040517ff645eedf00000000000000000000000000000000000000000000000000000000815260040160405180910390fd5b60026003811115612dfe57612dfd614672565b5b826003811115612e1157612e10614672565b5b03612e5557805f1c6040517ffce698f7000000000000000000000000000000000000000000000000000000008152600401612e4c919061349a565b60405180910390fd5b600380811115612e6857612e67614672565b5b826003811115612e7b57612e7a614672565b5b03612ebd57806040517fd78bce0c000000000000000000000000000000000000000000000000000000008152600401612eb4919061359b565b60405180910390fd5b5b5050565b612eca612a77565b612ed5838383612fe5565b505050565b5f80612ee461247d565b90505f612eef6124a4565b90505f81511115612f0b57808051906020012092505050612f4d565b5f825f015490505f801b8114612f2657809350505050612f4d565b7fc5d2460186f7233c927e7db2dcc703c0e500b653ca82273b7bfad8045d85a47093505050505b90565b5f80612f5a61247d565b90505f612f65612542565b90505f81511115612f8157808051906020012092505050612fc4565b5f826001015490505f801b8114612f9d57809350505050612fc4565b7fc5d2460186f7233c927e7db2dcc703c0e500b653ca82273b7bfad8045d85a47093505050505b90565b5f612fd0612607565b5f0160089054906101000a900460ff16905090565b5f612fee611cd5565b90505f73ffffffffffffffffffffffffffffffffffffffff168473ffffffffffffffffffffffffffffffffffffffff16036130425781816002015f82825461303691906141fe565b92505081905550613114565b5f815f015f8673ffffffffffffffffffffffffffffffffffffffff1673ffffffffffffffffffffffffffffffffffffffff1681526020019081526020015f20549050828110156130cd578481846040517fe450d38c0000000000000000000000000000000000000000000000000000000081526004016130c493929190614582565b60405180910390fd5b828103825f015f8773ffffffffffffffffffffffffffffffffffffffff1673ffffffffffffffffffffffffffffffffffffffff1681526020019081526020015f2081905550505b5f73ffffffffffffffffffffffffffffffffffffffff168373ffffffffffffffffffffffffffffffffffffffff160361315d5781816002015f82825403925050819055506131a9565b81815f015f8573ffffffffffffffffffffffffffffffffffffffff1673ffffffffffffffffffffffffffffffffffffffff1681526020019081526020015f205f82825401925050819055505b8273ffffffffffffffffffffffffffffffffffffffff168473ffffffffffffffffffffffffffffffffffffffff167fddf252ad1be2c89b69c2b068fc378daa952ba7f163c4a11628f55a4df523b3ef84604051613206919061349a565b60405180910390a350505050565b50805461322090613ad2565b5f825580601f10613231575061324e565b601f0160209004905f5260205f209081019061324d9190613251565b5b50565b5b80821115613268575f815f905550600101613252565b5090565b5f604051905090565b5f80fd5b5f80fd5b5f7fffffffff0000000000000000000000000000000000000000000000000000000082169050919050565b6132b18161327d565b81146132bb575f80fd5b50565b5f813590506132cc816132a8565b92915050565b5f602082840312156132e7576132e6613275565b5b5f6132f4848285016132be565b91505092915050565b5f8115159050919050565b613311816132fd565b82525050565b5f60208201905061332a5f830184613308565b92915050565b5f81519050919050565b5f82825260208201905092915050565b8281835e5f83830152505050565b5f601f19601f8301169050919050565b5f61337282613330565b61337c818561333a565b935061338c81856020860161334a565b61339581613358565b840191505092915050565b5f6020820190508181035f8301526133b88184613368565b905092915050565b5f73ffffffffffffffffffffffffffffffffffffffff82169050919050565b5f6133e9826133c0565b9050919050565b6133f9816133df565b8114613403575f80fd5b50565b5f81359050613414816133f0565b92915050565b5f819050919050565b61342c8161341a565b8114613436575f80fd5b50565b5f8135905061344781613423565b92915050565b5f806040838503121561346357613462613275565b5b5f61347085828601613406565b925050602061348185828601613439565b9150509250929050565b6134948161341a565b82525050565b5f6020820190506134ad5f83018461348b565b92915050565b5f602082840312156134c8576134c7613275565b5b5f6134d584828501613406565b91505092915050565b5f805f606084860312156134f5576134f4613275565b5b5f61350286828701613406565b935050602061351386828701613406565b925050604061352486828701613439565b9150509250925092565b5f819050919050565b6135408161352e565b811461354a575f80fd5b50565b5f8135905061355b81613537565b92915050565b5f6020828403121561357657613575613275565b5b5f6135838482850161354d565b91505092915050565b6135958161352e565b82525050565b5f6020820190506135ae5f83018461358c565b92915050565b5f602082840312156135c9576135c8613275565b5b5f6135d684828501613439565b91505092915050565b5f80604083850312156135f5576135f4613275565b5b5f6136028582860161354d565b925050602061361385828601613406565b9150509250929050565b5f60ff82169050919050565b6136328161361d565b82525050565b5f60208201905061364b5f830184613629565b92915050565b61365a816133df565b82525050565b5f6020820190506136735f830184613651565b92915050565b5f7fff0000000000000000000000000000000000000000000000000000000000000082169050919050565b6136ad81613679565b82525050565b5f81519050919050565b5f82825260208201905092915050565b5f819050602082019050919050565b6136e58161341a565b82525050565b5f6136f683836136dc565b60208301905092915050565b5f602082019050919050565b5f613718826136b3565b61372281856136bd565b935061372d836136cd565b805f5b8381101561375d57815161374488826136eb565b975061374f83613702565b925050600181019050613730565b5085935050505092915050565b5f60e08201905061377d5f83018a6136a4565b818103602083015261378f8189613368565b905081810360408301526137a38188613368565b90506137b2606083018761348b565b6137bf6080830186613651565b6137cc60a083018561358c565b81810360c08301526137de818461370e565b905098975050505050505050565b6137f58161361d565b81146137ff575f80fd5b50565b5f81359050613810816137ec565b92915050565b5f805f805f805f60e0888a03121561383157613830613275565b5b5f61383e8a828b01613406565b975050602061384f8a828b01613406565b96505060406138608a828b01613439565b95505060606138718a828b01613439565b94505060806138828a828b01613802565b93505060a06138938a828b0161354d565b92505060c06138a48a828b0161354d565b91505092959891949750929550565b5f6040820190506138c65f83018561348b565b81810360208301526138d88184613368565b90509392505050565b5f80604083850312156138f7576138f6613275565b5b5f61390485828601613406565b925050602061391585828601613406565b9150509250929050565b5f80fd5b5f80fd5b7f4e487b71000000000000000000000000000000000000000000000000000000005f52604160045260245ffd5b61395d82613358565b810181811067ffffffffffffffff8211171561397c5761397b613927565b5b80604052505050565b5f61398e61326c565b905061399a8282613954565b919050565b5f67ffffffffffffffff8211156139b9576139b8613927565b5b6139c282613358565b9050602081019050919050565b828183375f83830152505050565b5f6139ef6139ea8461399f565b613985565b905082815260208101848484011115613a0b57613a0a613923565b5b613a168482856139cf565b509392505050565b5f82601f830112613a3257613a3161391f565b5b8135613a428482602086016139dd565b91505092915050565b5f8060408385031215613a6157613a60613275565b5b5f613a6e85828601613439565b925050602083013567ffffffffffffffff811115613a8f57613a8e613279565b5b613a9b85828601613a1e565b9150509250929050565b7f4e487b71000000000000000000000000000000000000000000000000000000005f52602260045260245ffd5b5f6002820490506001821680613ae957607f821691505b602082108103613afc57613afb613aa5565b5b50919050565b7f5472616e736665722066726f6d20746865207a65726f206164647265737300005f82015250565b5f613b36601e8361333a565b9150613b4182613b02565b602082019050919050565b5f6020820190508181035f830152613b6381613b2a565b9050919050565b7f5472616e7366657220746f20746865207a65726f2061646472657373000000005f82015250565b5f613b9e601c8361333a565b9150613ba982613b6a565b602082019050919050565b5f6020820190508181035f830152613bcb81613b92565b9050919050565b7f5472616e7366657220616d6f756e74206d7573742062652067726561746572205f8201527f7468616e207a65726f0000000000000000000000000000000000000000000000602082015250565b5f613c2c60298361333a565b9150613c3782613bd2565b604082019050919050565b5f6020820190508181035f830152613c5981613c20565b9050919050565b7f496e73756666696369656e742062616c616e636520666f72207472616e7366655f8201527f7200000000000000000000000000000000000000000000000000000000000000602082015250565b5f613cba60218361333a565b9150613cc582613c60565b604082019050919050565b5f6020820190508181035f830152613ce781613cae565b9050919050565b7f5472616e7366657220616d6f756e74206578636565647320616c6c6f77616e635f8201527f6500000000000000000000000000000000000000000000000000000000000000602082015250565b5f613d4860218361333a565b9150613d5382613cee565b604082019050919050565b5f6020820190508181035f830152613d7581613d3c565b9050919050565b7f4e487b71000000000000000000000000000000000000000000000000000000005f52601160045260245ffd5b5f613db38261341a565b9150613dbe8361341a565b9250828203905081811115613dd657613dd5613d7c565b5b92915050565b7f416d6f756e74206d7573742062652067726561746572207468616e207a65726f5f82015250565b5f613e1060208361333a565b9150613e1b82613ddc565b602082019050919050565b5f6020820190508181035f830152613e3d81613e04565b9050919050565b5f8160011c9050919050565b5f808291508390505b6001851115613e9957808604811115613e7557613e74613d7c565b5b6001851615613e845780820291505b8081029050613e9285613e44565b9450613e59565b94509492505050565b5f82613eb15760019050613f6c565b81613ebe575f9050613f6c565b8160018114613ed45760028114613ede57613f0d565b6001915050613f6c565b60ff841115613ef057613eef613d7c565b5b8360020a915084821115613f0757613f06613d7c565b5b50613f6c565b5060208310610133831016604e8410600b8410161715613f425782820a905083811115613f3d57613f3c613d7c565b5b613f6c565b613f4f8484846001613e50565b92509050818404811115613f6657613f65613d7c565b5b81810290505b9392505050565b5f613f7d8261341a565b9150613f888361361d565b9250613fb57fffffffffffffffffffffffffffffffffffffffffffffffffffffffffffffffff8484613ea2565b905092915050565b5f613fc78261341a565b9150613fd28361341a565b9250828202613fe08161341a565b91508282048414831517613ff757613ff6613d7c565b5b5092915050565b7f496e73756666696369656e7420746f6b656e2062616c616e63650000000000005f82015250565b5f614032601a8361333a565b915061403d82613ffe565b602082019050919050565b5f6020820190508181035f83015261405f81614026565b9050919050565b7f4e487b71000000000000000000000000000000000000000000000000000000005f52603260045260245ffd5b7f4e487b71000000000000000000000000000000000000000000000000000000005f52603160045260245ffd5b7f496e76616c6964206d696e6572206164647265737300000000000000000000005f82015250565b5f6140f460158361333a565b91506140ff826140c0565b602082019050919050565b5f6020820190508181035f830152614121816140e8565b9050919050565b7f4549503731323a20556e696e697469616c697a656400000000000000000000005f82015250565b5f61415c60158361333a565b915061416782614128565b602082019050919050565b5f6020820190508181035f83015261418981614150565b9050919050565b5f819050919050565b5f67ffffffffffffffff82169050919050565b5f819050919050565b5f6141cf6141ca6141c584614190565b6141ac565b614199565b9050919050565b6141df816141b5565b82525050565b5f6020820190506141f85f8301846141d6565b92915050565b5f6142088261341a565b91506142138361341a565b925082820190508082111561422b5761422a613d7c565b5b92915050565b7f52657761726420696e74657276616c20686173206e6f742070617373656400005f82015250565b5f614265601e8361333a565b915061427082614231565b602082019050919050565b5f6020820190508181035f83015261429281614259565b9050919050565b5f60c0820190506142ac5f83018961358c565b6142b96020830188613651565b6142c66040830187613651565b6142d3606083018661348b565b6142e0608083018561348b565b6142ed60a083018461348b565b979650505050505050565b5f60408201905061430b5f830185613651565b6143186020830184613651565b9392505050565b5f819050815f5260205f209050919050565b5f6020601f8301049050919050565b5f82821b905092915050565b5f6008830261437b7fffffffffffffffffffffffffffffffffffffffffffffffffffffffffffffffff82614340565b6143858683614340565b95508019841693508086168417925050509392505050565b5f6143b76143b26143ad8461341a565b6141ac565b61341a565b9050919050565b5f819050919050565b6143d08361439d565b6143e46143dc826143be565b84845461434c565b825550505050565b5f90565b6143f86143ec565b6144038184846143c7565b505050565b5b818110156144265761441b5f826143f0565b600181019050614409565b5050565b601f82111561446b5761443c8161431f565b61444584614331565b81016020851015614454578190505b61446861446085614331565b830182614408565b50505b505050565b5f82821c905092915050565b5f61448b5f1984600802614470565b1980831691505092915050565b5f6144a3838361447c565b9150826002028217905092915050565b6144bc82613330565b67ffffffffffffffff8111156144d5576144d4613927565b5b6144df8254613ad2565b6144ea82828561442a565b5f60209050601f83116001811461451b575f8415614509578287015190505b6145138582614498565b86555061457a565b601f1984166145298661431f565b5f5b828110156145505784890151825560018201915060208501945060208101905061452b565b8683101561456d5784890151614569601f89168261447c565b8355505b6001600288020188555050505b505050505050565b5f6060820190506145955f830186613651565b6145a2602083018561348b565b6145af604083018461348b565b949350505050565b5f6040820190506145ca5f830185613651565b6145d7602083018461358c565b9392505050565b5f60a0820190506145f15f83018861358c565b6145fe602083018761358c565b61460b604083018661358c565b614618606083018561348b565b6146256080830184613651565b9695505050505050565b5f6080820190506146425f83018761358c565b61464f6020830186613629565b61465c604083018561358c565b614669606083018461358c565b95945050505050565b7f4e487b71000000000000000000000000000000000000000000000000000000005f52602160045260245ffdfea26469706673582212208047b9a078a649d414c4c185394c1f23ccddb44e9d47c4d6267f00fc7eca04dc64736f6c63430008190033",
			"opcodes": "PUSH1 0x80 PUSH1 0x40 MSTORE CALLVALUE DUP1 ISZERO PUSH2 0xF JUMPI PUSH0 DUP1 REVERT JUMPDEST POP PUSH2 0x1E PUSH2 0x23 PUSH1 0x20 SHL PUSH1 0x20 SHR JUMP JUMPDEST PUSH2 0x183 JUMP JUMPDEST PUSH0 PUSH2 0x32 PUSH2 0x121 PUSH1 0x20 SHL PUSH1 0x20 SHR JUMP JUMPDEST SWAP1 POP DUP1 PUSH0 ADD PUSH1 0x8 SWAP1 SLOAD SWAP1 PUSH2 0x100 EXP SWAP1 DIV PUSH1 0xFF AND ISZERO PUSH2 0x7C JUMPI PUSH1 0x40 MLOAD PUSH32 0xF92EE8A900000000000000000000000000000000000000000000000000000000 DUP2 MSTORE PUSH1 0x4 ADD PUSH1 0x40 MLOAD DUP1 SWAP2 SUB SWAP1 REVERT JUMPDEST PUSH8 0xFFFFFFFFFFFFFFFF DUP1 AND DUP2 PUSH0 ADD PUSH0 SWAP1 SLOAD SWAP1 PUSH2 0x100 EXP SWAP1 DIV PUSH8 0xFFFFFFFFFFFFFFFF AND PUSH8 0xFFFFFFFFFFFFFFFF AND EQ PUSH2 0x11E JUMPI PUSH8 0xFFFFFFFFFFFFFFFF DUP2 PUSH0 ADD PUSH0 PUSH2 0x100 EXP DUP2 SLOAD DUP2 PUSH8 0xFFFFFFFFFFFFFFFF MUL NOT AND SWAP1 DUP4 PUSH8 0xFFFFFFFFFFFFFFFF AND MUL OR SWAP1 SSTORE POP PUSH32 0xC7F505B2F371AE2175EE4913F4499E1F2633A7B5936321EED1CDAEB6115181D2 PUSH8 0xFFFFFFFFFFFFFFFF PUSH1 0x40 MLOAD PUSH2 0x115 SWAP2 SWAP1 PUSH2 0x16A JUMP JUMPDEST PUSH1 0x40 MLOAD DUP1 SWAP2 SUB SWAP1 LOG1 JUMPDEST POP JUMP JUMPDEST PUSH0 PUSH32 0xF0C57E16840DF040F15088DC2F81FE391C3923BEC73E23A9662EFC9C229C6A00 SWAP1 POP SWAP1 JUMP JUMPDEST PUSH0 PUSH8 0xFFFFFFFFFFFFFFFF DUP3 AND SWAP1 POP SWAP2 SWAP1 POP JUMP JUMPDEST PUSH2 0x164 DUP2 PUSH2 0x148 JUMP JUMPDEST DUP3 MSTORE POP POP JUMP JUMPDEST PUSH0 PUSH1 0x20 DUP3 ADD SWAP1 POP PUSH2 0x17D PUSH0 DUP4 ADD DUP5 PUSH2 0x15B JUMP JUMPDEST SWAP3 SWAP2 POP POP JUMP JUMPDEST PUSH2 0x46D5 DUP1 PUSH2 0x190 PUSH0 CODECOPY PUSH0 RETURN INVALID PUSH1 0x80 PUSH1 0x40 MSTORE CALLVALUE DUP1 ISZERO PUSH2 0xF JUMPI PUSH0 DUP1 REVERT JUMPDEST POP PUSH1 0x4 CALLDATASIZE LT PUSH2 0x23B JUMPI PUSH0 CALLDATALOAD PUSH1 0xE0 SHR DUP1 PUSH4 0x715018A6 GT PUSH2 0x139 JUMPI DUP1 PUSH4 0xA9059CBB GT PUSH2 0xB6 JUMPI DUP1 PUSH4 0xD547741F GT PUSH2 0x7A JUMPI DUP1 PUSH4 0xD547741F EQ PUSH2 0x683 JUMPI DUP1 PUSH4 0xD6D68177 EQ PUSH2 0x69F JUMPI DUP1 PUSH4 0xDD62ED3E EQ PUSH2 0x6D0 JUMPI DUP1 PUSH4 0xF1215D25 EQ PUSH2 0x700 JUMPI DUP1 PUSH4 0xF2FDE38B EQ PUSH2 0x71C JUMPI PUSH2 0x23B JUMP JUMPDEST DUP1 PUSH4 0xA9059CBB EQ PUSH2 0x5E1 JUMPI DUP1 PUSH4 0xC4D66DE8 EQ PUSH2 0x611 JUMPI DUP1 PUSH4 0xC5B779DE EQ PUSH2 0x62D JUMPI DUP1 PUSH4 0xD0B3A9BD EQ PUSH2 0x64B JUMPI DUP1 PUSH4 0xD505ACCF EQ PUSH2 0x667 JUMPI PUSH2 0x23B JUMP JUMPDEST DUP1 PUSH4 0x84B0196E GT PUSH2 0xFD JUMPI DUP1 PUSH4 0x84B0196E EQ PUSH2 0x533 JUMPI DUP1 PUSH4 0x8DA5CB5B EQ PUSH2 0x557 JUMPI DUP1 PUSH4 0x91D14854 EQ PUSH2 0x575 JUMPI DUP1 PUSH4 0x95D89B41 EQ PUSH2 0x5A5 JUMPI DUP1 PUSH4 0xA217FDDF EQ PUSH2 0x5C3 JUMPI PUSH2 0x23B JUMP JUMPDEST DUP1 PUSH4 0x715018A6 EQ PUSH2 0x4C9 JUMPI DUP1 PUSH4 0x776C6A7B EQ PUSH2 0x4D3 JUMPI DUP1 PUSH4 0x79CC6790 EQ PUSH2 0x4DD JUMPI DUP1 PUSH4 0x7ECEBE00 EQ PUSH2 0x4F9 JUMPI DUP1 PUSH4 0x8456CB59 EQ PUSH2 0x529 JUMPI PUSH2 0x23B JUMP JUMPDEST DUP1 PUSH4 0x313CE567 GT PUSH2 0x1C7 JUMPI DUP1 PUSH4 0x528FDC63 GT PUSH2 0x18B JUMPI DUP1 PUSH4 0x528FDC63 EQ PUSH2 0x421 JUMPI DUP1 PUSH4 0x56995D66 EQ PUSH2 0x43F JUMPI DUP1 PUSH4 0x5C975ABB EQ PUSH2 0x45D JUMPI DUP1 PUSH4 0x5DBDDA69 EQ PUSH2 0x47B JUMPI DUP1 PUSH4 0x70A08231 EQ PUSH2 0x499 JUMPI PUSH2 0x23B JUMP JUMPDEST DUP1 PUSH4 0x313CE567 EQ PUSH2 0x3A3 JUMPI DUP1 PUSH4 0x3644E515 EQ PUSH2 0x3C1 JUMPI DUP1 PUSH4 0x36568ABE EQ PUSH2 0x3DF JUMPI DUP1 PUSH4 0x3F4BA83A EQ PUSH2 0x3FB JUMPI DUP1 PUSH4 0x42966C68 EQ PUSH2 0x405 JUMPI PUSH2 0x23B JUMP JUMPDEST DUP1 PUSH4 0x189A5A17 GT PUSH2 0x20E JUMPI DUP1 PUSH4 0x189A5A17 EQ PUSH2 0x2DB JUMPI DUP1 PUSH4 0x23B872DD EQ PUSH2 0x30B JUMPI DUP1 PUSH4 0x248A9CA3 EQ PUSH2 0x33B JUMPI DUP1 PUSH4 0x2E1A7D4D EQ PUSH2 0x36B JUMPI DUP1 PUSH4 0x2F2FF15D EQ PUSH2 0x387 JUMPI PUSH2 0x23B JUMP JUMPDEST DUP1 PUSH4 0x1FFC9A7 EQ PUSH2 0x23F JUMPI DUP1 PUSH4 0x6FDDE03 EQ PUSH2 0x26F JUMPI DUP1 PUSH4 0x95EA7B3 EQ PUSH2 0x28D JUMPI DUP1 PUSH4 0x18160DDD EQ PUSH2 0x2BD JUMPI JUMPDEST PUSH0 DUP1 REVERT JUMPDEST PUSH2 0x259 PUSH1 0x4 DUP1 CALLDATASIZE SUB DUP2 ADD SWAP1 PUSH2 0x254 SWAP2 SWAP1 PUSH2 0x32D2 JUMP JUMPDEST PUSH2 0x738 JUMP JUMPDEST PUSH1 0x40 MLOAD PUSH2 0x266 SWAP2 SWAP1 PUSH2 0x3317 JUMP JUMPDEST PUSH1 0x40 MLOAD DUP1 SWAP2 SUB SWAP1 RETURN JUMPDEST PUSH2 0x277 PUSH2 0x7B1 JUMP JUMPDEST PUSH1 0x40 MLOAD PUSH2 0x284 SWAP2 SWAP1 PUSH2 0x33A0 JUMP JUMPDEST PUSH1 0x40 MLOAD DUP1 SWAP2 SUB SWAP1 RETURN JUMPDEST PUSH2 0x2A7 PUSH1 0x4 DUP1 CALLDATASIZE SUB DUP2 ADD SWAP1 PUSH2 0x2A2 SWAP2 SWAP1 PUSH2 0x344D JUMP JUMPDEST PUSH2 0x84F JUMP JUMPDEST PUSH1 0x40 MLOAD PUSH2 0x2B4 SWAP2 SWAP1 PUSH2 0x3317 JUMP JUMPDEST PUSH1 0x40 MLOAD DUP1 SWAP2 SUB SWAP1 RETURN JUMPDEST PUSH2 0x2C5 PUSH2 0x871 JUMP JUMPDEST PUSH1 0x40 MLOAD PUSH2 0x2D2 SWAP2 SWAP1 PUSH2 0x349A JUMP JUMPDEST PUSH1 0x40 MLOAD DUP1 SWAP2 SUB SWAP1 RETURN JUMPDEST PUSH2 0x2F5 PUSH1 0x4 DUP1 CALLDATASIZE SUB DUP2 ADD SWAP1 PUSH2 0x2F0 SWAP2 SWAP1 PUSH2 0x34B3 JUMP JUMPDEST PUSH2 0x888 JUMP JUMPDEST PUSH1 0x40 MLOAD PUSH2 0x302 SWAP2 SWAP1 PUSH2 0x349A JUMP JUMPDEST PUSH1 0x40 MLOAD DUP1 SWAP2 SUB SWAP1 RETURN JUMPDEST PUSH2 0x325 PUSH1 0x4 DUP1 CALLDATASIZE SUB DUP2 ADD SWAP1 PUSH2 0x320 SWAP2 SWAP1 PUSH2 0x34DE JUMP JUMPDEST PUSH2 0x8A2 JUMP JUMPDEST PUSH1 0x40 MLOAD PUSH2 0x332 SWAP2 SWAP1 PUSH2 0x3317 JUMP JUMPDEST PUSH1 0x40 MLOAD DUP1 SWAP2 SUB SWAP1 RETURN JUMPDEST PUSH2 0x355 PUSH1 0x4 DUP1 CALLDATASIZE SUB DUP2 ADD SWAP1 PUSH2 0x350 SWAP2 SWAP1 PUSH2 0x3561 JUMP JUMPDEST PUSH2 0xA89 JUMP JUMPDEST PUSH1 0x40 MLOAD PUSH2 0x362 SWAP2 SWAP1 PUSH2 0x359B JUMP JUMPDEST PUSH1 0x40 MLOAD DUP1 SWAP2 SUB SWAP1 RETURN JUMPDEST PUSH2 0x385 PUSH1 0x4 DUP1 CALLDATASIZE SUB DUP2 ADD SWAP1 PUSH2 0x380 SWAP2 SWAP1 PUSH2 0x35B4 JUMP JUMPDEST PUSH2 0xAB3 JUMP JUMPDEST STOP JUMPDEST PUSH2 0x3A1 PUSH1 0x4 DUP1 CALLDATASIZE SUB DUP2 ADD SWAP1 PUSH2 0x39C SWAP2 SWAP1 PUSH2 0x35DF JUMP JUMPDEST PUSH2 0xE56 JUMP JUMPDEST STOP JUMPDEST PUSH2 0x3AB PUSH2 0xE78 JUMP JUMPDEST PUSH1 0x40 MLOAD PUSH2 0x3B8 SWAP2 SWAP1 PUSH2 0x3638 JUMP JUMPDEST PUSH1 0x40 MLOAD DUP1 SWAP2 SUB SWAP1 RETURN JUMPDEST PUSH2 0x3C9 PUSH2 0xE80 JUMP JUMPDEST PUSH1 0x40 MLOAD PUSH2 0x3D6 SWAP2 SWAP1 PUSH2 0x359B JUMP JUMPDEST PUSH1 0x40 MLOAD DUP1 SWAP2 SUB SWAP1 RETURN JUMPDEST PUSH2 0x3F9 PUSH1 0x4 DUP1 CALLDATASIZE SUB DUP2 ADD SWAP1 PUSH2 0x3F4 SWAP2 SWAP1 PUSH2 0x35DF JUMP JUMPDEST PUSH2 0xE8E JUMP JUMPDEST STOP JUMPDEST PUSH2 0x403 PUSH2 0xF09 JUMP JUMPDEST STOP JUMPDEST PUSH2 0x41F PUSH1 0x4 DUP1 CALLDATASIZE SUB DUP2 ADD SWAP1 PUSH2 0x41A SWAP2 SWAP1 PUSH2 0x35B4 JUMP JUMPDEST PUSH2 0xF1B JUMP JUMPDEST STOP JUMPDEST PUSH2 0x429 PUSH2 0xF2F JUMP JUMPDEST PUSH1 0x40 MLOAD PUSH2 0x436 SWAP2 SWAP1 PUSH2 0x3660 JUMP JUMPDEST PUSH1 0x40 MLOAD DUP1 SWAP2 SUB SWAP1 RETURN JUMPDEST PUSH2 0x447 PUSH2 0xF52 JUMP JUMPDEST PUSH1 0x40 MLOAD PUSH2 0x454 SWAP2 SWAP1 PUSH2 0x359B JUMP JUMPDEST PUSH1 0x40 MLOAD DUP1 SWAP2 SUB SWAP1 RETURN JUMPDEST PUSH2 0x465 PUSH2 0xF76 JUMP JUMPDEST PUSH1 0x40 MLOAD PUSH2 0x472 SWAP2 SWAP1 PUSH2 0x3317 JUMP JUMPDEST PUSH1 0x40 MLOAD DUP1 SWAP2 SUB SWAP1 RETURN JUMPDEST PUSH2 0x483 PUSH2 0xF98 JUMP JUMPDEST PUSH1 0x40 MLOAD PUSH2 0x490 SWAP2 SWAP1 PUSH2 0x349A JUMP JUMPDEST PUSH1 0x40 MLOAD DUP1 SWAP2 SUB SWAP1 RETURN JUMPDEST PUSH2 0x4B3 PUSH1 0x4 DUP1 CALLDATASIZE SUB DUP2 ADD SWAP1 PUSH2 0x4AE SWAP2 SWAP1 PUSH2 0x34B3 JUMP JUMPDEST PUSH2 0xF9F JUMP JUMPDEST PUSH1 0x40 MLOAD PUSH2 0x4C0 SWAP2 SWAP1 PUSH2 0x349A JUMP JUMPDEST PUSH1 0x40 MLOAD DUP1 SWAP2 SUB SWAP1 RETURN JUMPDEST PUSH2 0x4D1 PUSH2 0xFF2 JUMP JUMPDEST STOP JUMPDEST PUSH2 0x4DB PUSH2 0x1005 JUMP JUMPDEST STOP JUMPDEST PUSH2 0x4F7 PUSH1 0x4 DUP1 CALLDATASIZE SUB DUP2 ADD SWAP1 PUSH2 0x4F2 SWAP2 SWAP1 PUSH2 0x344D JUMP JUMPDEST PUSH2 0x10A8 JUMP JUMPDEST STOP JUMPDEST PUSH2 0x513 PUSH1 0x4 DUP1 CALLDATASIZE SUB DUP2 ADD SWAP1 PUSH2 0x50E SWAP2 SWAP1 PUSH2 0x34B3 JUMP JUMPDEST PUSH2 0x10C8 JUMP JUMPDEST PUSH1 0x40 MLOAD PUSH2 0x520 SWAP2 SWAP1 PUSH2 0x349A JUMP JUMPDEST PUSH1 0x40 MLOAD DUP1 SWAP2 SUB SWAP1 RETURN JUMPDEST PUSH2 0x531 PUSH2 0x10D9 JUMP JUMPDEST STOP JUMPDEST PUSH2 0x53B PUSH2 0x10EB JUMP JUMPDEST PUSH1 0x40 MLOAD PUSH2 0x54E SWAP8 SWAP7 SWAP6 SWAP5 SWAP4 SWAP3 SWAP2 SWAP1 PUSH2 0x376A JUMP JUMPDEST PUSH1 0x40 MLOAD DUP1 SWAP2 SUB SWAP1 RETURN JUMPDEST PUSH2 0x55F PUSH2 0x11F4 JUMP JUMPDEST PUSH1 0x40 MLOAD PUSH2 0x56C SWAP2 SWAP1 PUSH2 0x3660 JUMP JUMPDEST PUSH1 0x40 MLOAD DUP1 SWAP2 SUB SWAP1 RETURN JUMPDEST PUSH2 0x58F PUSH1 0x4 DUP1 CALLDATASIZE SUB DUP2 ADD SWAP1 PUSH2 0x58A SWAP2 SWAP1 PUSH2 0x35DF JUMP JUMPDEST PUSH2 0x1229 JUMP JUMPDEST PUSH1 0x40 MLOAD PUSH2 0x59C SWAP2 SWAP1 PUSH2 0x3317 JUMP JUMPDEST PUSH1 0x40 MLOAD DUP1 SWAP2 SUB SWAP1 RETURN JUMPDEST PUSH2 0x5AD PUSH2 0x129A JUMP JUMPDEST PUSH1 0x40 MLOAD PUSH2 0x5BA SWAP2 SWAP1 PUSH2 0x33A0 JUMP JUMPDEST PUSH1 0x40 MLOAD DUP1 SWAP2 SUB SWAP1 RETURN JUMPDEST PUSH2 0x5CB PUSH2 0x1338 JUMP JUMPDEST PUSH1 0x40 MLOAD PUSH2 0x5D8 SWAP2 SWAP1 PUSH2 0x359B JUMP JUMPDEST PUSH1 0x40 MLOAD DUP1 SWAP2 SUB SWAP1 RETURN JUMPDEST PUSH2 0x5FB PUSH1 0x4 DUP1 CALLDATASIZE SUB DUP2 ADD SWAP1 PUSH2 0x5F6 SWAP2 SWAP1 PUSH2 0x344D JUMP JUMPDEST PUSH2 0x133E JUMP JUMPDEST PUSH1 0x40 MLOAD PUSH2 0x608 SWAP2 SWAP1 PUSH2 0x3317 JUMP JUMPDEST PUSH1 0x40 MLOAD DUP1 SWAP2 SUB SWAP1 RETURN JUMPDEST PUSH2 0x62B PUSH1 0x4 DUP1 CALLDATASIZE SUB DUP2 ADD SWAP1 PUSH2 0x626 SWAP2 SWAP1 PUSH2 0x34B3 JUMP JUMPDEST PUSH2 0x144F JUMP JUMPDEST STOP JUMPDEST PUSH2 0x635 PUSH2 0x1711 JUMP JUMPDEST PUSH1 0x40 MLOAD PUSH2 0x642 SWAP2 SWAP1 PUSH2 0x349A JUMP JUMPDEST PUSH1 0x40 MLOAD DUP1 SWAP2 SUB SWAP1 RETURN JUMPDEST PUSH2 0x665 PUSH1 0x4 DUP1 CALLDATASIZE SUB DUP2 ADD SWAP1 PUSH2 0x660 SWAP2 SWAP1 PUSH2 0x34B3 JUMP JUMPDEST PUSH2 0x171A JUMP JUMPDEST STOP JUMPDEST PUSH2 0x681 PUSH1 0x4 DUP1 CALLDATASIZE SUB DUP2 ADD SWAP1 PUSH2 0x67C SWAP2 SWAP1 PUSH2 0x3816 JUMP JUMPDEST PUSH2 0x182B JUMP JUMPDEST STOP JUMPDEST PUSH2 0x69D PUSH1 0x4 DUP1 CALLDATASIZE SUB DUP2 ADD SWAP1 PUSH2 0x698 SWAP2 SWAP1 PUSH2 0x35DF JUMP JUMPDEST PUSH2 0x1970 JUMP JUMPDEST STOP JUMPDEST PUSH2 0x6B9 PUSH1 0x4 DUP1 CALLDATASIZE SUB DUP2 ADD SWAP1 PUSH2 0x6B4 SWAP2 SWAP1 PUSH2 0x344D JUMP JUMPDEST PUSH2 0x1992 JUMP JUMPDEST PUSH1 0x40 MLOAD PUSH2 0x6C7 SWAP3 SWAP2 SWAP1 PUSH2 0x38B3 JUMP JUMPDEST PUSH1 0x40 MLOAD DUP1 SWAP2 SUB SWAP1 RETURN JUMPDEST PUSH2 0x6EA PUSH1 0x4 DUP1 CALLDATASIZE SUB DUP2 ADD SWAP1 PUSH2 0x6E5 SWAP2 SWAP1 PUSH2 0x38E1 JUMP JUMPDEST PUSH2 0x1A52 JUMP JUMPDEST PUSH1 0x40 MLOAD PUSH2 0x6F7 SWAP2 SWAP1 PUSH2 0x349A JUMP JUMPDEST PUSH1 0x40 MLOAD DUP1 SWAP2 SUB SWAP1 RETURN JUMPDEST PUSH2 0x71A PUSH1 0x4 DUP1 CALLDATASIZE SUB DUP2 ADD SWAP1 PUSH2 0x715 SWAP2 SWAP1 PUSH2 0x3A4B JUMP JUMPDEST PUSH2 0x1AE2 JUMP JUMPDEST STOP JUMPDEST PUSH2 0x736 PUSH1 0x4 DUP1 CALLDATASIZE SUB DUP2 ADD SWAP1 PUSH2 0x731 SWAP2 SWAP1 PUSH2 0x34B3 JUMP JUMPDEST PUSH2 0x1BE8 JUMP JUMPDEST STOP JUMPDEST PUSH0 PUSH32 0x7965DB0B00000000000000000000000000000000000000000000000000000000 PUSH28 0xFFFFFFFFFFFFFFFFFFFFFFFFFFFFFFFFFFFFFFFFFFFFFFFFFFFFFFFF NOT AND DUP3 PUSH28 0xFFFFFFFFFFFFFFFFFFFFFFFFFFFFFFFFFFFFFFFFFFFFFFFFFFFFFFFF NOT AND EQ DUP1 PUSH2 0x7AA JUMPI POP PUSH2 0x7A9 DUP3 PUSH2 0x1C6C JUMP JUMPDEST JUMPDEST SWAP1 POP SWAP2 SWAP1 POP JUMP JUMPDEST PUSH1 0x60 PUSH0 PUSH2 0x7BC PUSH2 0x1CD5 JUMP JUMPDEST SWAP1 POP DUP1 PUSH1 0x3 ADD DUP1 SLOAD PUSH2 0x7CD SWAP1 PUSH2 0x3AD2 JUMP JUMPDEST DUP1 PUSH1 0x1F ADD PUSH1 0x20 DUP1 SWAP2 DIV MUL PUSH1 0x20 ADD PUSH1 0x40 MLOAD SWAP1 DUP2 ADD PUSH1 0x40 MSTORE DUP1 SWAP3 SWAP2 SWAP1 DUP2 DUP2 MSTORE PUSH1 0x20 ADD DUP3 DUP1 SLOAD PUSH2 0x7F9 SWAP1 PUSH2 0x3AD2 JUMP JUMPDEST DUP1 ISZERO PUSH2 0x844 JUMPI DUP1 PUSH1 0x1F LT PUSH2 0x81B JUMPI PUSH2 0x100 DUP1 DUP4 SLOAD DIV MUL DUP4 MSTORE SWAP2 PUSH1 0x20 ADD SWAP2 PUSH2 0x844 JUMP JUMPDEST DUP3 ADD SWAP2 SWAP1 PUSH0 MSTORE PUSH1 0x20 PUSH0 KECCAK256 SWAP1 JUMPDEST DUP2 SLOAD DUP2 MSTORE SWAP1 PUSH1 0x1 ADD SWAP1 PUSH1 0x20 ADD DUP1 DUP4 GT PUSH2 0x827 JUMPI DUP3 SWAP1 SUB PUSH1 0x1F AND DUP3 ADD SWAP2 JUMPDEST POP POP POP POP POP SWAP2 POP POP SWAP1 JUMP JUMPDEST PUSH0 DUP1 PUSH2 0x859 PUSH2 0x1CFC JUMP JUMPDEST SWAP1 POP PUSH2 0x866 DUP2 DUP6 DUP6 PUSH2 0x1D03 JUMP JUMPDEST PUSH1 0x1 SWAP2 POP POP SWAP3 SWAP2 POP POP JUMP JUMPDEST PUSH0 DUP1 PUSH2 0x87B PUSH2 0x1CD5 JUMP JUMPDEST SWAP1 POP DUP1 PUSH1 0x2 ADD SLOAD SWAP2 POP POP SWAP1 JUMP JUMPDEST PUSH1 0x2 PUSH1 0x20 MSTORE DUP1 PUSH0 MSTORE PUSH1 0x40 PUSH0 KECCAK256 PUSH0 SWAP2 POP SWAP1 POP DUP1 PUSH0 ADD SLOAD SWAP1 POP DUP2 JUMP JUMPDEST PUSH0 DUP1 PUSH20 0xFFFFFFFFFFFFFFFFFFFFFFFFFFFFFFFFFFFFFFFF AND DUP5 PUSH20 0xFFFFFFFFFFFFFFFFFFFFFFFFFFFFFFFFFFFFFFFF AND SUB PUSH2 0x911 JUMPI PUSH1 0x40 MLOAD PUSH32 0x8C379A000000000000000000000000000000000000000000000000000000000 DUP2 MSTORE PUSH1 0x4 ADD PUSH2 0x908 SWAP1 PUSH2 0x3B4C JUMP JUMPDEST PUSH1 0x40 MLOAD DUP1 SWAP2 SUB SWAP1 REVERT JUMPDEST PUSH0 PUSH20 0xFFFFFFFFFFFFFFFFFFFFFFFFFFFFFFFFFFFFFFFF AND DUP4 PUSH20 0xFFFFFFFFFFFFFFFFFFFFFFFFFFFFFFFFFFFFFFFF AND SUB PUSH2 0x97F JUMPI PUSH1 0x40 MLOAD PUSH32 0x8C379A000000000000000000000000000000000000000000000000000000000 DUP2 MSTORE PUSH1 0x4 ADD PUSH2 0x976 SWAP1 PUSH2 0x3BB4 JUMP JUMPDEST PUSH1 0x40 MLOAD DUP1 SWAP2 SUB SWAP1 REVERT JUMPDEST PUSH0 DUP3 GT PUSH2 0x9C1 JUMPI PUSH1 0x40 MLOAD PUSH32 0x8C379A000000000000000000000000000000000000000000000000000000000 DUP2 MSTORE PUSH1 0x4 ADD PUSH2 0x9B8 SWAP1 PUSH2 0x3C42 JUMP JUMPDEST PUSH1 0x40 MLOAD DUP1 SWAP2 SUB SWAP1 REVERT JUMPDEST DUP2 PUSH2 0x9CB DUP6 PUSH2 0xF9F JUMP JUMPDEST LT ISZERO PUSH2 0xA0C JUMPI PUSH1 0x40 MLOAD PUSH32 0x8C379A000000000000000000000000000000000000000000000000000000000 DUP2 MSTORE PUSH1 0x4 ADD PUSH2 0xA03 SWAP1 PUSH2 0x3CD0 JUMP JUMPDEST PUSH1 0x40 MLOAD DUP1 SWAP2 SUB SWAP1 REVERT JUMPDEST PUSH0 PUSH2 0xA17 DUP6 CALLER PUSH2 0x1A52 JUMP JUMPDEST SWAP1 POP DUP3 DUP2 LT ISZERO PUSH2 0xA5C JUMPI PUSH1 0x40 MLOAD PUSH32 0x8C379A000000000000000000000000000000000000000000000000000000000 DUP2 MSTORE PUSH1 0x4 ADD PUSH2 0xA53 SWAP1 PUSH2 0x3D5E JUMP JUMPDEST PUSH1 0x40 MLOAD DUP1 SWAP2 SUB SWAP1 REVERT JUMPDEST PUSH2 0xA67 DUP6 DUP6 DUP6 PUSH2 0x1D15 JUMP JUMPDEST PUSH2 0xA7D DUP6 CALLER DUP6 DUP5 PUSH2 0xA78 SWAP2 SWAP1 PUSH2 0x3DA9 JUMP JUMPDEST PUSH2 0x1D03 JUMP JUMPDEST PUSH1 0x1 SWAP2 POP POP SWAP4 SWAP3 POP POP POP JUMP JUMPDEST PUSH0 DUP1 PUSH2 0xA93 PUSH2 0x1E05 JUMP JUMPDEST SWAP1 POP DUP1 PUSH0 ADD PUSH0 DUP5 DUP2 MSTORE PUSH1 0x20 ADD SWAP1 DUP2 MSTORE PUSH1 0x20 ADD PUSH0 KECCAK256 PUSH1 0x1 ADD SLOAD SWAP2 POP POP SWAP2 SWAP1 POP JUMP JUMPDEST PUSH0 DUP2 GT PUSH2 0xAF5 JUMPI PUSH1 0x40 MLOAD PUSH32 0x8C379A000000000000000000000000000000000000000000000000000000000 DUP2 MSTORE PUSH1 0x4 ADD PUSH2 0xAEC SWAP1 PUSH2 0x3E26 JUMP JUMPDEST PUSH1 0x40 MLOAD DUP1 SWAP2 SUB SWAP1 REVERT JUMPDEST PUSH0 PUSH2 0xAFE PUSH2 0xE78 JUMP JUMPDEST PUSH1 0xA PUSH2 0xB0A SWAP2 SWAP1 PUSH2 0x3F73 JUMP JUMPDEST DUP3 PUSH2 0xB15 SWAP2 SWAP1 PUSH2 0x3FBD JUMP JUMPDEST SWAP1 POP DUP1 PUSH2 0xB21 CALLER PUSH2 0xF9F JUMP JUMPDEST LT ISZERO PUSH2 0xB62 JUMPI PUSH1 0x40 MLOAD PUSH32 0x8C379A000000000000000000000000000000000000000000000000000000000 DUP2 MSTORE PUSH1 0x4 ADD PUSH2 0xB59 SWAP1 PUSH2 0x4048 JUMP JUMPDEST PUSH1 0x40 MLOAD DUP1 SWAP2 SUB SWAP1 REVERT JUMPDEST PUSH2 0xB6C CALLER DUP3 PUSH2 0x1E2C JUMP JUMPDEST PUSH0 DUP2 SWAP1 POP PUSH0 PUSH1 0x60 JUMPDEST PUSH0 DUP4 GT DUP1 ISZERO PUSH2 0xBC2 JUMPI POP PUSH0 PUSH1 0x1 PUSH0 CALLER PUSH20 0xFFFFFFFFFFFFFFFFFFFFFFFFFFFFFFFFFFFFFFFF AND PUSH20 0xFFFFFFFFFFFFFFFFFFFFFFFFFFFFFFFFFFFFFFFF AND DUP2 MSTORE PUSH1 0x20 ADD SWAP1 DUP2 MSTORE PUSH1 0x20 ADD PUSH0 KECCAK256 DUP1 SLOAD SWAP1 POP GT JUMPDEST ISZERO PUSH2 0xE4F JUMPI PUSH0 PUSH1 0x1 PUSH0 CALLER PUSH20 0xFFFFFFFFFFFFFFFFFFFFFFFFFFFFFFFFFFFFFFFF AND PUSH20 0xFFFFFFFFFFFFFFFFFFFFFFFFFFFFFFFFFFFFFFFF AND DUP2 MSTORE PUSH1 0x20 ADD SWAP1 DUP2 MSTORE PUSH1 0x20 ADD PUSH0 KECCAK256 PUSH1 0x1 DUP1 PUSH0 CALLER PUSH20 0xFFFFFFFFFFFFFFFFFFFFFFFFFFFFFFFFFFFFFFFF AND PUSH20 0xFFFFFFFFFFFFFFFFFFFFFFFFFFFFFFFFFFFFFFFF AND DUP2 MSTORE PUSH1 0x20 ADD SWAP1 DUP2 MSTORE PUSH1 0x20 ADD PUSH0 KECCAK256 DUP1 SLOAD SWAP1 POP PUSH2 0xC51 SWAP2 SWAP1 PUSH2 0x3DA9 JUMP JUMPDEST DUP2 SLOAD DUP2 LT PUSH2 0xC62 JUMPI PUSH2 0xC61 PUSH2 0x4066 JUMP JUMPDEST JUMPDEST SWAP1 PUSH0 MSTORE PUSH1 0x20 PUSH0 KECCAK256 SWAP1 PUSH1 0x2 MUL ADD SWAP1 POP DUP4 DUP2 PUSH0 ADD SLOAD GT PUSH2 0xD9C JUMPI DUP1 PUSH0 ADD SLOAD SWAP3 POP DUP1 PUSH1 0x1 ADD DUP1 SLOAD PUSH2 0xC8F SWAP1 PUSH2 0x3AD2 JUMP JUMPDEST DUP1 PUSH1 0x1F ADD PUSH1 0x20 DUP1 SWAP2 DIV MUL PUSH1 0x20 ADD PUSH1 0x40 MLOAD SWAP1 DUP2 ADD PUSH1 0x40 MSTORE DUP1 SWAP3 SWAP2 SWAP1 DUP2 DUP2 MSTORE PUSH1 0x20 ADD DUP3 DUP1 SLOAD PUSH2 0xCBB SWAP1 PUSH2 0x3AD2 JUMP JUMPDEST DUP1 ISZERO PUSH2 0xD06 JUMPI DUP1 PUSH1 0x1F LT PUSH2 0xCDD JUMPI PUSH2 0x100 DUP1 DUP4 SLOAD DIV MUL DUP4 MSTORE SWAP2 PUSH1 0x20 ADD SWAP2 PUSH2 0xD06 JUMP JUMPDEST DUP3 ADD SWAP2 SWAP1 PUSH0 MSTORE PUSH1 0x20 PUSH0 KECCAK256 SWAP1 JUMPDEST DUP2 SLOAD DUP2 MSTORE SWAP1 PUSH1 0x1 ADD SWAP1 PUSH1 0x20 ADD DUP1 DUP4 GT PUSH2 0xCE9 JUMPI DUP3 SWAP1 SUB PUSH1 0x1F AND DUP3 ADD SWAP2 JUMPDEST POP POP POP POP POP SWAP2 POP DUP1 PUSH0 ADD SLOAD DUP5 PUSH2 0xD1C SWAP2 SWAP1 PUSH2 0x3DA9 JUMP JUMPDEST SWAP4 POP PUSH1 0x1 PUSH0 CALLER PUSH20 0xFFFFFFFFFFFFFFFFFFFFFFFFFFFFFFFFFFFFFFFF AND PUSH20 0xFFFFFFFFFFFFFFFFFFFFFFFFFFFFFFFFFFFFFFFF AND DUP2 MSTORE PUSH1 0x20 ADD SWAP1 DUP2 MSTORE PUSH1 0x20 ADD PUSH0 KECCAK256 DUP1 SLOAD DUP1 PUSH2 0xD6B JUMPI PUSH2 0xD6A PUSH2 0x4093 JUMP JUMPDEST JUMPDEST PUSH1 0x1 SWAP1 SUB DUP2 DUP2 SWAP1 PUSH0 MSTORE PUSH1 0x20 PUSH0 KECCAK256 SWAP1 PUSH1 0x2 MUL ADD PUSH0 DUP1 DUP3 ADD PUSH0 SWAP1 SSTORE PUSH1 0x1 DUP3 ADD PUSH0 PUSH2 0xD93 SWAP2 SWAP1 PUSH2 0x3214 JUMP JUMPDEST POP POP SWAP1 SSTORE PUSH2 0xE49 JUMP JUMPDEST DUP4 SWAP3 POP DUP4 DUP2 PUSH0 ADD PUSH0 DUP3 DUP3 SLOAD PUSH2 0xDB1 SWAP2 SWAP1 PUSH2 0x3DA9 JUMP JUMPDEST SWAP3 POP POP DUP2 SWAP1 SSTORE POP PUSH0 SWAP4 POP DUP1 PUSH1 0x1 ADD DUP1 SLOAD PUSH2 0xDCA SWAP1 PUSH2 0x3AD2 JUMP JUMPDEST DUP1 PUSH1 0x1F ADD PUSH1 0x20 DUP1 SWAP2 DIV MUL PUSH1 0x20 ADD PUSH1 0x40 MLOAD SWAP1 DUP2 ADD PUSH1 0x40 MSTORE DUP1 SWAP3 SWAP2 SWAP1 DUP2 DUP2 MSTORE PUSH1 0x20 ADD DUP3 DUP1 SLOAD PUSH2 0xDF6 SWAP1 PUSH2 0x3AD2 JUMP JUMPDEST DUP1 ISZERO PUSH2 0xE41 JUMPI DUP1 PUSH1 0x1F LT PUSH2 0xE18 JUMPI PUSH2 0x100 DUP1 DUP4 SLOAD DIV MUL DUP4 MSTORE SWAP2 PUSH1 0x20 ADD SWAP2 PUSH2 0xE41 JUMP JUMPDEST DUP3 ADD SWAP2 SWAP1 PUSH0 MSTORE PUSH1 0x20 PUSH0 KECCAK256 SWAP1 JUMPDEST DUP2 SLOAD DUP2 MSTORE SWAP1 PUSH1 0x1 ADD SWAP1 PUSH1 0x20 ADD DUP1 DUP4 GT PUSH2 0xE24 JUMPI DUP3 SWAP1 SUB PUSH1 0x1F AND DUP3 ADD SWAP2 JUMPDEST POP POP POP POP POP SWAP2 POP JUMPDEST POP PUSH2 0xB74 JUMP JUMPDEST POP POP POP POP POP JUMP JUMPDEST PUSH2 0xE5F DUP3 PUSH2 0xA89 JUMP JUMPDEST PUSH2 0xE68 DUP2 PUSH2 0x1EAB JUMP JUMPDEST PUSH2 0xE72 DUP4 DUP4 PUSH2 0x1EBF JUMP JUMPDEST POP POP POP POP JUMP JUMPDEST PUSH0 PUSH1 0x8 SWAP1 POP SWAP1 JUMP JUMPDEST PUSH0 PUSH2 0xE89 PUSH2 0x1FB7 JUMP JUMPDEST SWAP1 POP SWAP1 JUMP JUMPDEST PUSH2 0xE96 PUSH2 0x1CFC JUMP JUMPDEST PUSH20 0xFFFFFFFFFFFFFFFFFFFFFFFFFFFFFFFFFFFFFFFF AND DUP2 PUSH20 0xFFFFFFFFFFFFFFFFFFFFFFFFFFFFFFFFFFFFFFFF AND EQ PUSH2 0xEFA JUMPI PUSH1 0x40 MLOAD PUSH32 0x6697B23200000000000000000000000000000000000000000000000000000000 DUP2 MSTORE PUSH1 0x4 ADD PUSH1 0x40 MLOAD DUP1 SWAP2 SUB SWAP1 REVERT JUMPDEST PUSH2 0xF04 DUP3 DUP3 PUSH2 0x1FC5 JUMP JUMPDEST POP POP POP JUMP JUMPDEST PUSH2 0xF11 PUSH2 0x20BD JUMP JUMPDEST PUSH2 0xF19 PUSH2 0x2144 JUMP JUMPDEST JUMP JUMPDEST PUSH2 0xF2C PUSH2 0xF26 PUSH2 0x1CFC JUMP JUMPDEST DUP3 PUSH2 0x1E2C JUMP JUMPDEST POP JUMP JUMPDEST PUSH0 DUP1 SLOAD SWAP1 PUSH2 0x100 EXP SWAP1 DIV PUSH20 0xFFFFFFFFFFFFFFFFFFFFFFFFFFFFFFFFFFFFFFFF AND DUP2 JUMP JUMPDEST PUSH32 0x7C105786814B0C4FCBFEDB986F6A4BA41397F144D5100761AD2DBFA395B03826 DUP2 JUMP JUMPDEST PUSH0 DUP1 PUSH2 0xF80 PUSH2 0x21B2 JUMP JUMPDEST SWAP1 POP DUP1 PUSH0 ADD PUSH0 SWAP1 SLOAD SWAP1 PUSH2 0x100 EXP SWAP1 DIV PUSH1 0xFF AND SWAP2 POP POP SWAP1 JUMP JUMPDEST PUSH3 0x15180 DUP2 JUMP JUMPDEST PUSH0 DUP1 PUSH2 0xFA9 PUSH2 0x1CD5 JUMP JUMPDEST SWAP1 POP DUP1 PUSH0 ADD PUSH0 DUP5 PUSH20 0xFFFFFFFFFFFFFFFFFFFFFFFFFFFFFFFFFFFFFFFF AND PUSH20 0xFFFFFFFFFFFFFFFFFFFFFFFFFFFFFFFFFFFFFFFF AND DUP2 MSTORE PUSH1 0x20 ADD SWAP1 DUP2 MSTORE PUSH1 0x20 ADD PUSH0 KECCAK256 SLOAD SWAP2 POP POP SWAP2 SWAP1 POP JUMP JUMPDEST PUSH2 0xFFA PUSH2 0x20BD JUMP JUMPDEST PUSH2 0x1003 PUSH0 PUSH2 0x21D9 JUMP JUMPDEST JUMP JUMPDEST PUSH0 COINBASE SWAP1 POP PUSH0 PUSH20 0xFFFFFFFFFFFFFFFFFFFFFFFFFFFFFFFFFFFFFFFF AND DUP2 PUSH20 0xFFFFFFFFFFFFFFFFFFFFFFFFFFFFFFFFFFFFFFFF AND SUB PUSH2 0x1077 JUMPI PUSH1 0x40 MLOAD PUSH32 0x8C379A000000000000000000000000000000000000000000000000000000000 DUP2 MSTORE PUSH1 0x4 ADD PUSH2 0x106E SWAP1 PUSH2 0x410A JUMP JUMPDEST PUSH1 0x40 MLOAD DUP1 SWAP2 SUB SWAP1 REVERT JUMPDEST PUSH0 PUSH2 0x1080 PUSH2 0xE78 JUMP JUMPDEST PUSH1 0xA PUSH2 0x108C SWAP2 SWAP1 PUSH2 0x3F73 JUMP JUMPDEST PUSH1 0xA PUSH2 0x1098 SWAP2 SWAP1 PUSH2 0x3FBD JUMP JUMPDEST SWAP1 POP PUSH2 0x10A4 DUP3 DUP3 PUSH2 0x22AA JUMP JUMPDEST POP POP JUMP JUMPDEST PUSH2 0x10BA DUP3 PUSH2 0x10B4 PUSH2 0x1CFC JUMP JUMPDEST DUP4 PUSH2 0x2329 JUMP JUMPDEST PUSH2 0x10C4 DUP3 DUP3 PUSH2 0x1E2C JUMP JUMPDEST POP POP JUMP JUMPDEST PUSH0 PUSH2 0x10D2 DUP3 PUSH2 0x23BB JUMP JUMPDEST SWAP1 POP SWAP2 SWAP1 POP JUMP JUMPDEST PUSH2 0x10E1 PUSH2 0x20BD JUMP JUMPDEST PUSH2 0x10E9 PUSH2 0x240E JUMP JUMPDEST JUMP JUMPDEST PUSH0 PUSH1 0x60 DUP1 PUSH0 DUP1 PUSH0 PUSH1 0x60 PUSH0 PUSH2 0x10FD PUSH2 0x247D JUMP JUMPDEST SWAP1 POP PUSH0 DUP1 SHL DUP2 PUSH0 ADD SLOAD EQ DUP1 ISZERO PUSH2 0x1118 JUMPI POP PUSH0 DUP1 SHL DUP2 PUSH1 0x1 ADD SLOAD EQ JUMPDEST PUSH2 0x1157 JUMPI PUSH1 0x40 MLOAD PUSH32 0x8C379A000000000000000000000000000000000000000000000000000000000 DUP2 MSTORE PUSH1 0x4 ADD PUSH2 0x114E SWAP1 PUSH2 0x4172 JUMP JUMPDEST PUSH1 0x40 MLOAD DUP1 SWAP2 SUB SWAP1 REVERT JUMPDEST PUSH2 0x115F PUSH2 0x24A4 JUMP JUMPDEST PUSH2 0x1167 PUSH2 0x2542 JUMP JUMPDEST CHAINID ADDRESS PUSH0 DUP1 SHL PUSH0 PUSH8 0xFFFFFFFFFFFFFFFF DUP2 GT ISZERO PUSH2 0x1186 JUMPI PUSH2 0x1185 PUSH2 0x3927 JUMP JUMPDEST JUMPDEST PUSH1 0x40 MLOAD SWAP1 DUP1 DUP3 MSTORE DUP1 PUSH1 0x20 MUL PUSH1 0x20 ADD DUP3 ADD PUSH1 0x40 MSTORE DUP1 ISZERO PUSH2 0x11B4 JUMPI DUP2 PUSH1 0x20 ADD PUSH1 0x20 DUP3 MUL DUP1 CALLDATASIZE DUP4 CALLDATACOPY DUP1 DUP3 ADD SWAP2 POP POP SWAP1 POP JUMPDEST POP PUSH32 0xF00000000000000000000000000000000000000000000000000000000000000 SWAP6 SWAP5 SWAP4 SWAP3 SWAP2 SWAP1 SWAP8 POP SWAP8 POP SWAP8 POP SWAP8 POP SWAP8 POP SWAP8 POP SWAP8 POP POP SWAP1 SWAP2 SWAP3 SWAP4 SWAP5 SWAP6 SWAP7 JUMP JUMPDEST PUSH0 DUP1 PUSH2 0x11FE PUSH2 0x25E0 JUMP JUMPDEST SWAP1 POP DUP1 PUSH0 ADD PUSH0 SWAP1 SLOAD SWAP1 PUSH2 0x100 EXP SWAP1 DIV PUSH20 0xFFFFFFFFFFFFFFFFFFFFFFFFFFFFFFFFFFFFFFFF AND SWAP2 POP POP SWAP1 JUMP JUMPDEST PUSH0 DUP1 PUSH2 0x1233 PUSH2 0x1E05 JUMP JUMPDEST SWAP1 POP DUP1 PUSH0 ADD PUSH0 DUP6 DUP2 MSTORE PUSH1 0x20 ADD SWAP1 DUP2 MSTORE PUSH1 0x20 ADD PUSH0 KECCAK256 PUSH0 ADD PUSH0 DUP5 PUSH20 0xFFFFFFFFFFFFFFFFFFFFFFFFFFFFFFFFFFFFFFFF AND PUSH20 0xFFFFFFFFFFFFFFFFFFFFFFFFFFFFFFFFFFFFFFFF AND DUP2 MSTORE PUSH1 0x20 ADD SWAP1 DUP2 MSTORE PUSH1 0x20 ADD PUSH0 KECCAK256 PUSH0 SWAP1 SLOAD SWAP1 PUSH2 0x100 EXP SWAP1 DIV PUSH1 0xFF AND SWAP2 POP POP SWAP3 SWAP2 POP POP JUMP JUMPDEST PUSH1 0x60 PUSH0 PUSH2 0x12A5 PUSH2 0x1CD5 JUMP JUMPDEST SWAP1 POP DUP1 PUSH1 0x4 ADD DUP1 SLOAD PUSH2 0x12B6 SWAP1 PUSH2 0x3AD2 JUMP JUMPDEST DUP1 PUSH1 0x1F ADD PUSH1 0x20 DUP1 SWAP2 DIV MUL PUSH1 0x20 ADD PUSH1 0x40 MLOAD SWAP1 DUP2 ADD PUSH1 0x40 MSTORE DUP1 SWAP3 SWAP2 SWAP1 DUP2 DUP2 MSTORE PUSH1 0x20 ADD DUP3 DUP1 SLOAD PUSH2 0x12E2 SWAP1 PUSH2 0x3AD2 JUMP JUMPDEST DUP1 ISZERO PUSH2 0x132D JUMPI DUP1 PUSH1 0x1F LT PUSH2 0x1304 JUMPI PUSH2 0x100 DUP1 DUP4 SLOAD DIV MUL DUP4 MSTORE SWAP2 PUSH1 0x20 ADD SWAP2 PUSH2 0x132D JUMP JUMPDEST DUP3 ADD SWAP2 SWAP1 PUSH0 MSTORE PUSH1 0x20 PUSH0 KECCAK256 SWAP1 JUMPDEST DUP2 SLOAD DUP2 MSTORE SWAP1 PUSH1 0x1 ADD SWAP1 PUSH1 0x20 ADD DUP1 DUP4 GT PUSH2 0x1310 JUMPI DUP3 SWAP1 SUB PUSH1 0x1F AND DUP3 ADD SWAP2 JUMPDEST POP POP POP POP POP SWAP2 POP POP SWAP1 JUMP JUMPDEST PUSH0 DUP1 SHL DUP2 JUMP JUMPDEST PUSH0 DUP1 PUSH20 0xFFFFFFFFFFFFFFFFFFFFFFFFFFFFFFFFFFFFFFFF AND DUP4 PUSH20 0xFFFFFFFFFFFFFFFFFFFFFFFFFFFFFFFFFFFFFFFF AND SUB PUSH2 0x13AD JUMPI PUSH1 0x40 MLOAD PUSH32 0x8C379A000000000000000000000000000000000000000000000000000000000 DUP2 MSTORE PUSH1 0x4 ADD PUSH2 0x13A4 SWAP1 PUSH2 0x3BB4 JUMP JUMPDEST PUSH1 0x40 MLOAD DUP1 SWAP2 SUB SWAP1 REVERT JUMPDEST PUSH0 DUP3 GT PUSH2 0x13EF JUMPI PUSH1 0x40 MLOAD PUSH32 0x8C379A000000000000000000000000000000000000000000000000000000000 DUP2 MSTORE PUSH1 0x4 ADD PUSH2 0x13E6 SWAP1 PUSH2 0x3C42 JUMP JUMPDEST PUSH1 0x40 MLOAD DUP1 SWAP2 SUB SWAP1 REVERT JUMPDEST DUP2 PUSH2 0x13F9 CALLER PUSH2 0xF9F JUMP JUMPDEST LT ISZERO PUSH2 0x143A JUMPI PUSH1 0x40 MLOAD PUSH32 0x8C379A000000000000000000000000000000000000000000000000000000000 DUP2 MSTORE PUSH1 0x4 ADD PUSH2 0x1431 SWAP1 PUSH2 0x3CD0 JUMP JUMPDEST PUSH1 0x40 MLOAD DUP1 SWAP2 SUB SWAP1 REVERT JUMPDEST PUSH2 0x1445 CALLER DUP5 DUP5 PUSH2 0x1D15 JUMP JUMPDEST PUSH1 0x1 SWAP1 POP SWAP3 SWAP2 POP POP JUMP JUMPDEST PUSH0 PUSH2 0x1458 PUSH2 0x2607 JUMP JUMPDEST SWAP1 POP PUSH0 DUP2 PUSH0 ADD PUSH1 0x8 SWAP1 SLOAD SWAP1 PUSH2 0x100 EXP SWAP1 DIV PUSH1 0xFF AND ISZERO SWAP1 POP PUSH0 DUP3 PUSH0 ADD PUSH0 SWAP1 SLOAD SWAP1 PUSH2 0x100 EXP SWAP1 DIV PUSH8 0xFFFFFFFFFFFFFFFF AND SWAP1 POP PUSH0 DUP1 DUP3 PUSH8 0xFFFFFFFFFFFFFFFF AND EQ DUP1 ISZERO PUSH2 0x14A0 JUMPI POP DUP3 JUMPDEST SWAP1 POP PUSH0 PUSH1 0x1 DUP4 PUSH8 0xFFFFFFFFFFFFFFFF AND EQ DUP1 ISZERO PUSH2 0x14D3 JUMPI POP PUSH0 ADDRESS PUSH20 0xFFFFFFFFFFFFFFFFFFFFFFFFFFFFFFFFFFFFFFFF AND EXTCODESIZE EQ JUMPDEST SWAP1 POP DUP2 ISZERO DUP1 ISZERO PUSH2 0x14E1 JUMPI POP DUP1 ISZERO JUMPDEST ISZERO PUSH2 0x1518 JUMPI PUSH1 0x40 MLOAD PUSH32 0xF92EE8A900000000000000000000000000000000000000000000000000000000 DUP2 MSTORE PUSH1 0x4 ADD PUSH1 0x40 MLOAD DUP1 SWAP2 SUB SWAP1 REVERT JUMPDEST PUSH1 0x1 DUP6 PUSH0 ADD PUSH0 PUSH2 0x100 EXP DUP2 SLOAD DUP2 PUSH8 0xFFFFFFFFFFFFFFFF MUL NOT AND SWAP1 DUP4 PUSH8 0xFFFFFFFFFFFFFFFF AND MUL OR SWAP1 SSTORE POP DUP4 ISZERO PUSH2 0x1565 JUMPI PUSH1 0x1 DUP6 PUSH0 ADD PUSH1 0x8 PUSH2 0x100 EXP DUP2 SLOAD DUP2 PUSH1 0xFF MUL NOT AND SWAP1 DUP4 ISZERO ISZERO MUL OR SWAP1 SSTORE POP JUMPDEST PUSH2 0x15D9 PUSH1 0x40 MLOAD DUP1 PUSH1 0x40 ADD PUSH1 0x40 MSTORE DUP1 PUSH1 0x9 DUP2 MSTORE PUSH1 0x20 ADD PUSH32 0x42616E6B546F6B656E0000000000000000000000000000000000000000000000 DUP2 MSTORE POP PUSH1 0x40 MLOAD DUP1 PUSH1 0x40 ADD PUSH1 0x40 MSTORE DUP1 PUSH1 0x4 DUP2 MSTORE PUSH1 0x20 ADD PUSH32 0x42414E4B00000000000000000000000000000000000000000000000000000000 DUP2 MSTORE POP PUSH2 0x262E JUMP JUMPDEST PUSH2 0x15E1 PUSH2 0x2644 JUMP JUMPDEST PUSH2 0x15E9 PUSH2 0x264E JUMP JUMPDEST PUSH2 0x1627 PUSH1 0x40 MLOAD DUP1 PUSH1 0x40 ADD PUSH1 0x40 MSTORE DUP1 PUSH1 0x9 DUP2 MSTORE PUSH1 0x20 ADD PUSH32 0x42616E6B546F6B656E0000000000000000000000000000000000000000000000 DUP2 MSTORE POP PUSH2 0x2660 JUMP JUMPDEST PUSH2 0x162F PUSH2 0x26AA JUMP JUMPDEST PUSH2 0x1638 CALLER PUSH2 0x26B4 JUMP JUMPDEST DUP6 PUSH0 DUP1 PUSH2 0x100 EXP DUP2 SLOAD DUP2 PUSH20 0xFFFFFFFFFFFFFFFFFFFFFFFFFFFFFFFFFFFFFFFF MUL NOT AND SWAP1 DUP4 PUSH20 0xFFFFFFFFFFFFFFFFFFFFFFFFFFFFFFFFFFFFFFFF AND MUL OR SWAP1 SSTORE POP PUSH2 0x1683 PUSH0 DUP1 SHL CALLER PUSH2 0x1EBF JUMP JUMPDEST POP PUSH2 0x16AE PUSH32 0x7C105786814B0C4FCBFEDB986F6A4BA41397F144D5100761AD2DBFA395B03826 DUP8 PUSH2 0x1EBF JUMP JUMPDEST POP DUP4 ISZERO PUSH2 0x1709 JUMPI PUSH0 DUP6 PUSH0 ADD PUSH1 0x8 PUSH2 0x100 EXP DUP2 SLOAD DUP2 PUSH1 0xFF MUL NOT AND SWAP1 DUP4 ISZERO ISZERO MUL OR SWAP1 SSTORE POP PUSH32 0xC7F505B2F371AE2175EE4913F4499E1F2633A7B5936321EED1CDAEB6115181D2 PUSH1 0x1 PUSH1 0x40 MLOAD PUSH2 0x1700 SWAP2 SWAP1 PUSH2 0x41E5 JUMP JUMPDEST PUSH1 0x40 MLOAD DUP1 SWAP2 SUB SWAP1 LOG1 JUMPDEST POP POP POP POP POP POP JUMP JUMPDEST PUSH5 0xE8D4A51000 DUP2 JUMP JUMPDEST PUSH32 0x7C105786814B0C4FCBFEDB986F6A4BA41397F144D5100761AD2DBFA395B03826 PUSH2 0x1744 DUP2 PUSH2 0x1EAB JUMP JUMPDEST PUSH3 0x15180 PUSH1 0x2 PUSH0 DUP5 PUSH20 0xFFFFFFFFFFFFFFFFFFFFFFFFFFFFFFFFFFFFFFFF AND PUSH20 0xFFFFFFFFFFFFFFFFFFFFFFFFFFFFFFFFFFFFFFFF AND DUP2 MSTORE PUSH1 0x20 ADD SWAP1 DUP2 MSTORE PUSH1 0x20 ADD PUSH0 KECCAK256 PUSH0 ADD SLOAD PUSH2 0x1792 SWAP2 SWAP1 PUSH2 0x41FE JUMP JUMPDEST TIMESTAMP LT ISZERO PUSH2 0x17D4 JUMPI PUSH1 0x40 MLOAD PUSH32 0x8C379A000000000000000000000000000000000000000000000000000000000 DUP2 MSTORE PUSH1 0x4 ADD PUSH2 0x17CB SWAP1 PUSH2 0x427B JUMP JUMPDEST PUSH1 0x40 MLOAD DUP1 SWAP2 SUB SWAP1 REVERT JUMPDEST PUSH2 0x17E3 DUP3 PUSH5 0xE8D4A51000 PUSH2 0x22AA JUMP JUMPDEST TIMESTAMP PUSH1 0x2 PUSH0 DUP5 PUSH20 0xFFFFFFFFFFFFFFFFFFFFFFFFFFFFFFFFFFFFFFFF AND PUSH20 0xFFFFFFFFFFFFFFFFFFFFFFFFFFFFFFFFFFFFFFFF AND DUP2 MSTORE PUSH1 0x20 ADD SWAP1 DUP2 MSTORE PUSH1 0x20 ADD PUSH0 KECCAK256 PUSH0 ADD DUP2 SWAP1 SSTORE POP POP POP JUMP JUMPDEST DUP4 TIMESTAMP GT ISZERO PUSH2 0x1870 JUMPI DUP4 PUSH1 0x40 MLOAD PUSH32 0x6279130200000000000000000000000000000000000000000000000000000000 DUP2 MSTORE PUSH1 0x4 ADD PUSH2 0x1867 SWAP2 SWAP1 PUSH2 0x349A JUMP JUMPDEST PUSH1 0x40 MLOAD DUP1 SWAP2 SUB SWAP1 REVERT JUMPDEST PUSH0 PUSH32 0x6E71EDAE12B1B97F4D1F60370FEF10105FA2FAAE0126114A169C64845D6126C9 DUP9 DUP9 DUP9 PUSH2 0x189E DUP13 PUSH2 0x26C8 JUMP JUMPDEST DUP10 PUSH1 0x40 MLOAD PUSH1 0x20 ADD PUSH2 0x18B4 SWAP7 SWAP6 SWAP5 SWAP4 SWAP3 SWAP2 SWAP1 PUSH2 0x4299 JUMP JUMPDEST PUSH1 0x40 MLOAD PUSH1 0x20 DUP2 DUP4 SUB SUB DUP2 MSTORE SWAP1 PUSH1 0x40 MSTORE DUP1 MLOAD SWAP1 PUSH1 0x20 ADD KECCAK256 SWAP1 POP PUSH0 PUSH2 0x18D6 DUP3 PUSH2 0x2728 JUMP JUMPDEST SWAP1 POP PUSH0 PUSH2 0x18E5 DUP3 DUP8 DUP8 DUP8 PUSH2 0x2741 JUMP JUMPDEST SWAP1 POP DUP10 PUSH20 0xFFFFFFFFFFFFFFFFFFFFFFFFFFFFFFFFFFFFFFFF AND DUP2 PUSH20 0xFFFFFFFFFFFFFFFFFFFFFFFFFFFFFFFFFFFFFFFF AND EQ PUSH2 0x1959 JUMPI DUP1 DUP11 PUSH1 0x40 MLOAD PUSH32 0x4B800E4600000000000000000000000000000000000000000000000000000000 DUP2 MSTORE PUSH1 0x4 ADD PUSH2 0x1950 SWAP3 SWAP2 SWAP1 PUSH2 0x42F8 JUMP JUMPDEST PUSH1 0x40 MLOAD DUP1 SWAP2 SUB SWAP1 REVERT JUMPDEST PUSH2 0x1964 DUP11 DUP11 DUP11 PUSH2 0x1D03 JUMP JUMPDEST POP POP POP POP POP POP POP POP POP POP JUMP JUMPDEST PUSH2 0x1979 DUP3 PUSH2 0xA89 JUMP JUMPDEST PUSH2 0x1982 DUP2 PUSH2 0x1EAB JUMP JUMPDEST PUSH2 0x198C DUP4 DUP4 PUSH2 0x1FC5 JUMP JUMPDEST POP POP POP POP JUMP JUMPDEST PUSH1 0x1 PUSH1 0x20 MSTORE DUP2 PUSH0 MSTORE PUSH1 0x40 PUSH0 KECCAK256 DUP2 DUP2 SLOAD DUP2 LT PUSH2 0x19AB JUMPI PUSH0 DUP1 REVERT JUMPDEST SWAP1 PUSH0 MSTORE PUSH1 0x20 PUSH0 KECCAK256 SWAP1 PUSH1 0x2 MUL ADD PUSH0 SWAP2 POP SWAP2 POP POP DUP1 PUSH0 ADD SLOAD SWAP1 DUP1 PUSH1 0x1 ADD DUP1 SLOAD PUSH2 0x19D1 SWAP1 PUSH2 0x3AD2 JUMP JUMPDEST DUP1 PUSH1 0x1F ADD PUSH1 0x20 DUP1 SWAP2 DIV MUL PUSH1 0x20 ADD PUSH1 0x40 MLOAD SWAP1 DUP2 ADD PUSH1 0x40 MSTORE DUP1 SWAP3 SWAP2 SWAP1 DUP2 DUP2 MSTORE PUSH1 0x20 ADD DUP3 DUP1 SLOAD PUSH2 0x19FD SWAP1 PUSH2 0x3AD2 JUMP JUMPDEST DUP1 ISZERO PUSH2 0x1A48 JUMPI DUP1 PUSH1 0x1F LT PUSH2 0x1A1F JUMPI PUSH2 0x100 DUP1 DUP4 SLOAD DIV MUL DUP4 MSTORE SWAP2 PUSH1 0x20 ADD SWAP2 PUSH2 0x1A48 JUMP JUMPDEST DUP3 ADD SWAP2 SWAP1 PUSH0 MSTORE PUSH1 0x20 PUSH0 KECCAK256 SWAP1 JUMPDEST DUP2 SLOAD DUP2 MSTORE SWAP1 PUSH1 0x1 ADD SWAP1 PUSH1 0x20 ADD DUP1 DUP4 GT PUSH2 0x1A2B JUMPI DUP3 SWAP1 SUB PUSH1 0x1F AND DUP3 ADD SWAP2 JUMPDEST POP POP POP POP POP SWAP1 POP DUP3 JUMP JUMPDEST PUSH0 DUP1 PUSH2 0x1A5C PUSH2 0x1CD5 JUMP JUMPDEST SWAP1 POP DUP1 PUSH1 0x1 ADD PUSH0 DUP6 PUSH20 0xFFFFFFFFFFFFFFFFFFFFFFFFFFFFFFFFFFFFFFFF AND PUSH20 0xFFFFFFFFFFFFFFFFFFFFFFFFFFFFFFFFFFFFFFFF AND DUP2 MSTORE PUSH1 0x20 ADD SWAP1 DUP2 MSTORE PUSH1 0x20 ADD PUSH0 KECCAK256 PUSH0 DUP5 PUSH20 0xFFFFFFFFFFFFFFFFFFFFFFFFFFFFFFFFFFFFFFFF AND PUSH20 0xFFFFFFFFFFFFFFFFFFFFFFFFFFFFFFFFFFFFFFFF AND DUP2 MSTORE PUSH1 0x20 ADD SWAP1 DUP2 MSTORE PUSH1 0x20 ADD PUSH0 KECCAK256 SLOAD SWAP2 POP POP SWAP3 SWAP2 POP POP JUMP JUMPDEST PUSH0 DUP3 GT PUSH2 0x1B24 JUMPI PUSH1 0x40 MLOAD PUSH32 0x8C379A000000000000000000000000000000000000000000000000000000000 DUP2 MSTORE PUSH1 0x4 ADD PUSH2 0x1B1B SWAP1 PUSH2 0x3E26 JUMP JUMPDEST PUSH1 0x40 MLOAD DUP1 SWAP2 SUB SWAP1 REVERT JUMPDEST PUSH1 0x1 PUSH0 CALLER PUSH20 0xFFFFFFFFFFFFFFFFFFFFFFFFFFFFFFFFFFFFFFFF AND PUSH20 0xFFFFFFFFFFFFFFFFFFFFFFFFFFFFFFFFFFFFFFFF AND DUP2 MSTORE PUSH1 0x20 ADD SWAP1 DUP2 MSTORE PUSH1 0x20 ADD PUSH0 KECCAK256 PUSH1 0x40 MLOAD DUP1 PUSH1 0x40 ADD PUSH1 0x40 MSTORE DUP1 DUP5 DUP2 MSTORE PUSH1 0x20 ADD DUP4 DUP2 MSTORE POP SWAP1 DUP1 PUSH1 0x1 DUP2 SLOAD ADD DUP1 DUP3 SSTORE DUP1 SWAP2 POP POP PUSH1 0x1 SWAP1 SUB SWAP1 PUSH0 MSTORE PUSH1 0x20 PUSH0 KECCAK256 SWAP1 PUSH1 0x2 MUL ADD PUSH0 SWAP1 SWAP2 SWAP1 SWAP2 SWAP1 SWAP2 POP PUSH0 DUP3 ADD MLOAD DUP2 PUSH0 ADD SSTORE PUSH1 0x20 DUP3 ADD MLOAD DUP2 PUSH1 0x1 ADD SWAP1 DUP2 PUSH2 0x1BB9 SWAP2 SWAP1 PUSH2 0x44B3 JUMP JUMPDEST POP POP POP PUSH2 0x1BE4 CALLER PUSH2 0x1BC8 PUSH2 0xE78 JUMP JUMPDEST PUSH1 0xA PUSH2 0x1BD4 SWAP2 SWAP1 PUSH2 0x3F73 JUMP JUMPDEST DUP5 PUSH2 0x1BDF SWAP2 SWAP1 PUSH2 0x3FBD JUMP JUMPDEST PUSH2 0x22AA JUMP JUMPDEST POP POP JUMP JUMPDEST PUSH2 0x1BF0 PUSH2 0x20BD JUMP JUMPDEST PUSH0 PUSH20 0xFFFFFFFFFFFFFFFFFFFFFFFFFFFFFFFFFFFFFFFF AND DUP2 PUSH20 0xFFFFFFFFFFFFFFFFFFFFFFFFFFFFFFFFFFFFFFFF AND SUB PUSH2 0x1C60 JUMPI PUSH0 PUSH1 0x40 MLOAD PUSH32 0x1E4FBDF700000000000000000000000000000000000000000000000000000000 DUP2 MSTORE PUSH1 0x4 ADD PUSH2 0x1C57 SWAP2 SWAP1 PUSH2 0x3660 JUMP JUMPDEST PUSH1 0x40 MLOAD DUP1 SWAP2 SUB SWAP1 REVERT JUMPDEST PUSH2 0x1C69 DUP2 PUSH2 0x21D9 JUMP JUMPDEST POP JUMP JUMPDEST PUSH0 PUSH32 0x1FFC9A700000000000000000000000000000000000000000000000000000000 PUSH28 0xFFFFFFFFFFFFFFFFFFFFFFFFFFFFFFFFFFFFFFFFFFFFFFFFFFFFFFFF NOT AND DUP3 PUSH28 0xFFFFFFFFFFFFFFFFFFFFFFFFFFFFFFFFFFFFFFFFFFFFFFFFFFFFFFFF NOT AND EQ SWAP1 POP SWAP2 SWAP1 POP JUMP JUMPDEST PUSH0 PUSH32 0x52C63247E1F47DB19D5CE0460030C497F067CA4CEBF71BA98EEADABE20BACE00 SWAP1 POP SWAP1 JUMP JUMPDEST PUSH0 CALLER SWAP1 POP SWAP1 JUMP JUMPDEST PUSH2 0x1D10 DUP4 DUP4 DUP4 PUSH1 0x1 PUSH2 0x276F JUMP JUMPDEST POP POP POP JUMP JUMPDEST PUSH0 PUSH20 0xFFFFFFFFFFFFFFFFFFFFFFFFFFFFFFFFFFFFFFFF AND DUP4 PUSH20 0xFFFFFFFFFFFFFFFFFFFFFFFFFFFFFFFFFFFFFFFF AND SUB PUSH2 0x1D85 JUMPI PUSH0 PUSH1 0x40 MLOAD PUSH32 0x96C6FD1E00000000000000000000000000000000000000000000000000000000 DUP2 MSTORE PUSH1 0x4 ADD PUSH2 0x1D7C SWAP2 SWAP1 PUSH2 0x3660 JUMP JUMPDEST PUSH1 0x40 MLOAD DUP1 SWAP2 SUB SWAP1 REVERT JUMPDEST PUSH0 PUSH20 0xFFFFFFFFFFFFFFFFFFFFFFFFFFFFFFFFFFFFFFFF AND DUP3 PUSH20 0xFFFFFFFFFFFFFFFFFFFFFFFFFFFFFFFFFFFFFFFF AND SUB PUSH2 0x1DF5 JUMPI PUSH0 PUSH1 0x40 MLOAD PUSH32 0xEC442F0500000000000000000000000000000000000000000000000000000000 DUP2 MSTORE PUSH1 0x4 ADD PUSH2 0x1DEC SWAP2 SWAP1 PUSH2 0x3660 JUMP JUMPDEST PUSH1 0x40 MLOAD DUP1 SWAP2 SUB SWAP1 REVERT JUMPDEST PUSH2 0x1E00 DUP4 DUP4 DUP4 PUSH2 0x294C JUMP JUMPDEST POP POP POP JUMP JUMPDEST PUSH0 PUSH32 0x2DD7BC7DEC4DCEEDDA775E58DD541E08A116C6C53815C0BD028192F7B626800 SWAP1 POP SWAP1 JUMP JUMPDEST PUSH0 PUSH20 0xFFFFFFFFFFFFFFFFFFFFFFFFFFFFFFFFFFFFFFFF AND DUP3 PUSH20 0xFFFFFFFFFFFFFFFFFFFFFFFFFFFFFFFFFFFFFFFF AND SUB PUSH2 0x1E9C JUMPI PUSH0 PUSH1 0x40 MLOAD PUSH32 0x96C6FD1E00000000000000000000000000000000000000000000000000000000 DUP2 MSTORE PUSH1 0x4 ADD PUSH2 0x1E93 SWAP2 SWAP1 PUSH2 0x3660 JUMP JUMPDEST PUSH1 0x40 MLOAD DUP1 SWAP2 SUB SWAP1 REVERT JUMPDEST PUSH2 0x1EA7 DUP3 PUSH0 DUP4 PUSH2 0x294C JUMP JUMPDEST POP POP JUMP JUMPDEST PUSH2 0x1EBC DUP2 PUSH2 0x1EB7 PUSH2 0x1CFC JUMP JUMPDEST PUSH2 0x295C JUMP JUMPDEST POP JUMP JUMPDEST PUSH0 DUP1 PUSH2 0x1EC9 PUSH2 0x1E05 JUMP JUMPDEST SWAP1 POP PUSH2 0x1ED5 DUP5 DUP5 PUSH2 0x1229 JUMP JUMPDEST PUSH2 0x1FAC JUMPI PUSH1 0x1 DUP2 PUSH0 ADD PUSH0 DUP7 DUP2 MSTORE PUSH1 0x20 ADD SWAP1 DUP2 MSTORE PUSH1 0x20 ADD PUSH0 KECCAK256 PUSH0 ADD PUSH0 DUP6 PUSH20 0xFFFFFFFFFFFFFFFFFFFFFFFFFFFFFFFFFFFFFFFF AND PUSH20 0xFFFFFFFFFFFFFFFFFFFFFFFFFFFFFFFFFFFFFFFF AND DUP2 MSTORE PUSH1 0x20 ADD SWAP1 DUP2 MSTORE PUSH1 0x20 ADD PUSH0 KECCAK256 PUSH0 PUSH2 0x100 EXP DUP2 SLOAD DUP2 PUSH1 0xFF MUL NOT AND SWAP1 DUP4 ISZERO ISZERO MUL OR SWAP1 SSTORE POP PUSH2 0x1F48 PUSH2 0x1CFC JUMP JUMPDEST PUSH20 0xFFFFFFFFFFFFFFFFFFFFFFFFFFFFFFFFFFFFFFFF AND DUP4 PUSH20 0xFFFFFFFFFFFFFFFFFFFFFFFFFFFFFFFFFFFFFFFF AND DUP6 PUSH32 0x2F8788117E7EFF1D82E926EC794901D17C78024A50270940304540A733656F0D PUSH1 0x40 MLOAD PUSH1 0x40 MLOAD DUP1 SWAP2 SUB SWAP1 LOG4 PUSH1 0x1 SWAP2 POP POP PUSH2 0x1FB1 JUMP JUMPDEST PUSH0 SWAP2 POP POP JUMPDEST SWAP3 SWAP2 POP POP JUMP JUMPDEST PUSH0 PUSH2 0x1FC0 PUSH2 0x29AD JUMP JUMPDEST SWAP1 POP SWAP1 JUMP JUMPDEST PUSH0 DUP1 PUSH2 0x1FCF PUSH2 0x1E05 JUMP JUMPDEST SWAP1 POP PUSH2 0x1FDB DUP5 DUP5 PUSH2 0x1229 JUMP JUMPDEST ISZERO PUSH2 0x20B2 JUMPI PUSH0 DUP2 PUSH0 ADD PUSH0 DUP7 DUP2 MSTORE PUSH1 0x20 ADD SWAP1 DUP2 MSTORE PUSH1 0x20 ADD PUSH0 KECCAK256 PUSH0 ADD PUSH0 DUP6 PUSH20 0xFFFFFFFFFFFFFFFFFFFFFFFFFFFFFFFFFFFFFFFF AND PUSH20 0xFFFFFFFFFFFFFFFFFFFFFFFFFFFFFFFFFFFFFFFF AND DUP2 MSTORE PUSH1 0x20 ADD SWAP1 DUP2 MSTORE PUSH1 0x20 ADD PUSH0 KECCAK256 PUSH0 PUSH2 0x100 EXP DUP2 SLOAD DUP2 PUSH1 0xFF MUL NOT AND SWAP1 DUP4 ISZERO ISZERO MUL OR SWAP1 SSTORE POP PUSH2 0x204E PUSH2 0x1CFC JUMP JUMPDEST PUSH20 0xFFFFFFFFFFFFFFFFFFFFFFFFFFFFFFFFFFFFFFFF AND DUP4 PUSH20 0xFFFFFFFFFFFFFFFFFFFFFFFFFFFFFFFFFFFFFFFF AND DUP6 PUSH32 0xF6391F5C32D9C69D2A47EA670B442974B53935D1EDC7FD64EB21E047A839171B PUSH1 0x40 MLOAD PUSH1 0x40 MLOAD DUP1 SWAP2 SUB SWAP1 LOG4 PUSH1 0x1 SWAP2 POP POP PUSH2 0x20B7 JUMP JUMPDEST PUSH0 SWAP2 POP POP JUMPDEST SWAP3 SWAP2 POP POP JUMP JUMPDEST PUSH2 0x20C5 PUSH2 0x1CFC JUMP JUMPDEST PUSH20 0xFFFFFFFFFFFFFFFFFFFFFFFFFFFFFFFFFFFFFFFF AND PUSH2 0x20E3 PUSH2 0x11F4 JUMP JUMPDEST PUSH20 0xFFFFFFFFFFFFFFFFFFFFFFFFFFFFFFFFFFFFFFFF AND EQ PUSH2 0x2142 JUMPI PUSH2 0x2106 PUSH2 0x1CFC JUMP JUMPDEST PUSH1 0x40 MLOAD PUSH32 0x118CDAA700000000000000000000000000000000000000000000000000000000 DUP2 MSTORE PUSH1 0x4 ADD PUSH2 0x2139 SWAP2 SWAP1 PUSH2 0x3660 JUMP JUMPDEST PUSH1 0x40 MLOAD DUP1 SWAP2 SUB SWAP1 REVERT JUMPDEST JUMP JUMPDEST PUSH2 0x214C PUSH2 0x2A10 JUMP JUMPDEST PUSH0 PUSH2 0x2155 PUSH2 0x21B2 JUMP JUMPDEST SWAP1 POP PUSH0 DUP2 PUSH0 ADD PUSH0 PUSH2 0x100 EXP DUP2 SLOAD DUP2 PUSH1 0xFF MUL NOT AND SWAP1 DUP4 ISZERO ISZERO MUL OR SWAP1 SSTORE POP PUSH32 0x5DB9EE0A495BF2E6FF9C91A7834C1BA4FDD244A5E8AA4E537BD38AEAE4B073AA PUSH2 0x219A PUSH2 0x1CFC JUMP JUMPDEST PUSH1 0x40 MLOAD PUSH2 0x21A7 SWAP2 SWAP1 PUSH2 0x3660 JUMP JUMPDEST PUSH1 0x40 MLOAD DUP1 SWAP2 SUB SWAP1 LOG1 POP JUMP JUMPDEST PUSH0 PUSH32 0xCD5ED15C6E187E77E9AEE88184C21F4F2182AB5827CB3B7E07FBEDCD63F03300 SWAP1 POP SWAP1 JUMP JUMPDEST PUSH0 PUSH2 0x21E2 PUSH2 0x25E0 JUMP JUMPDEST SWAP1 POP PUSH0 DUP2 PUSH0 ADD PUSH0 SWAP1 SLOAD SWAP1 PUSH2 0x100 EXP SWAP1 DIV PUSH20 0xFFFFFFFFFFFFFFFFFFFFFFFFFFFFFFFFFFFFFFFF AND SWAP1 POP DUP3 DUP3 PUSH0 ADD PUSH0 PUSH2 0x100 EXP DUP2 SLOAD DUP2 PUSH20 0xFFFFFFFFFFFFFFFFFFFFFFFFFFFFFFFFFFFFFFFF MUL NOT AND SWAP1 DUP4 PUSH20 0xFFFFFFFFFFFFFFFFFFFFFFFFFFFFFFFFFFFFFFFF AND MUL OR SWAP1 SSTORE POP DUP3 PUSH20 0xFFFFFFFFFFFFFFFFFFFFFFFFFFFFFFFFFFFFFFFF AND DUP2 PUSH20 0xFFFFFFFFFFFFFFFFFFFFFFFFFFFFFFFFFFFFFFFF AND PUSH32 0x8BE0079C531659141344CD1FD0A4F28419497F9722A3DAAFE3B4186F6B6457E0 PUSH1 0x40 MLOAD PUSH1 0x40 MLOAD DUP1 SWAP2 SUB SWAP1 LOG3 POP POP POP JUMP JUMPDEST PUSH0 PUSH20 0xFFFFFFFFFFFFFFFFFFFFFFFFFFFFFFFFFFFFFFFF AND DUP3 PUSH20 0xFFFFFFFFFFFFFFFFFFFFFFFFFFFFFFFFFFFFFFFF AND SUB PUSH2 0x231A JUMPI PUSH0 PUSH1 0x40 MLOAD PUSH32 0xEC442F0500000000000000000000000000000000000000000000000000000000 DUP2 MSTORE PUSH1 0x4 ADD PUSH2 0x2311 SWAP2 SWAP1 PUSH2 0x3660 JUMP JUMPDEST PUSH1 0x40 MLOAD DUP1 SWAP2 SUB SWAP1 REVERT JUMPDEST PUSH2 0x2325 PUSH0 DUP4 DUP4 PUSH2 0x294C JUMP JUMPDEST POP POP JUMP JUMPDEST PUSH0 PUSH2 0x2334 DUP5 DUP5 PUSH2 0x1A52 JUMP JUMPDEST SWAP1 POP PUSH32 0xFFFFFFFFFFFFFFFFFFFFFFFFFFFFFFFFFFFFFFFFFFFFFFFFFFFFFFFFFFFFFFFF DUP2 EQ PUSH2 0x23B5 JUMPI DUP2 DUP2 LT ISZERO PUSH2 0x23A6 JUMPI DUP3 DUP2 DUP4 PUSH1 0x40 MLOAD PUSH32 0xFB8F41B200000000000000000000000000000000000000000000000000000000 DUP2 MSTORE PUSH1 0x4 ADD PUSH2 0x239D SWAP4 SWAP3 SWAP2 SWAP1 PUSH2 0x4582 JUMP JUMPDEST PUSH1 0x40 MLOAD DUP1 SWAP2 SUB SWAP1 REVERT JUMPDEST PUSH2 0x23B4 DUP5 DUP5 DUP5 DUP5 SUB PUSH0 PUSH2 0x276F JUMP JUMPDEST JUMPDEST POP POP POP POP JUMP JUMPDEST PUSH0 DUP1 PUSH2 0x23C5 PUSH2 0x2A50 JUMP JUMPDEST SWAP1 POP DUP1 PUSH0 ADD PUSH0 DUP5 PUSH20 0xFFFFFFFFFFFFFFFFFFFFFFFFFFFFFFFFFFFFFFFF AND PUSH20 0xFFFFFFFFFFFFFFFFFFFFFFFFFFFFFFFFFFFFFFFF AND DUP2 MSTORE PUSH1 0x20 ADD SWAP1 DUP2 MSTORE PUSH1 0x20 ADD PUSH0 KECCAK256 SLOAD SWAP2 POP POP SWAP2 SWAP1 POP JUMP JUMPDEST PUSH2 0x2416 PUSH2 0x2A77 JUMP JUMPDEST PUSH0 PUSH2 0x241F PUSH2 0x21B2 JUMP JUMPDEST SWAP1 POP PUSH1 0x1 DUP2 PUSH0 ADD PUSH0 PUSH2 0x100 EXP DUP2 SLOAD DUP2 PUSH1 0xFF MUL NOT AND SWAP1 DUP4 ISZERO ISZERO MUL OR SWAP1 SSTORE POP PUSH32 0x62E78CEA01BEE320CD4E420270B5EA74000D11B0C9F74754EBDBFC544B05A258 PUSH2 0x2465 PUSH2 0x1CFC JUMP JUMPDEST PUSH1 0x40 MLOAD PUSH2 0x2472 SWAP2 SWAP1 PUSH2 0x3660 JUMP JUMPDEST PUSH1 0x40 MLOAD DUP1 SWAP2 SUB SWAP1 LOG1 POP JUMP JUMPDEST PUSH0 PUSH32 0xA16A46D94261C7517CC8FF89F61C0CE93598E3C849801011DEE649A6A557D100 SWAP1 POP SWAP1 JUMP JUMPDEST PUSH1 0x60 PUSH0 PUSH2 0x24AF PUSH2 0x247D JUMP JUMPDEST SWAP1 POP DUP1 PUSH1 0x2 ADD DUP1 SLOAD PUSH2 0x24C0 SWAP1 PUSH2 0x3AD2 JUMP JUMPDEST DUP1 PUSH1 0x1F ADD PUSH1 0x20 DUP1 SWAP2 DIV MUL PUSH1 0x20 ADD PUSH1 0x40 MLOAD SWAP1 DUP2 ADD PUSH1 0x40 MSTORE DUP1 SWAP3 SWAP2 SWAP1 DUP2 DUP2 MSTORE PUSH1 0x20 ADD DUP3 DUP1 SLOAD PUSH2 0x24EC SWAP1 PUSH2 0x3AD2 JUMP JUMPDEST DUP1 ISZERO PUSH2 0x2537 JUMPI DUP1 PUSH1 0x1F LT PUSH2 0x250E JUMPI PUSH2 0x100 DUP1 DUP4 SLOAD DIV MUL DUP4 MSTORE SWAP2 PUSH1 0x20 ADD SWAP2 PUSH2 0x2537 JUMP JUMPDEST DUP3 ADD SWAP2 SWAP1 PUSH0 MSTORE PUSH1 0x20 PUSH0 KECCAK256 SWAP1 JUMPDEST DUP2 SLOAD DUP2 MSTORE SWAP1 PUSH1 0x1 ADD SWAP1 PUSH1 0x20 ADD DUP1 DUP4 GT PUSH2 0x251A JUMPI DUP3 SWAP1 SUB PUSH1 0x1F AND DUP3 ADD SWAP2 JUMPDEST POP POP POP POP POP SWAP2 POP POP SWAP1 JUMP JUMPDEST PUSH1 0x60 PUSH0 PUSH2 0x254D PUSH2 0x247D JUMP JUMPDEST SWAP1 POP DUP1 PUSH1 0x3 ADD DUP1 SLOAD PUSH2 0x255E SWAP1 PUSH2 0x3AD2 JUMP JUMPDEST DUP1 PUSH1 0x1F ADD PUSH1 0x20 DUP1 SWAP2 DIV MUL PUSH1 0x20 ADD PUSH1 0x40 MLOAD SWAP1 DUP2 ADD PUSH1 0x40 MSTORE DUP1 SWAP3 SWAP2 SWAP1 DUP2 DUP2 MSTORE PUSH1 0x20 ADD DUP3 DUP1 SLOAD PUSH2 0x258A SWAP1 PUSH2 0x3AD2 JUMP JUMPDEST DUP1 ISZERO PUSH2 0x25D5 JUMPI DUP1 PUSH1 0x1F LT PUSH2 0x25AC JUMPI PUSH2 0x100 DUP1 DUP4 SLOAD DIV MUL DUP4 MSTORE SWAP2 PUSH1 0x20 ADD SWAP2 PUSH2 0x25D5 JUMP JUMPDEST DUP3 ADD SWAP2 SWAP1 PUSH0 MSTORE PUSH1 0x20 PUSH0 KECCAK256 SWAP1 JUMPDEST DUP2 SLOAD DUP2 MSTORE SWAP1 PUSH1 0x1 ADD SWAP1 PUSH1 0x20 ADD DUP1 DUP4 GT PUSH2 0x25B8 JUMPI DUP3 SWAP1 SUB PUSH1 0x1F AND DUP3 ADD SWAP2 JUMPDEST POP POP POP POP POP SWAP2 POP POP SWAP1 JUMP JUMPDEST PUSH0 PUSH32 0x9016D09D72D40FDAE2FD8CEAC6B6234C7706214FD39C1CD1E609A0528C199300 SWAP1 POP SWAP1 JUMP JUMPDEST PUSH0 PUSH32 0xF0C57E16840DF040F15088DC2F81FE391C3923BEC73E23A9662EFC9C229C6A00 SWAP1 POP SWAP1 JUMP JUMPDEST PUSH2 0x2636 PUSH2 0x2AB8 JUMP JUMPDEST PUSH2 0x2640 DUP3 DUP3 PUSH2 0x2AF8 JUMP JUMPDEST POP POP JUMP JUMPDEST PUSH2 0x264C PUSH2 0x2AB8 JUMP JUMPDEST JUMP JUMPDEST PUSH2 0x2656 PUSH2 0x2AB8 JUMP JUMPDEST PUSH2 0x265E PUSH2 0x2B34 JUMP JUMPDEST JUMP JUMPDEST PUSH2 0x2668 PUSH2 0x2AB8 JUMP JUMPDEST PUSH2 0x26A7 DUP2 PUSH1 0x40 MLOAD DUP1 PUSH1 0x40 ADD PUSH1 0x40 MSTORE DUP1 PUSH1 0x1 DUP2 MSTORE PUSH1 0x20 ADD PUSH32 0x3100000000000000000000000000000000000000000000000000000000000000 DUP2 MSTORE POP PUSH2 0x2B64 JUMP JUMPDEST POP JUMP JUMPDEST PUSH2 0x26B2 PUSH2 0x2AB8 JUMP JUMPDEST JUMP JUMPDEST PUSH2 0x26BC PUSH2 0x2AB8 JUMP JUMPDEST PUSH2 0x26C5 DUP2 PUSH2 0x2BB5 JUMP JUMPDEST POP JUMP JUMPDEST PUSH0 DUP1 PUSH2 0x26D2 PUSH2 0x2A50 JUMP JUMPDEST SWAP1 POP DUP1 PUSH0 ADD PUSH0 DUP5 PUSH20 0xFFFFFFFFFFFFFFFFFFFFFFFFFFFFFFFFFFFFFFFF AND PUSH20 0xFFFFFFFFFFFFFFFFFFFFFFFFFFFFFFFFFFFFFFFF AND DUP2 MSTORE PUSH1 0x20 ADD SWAP1 DUP2 MSTORE PUSH1 0x20 ADD PUSH0 KECCAK256 PUSH0 DUP2 SLOAD DUP1 SWAP3 SWAP2 SWAP1 PUSH1 0x1 ADD SWAP2 SWAP1 POP SSTORE SWAP2 POP POP SWAP2 SWAP1 POP JUMP JUMPDEST PUSH0 PUSH2 0x273A PUSH2 0x2734 PUSH2 0x1FB7 JUMP JUMPDEST DUP4 PUSH2 0x2C39 JUMP JUMPDEST SWAP1 POP SWAP2 SWAP1 POP JUMP JUMPDEST PUSH0 DUP1 PUSH0 DUP1 PUSH2 0x2751 DUP9 DUP9 DUP9 DUP9 PUSH2 0x2C79 JUMP JUMPDEST SWAP3 POP SWAP3 POP SWAP3 POP PUSH2 0x2761 DUP3 DUP3 PUSH2 0x2D60 JUMP JUMPDEST DUP3 SWAP4 POP POP POP POP SWAP5 SWAP4 POP POP POP POP JUMP JUMPDEST PUSH0 PUSH2 0x2778 PUSH2 0x1CD5 JUMP JUMPDEST SWAP1 POP PUSH0 PUSH20 0xFFFFFFFFFFFFFFFFFFFFFFFFFFFFFFFFFFFFFFFF AND DUP6 PUSH20 0xFFFFFFFFFFFFFFFFFFFFFFFFFFFFFFFFFFFFFFFF AND SUB PUSH2 0x27EA JUMPI PUSH0 PUSH1 0x40 MLOAD PUSH32 0xE602DF0500000000000000000000000000000000000000000000000000000000 DUP2 MSTORE PUSH1 0x4 ADD PUSH2 0x27E1 SWAP2 SWAP1 PUSH2 0x3660 JUMP JUMPDEST PUSH1 0x40 MLOAD DUP1 SWAP2 SUB SWAP1 REVERT JUMPDEST PUSH0 PUSH20 0xFFFFFFFFFFFFFFFFFFFFFFFFFFFFFFFFFFFFFFFF AND DUP5 PUSH20 0xFFFFFFFFFFFFFFFFFFFFFFFFFFFFFFFFFFFFFFFF AND SUB PUSH2 0x285A JUMPI PUSH0 PUSH1 0x40 MLOAD PUSH32 0x94280D6200000000000000000000000000000000000000000000000000000000 DUP2 MSTORE PUSH1 0x4 ADD PUSH2 0x2851 SWAP2 SWAP1 PUSH2 0x3660 JUMP JUMPDEST PUSH1 0x40 MLOAD DUP1 SWAP2 SUB SWAP1 REVERT JUMPDEST DUP3 DUP2 PUSH1 0x1 ADD PUSH0 DUP8 PUSH20 0xFFFFFFFFFFFFFFFFFFFFFFFFFFFFFFFFFFFFFFFF AND PUSH20 0xFFFFFFFFFFFFFFFFFFFFFFFFFFFFFFFFFFFFFFFF AND DUP2 MSTORE PUSH1 0x20 ADD SWAP1 DUP2 MSTORE PUSH1 0x20 ADD PUSH0 KECCAK256 PUSH0 DUP7 PUSH20 0xFFFFFFFFFFFFFFFFFFFFFFFFFFFFFFFFFFFFFFFF AND PUSH20 0xFFFFFFFFFFFFFFFFFFFFFFFFFFFFFFFFFFFFFFFF AND DUP2 MSTORE PUSH1 0x20 ADD SWAP1 DUP2 MSTORE PUSH1 0x20 ADD PUSH0 KECCAK256 DUP2 SWAP1 SSTORE POP DUP2 ISZERO PUSH2 0x2945 JUMPI DUP4 PUSH20 0xFFFFFFFFFFFFFFFFFFFFFFFFFFFFFFFFFFFFFFFF AND DUP6 PUSH20 0xFFFFFFFFFFFFFFFFFFFFFFFFFFFFFFFFFFFFFFFF AND PUSH32 0x8C5BE1E5EBEC7D5BD14F71427D1E84F3DD0314C0F7B2291E5B200AC8C7C3B925 DUP6 PUSH1 0x40 MLOAD PUSH2 0x293C SWAP2 SWAP1 PUSH2 0x349A JUMP JUMPDEST PUSH1 0x40 MLOAD DUP1 SWAP2 SUB SWAP1 LOG3 JUMPDEST POP POP POP POP POP JUMP JUMPDEST PUSH2 0x2957 DUP4 DUP4 DUP4 PUSH2 0x2EC2 JUMP JUMPDEST POP POP POP JUMP JUMPDEST PUSH2 0x2966 DUP3 DUP3 PUSH2 0x1229 JUMP JUMPDEST PUSH2 0x29A9 JUMPI DUP1 DUP3 PUSH1 0x40 MLOAD PUSH32 0xE2517D3F00000000000000000000000000000000000000000000000000000000 DUP2 MSTORE PUSH1 0x4 ADD PUSH2 0x29A0 SWAP3 SWAP2 SWAP1 PUSH2 0x45B7 JUMP JUMPDEST PUSH1 0x40 MLOAD DUP1 SWAP2 SUB SWAP1 REVERT JUMPDEST POP POP JUMP JUMPDEST PUSH0 PUSH32 0x8B73C3C69BB8FE3D512ECC4CF759CC79239F7B179B0FFACAA9A75D522B39400F PUSH2 0x29D7 PUSH2 0x2EDA JUMP JUMPDEST PUSH2 0x29DF PUSH2 0x2F50 JUMP JUMPDEST CHAINID ADDRESS PUSH1 0x40 MLOAD PUSH1 0x20 ADD PUSH2 0x29F5 SWAP6 SWAP5 SWAP4 SWAP3 SWAP2 SWAP1 PUSH2 0x45DE JUMP JUMPDEST PUSH1 0x40 MLOAD PUSH1 0x20 DUP2 DUP4 SUB SUB DUP2 MSTORE SWAP1 PUSH1 0x40 MSTORE DUP1 MLOAD SWAP1 PUSH1 0x20 ADD KECCAK256 SWAP1 POP SWAP1 JUMP JUMPDEST PUSH2 0x2A18 PUSH2 0xF76 JUMP JUMPDEST PUSH2 0x2A4E JUMPI PUSH1 0x40 MLOAD PUSH32 0x8DFC202B00000000000000000000000000000000000000000000000000000000 DUP2 MSTORE PUSH1 0x4 ADD PUSH1 0x40 MLOAD DUP1 SWAP2 SUB SWAP1 REVERT JUMPDEST JUMP JUMPDEST PUSH0 PUSH32 0x5AB42CED628888259C08AC98DB1EB0CF702FC1501344311D8B100CD1BFE4BB00 SWAP1 POP SWAP1 JUMP JUMPDEST PUSH2 0x2A7F PUSH2 0xF76 JUMP JUMPDEST ISZERO PUSH2 0x2AB6 JUMPI PUSH1 0x40 MLOAD PUSH32 0xD93C066500000000000000000000000000000000000000000000000000000000 DUP2 MSTORE PUSH1 0x4 ADD PUSH1 0x40 MLOAD DUP1 SWAP2 SUB SWAP1 REVERT JUMPDEST JUMP JUMPDEST PUSH2 0x2AC0 PUSH2 0x2FC7 JUMP JUMPDEST PUSH2 0x2AF6 JUMPI PUSH1 0x40 MLOAD PUSH32 0xD7E6BCF800000000000000000000000000000000000000000000000000000000 DUP2 MSTORE PUSH1 0x4 ADD PUSH1 0x40 MLOAD DUP1 SWAP2 SUB SWAP1 REVERT JUMPDEST JUMP JUMPDEST PUSH2 0x2B00 PUSH2 0x2AB8 JUMP JUMPDEST PUSH0 PUSH2 0x2B09 PUSH2 0x1CD5 JUMP JUMPDEST SWAP1 POP DUP3 DUP2 PUSH1 0x3 ADD SWAP1 DUP2 PUSH2 0x2B1C SWAP2 SWAP1 PUSH2 0x44B3 JUMP JUMPDEST POP DUP2 DUP2 PUSH1 0x4 ADD SWAP1 DUP2 PUSH2 0x2B2E SWAP2 SWAP1 PUSH2 0x44B3 JUMP JUMPDEST POP POP POP POP JUMP JUMPDEST PUSH2 0x2B3C PUSH2 0x2AB8 JUMP JUMPDEST PUSH0 PUSH2 0x2B45 PUSH2 0x21B2 JUMP JUMPDEST SWAP1 POP PUSH0 DUP2 PUSH0 ADD PUSH0 PUSH2 0x100 EXP DUP2 SLOAD DUP2 PUSH1 0xFF MUL NOT AND SWAP1 DUP4 ISZERO ISZERO MUL OR SWAP1 SSTORE POP POP JUMP JUMPDEST PUSH2 0x2B6C PUSH2 0x2AB8 JUMP JUMPDEST PUSH0 PUSH2 0x2B75 PUSH2 0x247D JUMP JUMPDEST SWAP1 POP DUP3 DUP2 PUSH1 0x2 ADD SWAP1 DUP2 PUSH2 0x2B88 SWAP2 SWAP1 PUSH2 0x44B3 JUMP JUMPDEST POP DUP2 DUP2 PUSH1 0x3 ADD SWAP1 DUP2 PUSH2 0x2B9A SWAP2 SWAP1 PUSH2 0x44B3 JUMP JUMPDEST POP PUSH0 DUP1 SHL DUP2 PUSH0 ADD DUP2 SWAP1 SSTORE POP PUSH0 DUP1 SHL DUP2 PUSH1 0x1 ADD DUP2 SWAP1 SSTORE POP POP POP POP JUMP JUMPDEST PUSH2 0x2BBD PUSH2 0x2AB8 JUMP JUMPDEST PUSH0 PUSH20 0xFFFFFFFFFFFFFFFFFFFFFFFFFFFFFFFFFFFFFFFF AND DUP2 PUSH20 0xFFFFFFFFFFFFFFFFFFFFFFFFFFFFFFFFFFFFFFFF AND SUB PUSH2 0x2C2D JUMPI PUSH0 PUSH1 0x40 MLOAD PUSH32 0x1E4FBDF700000000000000000000000000000000000000000000000000000000 DUP2 MSTORE PUSH1 0x4 ADD PUSH2 0x2C24 SWAP2 SWAP1 PUSH2 0x3660 JUMP JUMPDEST PUSH1 0x40 MLOAD DUP1 SWAP2 SUB SWAP1 REVERT JUMPDEST PUSH2 0x2C36 DUP2 PUSH2 0x21D9 JUMP JUMPDEST POP JUMP JUMPDEST PUSH0 PUSH1 0x40 MLOAD PUSH32 0x1901000000000000000000000000000000000000000000000000000000000000 DUP2 MSTORE DUP4 PUSH1 0x2 DUP3 ADD MSTORE DUP3 PUSH1 0x22 DUP3 ADD MSTORE PUSH1 0x42 DUP2 KECCAK256 SWAP2 POP POP SWAP3 SWAP2 POP POP JUMP JUMPDEST PUSH0 DUP1 PUSH0 PUSH32 0x7FFFFFFFFFFFFFFFFFFFFFFFFFFFFFFF5D576E7357A4501DDFE92F46681B20A0 DUP5 PUSH0 SHR GT ISZERO PUSH2 0x2CB5 JUMPI PUSH0 PUSH1 0x3 DUP6 SWAP3 POP SWAP3 POP SWAP3 POP PUSH2 0x2D56 JUMP JUMPDEST PUSH0 PUSH1 0x1 DUP9 DUP9 DUP9 DUP9 PUSH1 0x40 MLOAD PUSH0 DUP2 MSTORE PUSH1 0x20 ADD PUSH1 0x40 MSTORE PUSH1 0x40 MLOAD PUSH2 0x2CD8 SWAP5 SWAP4 SWAP3 SWAP2 SWAP1 PUSH2 0x462F JUMP JUMPDEST PUSH1 0x20 PUSH1 0x40 MLOAD PUSH1 0x20 DUP2 SUB SWAP1 DUP1 DUP5 SUB SWAP1 DUP6 GAS STATICCALL ISZERO DUP1 ISZERO PUSH2 0x2CF8 JUMPI RETURNDATASIZE PUSH0 DUP1 RETURNDATACOPY RETURNDATASIZE PUSH0 REVERT JUMPDEST POP POP POP PUSH1 0x20 PUSH1 0x40 MLOAD SUB MLOAD SWAP1 POP PUSH0 PUSH20 0xFFFFFFFFFFFFFFFFFFFFFFFFFFFFFFFFFFFFFFFF AND DUP2 PUSH20 0xFFFFFFFFFFFFFFFFFFFFFFFFFFFFFFFFFFFFFFFF AND SUB PUSH2 0x2D49 JUMPI PUSH0 PUSH1 0x1 PUSH0 DUP1 SHL SWAP4 POP SWAP4 POP SWAP4 POP POP PUSH2 0x2D56 JUMP JUMPDEST DUP1 PUSH0 DUP1 PUSH0 SHL SWAP4 POP SWAP4 POP SWAP4 POP POP JUMPDEST SWAP5 POP SWAP5 POP SWAP5 SWAP2 POP POP JUMP JUMPDEST PUSH0 PUSH1 0x3 DUP2 GT ISZERO PUSH2 0x2D73 JUMPI PUSH2 0x2D72 PUSH2 0x4672 JUMP JUMPDEST JUMPDEST DUP3 PUSH1 0x3 DUP2 GT ISZERO PUSH2 0x2D86 JUMPI PUSH2 0x2D85 PUSH2 0x4672 JUMP JUMPDEST JUMPDEST SUB ISZERO PUSH2 0x2EBE JUMPI PUSH1 0x1 PUSH1 0x3 DUP2 GT ISZERO PUSH2 0x2DA0 JUMPI PUSH2 0x2D9F PUSH2 0x4672 JUMP JUMPDEST JUMPDEST DUP3 PUSH1 0x3 DUP2 GT ISZERO PUSH2 0x2DB3 JUMPI PUSH2 0x2DB2 PUSH2 0x4672 JUMP JUMPDEST JUMPDEST SUB PUSH2 0x2DEA JUMPI PUSH1 0x40 MLOAD PUSH32 0xF645EEDF00000000000000000000000000000000000000000000000000000000 DUP2 MSTORE PUSH1 0x4 ADD PUSH1 0x40 MLOAD DUP1 SWAP2 SUB SWAP1 REVERT JUMPDEST PUSH1 0x2 PUSH1 0x3 DUP2 GT ISZERO PUSH2 0x2DFE JUMPI PUSH2 0x2DFD PUSH2 0x4672 JUMP JUMPDEST JUMPDEST DUP3 PUSH1 0x3 DUP2 GT ISZERO PUSH2 0x2E11 JUMPI PUSH2 0x2E10 PUSH2 0x4672 JUMP JUMPDEST JUMPDEST SUB PUSH2 0x2E55 JUMPI DUP1 PUSH0 SHR PUSH1 0x40 MLOAD PUSH32 0xFCE698F700000000000000000000000000000000000000000000000000000000 DUP2 MSTORE PUSH1 0x4 ADD PUSH2 0x2E4C SWAP2 SWAP1 PUSH2 0x349A JUMP JUMPDEST PUSH1 0x40 MLOAD DUP1 SWAP2 SUB SWAP1 REVERT JUMPDEST PUSH1 0x3 DUP1 DUP2 GT ISZERO PUSH2 0x2E68 JUMPI PUSH2 0x2E67 PUSH2 0x4672 JUMP JUMPDEST JUMPDEST DUP3 PUSH1 0x3 DUP2 GT ISZERO PUSH2 0x2E7B JUMPI PUSH2 0x2E7A PUSH2 0x4672 JUMP JUMPDEST JUMPDEST SUB PUSH2 0x2EBD JUMPI DUP1 PUSH1 0x40 MLOAD PUSH32 0xD78BCE0C00000000000000000000000000000000000000000000000000000000 DUP2 MSTORE PUSH1 0x4 ADD PUSH2 0x2EB4 SWAP2 SWAP1 PUSH2 0x359B JUMP JUMPDEST PUSH1 0x40 MLOAD DUP1 SWAP2 SUB SWAP1 REVERT JUMPDEST JUMPDEST POP POP JUMP JUMPDEST PUSH2 0x2ECA PUSH2 0x2A77 JUMP JUMPDEST PUSH2 0x2ED5 DUP4 DUP4 DUP4 PUSH2 0x2FE5 JUMP JUMPDEST POP POP POP JUMP JUMPDEST PUSH0 DUP1 PUSH2 0x2EE4 PUSH2 0x247D JUMP JUMPDEST SWAP1 POP PUSH0 PUSH2 0x2EEF PUSH2 0x24A4 JUMP JUMPDEST SWAP1 POP PUSH0 DUP2 MLOAD GT ISZERO PUSH2 0x2F0B JUMPI DUP1 DUP1 MLOAD SWAP1 PUSH1 0x20 ADD KECCAK256 SWAP3 POP POP POP PUSH2 0x2F4D JUMP JUMPDEST PUSH0 DUP3 PUSH0 ADD SLOAD SWAP1 POP PUSH0 DUP1 SHL DUP2 EQ PUSH2 0x2F26 JUMPI DUP1 SWAP4 POP POP POP POP PUSH2 0x2F4D JUMP JUMPDEST PUSH32 0xC5D2460186F7233C927E7DB2DCC703C0E500B653CA82273B7BFAD8045D85A470 SWAP4 POP POP POP POP JUMPDEST SWAP1 JUMP JUMPDEST PUSH0 DUP1 PUSH2 0x2F5A PUSH2 0x247D JUMP JUMPDEST SWAP1 POP PUSH0 PUSH2 0x2F65 PUSH2 0x2542 JUMP JUMPDEST SWAP1 POP PUSH0 DUP2 MLOAD GT ISZERO PUSH2 0x2F81 JUMPI DUP1 DUP1 MLOAD SWAP1 PUSH1 0x20 ADD KECCAK256 SWAP3 POP POP POP PUSH2 0x2FC4 JUMP JUMPDEST PUSH0 DUP3 PUSH1 0x1 ADD SLOAD SWAP1 POP PUSH0 DUP1 SHL DUP2 EQ PUSH2 0x2F9D JUMPI DUP1 SWAP4 POP POP POP POP PUSH2 0x2FC4 JUMP JUMPDEST PUSH32 0xC5D2460186F7233C927E7DB2DCC703C0E500B653CA82273B7BFAD8045D85A470 SWAP4 POP POP POP POP JUMPDEST SWAP1 JUMP JUMPDEST PUSH0 PUSH2 0x2FD0 PUSH2 0x2607 JUMP JUMPDEST PUSH0 ADD PUSH1 0x8 SWAP1 SLOAD SWAP1 PUSH2 0x100 EXP SWAP1 DIV PUSH1 0xFF AND SWAP1 POP SWAP1 JUMP JUMPDEST PUSH0 PUSH2 0x2FEE PUSH2 0x1CD5 JUMP JUMPDEST SWAP1 POP PUSH0 PUSH20 0xFFFFFFFFFFFFFFFFFFFFFFFFFFFFFFFFFFFFFFFF AND DUP5 PUSH20 0xFFFFFFFFFFFFFFFFFFFFFFFFFFFFFFFFFFFFFFFF AND SUB PUSH2 0x3042 JUMPI DUP2 DUP2 PUSH1 0x2 ADD PUSH0 DUP3 DUP3 SLOAD PUSH2 0x3036 SWAP2 SWAP1 PUSH2 0x41FE JUMP JUMPDEST SWAP3 POP POP DUP2 SWAP1 SSTORE POP PUSH2 0x3114 JUMP JUMPDEST PUSH0 DUP2 PUSH0 ADD PUSH0 DUP7 PUSH20 0xFFFFFFFFFFFFFFFFFFFFFFFFFFFFFFFFFFFFFFFF AND PUSH20 0xFFFFFFFFFFFFFFFFFFFFFFFFFFFFFFFFFFFFFFFF AND DUP2 MSTORE PUSH1 0x20 ADD SWAP1 DUP2 MSTORE PUSH1 0x20 ADD PUSH0 KECCAK256 SLOAD SWAP1 POP DUP3 DUP2 LT ISZERO PUSH2 0x30CD JUMPI DUP5 DUP2 DUP5 PUSH1 0x40 MLOAD PUSH32 0xE450D38C00000000000000000000000000000000000000000000000000000000 DUP2 MSTORE PUSH1 0x4 ADD PUSH2 0x30C4 SWAP4 SWAP3 SWAP2 SWAP1 PUSH2 0x4582 JUMP JUMPDEST PUSH1 0x40 MLOAD DUP1 SWAP2 SUB SWAP1 REVERT JUMPDEST DUP3 DUP2 SUB DUP3 PUSH0 ADD PUSH0 DUP8 PUSH20 0xFFFFFFFFFFFFFFFFFFFFFFFFFFFFFFFFFFFFFFFF AND PUSH20 0xFFFFFFFFFFFFFFFFFFFFFFFFFFFFFFFFFFFFFFFF AND DUP2 MSTORE PUSH1 0x20 ADD SWAP1 DUP2 MSTORE PUSH1 0x20 ADD PUSH0 KECCAK256 DUP2 SWAP1 SSTORE POP POP JUMPDEST PUSH0 PUSH20 0xFFFFFFFFFFFFFFFFFFFFFFFFFFFFFFFFFFFFFFFF AND DUP4 PUSH20 0xFFFFFFFFFFFFFFFFFFFFFFFFFFFFFFFFFFFFFFFF AND SUB PUSH2 0x315D JUMPI DUP2 DUP2 PUSH1 0x2 ADD PUSH0 DUP3 DUP3 SLOAD SUB SWAP3 POP POP DUP2 SWAP1 SSTORE POP PUSH2 0x31A9 JUMP JUMPDEST DUP2 DUP2 PUSH0 ADD PUSH0 DUP6 PUSH20 0xFFFFFFFFFFFFFFFFFFFFFFFFFFFFFFFFFFFFFFFF AND PUSH20 0xFFFFFFFFFFFFFFFFFFFFFFFFFFFFFFFFFFFFFFFF AND DUP2 MSTORE PUSH1 0x20 ADD SWAP1 DUP2 MSTORE PUSH1 0x20 ADD PUSH0 KECCAK256 PUSH0 DUP3 DUP3 SLOAD ADD SWAP3 POP POP DUP2 SWAP1 SSTORE POP JUMPDEST DUP3 PUSH20 0xFFFFFFFFFFFFFFFFFFFFFFFFFFFFFFFFFFFFFFFF AND DUP5 PUSH20 0xFFFFFFFFFFFFFFFFFFFFFFFFFFFFFFFFFFFFFFFF AND PUSH32 0xDDF252AD1BE2C89B69C2B068FC378DAA952BA7F163C4A11628F55A4DF523B3EF DUP5 PUSH1 0x40 MLOAD PUSH2 0x3206 SWAP2 SWAP1 PUSH2 0x349A JUMP JUMPDEST PUSH1 0x40 MLOAD DUP1 SWAP2 SUB SWAP1 LOG3 POP POP POP POP JUMP JUMPDEST POP DUP1 SLOAD PUSH2 0x3220 SWAP1 PUSH2 0x3AD2 JUMP JUMPDEST PUSH0 DUP3 SSTORE DUP1 PUSH1 0x1F LT PUSH2 0x3231 JUMPI POP PUSH2 0x324E JUMP JUMPDEST PUSH1 0x1F ADD PUSH1 0x20 SWAP1 DIV SWAP1 PUSH0 MSTORE PUSH1 0x20 PUSH0 KECCAK256 SWAP1 DUP2 ADD SWAP1 PUSH2 0x324D SWAP2 SWAP1 PUSH2 0x3251 JUMP JUMPDEST JUMPDEST POP JUMP JUMPDEST JUMPDEST DUP1 DUP3 GT ISZERO PUSH2 0x3268 JUMPI PUSH0 DUP2 PUSH0 SWAP1 SSTORE POP PUSH1 0x1 ADD PUSH2 0x3252 JUMP JUMPDEST POP SWAP1 JUMP JUMPDEST PUSH0 PUSH1 0x40 MLOAD SWAP1 POP SWAP1 JUMP JUMPDEST PUSH0 DUP1 REVERT JUMPDEST PUSH0 DUP1 REVERT JUMPDEST PUSH0 PUSH32 0xFFFFFFFF00000000000000000000000000000000000000000000000000000000 DUP3 AND SWAP1 POP SWAP2 SWAP1 POP JUMP JUMPDEST PUSH2 0x32B1 DUP2 PUSH2 0x327D JUMP JUMPDEST DUP2 EQ PUSH2 0x32BB JUMPI PUSH0 DUP1 REVERT JUMPDEST POP JUMP JUMPDEST PUSH0 DUP2 CALLDATALOAD SWAP1 POP PUSH2 0x32CC DUP2 PUSH2 0x32A8 JUMP JUMPDEST SWAP3 SWAP2 POP POP JUMP JUMPDEST PUSH0 PUSH1 0x20 DUP3 DUP5 SUB SLT ISZERO PUSH2 0x32E7 JUMPI PUSH2 0x32E6 PUSH2 0x3275 JUMP JUMPDEST JUMPDEST PUSH0 PUSH2 0x32F4 DUP5 DUP3 DUP6 ADD PUSH2 0x32BE JUMP JUMPDEST SWAP2 POP POP SWAP3 SWAP2 POP POP JUMP JUMPDEST PUSH0 DUP2 ISZERO ISZERO SWAP1 POP SWAP2 SWAP1 POP JUMP JUMPDEST PUSH2 0x3311 DUP2 PUSH2 0x32FD JUMP JUMPDEST DUP3 MSTORE POP POP JUMP JUMPDEST PUSH0 PUSH1 0x20 DUP3 ADD SWAP1 POP PUSH2 0x332A PUSH0 DUP4 ADD DUP5 PUSH2 0x3308 JUMP JUMPDEST SWAP3 SWAP2 POP POP JUMP JUMPDEST PUSH0 DUP2 MLOAD SWAP1 POP SWAP2 SWAP1 POP JUMP JUMPDEST PUSH0 DUP3 DUP3 MSTORE PUSH1 0x20 DUP3 ADD SWAP1 POP SWAP3 SWAP2 POP POP JUMP JUMPDEST DUP3 DUP2 DUP4 MCOPY PUSH0 DUP4 DUP4 ADD MSTORE POP POP POP JUMP JUMPDEST PUSH0 PUSH1 0x1F NOT PUSH1 0x1F DUP4 ADD AND SWAP1 POP SWAP2 SWAP1 POP JUMP JUMPDEST PUSH0 PUSH2 0x3372 DUP3 PUSH2 0x3330 JUMP JUMPDEST PUSH2 0x337C DUP2 DUP6 PUSH2 0x333A JUMP JUMPDEST SWAP4 POP PUSH2 0x338C DUP2 DUP6 PUSH1 0x20 DUP7 ADD PUSH2 0x334A JUMP JUMPDEST PUSH2 0x3395 DUP2 PUSH2 0x3358 JUMP JUMPDEST DUP5 ADD SWAP2 POP POP SWAP3 SWAP2 POP POP JUMP JUMPDEST PUSH0 PUSH1 0x20 DUP3 ADD SWAP1 POP DUP2 DUP2 SUB PUSH0 DUP4 ADD MSTORE PUSH2 0x33B8 DUP2 DUP5 PUSH2 0x3368 JUMP JUMPDEST SWAP1 POP SWAP3 SWAP2 POP POP JUMP JUMPDEST PUSH0 PUSH20 0xFFFFFFFFFFFFFFFFFFFFFFFFFFFFFFFFFFFFFFFF DUP3 AND SWAP1 POP SWAP2 SWAP1 POP JUMP JUMPDEST PUSH0 PUSH2 0x33E9 DUP3 PUSH2 0x33C0 JUMP JUMPDEST SWAP1 POP SWAP2 SWAP1 POP JUMP JUMPDEST PUSH2 0x33F9 DUP2 PUSH2 0x33DF JUMP JUMPDEST DUP2 EQ PUSH2 0x3403 JUMPI PUSH0 DUP1 REVERT JUMPDEST POP JUMP JUMPDEST PUSH0 DUP2 CALLDATALOAD SWAP1 POP PUSH2 0x3414 DUP2 PUSH2 0x33F0 JUMP JUMPDEST SWAP3 SWAP2 POP POP JUMP JUMPDEST PUSH0 DUP2 SWAP1 POP SWAP2 SWAP1 POP JUMP JUMPDEST PUSH2 0x342C DUP2 PUSH2 0x341A JUMP JUMPDEST DUP2 EQ PUSH2 0x3436 JUMPI PUSH0 DUP1 REVERT JUMPDEST POP JUMP JUMPDEST PUSH0 DUP2 CALLDATALOAD SWAP1 POP PUSH2 0x3447 DUP2 PUSH2 0x3423 JUMP JUMPDEST SWAP3 SWAP2 POP POP JUMP JUMPDEST PUSH0 DUP1 PUSH1 0x40 DUP4 DUP6 SUB SLT ISZERO PUSH2 0x3463 JUMPI PUSH2 0x3462 PUSH2 0x3275 JUMP JUMPDEST JUMPDEST PUSH0 PUSH2 0x3470 DUP6 DUP3 DUP7 ADD PUSH2 0x3406 JUMP JUMPDEST SWAP3 POP POP PUSH1 0x20 PUSH2 0x3481 DUP6 DUP3 DUP7 ADD PUSH2 0x3439 JUMP JUMPDEST SWAP2 POP POP SWAP3 POP SWAP3 SWAP1 POP JUMP JUMPDEST PUSH2 0x3494 DUP2 PUSH2 0x341A JUMP JUMPDEST DUP3 MSTORE POP POP JUMP JUMPDEST PUSH0 PUSH1 0x20 DUP3 ADD SWAP1 POP PUSH2 0x34AD PUSH0 DUP4 ADD DUP5 PUSH2 0x348B JUMP JUMPDEST SWAP3 SWAP2 POP POP JUMP JUMPDEST PUSH0 PUSH1 0x20 DUP3 DUP5 SUB SLT ISZERO PUSH2 0x34C8 JUMPI PUSH2 0x34C7 PUSH2 0x3275 JUMP JUMPDEST JUMPDEST PUSH0 PUSH2 0x34D5 DUP5 DUP3 DUP6 ADD PUSH2 0x3406 JUMP JUMPDEST SWAP2 POP POP SWAP3 SWAP2 POP POP JUMP JUMPDEST PUSH0 DUP1 PUSH0 PUSH1 0x60 DUP5 DUP7 SUB SLT ISZERO PUSH2 0x34F5 JUMPI PUSH2 0x34F4 PUSH2 0x3275 JUMP JUMPDEST JUMPDEST PUSH0 PUSH2 0x3502 DUP7 DUP3 DUP8 ADD PUSH2 0x3406 JUMP JUMPDEST SWAP4 POP POP PUSH1 0x20 PUSH2 0x3513 DUP7 DUP3 DUP8 ADD PUSH2 0x3406 JUMP JUMPDEST SWAP3 POP POP PUSH1 0x40 PUSH2 0x3524 DUP7 DUP3 DUP8 ADD PUSH2 0x3439 JUMP JUMPDEST SWAP2 POP POP SWAP3 POP SWAP3 POP SWAP3 JUMP JUMPDEST PUSH0 DUP2 SWAP1 POP SWAP2 SWAP1 POP JUMP JUMPDEST PUSH2 0x3540 DUP2 PUSH2 0x352E JUMP JUMPDEST DUP2 EQ PUSH2 0x354A JUMPI PUSH0 DUP1 REVERT JUMPDEST POP JUMP JUMPDEST PUSH0 DUP2 CALLDATALOAD SWAP1 POP PUSH2 0x355B DUP2 PUSH2 0x3537 JUMP JUMPDEST SWAP3 SWAP2 POP POP JUMP JUMPDEST PUSH0 PUSH1 0x20 DUP3 DUP5 SUB SLT ISZERO PUSH2 0x3576 JUMPI PUSH2 0x3575 PUSH2 0x3275 JUMP JUMPDEST JUMPDEST PUSH0 PUSH2 0x3583 DUP5 DUP3 DUP6 ADD PUSH2 0x354D JUMP JUMPDEST SWAP2 POP POP SWAP3 SWAP2 POP POP JUMP JUMPDEST PUSH2 0x3595 DUP2 PUSH2 0x352E JUMP JUMPDEST DUP3 MSTORE POP POP JUMP JUMPDEST PUSH0 PUSH1 0x20 DUP3 ADD SWAP1 POP PUSH2 0x35AE PUSH0 DUP4 ADD DUP5 PUSH2 0x358C JUMP JUMPDEST SWAP3 SWAP2 POP POP JUMP JUMPDEST PUSH0 PUSH1 0x20 DUP3 DUP5 SUB SLT ISZERO PUSH2 0x35C9 JUMPI PUSH2 0x35C8 PUSH2 0x3275 JUMP JUMPDEST JUMPDEST PUSH0 PUSH2 0x35D6 DUP5 DUP3 DUP6 ADD PUSH2 0x3439 JUMP JUMPDEST SWAP2 POP POP SWAP3 SWAP2 POP POP JUMP JUMPDEST PUSH0 DUP1 PUSH1 0x40 DUP4 DUP6 SUB SLT ISZERO PUSH2 0x35F5 JUMPI PUSH2 0x35F4 PUSH2 0x3275 JUMP JUMPDEST JUMPDEST PUSH0 PUSH2 0x3602 DUP6 DUP3 DUP7 ADD PUSH2 0x354D JUMP JUMPDEST SWAP3 POP POP PUSH1 0x20 PUSH2 0x3613 DUP6 DUP3 DUP7 ADD PUSH2 0x3406 JUMP JUMPDEST SWAP2 POP POP SWAP3 POP SWAP3 SWAP1 POP JUMP JUMPDEST PUSH0 PUSH1 0xFF DUP3 AND SWAP1 POP SWAP2 SWAP1 POP JUMP JUMPDEST PUSH2 0x3632 DUP2 PUSH2 0x361D JUMP JUMPDEST DUP3 MSTORE POP POP JUMP JUMPDEST PUSH0 PUSH1 0x20 DUP3 ADD SWAP1 POP PUSH2 0x364B PUSH0 DUP4 ADD DUP5 PUSH2 0x3629 JUMP JUMPDEST SWAP3 SWAP2 POP POP JUMP JUMPDEST PUSH2 0x365A DUP2 PUSH2 0x33DF JUMP JUMPDEST DUP3 MSTORE POP POP JUMP JUMPDEST PUSH0 PUSH1 0x20 DUP3 ADD SWAP1 POP PUSH2 0x3673 PUSH0 DUP4 ADD DUP5 PUSH2 0x3651 JUMP JUMPDEST SWAP3 SWAP2 POP POP JUMP JUMPDEST PUSH0 PUSH32 0xFF00000000000000000000000000000000000000000000000000000000000000 DUP3 AND SWAP1 POP SWAP2 SWAP1 POP JUMP JUMPDEST PUSH2 0x36AD DUP2 PUSH2 0x3679 JUMP JUMPDEST DUP3 MSTORE POP POP JUMP JUMPDEST PUSH0 DUP2 MLOAD SWAP1 POP SWAP2 SWAP1 POP JUMP JUMPDEST PUSH0 DUP3 DUP3 MSTORE PUSH1 0x20 DUP3 ADD SWAP1 POP SWAP3 SWAP2 POP POP JUMP JUMPDEST PUSH0 DUP2 SWAP1 POP PUSH1 0x20 DUP3 ADD SWAP1 POP SWAP2 SWAP1 POP JUMP JUMPDEST PUSH2 0x36E5 DUP2 PUSH2 0x341A JUMP JUMPDEST DUP3 MSTORE POP POP JUMP JUMPDEST PUSH0 PUSH2 0x36F6 DUP4 DUP4 PUSH2 0x36DC JUMP JUMPDEST PUSH1 0x20 DUP4 ADD SWAP1 POP SWAP3 SWAP2 POP POP JUMP JUMPDEST PUSH0 PUSH1 0x20 DUP3 ADD SWAP1 POP SWAP2 SWAP1 POP JUMP JUMPDEST PUSH0 PUSH2 0x3718 DUP3 PUSH2 0x36B3 JUMP JUMPDEST PUSH2 0x3722 DUP2 DUP6 PUSH2 0x36BD JUMP JUMPDEST SWAP4 POP PUSH2 0x372D DUP4 PUSH2 0x36CD JUMP JUMPDEST DUP1 PUSH0 JUMPDEST DUP4 DUP2 LT ISZERO PUSH2 0x375D JUMPI DUP2 MLOAD PUSH2 0x3744 DUP9 DUP3 PUSH2 0x36EB JUMP JUMPDEST SWAP8 POP PUSH2 0x374F DUP4 PUSH2 0x3702 JUMP JUMPDEST SWAP3 POP POP PUSH1 0x1 DUP2 ADD SWAP1 POP PUSH2 0x3730 JUMP JUMPDEST POP DUP6 SWAP4 POP POP POP POP SWAP3 SWAP2 POP POP JUMP JUMPDEST PUSH0 PUSH1 0xE0 DUP3 ADD SWAP1 POP PUSH2 0x377D PUSH0 DUP4 ADD DUP11 PUSH2 0x36A4 JUMP JUMPDEST DUP2 DUP2 SUB PUSH1 0x20 DUP4 ADD MSTORE PUSH2 0x378F DUP2 DUP10 PUSH2 0x3368 JUMP JUMPDEST SWAP1 POP DUP2 DUP2 SUB PUSH1 0x40 DUP4 ADD MSTORE PUSH2 0x37A3 DUP2 DUP9 PUSH2 0x3368 JUMP JUMPDEST SWAP1 POP PUSH2 0x37B2 PUSH1 0x60 DUP4 ADD DUP8 PUSH2 0x348B JUMP JUMPDEST PUSH2 0x37BF PUSH1 0x80 DUP4 ADD DUP7 PUSH2 0x3651 JUMP JUMPDEST PUSH2 0x37CC PUSH1 0xA0 DUP4 ADD DUP6 PUSH2 0x358C JUMP JUMPDEST DUP2 DUP2 SUB PUSH1 0xC0 DUP4 ADD MSTORE PUSH2 0x37DE DUP2 DUP5 PUSH2 0x370E JUMP JUMPDEST SWAP1 POP SWAP9 SWAP8 POP POP POP POP POP POP POP POP JUMP JUMPDEST PUSH2 0x37F5 DUP2 PUSH2 0x361D JUMP JUMPDEST DUP2 EQ PUSH2 0x37FF JUMPI PUSH0 DUP1 REVERT JUMPDEST POP JUMP JUMPDEST PUSH0 DUP2 CALLDATALOAD SWAP1 POP PUSH2 0x3810 DUP2 PUSH2 0x37EC JUMP JUMPDEST SWAP3 SWAP2 POP POP JUMP JUMPDEST PUSH0 DUP1 PUSH0 DUP1 PUSH0 DUP1 PUSH0 PUSH1 0xE0 DUP9 DUP11 SUB SLT ISZERO PUSH2 0x3831 JUMPI PUSH2 0x3830 PUSH2 0x3275 JUMP JUMPDEST JUMPDEST PUSH0 PUSH2 0x383E DUP11 DUP3 DUP12 ADD PUSH2 0x3406 JUMP JUMPDEST SWAP8 POP POP PUSH1 0x20 PUSH2 0x384F DUP11 DUP3 DUP12 ADD PUSH2 0x3406 JUMP JUMPDEST SWAP7 POP POP PUSH1 0x40 PUSH2 0x3860 DUP11 DUP3 DUP12 ADD PUSH2 0x3439 JUMP JUMPDEST SWAP6 POP POP PUSH1 0x60 PUSH2 0x3871 DUP11 DUP3 DUP12 ADD PUSH2 0x3439 JUMP JUMPDEST SWAP5 POP POP PUSH1 0x80 PUSH2 0x3882 DUP11 DUP3 DUP12 ADD PUSH2 0x3802 JUMP JUMPDEST SWAP4 POP POP PUSH1 0xA0 PUSH2 0x3893 DUP11 DUP3 DUP12 ADD PUSH2 0x354D JUMP JUMPDEST SWAP3 POP POP PUSH1 0xC0 PUSH2 0x38A4 DUP11 DUP3 DUP12 ADD PUSH2 0x354D JUMP JUMPDEST SWAP2 POP POP SWAP3 SWAP6 SWAP9 SWAP2 SWAP5 SWAP8 POP SWAP3 SWAP6 POP JUMP JUMPDEST PUSH0 PUSH1 0x40 DUP3 ADD SWAP1 POP PUSH2 0x38C6 PUSH0 DUP4 ADD DUP6 PUSH2 0x348B JUMP JUMPDEST DUP2 DUP2 SUB PUSH1 0x20 DUP4 ADD MSTORE PUSH2 0x38D8 DUP2 DUP5 PUSH2 0x3368 JUMP JUMPDEST SWAP1 POP SWAP4 SWAP3 POP POP POP JUMP JUMPDEST PUSH0 DUP1 PUSH1 0x40 DUP4 DUP6 SUB SLT ISZERO PUSH2 0x38F7 JUMPI PUSH2 0x38F6 PUSH2 0x3275 JUMP JUMPDEST JUMPDEST PUSH0 PUSH2 0x3904 DUP6 DUP3 DUP7 ADD PUSH2 0x3406 JUMP JUMPDEST SWAP3 POP POP PUSH1 0x20 PUSH2 0x3915 DUP6 DUP3 DUP7 ADD PUSH2 0x3406 JUMP JUMPDEST SWAP2 POP POP SWAP3 POP SWAP3 SWAP1 POP JUMP JUMPDEST PUSH0 DUP1 REVERT JUMPDEST PUSH0 DUP1 REVERT JUMPDEST PUSH32 0x4E487B7100000000000000000000000000000000000000000000000000000000 PUSH0 MSTORE PUSH1 0x41 PUSH1 0x4 MSTORE PUSH1 0x24 PUSH0 REVERT JUMPDEST PUSH2 0x395D DUP3 PUSH2 0x3358 JUMP JUMPDEST DUP2 ADD DUP2 DUP2 LT PUSH8 0xFFFFFFFFFFFFFFFF DUP3 GT OR ISZERO PUSH2 0x397C JUMPI PUSH2 0x397B PUSH2 0x3927 JUMP JUMPDEST JUMPDEST DUP1 PUSH1 0x40 MSTORE POP POP POP JUMP JUMPDEST PUSH0 PUSH2 0x398E PUSH2 0x326C JUMP JUMPDEST SWAP1 POP PUSH2 0x399A DUP3 DUP3 PUSH2 0x3954 JUMP JUMPDEST SWAP2 SWAP1 POP JUMP JUMPDEST PUSH0 PUSH8 0xFFFFFFFFFFFFFFFF DUP3 GT ISZERO PUSH2 0x39B9 JUMPI PUSH2 0x39B8 PUSH2 0x3927 JUMP JUMPDEST JUMPDEST PUSH2 0x39C2 DUP3 PUSH2 0x3358 JUMP JUMPDEST SWAP1 POP PUSH1 0x20 DUP2 ADD SWAP1 POP SWAP2 SWAP1 POP JUMP JUMPDEST DUP3 DUP2 DUP4 CALLDATACOPY PUSH0 DUP4 DUP4 ADD MSTORE POP POP POP JUMP JUMPDEST PUSH0 PUSH2 0x39EF PUSH2 0x39EA DUP5 PUSH2 0x399F JUMP JUMPDEST PUSH2 0x3985 JUMP JUMPDEST SWAP1 POP DUP3 DUP2 MSTORE PUSH1 0x20 DUP2 ADD DUP5 DUP5 DUP5 ADD GT ISZERO PUSH2 0x3A0B JUMPI PUSH2 0x3A0A PUSH2 0x3923 JUMP JUMPDEST JUMPDEST PUSH2 0x3A16 DUP5 DUP3 DUP6 PUSH2 0x39CF JUMP JUMPDEST POP SWAP4 SWAP3 POP POP POP JUMP JUMPDEST PUSH0 DUP3 PUSH1 0x1F DUP4 ADD SLT PUSH2 0x3A32 JUMPI PUSH2 0x3A31 PUSH2 0x391F JUMP JUMPDEST JUMPDEST DUP2 CALLDATALOAD PUSH2 0x3A42 DUP5 DUP3 PUSH1 0x20 DUP7 ADD PUSH2 0x39DD JUMP JUMPDEST SWAP2 POP POP SWAP3 SWAP2 POP POP JUMP JUMPDEST PUSH0 DUP1 PUSH1 0x40 DUP4 DUP6 SUB SLT ISZERO PUSH2 0x3A61 JUMPI PUSH2 0x3A60 PUSH2 0x3275 JUMP JUMPDEST JUMPDEST PUSH0 PUSH2 0x3A6E DUP6 DUP3 DUP7 ADD PUSH2 0x3439 JUMP JUMPDEST SWAP3 POP POP PUSH1 0x20 DUP4 ADD CALLDATALOAD PUSH8 0xFFFFFFFFFFFFFFFF DUP2 GT ISZERO PUSH2 0x3A8F JUMPI PUSH2 0x3A8E PUSH2 0x3279 JUMP JUMPDEST JUMPDEST PUSH2 0x3A9B DUP6 DUP3 DUP7 ADD PUSH2 0x3A1E JUMP JUMPDEST SWAP2 POP POP SWAP3 POP SWAP3 SWAP1 POP JUMP JUMPDEST PUSH32 0x4E487B7100000000000000000000000000000000000000000000000000000000 PUSH0 MSTORE PUSH1 0x22 PUSH1 0x4 MSTORE PUSH1 0x24 PUSH0 REVERT JUMPDEST PUSH0 PUSH1 0x2 DUP3 DIV SWAP1 POP PUSH1 0x1 DUP3 AND DUP1 PUSH2 0x3AE9 JUMPI PUSH1 0x7F DUP3 AND SWAP2 POP JUMPDEST PUSH1 0x20 DUP3 LT DUP2 SUB PUSH2 0x3AFC JUMPI PUSH2 0x3AFB PUSH2 0x3AA5 JUMP JUMPDEST JUMPDEST POP SWAP2 SWAP1 POP JUMP JUMPDEST PUSH32 0x5472616E736665722066726F6D20746865207A65726F20616464726573730000 PUSH0 DUP3 ADD MSTORE POP JUMP JUMPDEST PUSH0 PUSH2 0x3B36 PUSH1 0x1E DUP4 PUSH2 0x333A JUMP JUMPDEST SWAP2 POP PUSH2 0x3B41 DUP3 PUSH2 0x3B02 JUMP JUMPDEST PUSH1 0x20 DUP3 ADD SWAP1 POP SWAP2 SWAP1 POP JUMP JUMPDEST PUSH0 PUSH1 0x20 DUP3 ADD SWAP1 POP DUP2 DUP2 SUB PUSH0 DUP4 ADD MSTORE PUSH2 0x3B63 DUP2 PUSH2 0x3B2A JUMP JUMPDEST SWAP1 POP SWAP2 SWAP1 POP JUMP JUMPDEST PUSH32 0x5472616E7366657220746F20746865207A65726F206164647265737300000000 PUSH0 DUP3 ADD MSTORE POP JUMP JUMPDEST PUSH0 PUSH2 0x3B9E PUSH1 0x1C DUP4 PUSH2 0x333A JUMP JUMPDEST SWAP2 POP PUSH2 0x3BA9 DUP3 PUSH2 0x3B6A JUMP JUMPDEST PUSH1 0x20 DUP3 ADD SWAP1 POP SWAP2 SWAP1 POP JUMP JUMPDEST PUSH0 PUSH1 0x20 DUP3 ADD SWAP1 POP DUP2 DUP2 SUB PUSH0 DUP4 ADD MSTORE PUSH2 0x3BCB DUP2 PUSH2 0x3B92 JUMP JUMPDEST SWAP1 POP SWAP2 SWAP1 POP JUMP JUMPDEST PUSH32 0x5472616E7366657220616D6F756E74206D757374206265206772656174657220 PUSH0 DUP3 ADD MSTORE PUSH32 0x7468616E207A65726F0000000000000000000000000000000000000000000000 PUSH1 0x20 DUP3 ADD MSTORE POP JUMP JUMPDEST PUSH0 PUSH2 0x3C2C PUSH1 0x29 DUP4 PUSH2 0x333A JUMP JUMPDEST SWAP2 POP PUSH2 0x3C37 DUP3 PUSH2 0x3BD2 JUMP JUMPDEST PUSH1 0x40 DUP3 ADD SWAP1 POP SWAP2 SWAP1 POP JUMP JUMPDEST PUSH0 PUSH1 0x20 DUP3 ADD SWAP1 POP DUP2 DUP2 SUB PUSH0 DUP4 ADD MSTORE PUSH2 0x3C59 DUP2 PUSH2 0x3C20 JUMP JUMPDEST SWAP1 POP SWAP2 SWAP1 POP JUMP JUMPDEST PUSH32 0x496E73756666696369656E742062616C616E636520666F72207472616E736665 PUSH0 DUP3 ADD MSTORE PUSH32 0x7200000000000000000000000000000000000000000000000000000000000000 PUSH1 0x20 DUP3 ADD MSTORE POP JUMP JUMPDEST PUSH0 PUSH2 0x3CBA PUSH1 0x21 DUP4 PUSH2 0x333A JUMP JUMPDEST SWAP2 POP PUSH2 0x3CC5 DUP3 PUSH2 0x3C60 JUMP JUMPDEST PUSH1 0x40 DUP3 ADD SWAP1 POP SWAP2 SWAP1 POP JUMP JUMPDEST PUSH0 PUSH1 0x20 DUP3 ADD SWAP1 POP DUP2 DUP2 SUB PUSH0 DUP4 ADD MSTORE PUSH2 0x3CE7 DUP2 PUSH2 0x3CAE JUMP JUMPDEST SWAP1 POP SWAP2 SWAP1 POP JUMP JUMPDEST PUSH32 0x5472616E7366657220616D6F756E74206578636565647320616C6C6F77616E63 PUSH0 DUP3 ADD MSTORE PUSH32 0x6500000000000000000000000000000000000000000000000000000000000000 PUSH1 0x20 DUP3 ADD MSTORE POP JUMP JUMPDEST PUSH0 PUSH2 0x3D48 PUSH1 0x21 DUP4 PUSH2 0x333A JUMP JUMPDEST SWAP2 POP PUSH2 0x3D53 DUP3 PUSH2 0x3CEE JUMP JUMPDEST PUSH1 0x40 DUP3 ADD SWAP1 POP SWAP2 SWAP1 POP JUMP JUMPDEST PUSH0 PUSH1 0x20 DUP3 ADD SWAP1 POP DUP2 DUP2 SUB PUSH0 DUP4 ADD MSTORE PUSH2 0x3D75 DUP2 PUSH2 0x3D3C JUMP JUMPDEST SWAP1 POP SWAP2 SWAP1 POP JUMP JUMPDEST PUSH32 0x4E487B7100000000000000000000000000000000000000000000000000000000 PUSH0 MSTORE PUSH1 0x11 PUSH1 0x4 MSTORE PUSH1 0x24 PUSH0 REVERT JUMPDEST PUSH0 PUSH2 0x3DB3 DUP3 PUSH2 0x341A JUMP JUMPDEST SWAP2 POP PUSH2 0x3DBE DUP4 PUSH2 0x341A JUMP JUMPDEST SWAP3 POP DUP3 DUP3 SUB SWAP1 POP DUP2 DUP2 GT ISZERO PUSH2 0x3DD6 JUMPI PUSH2 0x3DD5 PUSH2 0x3D7C JUMP JUMPDEST JUMPDEST SWAP3 SWAP2 POP POP JUMP JUMPDEST PUSH32 0x416D6F756E74206D7573742062652067726561746572207468616E207A65726F PUSH0 DUP3 ADD MSTORE POP JUMP JUMPDEST PUSH0 PUSH2 0x3E10 PUSH1 0x20 DUP4 PUSH2 0x333A JUMP JUMPDEST SWAP2 POP PUSH2 0x3E1B DUP3 PUSH2 0x3DDC JUMP JUMPDEST PUSH1 0x20 DUP3 ADD SWAP1 POP SWAP2 SWAP1 POP JUMP JUMPDEST PUSH0 PUSH1 0x20 DUP3 ADD SWAP1 POP DUP2 DUP2 SUB PUSH0 DUP4 ADD MSTORE PUSH2 0x3E3D DUP2 PUSH2 0x3E04 JUMP JUMPDEST SWAP1 POP SWAP2 SWAP1 POP JUMP JUMPDEST PUSH0 DUP2 PUSH1 0x1 SHR SWAP1 POP SWAP2 SWAP1 POP JUMP JUMPDEST PUSH0 DUP1 DUP3 SWAP2 POP DUP4 SWAP1 POP JUMPDEST PUSH1 0x1 DUP6 GT ISZERO PUSH2 0x3E99 JUMPI DUP1 DUP7 DIV DUP2 GT ISZERO PUSH2 0x3E75 JUMPI PUSH2 0x3E74 PUSH2 0x3D7C JUMP JUMPDEST JUMPDEST PUSH1 0x1 DUP6 AND ISZERO PUSH2 0x3E84 JUMPI DUP1 DUP3 MUL SWAP2 POP JUMPDEST DUP1 DUP2 MUL SWAP1 POP PUSH2 0x3E92 DUP6 PUSH2 0x3E44 JUMP JUMPDEST SWAP5 POP PUSH2 0x3E59 JUMP JUMPDEST SWAP5 POP SWAP5 SWAP3 POP POP POP JUMP JUMPDEST PUSH0 DUP3 PUSH2 0x3EB1 JUMPI PUSH1 0x1 SWAP1 POP PUSH2 0x3F6C JUMP JUMPDEST DUP2 PUSH2 0x3EBE JUMPI PUSH0 SWAP1 POP PUSH2 0x3F6C JUMP JUMPDEST DUP2 PUSH1 0x1 DUP2 EQ PUSH2 0x3ED4 JUMPI PUSH1 0x2 DUP2 EQ PUSH2 0x3EDE JUMPI PUSH2 0x3F0D JUMP JUMPDEST PUSH1 0x1 SWAP2 POP POP PUSH2 0x3F6C JUMP JUMPDEST PUSH1 0xFF DUP5 GT ISZERO PUSH2 0x3EF0 JUMPI PUSH2 0x3EEF PUSH2 0x3D7C JUMP JUMPDEST JUMPDEST DUP4 PUSH1 0x2 EXP SWAP2 POP DUP5 DUP3 GT ISZERO PUSH2 0x3F07 JUMPI PUSH2 0x3F06 PUSH2 0x3D7C JUMP JUMPDEST JUMPDEST POP PUSH2 0x3F6C JUMP JUMPDEST POP PUSH1 0x20 DUP4 LT PUSH2 0x133 DUP4 LT AND PUSH1 0x4E DUP5 LT PUSH1 0xB DUP5 LT AND OR ISZERO PUSH2 0x3F42 JUMPI DUP3 DUP3 EXP SWAP1 POP DUP4 DUP2 GT ISZERO PUSH2 0x3F3D JUMPI PUSH2 0x3F3C PUSH2 0x3D7C JUMP JUMPDEST JUMPDEST PUSH2 0x3F6C JUMP JUMPDEST PUSH2 0x3F4F DUP5 DUP5 DUP5 PUSH1 0x1 PUSH2 0x3E50 JUMP JUMPDEST SWAP3 POP SWAP1 POP DUP2 DUP5 DIV DUP2 GT ISZERO PUSH2 0x3F66 JUMPI PUSH2 0x3F65 PUSH2 0x3D7C JUMP JUMPDEST JUMPDEST DUP2 DUP2 MUL SWAP1 POP JUMPDEST SWAP4 SWAP3 POP POP POP JUMP JUMPDEST PUSH0 PUSH2 0x3F7D DUP3 PUSH2 0x341A JUMP JUMPDEST SWAP2 POP PUSH2 0x3F88 DUP4 PUSH2 0x361D JUMP JUMPDEST SWAP3 POP PUSH2 0x3FB5 PUSH32 0xFFFFFFFFFFFFFFFFFFFFFFFFFFFFFFFFFFFFFFFFFFFFFFFFFFFFFFFFFFFFFFFF DUP5 DUP5 PUSH2 0x3EA2 JUMP JUMPDEST SWAP1 POP SWAP3 SWAP2 POP POP JUMP JUMPDEST PUSH0 PUSH2 0x3FC7 DUP3 PUSH2 0x341A JUMP JUMPDEST SWAP2 POP PUSH2 0x3FD2 DUP4 PUSH2 0x341A JUMP JUMPDEST SWAP3 POP DUP3 DUP3 MUL PUSH2 0x3FE0 DUP2 PUSH2 0x341A JUMP JUMPDEST SWAP2 POP DUP3 DUP3 DIV DUP5 EQ DUP4 ISZERO OR PUSH2 0x3FF7 JUMPI PUSH2 0x3FF6 PUSH2 0x3D7C JUMP JUMPDEST JUMPDEST POP SWAP3 SWAP2 POP POP JUMP JUMPDEST PUSH32 0x496E73756666696369656E7420746F6B656E2062616C616E6365000000000000 PUSH0 DUP3 ADD MSTORE POP JUMP JUMPDEST PUSH0 PUSH2 0x4032 PUSH1 0x1A DUP4 PUSH2 0x333A JUMP JUMPDEST SWAP2 POP PUSH2 0x403D DUP3 PUSH2 0x3FFE JUMP JUMPDEST PUSH1 0x20 DUP3 ADD SWAP1 POP SWAP2 SWAP1 POP JUMP JUMPDEST PUSH0 PUSH1 0x20 DUP3 ADD SWAP1 POP DUP2 DUP2 SUB PUSH0 DUP4 ADD MSTORE PUSH2 0x405F DUP2 PUSH2 0x4026 JUMP JUMPDEST SWAP1 POP SWAP2 SWAP1 POP JUMP JUMPDEST PUSH32 0x4E487B7100000000000000000000000000000000000000000000000000000000 PUSH0 MSTORE PUSH1 0x32 PUSH1 0x4 MSTORE PUSH1 0x24 PUSH0 REVERT JUMPDEST PUSH32 0x4E487B7100000000000000000000000000000000000000000000000000000000 PUSH0 MSTORE PUSH1 0x31 PUSH1 0x4 MSTORE PUSH1 0x24 PUSH0 REVERT JUMPDEST PUSH32 0x496E76616C6964206D696E657220616464726573730000000000000000000000 PUSH0 DUP3 ADD MSTORE POP JUMP JUMPDEST PUSH0 PUSH2 0x40F4 PUSH1 0x15 DUP4 PUSH2 0x333A JUMP JUMPDEST SWAP2 POP PUSH2 0x40FF DUP3 PUSH2 0x40C0 JUMP JUMPDEST PUSH1 0x20 DUP3 ADD SWAP1 POP SWAP2 SWAP1 POP JUMP JUMPDEST PUSH0 PUSH1 0x20 DUP3 ADD SWAP1 POP DUP2 DUP2 SUB PUSH0 DUP4 ADD MSTORE PUSH2 0x4121 DUP2 PUSH2 0x40E8 JUMP JUMPDEST SWAP1 POP SWAP2 SWAP1 POP JUMP JUMPDEST PUSH32 0x4549503731323A20556E696E697469616C697A65640000000000000000000000 PUSH0 DUP3 ADD MSTORE POP JUMP JUMPDEST PUSH0 PUSH2 0x415C PUSH1 0x15 DUP4 PUSH2 0x333A JUMP JUMPDEST SWAP2 POP PUSH2 0x4167 DUP3 PUSH2 0x4128 JUMP JUMPDEST PUSH1 0x20 DUP3 ADD SWAP1 POP SWAP2 SWAP1 POP JUMP JUMPDEST PUSH0 PUSH1 0x20 DUP3 ADD SWAP1 POP DUP2 DUP2 SUB PUSH0 DUP4 ADD MSTORE PUSH2 0x4189 DUP2 PUSH2 0x4150 JUMP JUMPDEST SWAP1 POP SWAP2 SWAP1 POP JUMP JUMPDEST PUSH0 DUP2 SWAP1 POP SWAP2 SWAP1 POP JUMP JUMPDEST PUSH0 PUSH8 0xFFFFFFFFFFFFFFFF DUP3 AND SWAP1 POP SWAP2 SWAP1 POP JUMP JUMPDEST PUSH0 DUP2 SWAP1 POP SWAP2 SWAP1 POP JUMP JUMPDEST PUSH0 PUSH2 0x41CF PUSH2 0x41CA PUSH2 0x41C5 DUP5 PUSH2 0x4190 JUMP JUMPDEST PUSH2 0x41AC JUMP JUMPDEST PUSH2 0x4199 JUMP JUMPDEST SWAP1 POP SWAP2 SWAP1 POP JUMP JUMPDEST PUSH2 0x41DF DUP2 PUSH2 0x41B5 JUMP JUMPDEST DUP3 MSTORE POP POP JUMP JUMPDEST PUSH0 PUSH1 0x20 DUP3 ADD SWAP1 POP PUSH2 0x41F8 PUSH0 DUP4 ADD DUP5 PUSH2 0x41D6 JUMP JUMPDEST SWAP3 SWAP2 POP POP JUMP JUMPDEST PUSH0 PUSH2 0x4208 DUP3 PUSH2 0x341A JUMP JUMPDEST SWAP2 POP PUSH2 0x4213 DUP4 PUSH2 0x341A JUMP JUMPDEST SWAP3 POP DUP3 DUP3 ADD SWAP1 POP DUP1 DUP3 GT ISZERO PUSH2 0x422B JUMPI PUSH2 0x422A PUSH2 0x3D7C JUMP JUMPDEST JUMPDEST SWAP3 SWAP2 POP POP JUMP JUMPDEST PUSH32 0x52657761726420696E74657276616C20686173206E6F74207061737365640000 PUSH0 DUP3 ADD MSTORE POP JUMP JUMPDEST PUSH0 PUSH2 0x4265 PUSH1 0x1E DUP4 PUSH2 0x333A JUMP JUMPDEST SWAP2 POP PUSH2 0x4270 DUP3 PUSH2 0x4231 JUMP JUMPDEST PUSH1 0x20 DUP3 ADD SWAP1 POP SWAP2 SWAP1 POP JUMP JUMPDEST PUSH0 PUSH1 0x20 DUP3 ADD SWAP1 POP DUP2 DUP2 SUB PUSH0 DUP4 ADD MSTORE PUSH2 0x4292 DUP2 PUSH2 0x4259 JUMP JUMPDEST SWAP1 POP SWAP2 SWAP1 POP JUMP JUMPDEST PUSH0 PUSH1 0xC0 DUP3 ADD SWAP1 POP PUSH2 0x42AC PUSH0 DUP4 ADD DUP10 PUSH2 0x358C JUMP JUMPDEST PUSH2 0x42B9 PUSH1 0x20 DUP4 ADD DUP9 PUSH2 0x3651 JUMP JUMPDEST PUSH2 0x42C6 PUSH1 0x40 DUP4 ADD DUP8 PUSH2 0x3651 JUMP JUMPDEST PUSH2 0x42D3 PUSH1 0x60 DUP4 ADD DUP7 PUSH2 0x348B JUMP JUMPDEST PUSH2 0x42E0 PUSH1 0x80 DUP4 ADD DUP6 PUSH2 0x348B JUMP JUMPDEST PUSH2 0x42ED PUSH1 0xA0 DUP4 ADD DUP5 PUSH2 0x348B JUMP JUMPDEST SWAP8 SWAP7 POP POP POP POP POP POP POP JUMP JUMPDEST PUSH0 PUSH1 0x40 DUP3 ADD SWAP1 POP PUSH2 0x430B PUSH0 DUP4 ADD DUP6 PUSH2 0x3651 JUMP JUMPDEST PUSH2 0x4318 PUSH1 0x20 DUP4 ADD DUP5 PUSH2 0x3651 JUMP JUMPDEST SWAP4 SWAP3 POP POP POP JUMP JUMPDEST PUSH0 DUP2 SWAP1 POP DUP2 PUSH0 MSTORE PUSH1 0x20 PUSH0 KECCAK256 SWAP1 POP SWAP2 SWAP1 POP JUMP JUMPDEST PUSH0 PUSH1 0x20 PUSH1 0x1F DUP4 ADD DIV SWAP1 POP SWAP2 SWAP1 POP JUMP JUMPDEST PUSH0 DUP3 DUP3 SHL SWAP1 POP SWAP3 SWAP2 POP POP JUMP JUMPDEST PUSH0 PUSH1 0x8 DUP4 MUL PUSH2 0x437B PUSH32 0xFFFFFFFFFFFFFFFFFFFFFFFFFFFFFFFFFFFFFFFFFFFFFFFFFFFFFFFFFFFFFFFF DUP3 PUSH2 0x4340 JUMP JUMPDEST PUSH2 0x4385 DUP7 DUP4 PUSH2 0x4340 JUMP JUMPDEST SWAP6 POP DUP1 NOT DUP5 AND SWAP4 POP DUP1 DUP7 AND DUP5 OR SWAP3 POP POP POP SWAP4 SWAP3 POP POP POP JUMP JUMPDEST PUSH0 PUSH2 0x43B7 PUSH2 0x43B2 PUSH2 0x43AD DUP5 PUSH2 0x341A JUMP JUMPDEST PUSH2 0x41AC JUMP JUMPDEST PUSH2 0x341A JUMP JUMPDEST SWAP1 POP SWAP2 SWAP1 POP JUMP JUMPDEST PUSH0 DUP2 SWAP1 POP SWAP2 SWAP1 POP JUMP JUMPDEST PUSH2 0x43D0 DUP4 PUSH2 0x439D JUMP JUMPDEST PUSH2 0x43E4 PUSH2 0x43DC DUP3 PUSH2 0x43BE JUMP JUMPDEST DUP5 DUP5 SLOAD PUSH2 0x434C JUMP JUMPDEST DUP3 SSTORE POP POP POP POP JUMP JUMPDEST PUSH0 SWAP1 JUMP JUMPDEST PUSH2 0x43F8 PUSH2 0x43EC JUMP JUMPDEST PUSH2 0x4403 DUP2 DUP5 DUP5 PUSH2 0x43C7 JUMP JUMPDEST POP POP POP JUMP JUMPDEST JUMPDEST DUP2 DUP2 LT ISZERO PUSH2 0x4426 JUMPI PUSH2 0x441B PUSH0 DUP3 PUSH2 0x43F0 JUMP JUMPDEST PUSH1 0x1 DUP2 ADD SWAP1 POP PUSH2 0x4409 JUMP JUMPDEST POP POP JUMP JUMPDEST PUSH1 0x1F DUP3 GT ISZERO PUSH2 0x446B JUMPI PUSH2 0x443C DUP2 PUSH2 0x431F JUMP JUMPDEST PUSH2 0x4445 DUP5 PUSH2 0x4331 JUMP JUMPDEST DUP2 ADD PUSH1 0x20 DUP6 LT ISZERO PUSH2 0x4454 JUMPI DUP2 SWAP1 POP JUMPDEST PUSH2 0x4468 PUSH2 0x4460 DUP6 PUSH2 0x4331 JUMP JUMPDEST DUP4 ADD DUP3 PUSH2 0x4408 JUMP JUMPDEST POP POP JUMPDEST POP POP POP JUMP JUMPDEST PUSH0 DUP3 DUP3 SHR SWAP1 POP SWAP3 SWAP2 POP POP JUMP JUMPDEST PUSH0 PUSH2 0x448B PUSH0 NOT DUP5 PUSH1 0x8 MUL PUSH2 0x4470 JUMP JUMPDEST NOT DUP1 DUP4 AND SWAP2 POP POP SWAP3 SWAP2 POP POP JUMP JUMPDEST PUSH0 PUSH2 0x44A3 DUP4 DUP4 PUSH2 0x447C JUMP JUMPDEST SWAP2 POP DUP3 PUSH1 0x2 MUL DUP3 OR SWAP1 POP SWAP3 SWAP2 POP POP JUMP JUMPDEST PUSH2 0x44BC DUP3 PUSH2 0x3330 JUMP JUMPDEST PUSH8 0xFFFFFFFFFFFFFFFF DUP2 GT ISZERO PUSH2 0x44D5 JUMPI PUSH2 0x44D4 PUSH2 0x3927 JUMP JUMPDEST JUMPDEST PUSH2 0x44DF DUP3 SLOAD PUSH2 0x3AD2 JUMP JUMPDEST PUSH2 0x44EA DUP3 DUP3 DUP6 PUSH2 0x442A JUMP JUMPDEST PUSH0 PUSH1 0x20 SWAP1 POP PUSH1 0x1F DUP4 GT PUSH1 0x1 DUP2 EQ PUSH2 0x451B JUMPI PUSH0 DUP5 ISZERO PUSH2 0x4509 JUMPI DUP3 DUP8 ADD MLOAD SWAP1 POP JUMPDEST PUSH2 0x4513 DUP6 DUP3 PUSH2 0x4498 JUMP JUMPDEST DUP7 SSTORE POP PUSH2 0x457A JUMP JUMPDEST PUSH1 0x1F NOT DUP5 AND PUSH2 0x4529 DUP7 PUSH2 0x431F JUMP JUMPDEST PUSH0 JUMPDEST DUP3 DUP2 LT ISZERO PUSH2 0x4550 JUMPI DUP5 DUP10 ADD MLOAD DUP3 SSTORE PUSH1 0x1 DUP3 ADD SWAP2 POP PUSH1 0x20 DUP6 ADD SWAP5 POP PUSH1 0x20 DUP2 ADD SWAP1 POP PUSH2 0x452B JUMP JUMPDEST DUP7 DUP4 LT ISZERO PUSH2 0x456D JUMPI DUP5 DUP10 ADD MLOAD PUSH2 0x4569 PUSH1 0x1F DUP10 AND DUP3 PUSH2 0x447C JUMP JUMPDEST DUP4 SSTORE POP JUMPDEST PUSH1 0x1 PUSH1 0x2 DUP9 MUL ADD DUP9 SSTORE POP POP POP JUMPDEST POP POP POP POP POP POP JUMP JUMPDEST PUSH0 PUSH1 0x60 DUP3 ADD SWAP1 POP PUSH2 0x4595 PUSH0 DUP4 ADD DUP7 PUSH2 0x3651 JUMP JUMPDEST PUSH2 0x45A2 PUSH1 0x20 DUP4 ADD DUP6 PUSH2 0x348B JUMP JUMPDEST PUSH2 0x45AF PUSH1 0x40 DUP4 ADD DUP5 PUSH2 0x348B JUMP JUMPDEST SWAP5 SWAP4 POP POP POP POP JUMP JUMPDEST PUSH0 PUSH1 0x40 DUP3 ADD SWAP1 POP PUSH2 0x45CA PUSH0 DUP4 ADD DUP6 PUSH2 0x3651 JUMP JUMPDEST PUSH2 0x45D7 PUSH1 0x20 DUP4 ADD DUP5 PUSH2 0x358C JUMP JUMPDEST SWAP4 SWAP3 POP POP POP JUMP JUMPDEST PUSH0 PUSH1 0xA0 DUP3 ADD SWAP1 POP PUSH2 0x45F1 PUSH0 DUP4 ADD DUP9 PUSH2 0x358C JUMP JUMPDEST PUSH2 0x45FE PUSH1 0x20 DUP4 ADD DUP8 PUSH2 0x358C JUMP JUMPDEST PUSH2 0x460B PUSH1 0x40 DUP4 ADD DUP7 PUSH2 0x358C JUMP JUMPDEST PUSH2 0x4618 PUSH1 0x60 DUP4 ADD DUP6 PUSH2 0x348B JUMP JUMPDEST PUSH2 0x4625 PUSH1 0x80 DUP4 ADD DUP5 PUSH2 0x3651 JUMP JUMPDEST SWAP7 SWAP6 POP POP POP POP POP POP JUMP JUMPDEST PUSH0 PUSH1 0x80 DUP3 ADD SWAP1 POP PUSH2 0x4642 PUSH0 DUP4 ADD DUP8 PUSH2 0x358C JUMP JUMPDEST PUSH2 0x464F PUSH1 0x20 DUP4 ADD DUP7 PUSH2 0x3629 JUMP JUMPDEST PUSH2 0x465C PUSH1 0x40 DUP4 ADD DUP6 PUSH2 0x358C JUMP JUMPDEST PUSH2 0x4669 PUSH1 0x60 DUP4 ADD DUP5 PUSH2 0x358C JUMP JUMPDEST SWAP6 SWAP5 POP POP POP POP POP JUMP JUMPDEST PUSH32 0x4E487B7100000000000000000000000000000000000000000000000000000000 PUSH0 MSTORE PUSH1 0x21 PUSH1 0x4 MSTORE PUSH1 0x24 PUSH0 REVERT INVALID LOG2 PUSH5 0x6970667358 0x22 SLT KECCAK256 DUP1 SELFBALANCE 0xB9 LOG0 PUSH25 0xA649D414C4C185394C1F23CCDDB44E9D47C4D6267F00FC7ECA DIV 0xDC PUSH5 0x736F6C6343 STOP ADDMOD NOT STOP CALLER "
		},
		"gasEstimates": {
			"creation": {
				"codeDepositCost": "3626600",
				"executionCost": "infinite",
				"totalCost": "infinite"
			},
			"external": {
				"DEFAULT_ADMIN_ROLE()": "463",
				"DOMAIN_SEPARATOR()": "infinite",
				"NODE_MAINTAINER_ROLE()": "392",
				"NODE_REWARD()": "414",
				"REWARD_INTERVAL()": "436",
				"allowance(address,address)": "infinite",
				"approve(address,uint256)": "infinite",
				"balanceOf(address)": "3014",
				"burn(uint256)": "infinite",
				"burnFrom(address,uint256)": "infinite",
				"decimals()": "384",
				"deposit(uint256,string)": "infinite",
				"deposits(address,uint256)": "infinite",
				"eip712Domain()": "infinite",
				"getRoleAdmin(bytes32)": "infinite",
				"grantRole(bytes32,address)": "infinite",
				"hasRole(bytes32,address)": "3263",
				"initialize(address)": "infinite",
				"name()": "infinite",
				"nodeMaintainer()": "2550",
				"nodes(address)": "2861",
				"nonces(address)": "3035",
				"owner()": "2634",
				"pause()": "infinite",
				"paused()": "2614",
				"permit(address,address,uint256,uint256,uint8,bytes32,bytes32)": "infinite",
				"renounceOwnership()": "infinite",
				"renounceRole(bytes32,address)": "infinite",
				"revokeRole(bytes32,address)": "infinite",
				"rewardBlockMiner()": "infinite",
				"rewardNode(address)": "infinite",
				"supportsInterface(bytes4)": "764",
				"symbol()": "infinite",
				"totalSupply()": "2598",
				"transfer(address,uint256)": "infinite",
				"transferFrom(address,address,uint256)": "infinite",
				"transferOwnership(address)": "infinite",
				"unpause()": "infinite",
				"withdraw(uint256)": "infinite"
			},
			"internal": {
				"_update(address,address,uint256)": "infinite"
			}
		},
		"methodIdentifiers": {
			"DEFAULT_ADMIN_ROLE()": "a217fddf",
			"DOMAIN_SEPARATOR()": "3644e515",
			"NODE_MAINTAINER_ROLE()": "56995d66",
			"NODE_REWARD()": "c5b779de",
			"REWARD_INTERVAL()": "5dbdda69",
			"allowance(address,address)": "dd62ed3e",
			"approve(address,uint256)": "095ea7b3",
			"balanceOf(address)": "70a08231",
			"burn(uint256)": "42966c68",
			"burnFrom(address,uint256)": "79cc6790",
			"decimals()": "313ce567",
			"deposit(uint256,string)": "f1215d25",
			"deposits(address,uint256)": "d6d68177",
			"eip712Domain()": "84b0196e",
			"getRoleAdmin(bytes32)": "248a9ca3",
			"grantRole(bytes32,address)": "2f2ff15d",
			"hasRole(bytes32,address)": "91d14854",
			"initialize(address)": "c4d66de8",
			"name()": "06fdde03",
			"nodeMaintainer()": "528fdc63",
			"nodes(address)": "189a5a17",
			"nonces(address)": "7ecebe00",
			"owner()": "8da5cb5b",
			"pause()": "8456cb59",
			"paused()": "5c975abb",
			"permit(address,address,uint256,uint256,uint8,bytes32,bytes32)": "d505accf",
			"renounceOwnership()": "715018a6",
			"renounceRole(bytes32,address)": "36568abe",
			"revokeRole(bytes32,address)": "d547741f",
			"rewardBlockMiner()": "776c6a7b",
			"rewardNode(address)": "d0b3a9bd",
			"supportsInterface(bytes4)": "01ffc9a7",
			"symbol()": "95d89b41",
			"totalSupply()": "18160ddd",
			"transfer(address,uint256)": "a9059cbb",
			"transferFrom(address,address,uint256)": "23b872dd",
			"transferOwnership(address)": "f2fde38b",
			"unpause()": "3f4ba83a",
			"withdraw(uint256)": "2e1a7d4d"
		}
	},
	"abi": [
		{
			"inputs": [],
			"stateMutability": "nonpayable",
			"type": "constructor"
		},
		{
			"inputs": [],
			"name": "AccessControlBadConfirmation",
			"type": "error"
		},
		{
			"inputs": [
				{
					"internalType": "address",
					"name": "account",
					"type": "address"
				},
				{
					"internalType": "bytes32",
					"name": "neededRole",
					"type": "bytes32"
				}
			],
			"name": "AccessControlUnauthorizedAccount",
			"type": "error"
		},
		{
			"inputs": [],
			"name": "ECDSAInvalidSignature",
			"type": "error"
		},
		{
			"inputs": [
				{
					"internalType": "uint256",
					"name": "length",
					"type": "uint256"
				}
			],
			"name": "ECDSAInvalidSignatureLength",
			"type": "error"
		},
		{
			"inputs": [
				{
					"internalType": "bytes32",
					"name": "s",
					"type": "bytes32"
				}
			],
			"name": "ECDSAInvalidSignatureS",
			"type": "error"
		},
		{
			"inputs": [
				{
					"internalType": "address",
					"name": "spender",
					"type": "address"
				},
				{
					"internalType": "uint256",
					"name": "allowance",
					"type": "uint256"
				},
				{
					"internalType": "uint256",
					"name": "needed",
					"type": "uint256"
				}
			],
			"name": "ERC20InsufficientAllowance",
			"type": "error"
		},
		{
			"inputs": [
				{
					"internalType": "address",
					"name": "sender",
					"type": "address"
				},
				{
					"internalType": "uint256",
					"name": "balance",
					"type": "uint256"
				},
				{
					"internalType": "uint256",
					"name": "needed",
					"type": "uint256"
				}
			],
			"name": "ERC20InsufficientBalance",
			"type": "error"
		},
		{
			"inputs": [
				{
					"internalType": "address",
					"name": "approver",
					"type": "address"
				}
			],
			"name": "ERC20InvalidApprover",
			"type": "error"
		},
		{
			"inputs": [
				{
					"internalType": "address",
					"name": "receiver",
					"type": "address"
				}
			],
			"name": "ERC20InvalidReceiver",
			"type": "error"
		},
		{
			"inputs": [
				{
					"internalType": "address",
					"name": "sender",
					"type": "address"
				}
			],
			"name": "ERC20InvalidSender",
			"type": "error"
		},
		{
			"inputs": [
				{
					"internalType": "address",
					"name": "spender",
					"type": "address"
				}
			],
			"name": "ERC20InvalidSpender",
			"type": "error"
		},
		{
			"inputs": [
				{
					"internalType": "uint256",
					"name": "deadline",
					"type": "uint256"
				}
			],
			"name": "ERC2612ExpiredSignature",
			"type": "error"
		},
		{
			"inputs": [
				{
					"internalType": "address",
					"name": "signer",
					"type": "address"
				},
				{
					"internalType": "address",
					"name": "owner",
					"type": "address"
				}
			],
			"name": "ERC2612InvalidSigner",
			"type": "error"
		},
		{
			"inputs": [],
			"name": "EnforcedPause",
			"type": "error"
		},
		{
			"inputs": [],
			"name": "ExpectedPause",
			"type": "error"
		},
		{
			"inputs": [
				{
					"internalType": "address",
					"name": "account",
					"type": "address"
				},
				{
					"internalType": "uint256",
					"name": "currentNonce",
					"type": "uint256"
				}
			],
			"name": "InvalidAccountNonce",
			"type": "error"
		},
		{
			"inputs": [],
			"name": "InvalidInitialization",
			"type": "error"
		},
		{
			"inputs": [],
			"name": "NotInitializing",
			"type": "error"
		},
		{
			"inputs": [
				{
					"internalType": "address",
					"name": "owner",
					"type": "address"
				}
			],
			"name": "OwnableInvalidOwner",
			"type": "error"
		},
		{
			"inputs": [
				{
					"internalType": "address",
					"name": "account",
					"type": "address"
				}
			],
			"name": "OwnableUnauthorizedAccount",
			"type": "error"
		},
		{
			"anonymous": false,
			"inputs": [
				{
					"indexed": true,
					"internalType": "address",
					"name": "owner",
					"type": "address"
				},
				{
					"indexed": true,
					"internalType": "address",
					"name": "spender",
					"type": "address"
				},
				{
					"indexed": false,
					"internalType": "uint256",
					"name": "value",
					"type": "uint256"
				}
			],
			"name": "Approval",
			"type": "event"
		},
		{
			"anonymous": false,
			"inputs": [],
			"name": "EIP712DomainChanged",
			"type": "event"
		},
		{
			"anonymous": false,
			"inputs": [
				{
					"indexed": false,
					"internalType": "uint64",
					"name": "version",
					"type": "uint64"
				}
			],
			"name": "Initialized",
			"type": "event"
		},
		{
			"anonymous": false,
			"inputs": [
				{
					"indexed": true,
					"internalType": "address",
					"name": "previousOwner",
					"type": "address"
				},
				{
					"indexed": true,
					"internalType": "address",
					"name": "newOwner",
					"type": "address"
				}
			],
			"name": "OwnershipTransferred",
			"type": "event"
		},
		{
			"anonymous": false,
			"inputs": [
				{
					"indexed": false,
					"internalType": "address",
					"name": "account",
					"type": "address"
				}
			],
			"name": "Paused",
			"type": "event"
		},
		{
			"anonymous": false,
			"inputs": [
				{
					"indexed": true,
					"internalType": "bytes32",
					"name": "role",
					"type": "bytes32"
				},
				{
					"indexed": true,
					"internalType": "bytes32",
					"name": "previousAdminRole",
					"type": "bytes32"
				},
				{
					"indexed": true,
					"internalType": "bytes32",
					"name": "newAdminRole",
					"type": "bytes32"
				}
			],
			"name": "RoleAdminChanged",
			"type": "event"
		},
		{
			"anonymous": false,
			"inputs": [
				{
					"indexed": true,
					"internalType": "bytes32",
					"name": "role",
					"type": "bytes32"
				},
				{
					"indexed": true,
					"internalType": "address",
					"name": "account",
					"type": "address"
				},
				{
					"indexed": true,
					"internalType": "address",
					"name": "sender",
					"type": "address"
				}
			],
			"name": "RoleGranted",
			"type": "event"
		},
		{
			"anonymous": false,
			"inputs": [
				{
					"indexed": true,
					"internalType": "bytes32",
					"name": "role",
					"type": "bytes32"
				},
				{
					"indexed": true,
					"internalType": "address",
					"name": "account",
					"type": "address"
				},
				{
					"indexed": true,
					"internalType": "address",
					"name": "sender",
					"type": "address"
				}
			],
			"name": "RoleRevoked",
			"type": "event"
		},
		{
			"anonymous": false,
			"inputs": [
				{
					"indexed": true,
					"internalType": "address",
					"name": "from",
					"type": "address"
				},
				{
					"indexed": true,
					"internalType": "address",
					"name": "to",
					"type": "address"
				},
				{
					"indexed": false,
					"internalType": "uint256",
					"name": "value",
					"type": "uint256"
				}
			],
			"name": "Transfer",
			"type": "event"
		},
		{
			"anonymous": false,
			"inputs": [
				{
					"indexed": false,
					"internalType": "address",
					"name": "account",
					"type": "address"
				}
			],
			"name": "Unpaused",
			"type": "event"
		},
		{
			"inputs": [],
			"name": "DEFAULT_ADMIN_ROLE",
			"outputs": [
				{
					"internalType": "bytes32",
					"name": "",
					"type": "bytes32"
				}
			],
			"stateMutability": "view",
			"type": "function"
		},
		{
			"inputs": [],
			"name": "DOMAIN_SEPARATOR",
			"outputs": [
				{
					"internalType": "bytes32",
					"name": "",
					"type": "bytes32"
				}
			],
			"stateMutability": "view",
			"type": "function"
		},
		{
			"inputs": [],
			"name": "NODE_MAINTAINER_ROLE",
			"outputs": [
				{
					"internalType": "bytes32",
					"name": "",
					"type": "bytes32"
				}
			],
			"stateMutability": "view",
			"type": "function"
		},
		{
			"inputs": [],
			"name": "NODE_REWARD",
			"outputs": [
				{
					"internalType": "uint256",
					"name": "",
					"type": "uint256"
				}
			],
			"stateMutability": "view",
			"type": "function"
		},
		{
			"inputs": [],
			"name": "REWARD_INTERVAL",
			"outputs": [
				{
					"internalType": "uint256",
					"name": "",
					"type": "uint256"
				}
			],
			"stateMutability": "view",
			"type": "function"
		},
		{
			"inputs": [
				{
					"internalType": "address",
					"name": "owner",
					"type": "address"
				},
				{
					"internalType": "address",
					"name": "spender",
					"type": "address"
				}
			],
			"name": "allowance",
			"outputs": [
				{
					"internalType": "uint256",
					"name": "",
					"type": "uint256"
				}
			],
			"stateMutability": "view",
			"type": "function"
		},
		{
			"inputs": [
				{
					"internalType": "address",
					"name": "spender",
					"type": "address"
				},
				{
					"internalType": "uint256",
					"name": "value",
					"type": "uint256"
				}
			],
			"name": "approve",
			"outputs": [
				{
					"internalType": "bool",
					"name": "",
					"type": "bool"
				}
			],
			"stateMutability": "nonpayable",
			"type": "function"
		},
		{
			"inputs": [
				{
					"internalType": "address",
					"name": "account",
					"type": "address"
				}
			],
			"name": "balanceOf",
			"outputs": [
				{
					"internalType": "uint256",
					"name": "",
					"type": "uint256"
				}
			],
			"stateMutability": "view",
			"type": "function"
		},
		{
			"inputs": [
				{
					"internalType": "uint256",
					"name": "value",
					"type": "uint256"
				}
			],
			"name": "burn",
			"outputs": [],
			"stateMutability": "nonpayable",
			"type": "function"
		},
		{
			"inputs": [
				{
					"internalType": "address",
					"name": "account",
					"type": "address"
				},
				{
					"internalType": "uint256",
					"name": "value",
					"type": "uint256"
				}
			],
			"name": "burnFrom",
			"outputs": [],
			"stateMutability": "nonpayable",
			"type": "function"
		},
		{
			"inputs": [],
			"name": "decimals",
			"outputs": [
				{
					"internalType": "uint8",
					"name": "",
					"type": "uint8"
				}
			],
			"stateMutability": "view",
			"type": "function"
		},
		{
			"inputs": [
				{
					"internalType": "uint256",
					"name": "amount",
					"type": "uint256"
				},
				{
					"internalType": "string",
					"name": "bankId",
					"type": "string"
				}
			],
			"name": "deposit",
			"outputs": [],
			"stateMutability": "nonpayable",
			"type": "function"
		},
		{
			"inputs": [
				{
					"internalType": "address",
					"name": "",
					"type": "address"
				},
				{
					"internalType": "uint256",
					"name": "",
					"type": "uint256"
				}
			],
			"name": "deposits",
			"outputs": [
				{
					"internalType": "uint256",
					"name": "amount",
					"type": "uint256"
				},
				{
					"internalType": "string",
					"name": "bankId",
					"type": "string"
				}
			],
			"stateMutability": "view",
			"type": "function"
		},
		{
			"inputs": [],
			"name": "eip712Domain",
			"outputs": [
				{
					"internalType": "bytes1",
					"name": "fields",
					"type": "bytes1"
				},
				{
					"internalType": "string",
					"name": "name",
					"type": "string"
				},
				{
					"internalType": "string",
					"name": "version",
					"type": "string"
				},
				{
					"internalType": "uint256",
					"name": "chainId",
					"type": "uint256"
				},
				{
					"internalType": "address",
					"name": "verifyingContract",
					"type": "address"
				},
				{
					"internalType": "bytes32",
					"name": "salt",
					"type": "bytes32"
				},
				{
					"internalType": "uint256[]",
					"name": "extensions",
					"type": "uint256[]"
				}
			],
			"stateMutability": "view",
			"type": "function"
		},
		{
			"inputs": [
				{
					"internalType": "bytes32",
					"name": "role",
					"type": "bytes32"
				}
			],
			"name": "getRoleAdmin",
			"outputs": [
				{
					"internalType": "bytes32",
					"name": "",
					"type": "bytes32"
				}
			],
			"stateMutability": "view",
			"type": "function"
		},
		{
			"inputs": [
				{
					"internalType": "bytes32",
					"name": "role",
					"type": "bytes32"
				},
				{
					"internalType": "address",
					"name": "account",
					"type": "address"
				}
			],
			"name": "grantRole",
			"outputs": [],
			"stateMutability": "nonpayable",
			"type": "function"
		},
		{
			"inputs": [
				{
					"internalType": "bytes32",
					"name": "role",
					"type": "bytes32"
				},
				{
					"internalType": "address",
					"name": "account",
					"type": "address"
				}
			],
			"name": "hasRole",
			"outputs": [
				{
					"internalType": "bool",
					"name": "",
					"type": "bool"
				}
			],
			"stateMutability": "view",
			"type": "function"
		},
		{
			"inputs": [
				{
					"internalType": "address",
					"name": "_nodeMaintainer",
					"type": "address"
				}
			],
			"name": "initialize",
			"outputs": [],
			"stateMutability": "nonpayable",
			"type": "function"
		},
		{
			"inputs": [],
			"name": "name",
			"outputs": [
				{
					"internalType": "string",
					"name": "",
					"type": "string"
				}
			],
			"stateMutability": "view",
			"type": "function"
		},
		{
			"inputs": [],
			"name": "nodeMaintainer",
			"outputs": [
				{
					"internalType": "address",
					"name": "",
					"type": "address"
				}
			],
			"stateMutability": "view",
			"type": "function"
		},
		{
			"inputs": [
				{
					"internalType": "address",
					"name": "",
					"type": "address"
				}
			],
			"name": "nodes",
			"outputs": [
				{
					"internalType": "uint256",
					"name": "lastRewardTime",
					"type": "uint256"
				}
			],
			"stateMutability": "view",
			"type": "function"
		},
		{
			"inputs": [
				{
					"internalType": "address",
					"name": "owner",
					"type": "address"
				}
			],
			"name": "nonces",
			"outputs": [
				{
					"internalType": "uint256",
					"name": "",
					"type": "uint256"
				}
			],
			"stateMutability": "view",
			"type": "function"
		},
		{
			"inputs": [],
			"name": "owner",
			"outputs": [
				{
					"internalType": "address",
					"name": "",
					"type": "address"
				}
			],
			"stateMutability": "view",
			"type": "function"
		},
		{
			"inputs": [],
			"name": "pause",
			"outputs": [],
			"stateMutability": "nonpayable",
			"type": "function"
		},
		{
			"inputs": [],
			"name": "paused",
			"outputs": [
				{
					"internalType": "bool",
					"name": "",
					"type": "bool"
				}
			],
			"stateMutability": "view",
			"type": "function"
		},
		{
			"inputs": [
				{
					"internalType": "address",
					"name": "owner",
					"type": "address"
				},
				{
					"internalType": "address",
					"name": "spender",
					"type": "address"
				},
				{
					"internalType": "uint256",
					"name": "value",
					"type": "uint256"
				},
				{
					"internalType": "uint256",
					"name": "deadline",
					"type": "uint256"
				},
				{
					"internalType": "uint8",
					"name": "v",
					"type": "uint8"
				},
				{
					"internalType": "bytes32",
					"name": "r",
					"type": "bytes32"
				},
				{
					"internalType": "bytes32",
					"name": "s",
					"type": "bytes32"
				}
			],
			"name": "permit",
			"outputs": [],
			"stateMutability": "nonpayable",
			"type": "function"
		},
		{
			"inputs": [],
			"name": "renounceOwnership",
			"outputs": [],
			"stateMutability": "nonpayable",
			"type": "function"
		},
		{
			"inputs": [
				{
					"internalType": "bytes32",
					"name": "role",
					"type": "bytes32"
				},
				{
					"internalType": "address",
					"name": "callerConfirmation",
					"type": "address"
				}
			],
			"name": "renounceRole",
			"outputs": [],
			"stateMutability": "nonpayable",
			"type": "function"
		},
		{
			"inputs": [
				{
					"internalType": "bytes32",
					"name": "role",
					"type": "bytes32"
				},
				{
					"internalType": "address",
					"name": "account",
					"type": "address"
				}
			],
			"name": "revokeRole",
			"outputs": [],
			"stateMutability": "nonpayable",
			"type": "function"
		},
		{
			"inputs": [],
			"name": "rewardBlockMiner",
			"outputs": [],
			"stateMutability": "nonpayable",
			"type": "function"
		},
		{
			"inputs": [
				{
					"internalType": "address",
					"name": "node",
					"type": "address"
				}
			],
			"name": "rewardNode",
			"outputs": [],
			"stateMutability": "nonpayable",
			"type": "function"
		},
		{
			"inputs": [
				{
					"internalType": "bytes4",
					"name": "interfaceId",
					"type": "bytes4"
				}
			],
			"name": "supportsInterface",
			"outputs": [
				{
					"internalType": "bool",
					"name": "",
					"type": "bool"
				}
			],
			"stateMutability": "view",
			"type": "function"
		},
		{
			"inputs": [],
			"name": "symbol",
			"outputs": [
				{
					"internalType": "string",
					"name": "",
					"type": "string"
				}
			],
			"stateMutability": "view",
			"type": "function"
		},
		{
			"inputs": [],
			"name": "totalSupply",
			"outputs": [
				{
					"internalType": "uint256",
					"name": "",
					"type": "uint256"
				}
			],
			"stateMutability": "view",
			"type": "function"
		},
		{
			"inputs": [
				{
					"internalType": "address",
					"name": "to",
					"type": "address"
				},
				{
					"internalType": "uint256",
					"name": "amount",
					"type": "uint256"
				}
			],
			"name": "transfer",
			"outputs": [
				{
					"internalType": "bool",
					"name": "",
					"type": "bool"
				}
			],
			"stateMutability": "nonpayable",
			"type": "function"
		},
		{
			"inputs": [
				{
					"internalType": "address",
					"name": "from",
					"type": "address"
				},
				{
					"internalType": "address",
					"name": "to",
					"type": "address"
				},
				{
					"internalType": "uint256",
					"name": "amount",
					"type": "uint256"
				}
			],
			"name": "transferFrom",
			"outputs": [
				{
					"internalType": "bool",
					"name": "",
					"type": "bool"
				}
			],
			"stateMutability": "nonpayable",
			"type": "function"
		},
		{
			"inputs": [
				{
					"internalType": "address",
					"name": "newOwner",
					"type": "address"
				}
			],
			"name": "transferOwnership",
			"outputs": [],
			"stateMutability": "nonpayable",
			"type": "function"
		},
		{
			"inputs": [],
			"name": "unpause",
			"outputs": [],
			"stateMutability": "nonpayable",
			"type": "function"
		},
		{
			"inputs": [
				{
					"internalType": "uint256",
					"name": "amount",
					"type": "uint256"
				}
			],
			"name": "withdraw",
			"outputs": [],
			"stateMutability": "nonpayable",
			"type": "function"
		}
	]
}