{
	"data": {
		"bytecode": {
			"linkReferences": {},
			"object": "608060405234801561000f575f80fd5b5061001e61002360201b60201c565b610183565b5f61003261012160201b60201c565b9050805f0160089054906101000a900460ff161561007c576040517ff92ee8a900000000000000000000000000000000000000000000000000000000815260040160405180910390fd5b67ffffffffffffffff8016815f015f9054906101000a900467ffffffffffffffff1667ffffffffffffffff161461011e5767ffffffffffffffff815f015f6101000a81548167ffffffffffffffff021916908367ffffffffffffffff1602179055507fc7f505b2f371ae2175ee4913f4499e1f2633a7b5936321eed1cdaeb6115181d267ffffffffffffffff604051610115919061016a565b60405180910390a15b50565b5f7ff0c57e16840df040f15088dc2f81fe391c3923bec73e23a9662efc9c229c6a00905090565b5f67ffffffffffffffff82169050919050565b61016481610148565b82525050565b5f60208201905061017d5f83018461015b565b92915050565b613e22806101905f395ff3fe608060405234801561000f575f80fd5b5060043610610230575f3560e01c806379cc67901161012e578063a8469ce9116100b6578063d547741f1161007a578063d547741f1461065c578063d6d6817714610678578063dd62ed3e146106a9578063f1215d25146106d9578063f2fde38b146106f557610230565b8063a8469ce9146105b8578063a9059cbb146105d6578063c4d66de814610606578063c5b779de14610622578063d505accf1461064057610230565b80638da5cb5b116100fd5780638da5cb5b1461052457806391d148541461054257806395d89b411461057257806399f4b25114610590578063a217fddf1461059a57610230565b806379cc6790146104aa5780637ecebe00146104c65780638456cb59146104f657806384b0196e1461050057610230565b8063313ce567116101bc578063528fdc6311610180578063528fdc63146104165780635c975abb146104345780635dbdda691461045257806370a0823114610470578063715018a6146104a057610230565b8063313ce567146103985780633644e515146103b657806336568abe146103d45780633f4ba83a146103f057806342966c68146103fa57610230565b8063189a5a1711610203578063189a5a17146102d057806323b872dd14610300578063248a9ca3146103305780632e1a7d4d146103605780632f2ff15d1461037c57610230565b806301ffc9a71461023457806306fdde0314610264578063095ea7b31461028257806318160ddd146102b2575b5f80fd5b61024e60048036038101906102499190612d69565b610711565b60405161025b9190612dae565b60405180910390f35b61026c61078a565b6040516102799190612e37565b60405180910390f35b61029c60048036038101906102979190612ee4565b610828565b6040516102a99190612dae565b60405180910390f35b6102ba61084a565b6040516102c79190612f31565b60405180910390f35b6102ea60048036038101906102e59190612f4a565b610861565b6040516102f79190612f31565b60405180910390f35b61031a60048036038101906103159190612f75565b61087b565b6040516103279190612dae565b60405180910390f35b61034a60048036038101906103459190612ff8565b6108a9565b6040516103579190613032565b60405180910390f35b61037a6004803603810190610375919061304b565b6108d3565b005b61039660048036038101906103919190613076565b610c76565b005b6103a0610c98565b6040516103ad91906130cf565b60405180910390f35b6103be610ca0565b6040516103cb9190613032565b60405180910390f35b6103ee60048036038101906103e99190613076565b610cae565b005b6103f8610d29565b005b610414600480360381019061040f919061304b565b610d3b565b005b61041e610d4f565b60405161042b91906130f7565b60405180910390f35b61043c610d72565b6040516104499190612dae565b60405180910390f35b61045a610d94565b6040516104679190612f31565b60405180910390f35b61048a60048036038101906104859190612f4a565b610d9b565b6040516104979190612f31565b60405180910390f35b6104a8610dee565b005b6104c460048036038101906104bf9190612ee4565b610e01565b005b6104e060048036038101906104db9190612f4a565b610e21565b6040516104ed9190612f31565b60405180910390f35b6104fe610e32565b005b610508610e44565b60405161051b9796959493929190613201565b60405180910390f35b61052c610f4d565b60405161053991906130f7565b60405180910390f35b61055c60048036038101906105579190613076565b610f82565b6040516105699190612dae565b60405180910390f35b61057a610ff3565b6040516105879190612e37565b60405180910390f35b610598611091565b005b6105a26110a1565b6040516105af9190613032565b60405180910390f35b6105c06110a7565b6040516105cd9190612f31565b60405180910390f35b6105f060048036038101906105eb9190612ee4565b6110af565b6040516105fd9190612dae565b60405180910390f35b610620600480360381019061061b9190612f4a565b6110d1565b005b61062a611352565b6040516106379190612f31565b60405180910390f35b61065a600480360381019061065591906132ad565b61135a565b005b61067660048036038101906106719190613076565b61149f565b005b610692600480360381019061068d9190612ee4565b6114c1565b6040516106a092919061334a565b60405180910390f35b6106c360048036038101906106be9190613378565b611581565b6040516106d09190612f31565b60405180910390f35b6106f360048036038101906106ee91906134e2565b611611565b005b61070f600480360381019061070a9190612f4a565b611717565b005b5f7f7965db0b000000000000000000000000000000000000000000000000000000007bffffffffffffffffffffffffffffffffffffffffffffffffffffffff1916827bffffffffffffffffffffffffffffffffffffffffffffffffffffffff1916148061078357506107828261179b565b5b9050919050565b60605f610795611804565b90508060030180546107a690613569565b80601f01602080910402602001604051908101604052809291908181526020018280546107d290613569565b801561081d5780601f106107f45761010080835404028352916020019161081d565b820191905f5260205f20905b81548152906001019060200180831161080057829003601f168201915b505050505091505090565b5f8061083261182b565b905061083f818585611832565b600191505092915050565b5f80610854611804565b9050806002015491505090565b6002602052805f5260405f205f91509050805f0154905081565b5f8061088561182b565b9050610892858285611844565b61089d8585856118d6565b60019150509392505050565b5f806108b36119c6565b9050805f015f8481526020019081526020015f2060010154915050919050565b5f8111610915576040517f08c379a000000000000000000000000000000000000000000000000000000000815260040161090c906135e3565b60405180910390fd5b5f61091e610c98565b600a61092a919061375d565b8261093591906137a7565b90508061094133610d9b565b1015610982576040517f08c379a000000000000000000000000000000000000000000000000000000000815260040161097990613832565b60405180910390fd5b61098c33826119ed565b5f8190505f60605b5f831180156109e257505f60015f3373ffffffffffffffffffffffffffffffffffffffff1673ffffffffffffffffffffffffffffffffffffffff1681526020019081526020015f2080549050115b15610c6f575f60015f3373ffffffffffffffffffffffffffffffffffffffff1673ffffffffffffffffffffffffffffffffffffffff1681526020019081526020015f206001805f3373ffffffffffffffffffffffffffffffffffffffff1673ffffffffffffffffffffffffffffffffffffffff1681526020019081526020015f2080549050610a719190613850565b81548110610a8257610a81613883565b5b905f5260205f209060020201905083815f015411610bbc57805f01549250806001018054610aaf90613569565b80601f0160208091040260200160405190810160405280929190818152602001828054610adb90613569565b8015610b265780601f10610afd57610100808354040283529160200191610b26565b820191905f5260205f20905b815481529060010190602001808311610b0957829003601f168201915b50505050509150805f015484610b3c9190613850565b935060015f3373ffffffffffffffffffffffffffffffffffffffff1673ffffffffffffffffffffffffffffffffffffffff1681526020019081526020015f20805480610b8b57610b8a6138b0565b5b600190038181905f5260205f2090600202015f8082015f9055600182015f610bb39190612cab565b50509055610c69565b83925083815f015f828254610bd19190613850565b925050819055505f9350806001018054610bea90613569565b80601f0160208091040260200160405190810160405280929190818152602001828054610c1690613569565b8015610c615780601f10610c3857610100808354040283529160200191610c61565b820191905f5260205f20905b815481529060010190602001808311610c4457829003601f168201915b505050505091505b50610994565b5050505050565b610c7f826108a9565b610c8881611a6c565b610c928383611a80565b50505050565b5f6008905090565b5f610ca9611b78565b905090565b610cb661182b565b73ffffffffffffffffffffffffffffffffffffffff168173ffffffffffffffffffffffffffffffffffffffff1614610d1a576040517f6697b23200000000000000000000000000000000000000000000000000000000815260040160405180910390fd5b610d248282611b86565b505050565b610d31611c7e565b610d39611d05565b565b610d4c610d4661182b565b826119ed565b50565b5f8054906101000a900473ffffffffffffffffffffffffffffffffffffffff1681565b5f80610d7c611d73565b9050805f015f9054906101000a900460ff1691505090565b6201518081565b5f80610da5611804565b9050805f015f8473ffffffffffffffffffffffffffffffffffffffff1673ffffffffffffffffffffffffffffffffffffffff1681526020019081526020015f2054915050919050565b610df6611c7e565b610dff5f611d9a565b565b610e1382610e0d61182b565b83611844565b610e1d82826119ed565b5050565b5f610e2b82611e6b565b9050919050565b610e3a611c7e565b610e42611ebe565b565b5f6060805f805f60605f610e56611f2d565b90505f801b815f0154148015610e7157505f801b8160010154145b610eb0576040517f08c379a0000000000000000000000000000000000000000000000000000000008152600401610ea790613927565b60405180910390fd5b610eb8611f54565b610ec0611ff2565b46305f801b5f67ffffffffffffffff811115610edf57610ede6133be565b5b604051908082528060200260200182016040528015610f0d5781602001602082028036833780820191505090505b507f0f0000000000000000000000000000000000000000000000000000000000000095949392919097509750975097509750975097505090919293949596565b5f80610f57612090565b9050805f015f9054906101000a900473ffffffffffffffffffffffffffffffffffffffff1691505090565b5f80610f8c6119c6565b9050805f015f8581526020019081526020015f205f015f8473ffffffffffffffffffffffffffffffffffffffff1673ffffffffffffffffffffffffffffffffffffffff1681526020019081526020015f205f9054906101000a900460ff1691505092915050565b60605f610ffe611804565b905080600401805461100f90613569565b80601f016020809104026020016040519081016040528092919081815260200182805461103b90613569565b80156110865780601f1061105d57610100808354040283529160200191611086565b820191905f5260205f20905b81548152906001019060200180831161106957829003601f168201915b505050505091505090565b61109f33633b9aca006120b7565b565b5f801b81565b633b9aca0081565b5f806110b961182b565b90506110c68185856118d6565b600191505092915050565b5f6110da612136565b90505f815f0160089054906101000a900460ff161590505f825f015f9054906101000a900467ffffffffffffffff1690505f808267ffffffffffffffff161480156111225750825b90505f60018367ffffffffffffffff1614801561115557505f3073ffffffffffffffffffffffffffffffffffffffff163b145b905081158015611163575080155b1561119a576040517ff92ee8a900000000000000000000000000000000000000000000000000000000815260040160405180910390fd5b6001855f015f6101000a81548167ffffffffffffffff021916908367ffffffffffffffff16021790555083156111e7576001855f0160086101000a81548160ff0219169083151502179055505b61125b6040518060400160405280600a81526020017f42616e6b546f636b656e000000000000000000000000000000000000000000008152506040518060400160405280600481526020017f42414e4b0000000000000000000000000000000000000000000000000000000081525061215d565b611263612173565b61126b61217d565b6112a96040518060400160405280600a81526020017f42616e6b546f636b656e0000000000000000000000000000000000000000000081525061218f565b6112b16121d9565b855f806101000a81548173ffffffffffffffffffffffffffffffffffffffff021916908373ffffffffffffffffffffffffffffffffffffffff160217905550831561134a575f855f0160086101000a81548160ff0219169083151502179055507fc7f505b2f371ae2175ee4913f4499e1f2633a7b5936321eed1cdaeb6115181d26001604051611341919061399a565b60405180910390a15b505050505050565b633b9aca0081565b8342111561139f57836040517f627913020000000000000000000000000000000000000000000000000000000081526004016113969190612f31565b60405180910390fd5b5f7f6e71edae12b1b97f4d1f60370fef10105fa2faae0126114a169c64845d6126c98888886113cd8c6121e3565b896040516020016113e3969594939291906139b3565b6040516020818303038152906040528051906020012090505f61140582612243565b90505f6114148287878761225c565b90508973ffffffffffffffffffffffffffffffffffffffff168173ffffffffffffffffffffffffffffffffffffffff161461148857808a6040517f4b800e4600000000000000000000000000000000000000000000000000000000815260040161147f929190613a12565b60405180910390fd5b6114938a8a8a611832565b50505050505050505050565b6114a8826108a9565b6114b181611a6c565b6114bb8383611b86565b50505050565b6001602052815f5260405f2081815481106114da575f80fd5b905f5260205f2090600202015f9150915050805f01549080600101805461150090613569565b80601f016020809104026020016040519081016040528092919081815260200182805461152c90613569565b80156115775780601f1061154e57610100808354040283529160200191611577565b820191905f5260205f20905b81548152906001019060200180831161155a57829003601f168201915b5050505050905082565b5f8061158b611804565b9050806001015f8573ffffffffffffffffffffffffffffffffffffffff1673ffffffffffffffffffffffffffffffffffffffff1681526020019081526020015f205f8473ffffffffffffffffffffffffffffffffffffffff1673ffffffffffffffffffffffffffffffffffffffff1681526020019081526020015f205491505092915050565b5f8211611653576040517f08c379a000000000000000000000000000000000000000000000000000000000815260040161164a906135e3565b60405180910390fd5b60015f3373ffffffffffffffffffffffffffffffffffffffff1673ffffffffffffffffffffffffffffffffffffffff1681526020019081526020015f20604051806040016040528084815260200183815250908060018154018082558091505060019003905f5260205f2090600202015f909190919091505f820151815f015560208201518160010190816116e89190613bcd565b505050611713336116f7610c98565b600a611703919061375d565b8461170e91906137a7565b6120b7565b5050565b61171f611c7e565b5f73ffffffffffffffffffffffffffffffffffffffff168173ffffffffffffffffffffffffffffffffffffffff160361178f575f6040517f1e4fbdf700000000000000000000000000000000000000000000000000000000815260040161178691906130f7565b60405180910390fd5b61179881611d9a565b50565b5f7f01ffc9a7000000000000000000000000000000000000000000000000000000007bffffffffffffffffffffffffffffffffffffffffffffffffffffffff1916827bffffffffffffffffffffffffffffffffffffffffffffffffffffffff1916149050919050565b5f7f52c63247e1f47db19d5ce0460030c497f067ca4cebf71ba98eeadabe20bace00905090565b5f33905090565b61183f838383600161228a565b505050565b5f61184f8484611581565b90507fffffffffffffffffffffffffffffffffffffffffffffffffffffffffffffffff81146118d057818110156118c1578281836040517ffb8f41b20000000000000000000000000000000000000000000000000000000081526004016118b893929190613c9c565b60405180910390fd5b6118cf84848484035f61228a565b5b50505050565b5f73ffffffffffffffffffffffffffffffffffffffff168373ffffffffffffffffffffffffffffffffffffffff1603611946575f6040517f96c6fd1e00000000000000000000000000000000000000000000000000000000815260040161193d91906130f7565b60405180910390fd5b5f73ffffffffffffffffffffffffffffffffffffffff168273ffffffffffffffffffffffffffffffffffffffff16036119b6575f6040517fec442f050000000000000000000000000000000000000000000000000000000081526004016119ad91906130f7565b60405180910390fd5b6119c1838383612467565b505050565b5f7f02dd7bc7dec4dceedda775e58dd541e08a116c6c53815c0bd028192f7b626800905090565b5f73ffffffffffffffffffffffffffffffffffffffff168273ffffffffffffffffffffffffffffffffffffffff1603611a5d575f6040517f96c6fd1e000000000000000000000000000000000000000000000000000000008152600401611a5491906130f7565b60405180910390fd5b611a68825f83612467565b5050565b611a7d81611a7861182b565b612477565b50565b5f80611a8a6119c6565b9050611a968484610f82565b611b6d576001815f015f8681526020019081526020015f205f015f8573ffffffffffffffffffffffffffffffffffffffff1673ffffffffffffffffffffffffffffffffffffffff1681526020019081526020015f205f6101000a81548160ff021916908315150217905550611b0961182b565b73ffffffffffffffffffffffffffffffffffffffff168373ffffffffffffffffffffffffffffffffffffffff16857f2f8788117e7eff1d82e926ec794901d17c78024a50270940304540a733656f0d60405160405180910390a46001915050611b72565b5f9150505b92915050565b5f611b816124c8565b905090565b5f80611b906119c6565b9050611b9c8484610f82565b15611c73575f815f015f8681526020019081526020015f205f015f8573ffffffffffffffffffffffffffffffffffffffff1673ffffffffffffffffffffffffffffffffffffffff1681526020019081526020015f205f6101000a81548160ff021916908315150217905550611c0f61182b565b73ffffffffffffffffffffffffffffffffffffffff168373ffffffffffffffffffffffffffffffffffffffff16857ff6391f5c32d9c69d2a47ea670b442974b53935d1edc7fd64eb21e047a839171b60405160405180910390a46001915050611c78565b5f9150505b92915050565b611c8661182b565b73ffffffffffffffffffffffffffffffffffffffff16611ca4610f4d565b73ffffffffffffffffffffffffffffffffffffffff1614611d0357611cc761182b565b6040517f118cdaa7000000000000000000000000000000000000000000000000000000008152600401611cfa91906130f7565b60405180910390fd5b565b611d0d61252b565b5f611d16611d73565b90505f815f015f6101000a81548160ff0219169083151502179055507f5db9ee0a495bf2e6ff9c91a7834c1ba4fdd244a5e8aa4e537bd38aeae4b073aa611d5b61182b565b604051611d6891906130f7565b60405180910390a150565b5f7fcd5ed15c6e187e77e9aee88184c21f4f2182ab5827cb3b7e07fbedcd63f03300905090565b5f611da3612090565b90505f815f015f9054906101000a900473ffffffffffffffffffffffffffffffffffffffff16905082825f015f6101000a81548173ffffffffffffffffffffffffffffffffffffffff021916908373ffffffffffffffffffffffffffffffffffffffff1602179055508273ffffffffffffffffffffffffffffffffffffffff168173ffffffffffffffffffffffffffffffffffffffff167f8be0079c531659141344cd1fd0a4f28419497f9722a3daafe3b4186f6b6457e060405160405180910390a3505050565b5f80611e7561256b565b9050805f015f8473ffffffffffffffffffffffffffffffffffffffff1673ffffffffffffffffffffffffffffffffffffffff1681526020019081526020015f2054915050919050565b611ec6612592565b5f611ecf611d73565b90506001815f015f6101000a81548160ff0219169083151502179055507f62e78cea01bee320cd4e420270b5ea74000d11b0c9f74754ebdbfc544b05a258611f1561182b565b604051611f2291906130f7565b60405180910390a150565b5f7fa16a46d94261c7517cc8ff89f61c0ce93598e3c849801011dee649a6a557d100905090565b60605f611f5f611f2d565b9050806002018054611f7090613569565b80601f0160208091040260200160405190810160405280929190818152602001828054611f9c90613569565b8015611fe75780601f10611fbe57610100808354040283529160200191611fe7565b820191905f5260205f20905b815481529060010190602001808311611fca57829003601f168201915b505050505091505090565b60605f611ffd611f2d565b905080600301805461200e90613569565b80601f016020809104026020016040519081016040528092919081815260200182805461203a90613569565b80156120855780601f1061205c57610100808354040283529160200191612085565b820191905f5260205f20905b81548152906001019060200180831161206857829003601f168201915b505050505091505090565b5f7f9016d09d72d40fdae2fd8ceac6b6234c7706214fd39c1cd1e609a0528c199300905090565b5f73ffffffffffffffffffffffffffffffffffffffff168273ffffffffffffffffffffffffffffffffffffffff1603612127575f6040517fec442f0500000000000000000000000000000000000000000000000000000000815260040161211e91906130f7565b60405180910390fd5b6121325f8383612467565b5050565b5f7ff0c57e16840df040f15088dc2f81fe391c3923bec73e23a9662efc9c229c6a00905090565b6121656125d3565b61216f8282612613565b5050565b61217b6125d3565b565b6121856125d3565b61218d61264f565b565b6121976125d3565b6121d6816040518060400160405280600181526020017f310000000000000000000000000000000000000000000000000000000000000081525061267f565b50565b6121e16125d3565b565b5f806121ed61256b565b9050805f015f8473ffffffffffffffffffffffffffffffffffffffff1673ffffffffffffffffffffffffffffffffffffffff1681526020019081526020015f205f81548092919060010191905055915050919050565b5f61225561224f611b78565b836126d0565b9050919050565b5f805f8061226c88888888612710565b92509250925061227c82826127f7565b829350505050949350505050565b5f612293611804565b90505f73ffffffffffffffffffffffffffffffffffffffff168573ffffffffffffffffffffffffffffffffffffffff1603612305575f6040517fe602df050000000000000000000000000000000000000000000000000000000081526004016122fc91906130f7565b60405180910390fd5b5f73ffffffffffffffffffffffffffffffffffffffff168473ffffffffffffffffffffffffffffffffffffffff1603612375575f6040517f94280d6200000000000000000000000000000000000000000000000000000000815260040161236c91906130f7565b60405180910390fd5b82816001015f8773ffffffffffffffffffffffffffffffffffffffff1673ffffffffffffffffffffffffffffffffffffffff1681526020019081526020015f205f8673ffffffffffffffffffffffffffffffffffffffff1673ffffffffffffffffffffffffffffffffffffffff1681526020019081526020015f20819055508115612460578373ffffffffffffffffffffffffffffffffffffffff168573ffffffffffffffffffffffffffffffffffffffff167f8c5be1e5ebec7d5bd14f71427d1e84f3dd0314c0f7b2291e5b200ac8c7c3b925856040516124579190612f31565b60405180910390a35b5050505050565b612472838383612959565b505050565b6124818282610f82565b6124c45780826040517fe2517d3f0000000000000000000000000000000000000000000000000000000081526004016124bb929190613cd1565b60405180910390fd5b5050565b5f7f8b73c3c69bb8fe3d512ecc4cf759cc79239f7b179b0ffacaa9a75d522b39400f6124f2612971565b6124fa6129e7565b4630604051602001612510959493929190613cf8565b60405160208183030381529060405280519060200120905090565b612533610d72565b612569576040517f8dfc202b00000000000000000000000000000000000000000000000000000000815260040160405180910390fd5b565b5f7f5ab42ced628888259c08ac98db1eb0cf702fc1501344311d8b100cd1bfe4bb00905090565b61259a610d72565b156125d1576040517fd93c066500000000000000000000000000000000000000000000000000000000815260040160405180910390fd5b565b6125db612a5e565b612611576040517fd7e6bcf800000000000000000000000000000000000000000000000000000000815260040160405180910390fd5b565b61261b6125d3565b5f612624611804565b9050828160030190816126379190613bcd565b50818160040190816126499190613bcd565b50505050565b6126576125d3565b5f612660611d73565b90505f815f015f6101000a81548160ff02191690831515021790555050565b6126876125d3565b5f612690611f2d565b9050828160020190816126a39190613bcd565b50818160030190816126b59190613bcd565b505f801b815f01819055505f801b8160010181905550505050565b5f6040517f190100000000000000000000000000000000000000000000000000000000000081528360028201528260228201526042812091505092915050565b5f805f7f7fffffffffffffffffffffffffffffff5d576e7357a4501ddfe92f46681b20a0845f1c111561274c575f6003859250925092506127ed565b5f6001888888886040515f815260200160405260405161276f9493929190613d49565b6020604051602081039080840390855afa15801561278f573d5f803e3d5ffd5b5050506020604051035190505f73ffffffffffffffffffffffffffffffffffffffff168173ffffffffffffffffffffffffffffffffffffffff16036127e0575f60015f801b935093509350506127ed565b805f805f1b935093509350505b9450945094915050565b5f600381111561280a57612809613d8c565b5b82600381111561281d5761281c613d8c565b5b0315612955576001600381111561283757612836613d8c565b5b82600381111561284a57612849613d8c565b5b03612881576040517ff645eedf00000000000000000000000000000000000000000000000000000000815260040160405180910390fd5b6002600381111561289557612894613d8c565b5b8260038111156128a8576128a7613d8c565b5b036128ec57805f1c6040517ffce698f70000000000000000000000000000000000000000000000000000000081526004016128e39190612f31565b60405180910390fd5b6003808111156128ff576128fe613d8c565b5b82600381111561291257612911613d8c565b5b0361295457806040517fd78bce0c00000000000000000000000000000000000000000000000000000000815260040161294b9190613032565b60405180910390fd5b5b5050565b612961612592565b61296c838383612a7c565b505050565b5f8061297b611f2d565b90505f612986611f54565b90505f815111156129a2578080519060200120925050506129e4565b5f825f015490505f801b81146129bd578093505050506129e4565b7fc5d2460186f7233c927e7db2dcc703c0e500b653ca82273b7bfad8045d85a47093505050505b90565b5f806129f1611f2d565b90505f6129fc611ff2565b90505f81511115612a1857808051906020012092505050612a5b565b5f826001015490505f801b8114612a3457809350505050612a5b565b7fc5d2460186f7233c927e7db2dcc703c0e500b653ca82273b7bfad8045d85a47093505050505b90565b5f612a67612136565b5f0160089054906101000a900460ff16905090565b5f612a85611804565b90505f73ffffffffffffffffffffffffffffffffffffffff168473ffffffffffffffffffffffffffffffffffffffff1603612ad95781816002015f828254612acd9190613db9565b92505081905550612bab565b5f815f015f8673ffffffffffffffffffffffffffffffffffffffff1673ffffffffffffffffffffffffffffffffffffffff1681526020019081526020015f2054905082811015612b64578481846040517fe450d38c000000000000000000000000000000000000000000000000000000008152600401612b5b93929190613c9c565b60405180910390fd5b828103825f015f8773ffffffffffffffffffffffffffffffffffffffff1673ffffffffffffffffffffffffffffffffffffffff1681526020019081526020015f2081905550505b5f73ffffffffffffffffffffffffffffffffffffffff168373ffffffffffffffffffffffffffffffffffffffff1603612bf45781816002015f8282540392505081905550612c40565b81815f015f8573ffffffffffffffffffffffffffffffffffffffff1673ffffffffffffffffffffffffffffffffffffffff1681526020019081526020015f205f82825401925050819055505b8273ffffffffffffffffffffffffffffffffffffffff168473ffffffffffffffffffffffffffffffffffffffff167fddf252ad1be2c89b69c2b068fc378daa952ba7f163c4a11628f55a4df523b3ef84604051612c9d9190612f31565b60405180910390a350505050565b508054612cb790613569565b5f825580601f10612cc85750612ce5565b601f0160209004905f5260205f2090810190612ce49190612ce8565b5b50565b5b80821115612cff575f815f905550600101612ce9565b5090565b5f604051905090565b5f80fd5b5f80fd5b5f7fffffffff0000000000000000000000000000000000000000000000000000000082169050919050565b612d4881612d14565b8114612d52575f80fd5b50565b5f81359050612d6381612d3f565b92915050565b5f60208284031215612d7e57612d7d612d0c565b5b5f612d8b84828501612d55565b91505092915050565b5f8115159050919050565b612da881612d94565b82525050565b5f602082019050612dc15f830184612d9f565b92915050565b5f81519050919050565b5f82825260208201905092915050565b8281835e5f83830152505050565b5f601f19601f8301169050919050565b5f612e0982612dc7565b612e138185612dd1565b9350612e23818560208601612de1565b612e2c81612def565b840191505092915050565b5f6020820190508181035f830152612e4f8184612dff565b905092915050565b5f73ffffffffffffffffffffffffffffffffffffffff82169050919050565b5f612e8082612e57565b9050919050565b612e9081612e76565b8114612e9a575f80fd5b50565b5f81359050612eab81612e87565b92915050565b5f819050919050565b612ec381612eb1565b8114612ecd575f80fd5b50565b5f81359050612ede81612eba565b92915050565b5f8060408385031215612efa57612ef9612d0c565b5b5f612f0785828601612e9d565b9250506020612f1885828601612ed0565b9150509250929050565b612f2b81612eb1565b82525050565b5f602082019050612f445f830184612f22565b92915050565b5f60208284031215612f5f57612f5e612d0c565b5b5f612f6c84828501612e9d565b91505092915050565b5f805f60608486031215612f8c57612f8b612d0c565b5b5f612f9986828701612e9d565b9350506020612faa86828701612e9d565b9250506040612fbb86828701612ed0565b9150509250925092565b5f819050919050565b612fd781612fc5565b8114612fe1575f80fd5b50565b5f81359050612ff281612fce565b92915050565b5f6020828403121561300d5761300c612d0c565b5b5f61301a84828501612fe4565b91505092915050565b61302c81612fc5565b82525050565b5f6020820190506130455f830184613023565b92915050565b5f602082840312156130605761305f612d0c565b5b5f61306d84828501612ed0565b91505092915050565b5f806040838503121561308c5761308b612d0c565b5b5f61309985828601612fe4565b92505060206130aa85828601612e9d565b9150509250929050565b5f60ff82169050919050565b6130c9816130b4565b82525050565b5f6020820190506130e25f8301846130c0565b92915050565b6130f181612e76565b82525050565b5f60208201905061310a5f8301846130e8565b92915050565b5f7fff0000000000000000000000000000000000000000000000000000000000000082169050919050565b61314481613110565b82525050565b5f81519050919050565b5f82825260208201905092915050565b5f819050602082019050919050565b61317c81612eb1565b82525050565b5f61318d8383613173565b60208301905092915050565b5f602082019050919050565b5f6131af8261314a565b6131b98185613154565b93506131c483613164565b805f5b838110156131f45781516131db8882613182565b97506131e683613199565b9250506001810190506131c7565b5085935050505092915050565b5f60e0820190506132145f83018a61313b565b81810360208301526132268189612dff565b9050818103604083015261323a8188612dff565b90506132496060830187612f22565b61325660808301866130e8565b61326360a0830185613023565b81810360c083015261327581846131a5565b905098975050505050505050565b61328c816130b4565b8114613296575f80fd5b50565b5f813590506132a781613283565b92915050565b5f805f805f805f60e0888a0312156132c8576132c7612d0c565b5b5f6132d58a828b01612e9d565b97505060206132e68a828b01612e9d565b96505060406132f78a828b01612ed0565b95505060606133088a828b01612ed0565b94505060806133198a828b01613299565b93505060a061332a8a828b01612fe4565b92505060c061333b8a828b01612fe4565b91505092959891949750929550565b5f60408201905061335d5f830185612f22565b818103602083015261336f8184612dff565b90509392505050565b5f806040838503121561338e5761338d612d0c565b5b5f61339b85828601612e9d565b92505060206133ac85828601612e9d565b9150509250929050565b5f80fd5b5f80fd5b7f4e487b71000000000000000000000000000000000000000000000000000000005f52604160045260245ffd5b6133f482612def565b810181811067ffffffffffffffff82111715613413576134126133be565b5b80604052505050565b5f613425612d03565b905061343182826133eb565b919050565b5f67ffffffffffffffff8211156134505761344f6133be565b5b61345982612def565b9050602081019050919050565b828183375f83830152505050565b5f61348661348184613436565b61341c565b9050828152602081018484840111156134a2576134a16133ba565b5b6134ad848285613466565b509392505050565b5f82601f8301126134c9576134c86133b6565b5b81356134d9848260208601613474565b91505092915050565b5f80604083850312156134f8576134f7612d0c565b5b5f61350585828601612ed0565b925050602083013567ffffffffffffffff81111561352657613525612d10565b5b613532858286016134b5565b9150509250929050565b7f4e487b71000000000000000000000000000000000000000000000000000000005f52602260045260245ffd5b5f600282049050600182168061358057607f821691505b6020821081036135935761359261353c565b5b50919050565b7f416d6f756e74206d7573742062652067726561746572207468616e207a65726f5f82015250565b5f6135cd602083612dd1565b91506135d882613599565b602082019050919050565b5f6020820190508181035f8301526135fa816135c1565b9050919050565b7f4e487b71000000000000000000000000000000000000000000000000000000005f52601160045260245ffd5b5f8160011c9050919050565b5f808291508390505b60018511156136835780860481111561365f5761365e613601565b5b600185161561366e5780820291505b808102905061367c8561362e565b9450613643565b94509492505050565b5f8261369b5760019050613756565b816136a8575f9050613756565b81600181146136be57600281146136c8576136f7565b6001915050613756565b60ff8411156136da576136d9613601565b5b8360020a9150848211156136f1576136f0613601565b5b50613756565b5060208310610133831016604e8410600b841016171561372c5782820a90508381111561372757613726613601565b5b613756565b613739848484600161363a565b925090508184048111156137505761374f613601565b5b81810290505b9392505050565b5f61376782612eb1565b9150613772836130b4565b925061379f7fffffffffffffffffffffffffffffffffffffffffffffffffffffffffffffffff848461368c565b905092915050565b5f6137b182612eb1565b91506137bc83612eb1565b92508282026137ca81612eb1565b915082820484148315176137e1576137e0613601565b5b5092915050565b7f496e73756666696369656e7420746f6b656e2062616c616e63650000000000005f82015250565b5f61381c601a83612dd1565b9150613827826137e8565b602082019050919050565b5f6020820190508181035f83015261384981613810565b9050919050565b5f61385a82612eb1565b915061386583612eb1565b925082820390508181111561387d5761387c613601565b5b92915050565b7f4e487b71000000000000000000000000000000000000000000000000000000005f52603260045260245ffd5b7f4e487b71000000000000000000000000000000000000000000000000000000005f52603160045260245ffd5b7f4549503731323a20556e696e697469616c697a656400000000000000000000005f82015250565b5f613911601583612dd1565b915061391c826138dd565b602082019050919050565b5f6020820190508181035f83015261393e81613905565b9050919050565b5f819050919050565b5f67ffffffffffffffff82169050919050565b5f819050919050565b5f61398461397f61397a84613945565b613961565b61394e565b9050919050565b6139948161396a565b82525050565b5f6020820190506139ad5f83018461398b565b92915050565b5f60c0820190506139c65f830189613023565b6139d360208301886130e8565b6139e060408301876130e8565b6139ed6060830186612f22565b6139fa6080830185612f22565b613a0760a0830184612f22565b979650505050505050565b5f604082019050613a255f8301856130e8565b613a3260208301846130e8565b9392505050565b5f819050815f5260205f209050919050565b5f6020601f8301049050919050565b5f82821b905092915050565b5f60088302613a957fffffffffffffffffffffffffffffffffffffffffffffffffffffffffffffffff82613a5a565b613a9f8683613a5a565b95508019841693508086168417925050509392505050565b5f613ad1613acc613ac784612eb1565b613961565b612eb1565b9050919050565b5f819050919050565b613aea83613ab7565b613afe613af682613ad8565b848454613a66565b825550505050565b5f90565b613b12613b06565b613b1d818484613ae1565b505050565b5b81811015613b4057613b355f82613b0a565b600181019050613b23565b5050565b601f821115613b8557613b5681613a39565b613b5f84613a4b565b81016020851015613b6e578190505b613b82613b7a85613a4b565b830182613b22565b50505b505050565b5f82821c905092915050565b5f613ba55f1984600802613b8a565b1980831691505092915050565b5f613bbd8383613b96565b9150826002028217905092915050565b613bd682612dc7565b67ffffffffffffffff811115613bef57613bee6133be565b5b613bf98254613569565b613c04828285613b44565b5f60209050601f831160018114613c35575f8415613c23578287015190505b613c2d8582613bb2565b865550613c94565b601f198416613c4386613a39565b5f5b82811015613c6a57848901518255600182019150602085019450602081019050613c45565b86831015613c875784890151613c83601f891682613b96565b8355505b6001600288020188555050505b505050505050565b5f606082019050613caf5f8301866130e8565b613cbc6020830185612f22565b613cc96040830184612f22565b949350505050565b5f604082019050613ce45f8301856130e8565b613cf16020830184613023565b9392505050565b5f60a082019050613d0b5f830188613023565b613d186020830187613023565b613d256040830186613023565b613d326060830185612f22565b613d3f60808301846130e8565b9695505050505050565b5f608082019050613d5c5f830187613023565b613d6960208301866130c0565b613d766040830185613023565b613d836060830184613023565b95945050505050565b7f4e487b71000000000000000000000000000000000000000000000000000000005f52602160045260245ffd5b5f613dc382612eb1565b9150613dce83612eb1565b9250828201905080821115613de657613de5613601565b5b9291505056fea264697066735822122093e65eae258df01b1ddb30f11421d2c77e9bf062f305bd476d0a3b3ad7aaf41d64736f6c63430008190033",
			"opcodes": "PUSH1 0x80 PUSH1 0x40 MSTORE CALLVALUE DUP1 ISZERO PUSH2 0xF JUMPI PUSH0 DUP1 REVERT JUMPDEST POP PUSH2 0x1E PUSH2 0x23 PUSH1 0x20 SHL PUSH1 0x20 SHR JUMP JUMPDEST PUSH2 0x183 JUMP JUMPDEST PUSH0 PUSH2 0x32 PUSH2 0x121 PUSH1 0x20 SHL PUSH1 0x20 SHR JUMP JUMPDEST SWAP1 POP DUP1 PUSH0 ADD PUSH1 0x8 SWAP1 SLOAD SWAP1 PUSH2 0x100 EXP SWAP1 DIV PUSH1 0xFF AND ISZERO PUSH2 0x7C JUMPI PUSH1 0x40 MLOAD PUSH32 0xF92EE8A900000000000000000000000000000000000000000000000000000000 DUP2 MSTORE PUSH1 0x4 ADD PUSH1 0x40 MLOAD DUP1 SWAP2 SUB SWAP1 REVERT JUMPDEST PUSH8 0xFFFFFFFFFFFFFFFF DUP1 AND DUP2 PUSH0 ADD PUSH0 SWAP1 SLOAD SWAP1 PUSH2 0x100 EXP SWAP1 DIV PUSH8 0xFFFFFFFFFFFFFFFF AND PUSH8 0xFFFFFFFFFFFFFFFF AND EQ PUSH2 0x11E JUMPI PUSH8 0xFFFFFFFFFFFFFFFF DUP2 PUSH0 ADD PUSH0 PUSH2 0x100 EXP DUP2 SLOAD DUP2 PUSH8 0xFFFFFFFFFFFFFFFF MUL NOT AND SWAP1 DUP4 PUSH8 0xFFFFFFFFFFFFFFFF AND MUL OR SWAP1 SSTORE POP PUSH32 0xC7F505B2F371AE2175EE4913F4499E1F2633A7B5936321EED1CDAEB6115181D2 PUSH8 0xFFFFFFFFFFFFFFFF PUSH1 0x40 MLOAD PUSH2 0x115 SWAP2 SWAP1 PUSH2 0x16A JUMP JUMPDEST PUSH1 0x40 MLOAD DUP1 SWAP2 SUB SWAP1 LOG1 JUMPDEST POP JUMP JUMPDEST PUSH0 PUSH32 0xF0C57E16840DF040F15088DC2F81FE391C3923BEC73E23A9662EFC9C229C6A00 SWAP1 POP SWAP1 JUMP JUMPDEST PUSH0 PUSH8 0xFFFFFFFFFFFFFFFF DUP3 AND SWAP1 POP SWAP2 SWAP1 POP JUMP JUMPDEST PUSH2 0x164 DUP2 PUSH2 0x148 JUMP JUMPDEST DUP3 MSTORE POP POP JUMP JUMPDEST PUSH0 PUSH1 0x20 DUP3 ADD SWAP1 POP PUSH2 0x17D PUSH0 DUP4 ADD DUP5 PUSH2 0x15B JUMP JUMPDEST SWAP3 SWAP2 POP POP JUMP JUMPDEST PUSH2 0x3E22 DUP1 PUSH2 0x190 PUSH0 CODECOPY PUSH0 RETURN INVALID PUSH1 0x80 PUSH1 0x40 MSTORE CALLVALUE DUP1 ISZERO PUSH2 0xF JUMPI PUSH0 DUP1 REVERT JUMPDEST POP PUSH1 0x4 CALLDATASIZE LT PUSH2 0x230 JUMPI PUSH0 CALLDATALOAD PUSH1 0xE0 SHR DUP1 PUSH4 0x79CC6790 GT PUSH2 0x12E JUMPI DUP1 PUSH4 0xA8469CE9 GT PUSH2 0xB6 JUMPI DUP1 PUSH4 0xD547741F GT PUSH2 0x7A JUMPI DUP1 PUSH4 0xD547741F EQ PUSH2 0x65C JUMPI DUP1 PUSH4 0xD6D68177 EQ PUSH2 0x678 JUMPI DUP1 PUSH4 0xDD62ED3E EQ PUSH2 0x6A9 JUMPI DUP1 PUSH4 0xF1215D25 EQ PUSH2 0x6D9 JUMPI DUP1 PUSH4 0xF2FDE38B EQ PUSH2 0x6F5 JUMPI PUSH2 0x230 JUMP JUMPDEST DUP1 PUSH4 0xA8469CE9 EQ PUSH2 0x5B8 JUMPI DUP1 PUSH4 0xA9059CBB EQ PUSH2 0x5D6 JUMPI DUP1 PUSH4 0xC4D66DE8 EQ PUSH2 0x606 JUMPI DUP1 PUSH4 0xC5B779DE EQ PUSH2 0x622 JUMPI DUP1 PUSH4 0xD505ACCF EQ PUSH2 0x640 JUMPI PUSH2 0x230 JUMP JUMPDEST DUP1 PUSH4 0x8DA5CB5B GT PUSH2 0xFD JUMPI DUP1 PUSH4 0x8DA5CB5B EQ PUSH2 0x524 JUMPI DUP1 PUSH4 0x91D14854 EQ PUSH2 0x542 JUMPI DUP1 PUSH4 0x95D89B41 EQ PUSH2 0x572 JUMPI DUP1 PUSH4 0x99F4B251 EQ PUSH2 0x590 JUMPI DUP1 PUSH4 0xA217FDDF EQ PUSH2 0x59A JUMPI PUSH2 0x230 JUMP JUMPDEST DUP1 PUSH4 0x79CC6790 EQ PUSH2 0x4AA JUMPI DUP1 PUSH4 0x7ECEBE00 EQ PUSH2 0x4C6 JUMPI DUP1 PUSH4 0x8456CB59 EQ PUSH2 0x4F6 JUMPI DUP1 PUSH4 0x84B0196E EQ PUSH2 0x500 JUMPI PUSH2 0x230 JUMP JUMPDEST DUP1 PUSH4 0x313CE567 GT PUSH2 0x1BC JUMPI DUP1 PUSH4 0x528FDC63 GT PUSH2 0x180 JUMPI DUP1 PUSH4 0x528FDC63 EQ PUSH2 0x416 JUMPI DUP1 PUSH4 0x5C975ABB EQ PUSH2 0x434 JUMPI DUP1 PUSH4 0x5DBDDA69 EQ PUSH2 0x452 JUMPI DUP1 PUSH4 0x70A08231 EQ PUSH2 0x470 JUMPI DUP1 PUSH4 0x715018A6 EQ PUSH2 0x4A0 JUMPI PUSH2 0x230 JUMP JUMPDEST DUP1 PUSH4 0x313CE567 EQ PUSH2 0x398 JUMPI DUP1 PUSH4 0x3644E515 EQ PUSH2 0x3B6 JUMPI DUP1 PUSH4 0x36568ABE EQ PUSH2 0x3D4 JUMPI DUP1 PUSH4 0x3F4BA83A EQ PUSH2 0x3F0 JUMPI DUP1 PUSH4 0x42966C68 EQ PUSH2 0x3FA JUMPI PUSH2 0x230 JUMP JUMPDEST DUP1 PUSH4 0x189A5A17 GT PUSH2 0x203 JUMPI DUP1 PUSH4 0x189A5A17 EQ PUSH2 0x2D0 JUMPI DUP1 PUSH4 0x23B872DD EQ PUSH2 0x300 JUMPI DUP1 PUSH4 0x248A9CA3 EQ PUSH2 0x330 JUMPI DUP1 PUSH4 0x2E1A7D4D EQ PUSH2 0x360 JUMPI DUP1 PUSH4 0x2F2FF15D EQ PUSH2 0x37C JUMPI PUSH2 0x230 JUMP JUMPDEST DUP1 PUSH4 0x1FFC9A7 EQ PUSH2 0x234 JUMPI DUP1 PUSH4 0x6FDDE03 EQ PUSH2 0x264 JUMPI DUP1 PUSH4 0x95EA7B3 EQ PUSH2 0x282 JUMPI DUP1 PUSH4 0x18160DDD EQ PUSH2 0x2B2 JUMPI JUMPDEST PUSH0 DUP1 REVERT JUMPDEST PUSH2 0x24E PUSH1 0x4 DUP1 CALLDATASIZE SUB DUP2 ADD SWAP1 PUSH2 0x249 SWAP2 SWAP1 PUSH2 0x2D69 JUMP JUMPDEST PUSH2 0x711 JUMP JUMPDEST PUSH1 0x40 MLOAD PUSH2 0x25B SWAP2 SWAP1 PUSH2 0x2DAE JUMP JUMPDEST PUSH1 0x40 MLOAD DUP1 SWAP2 SUB SWAP1 RETURN JUMPDEST PUSH2 0x26C PUSH2 0x78A JUMP JUMPDEST PUSH1 0x40 MLOAD PUSH2 0x279 SWAP2 SWAP1 PUSH2 0x2E37 JUMP JUMPDEST PUSH1 0x40 MLOAD DUP1 SWAP2 SUB SWAP1 RETURN JUMPDEST PUSH2 0x29C PUSH1 0x4 DUP1 CALLDATASIZE SUB DUP2 ADD SWAP1 PUSH2 0x297 SWAP2 SWAP1 PUSH2 0x2EE4 JUMP JUMPDEST PUSH2 0x828 JUMP JUMPDEST PUSH1 0x40 MLOAD PUSH2 0x2A9 SWAP2 SWAP1 PUSH2 0x2DAE JUMP JUMPDEST PUSH1 0x40 MLOAD DUP1 SWAP2 SUB SWAP1 RETURN JUMPDEST PUSH2 0x2BA PUSH2 0x84A JUMP JUMPDEST PUSH1 0x40 MLOAD PUSH2 0x2C7 SWAP2 SWAP1 PUSH2 0x2F31 JUMP JUMPDEST PUSH1 0x40 MLOAD DUP1 SWAP2 SUB SWAP1 RETURN JUMPDEST PUSH2 0x2EA PUSH1 0x4 DUP1 CALLDATASIZE SUB DUP2 ADD SWAP1 PUSH2 0x2E5 SWAP2 SWAP1 PUSH2 0x2F4A JUMP JUMPDEST PUSH2 0x861 JUMP JUMPDEST PUSH1 0x40 MLOAD PUSH2 0x2F7 SWAP2 SWAP1 PUSH2 0x2F31 JUMP JUMPDEST PUSH1 0x40 MLOAD DUP1 SWAP2 SUB SWAP1 RETURN JUMPDEST PUSH2 0x31A PUSH1 0x4 DUP1 CALLDATASIZE SUB DUP2 ADD SWAP1 PUSH2 0x315 SWAP2 SWAP1 PUSH2 0x2F75 JUMP JUMPDEST PUSH2 0x87B JUMP JUMPDEST PUSH1 0x40 MLOAD PUSH2 0x327 SWAP2 SWAP1 PUSH2 0x2DAE JUMP JUMPDEST PUSH1 0x40 MLOAD DUP1 SWAP2 SUB SWAP1 RETURN JUMPDEST PUSH2 0x34A PUSH1 0x4 DUP1 CALLDATASIZE SUB DUP2 ADD SWAP1 PUSH2 0x345 SWAP2 SWAP1 PUSH2 0x2FF8 JUMP JUMPDEST PUSH2 0x8A9 JUMP JUMPDEST PUSH1 0x40 MLOAD PUSH2 0x357 SWAP2 SWAP1 PUSH2 0x3032 JUMP JUMPDEST PUSH1 0x40 MLOAD DUP1 SWAP2 SUB SWAP1 RETURN JUMPDEST PUSH2 0x37A PUSH1 0x4 DUP1 CALLDATASIZE SUB DUP2 ADD SWAP1 PUSH2 0x375 SWAP2 SWAP1 PUSH2 0x304B JUMP JUMPDEST PUSH2 0x8D3 JUMP JUMPDEST STOP JUMPDEST PUSH2 0x396 PUSH1 0x4 DUP1 CALLDATASIZE SUB DUP2 ADD SWAP1 PUSH2 0x391 SWAP2 SWAP1 PUSH2 0x3076 JUMP JUMPDEST PUSH2 0xC76 JUMP JUMPDEST STOP JUMPDEST PUSH2 0x3A0 PUSH2 0xC98 JUMP JUMPDEST PUSH1 0x40 MLOAD PUSH2 0x3AD SWAP2 SWAP1 PUSH2 0x30CF JUMP JUMPDEST PUSH1 0x40 MLOAD DUP1 SWAP2 SUB SWAP1 RETURN JUMPDEST PUSH2 0x3BE PUSH2 0xCA0 JUMP JUMPDEST PUSH1 0x40 MLOAD PUSH2 0x3CB SWAP2 SWAP1 PUSH2 0x3032 JUMP JUMPDEST PUSH1 0x40 MLOAD DUP1 SWAP2 SUB SWAP1 RETURN JUMPDEST PUSH2 0x3EE PUSH1 0x4 DUP1 CALLDATASIZE SUB DUP2 ADD SWAP1 PUSH2 0x3E9 SWAP2 SWAP1 PUSH2 0x3076 JUMP JUMPDEST PUSH2 0xCAE JUMP JUMPDEST STOP JUMPDEST PUSH2 0x3F8 PUSH2 0xD29 JUMP JUMPDEST STOP JUMPDEST PUSH2 0x414 PUSH1 0x4 DUP1 CALLDATASIZE SUB DUP2 ADD SWAP1 PUSH2 0x40F SWAP2 SWAP1 PUSH2 0x304B JUMP JUMPDEST PUSH2 0xD3B JUMP JUMPDEST STOP JUMPDEST PUSH2 0x41E PUSH2 0xD4F JUMP JUMPDEST PUSH1 0x40 MLOAD PUSH2 0x42B SWAP2 SWAP1 PUSH2 0x30F7 JUMP JUMPDEST PUSH1 0x40 MLOAD DUP1 SWAP2 SUB SWAP1 RETURN JUMPDEST PUSH2 0x43C PUSH2 0xD72 JUMP JUMPDEST PUSH1 0x40 MLOAD PUSH2 0x449 SWAP2 SWAP1 PUSH2 0x2DAE JUMP JUMPDEST PUSH1 0x40 MLOAD DUP1 SWAP2 SUB SWAP1 RETURN JUMPDEST PUSH2 0x45A PUSH2 0xD94 JUMP JUMPDEST PUSH1 0x40 MLOAD PUSH2 0x467 SWAP2 SWAP1 PUSH2 0x2F31 JUMP JUMPDEST PUSH1 0x40 MLOAD DUP1 SWAP2 SUB SWAP1 RETURN JUMPDEST PUSH2 0x48A PUSH1 0x4 DUP1 CALLDATASIZE SUB DUP2 ADD SWAP1 PUSH2 0x485 SWAP2 SWAP1 PUSH2 0x2F4A JUMP JUMPDEST PUSH2 0xD9B JUMP JUMPDEST PUSH1 0x40 MLOAD PUSH2 0x497 SWAP2 SWAP1 PUSH2 0x2F31 JUMP JUMPDEST PUSH1 0x40 MLOAD DUP1 SWAP2 SUB SWAP1 RETURN JUMPDEST PUSH2 0x4A8 PUSH2 0xDEE JUMP JUMPDEST STOP JUMPDEST PUSH2 0x4C4 PUSH1 0x4 DUP1 CALLDATASIZE SUB DUP2 ADD SWAP1 PUSH2 0x4BF SWAP2 SWAP1 PUSH2 0x2EE4 JUMP JUMPDEST PUSH2 0xE01 JUMP JUMPDEST STOP JUMPDEST PUSH2 0x4E0 PUSH1 0x4 DUP1 CALLDATASIZE SUB DUP2 ADD SWAP1 PUSH2 0x4DB SWAP2 SWAP1 PUSH2 0x2F4A JUMP JUMPDEST PUSH2 0xE21 JUMP JUMPDEST PUSH1 0x40 MLOAD PUSH2 0x4ED SWAP2 SWAP1 PUSH2 0x2F31 JUMP JUMPDEST PUSH1 0x40 MLOAD DUP1 SWAP2 SUB SWAP1 RETURN JUMPDEST PUSH2 0x4FE PUSH2 0xE32 JUMP JUMPDEST STOP JUMPDEST PUSH2 0x508 PUSH2 0xE44 JUMP JUMPDEST PUSH1 0x40 MLOAD PUSH2 0x51B SWAP8 SWAP7 SWAP6 SWAP5 SWAP4 SWAP3 SWAP2 SWAP1 PUSH2 0x3201 JUMP JUMPDEST PUSH1 0x40 MLOAD DUP1 SWAP2 SUB SWAP1 RETURN JUMPDEST PUSH2 0x52C PUSH2 0xF4D JUMP JUMPDEST PUSH1 0x40 MLOAD PUSH2 0x539 SWAP2 SWAP1 PUSH2 0x30F7 JUMP JUMPDEST PUSH1 0x40 MLOAD DUP1 SWAP2 SUB SWAP1 RETURN JUMPDEST PUSH2 0x55C PUSH1 0x4 DUP1 CALLDATASIZE SUB DUP2 ADD SWAP1 PUSH2 0x557 SWAP2 SWAP1 PUSH2 0x3076 JUMP JUMPDEST PUSH2 0xF82 JUMP JUMPDEST PUSH1 0x40 MLOAD PUSH2 0x569 SWAP2 SWAP1 PUSH2 0x2DAE JUMP JUMPDEST PUSH1 0x40 MLOAD DUP1 SWAP2 SUB SWAP1 RETURN JUMPDEST PUSH2 0x57A PUSH2 0xFF3 JUMP JUMPDEST PUSH1 0x40 MLOAD PUSH2 0x587 SWAP2 SWAP1 PUSH2 0x2E37 JUMP JUMPDEST PUSH1 0x40 MLOAD DUP1 SWAP2 SUB SWAP1 RETURN JUMPDEST PUSH2 0x598 PUSH2 0x1091 JUMP JUMPDEST STOP JUMPDEST PUSH2 0x5A2 PUSH2 0x10A1 JUMP JUMPDEST PUSH1 0x40 MLOAD PUSH2 0x5AF SWAP2 SWAP1 PUSH2 0x3032 JUMP JUMPDEST PUSH1 0x40 MLOAD DUP1 SWAP2 SUB SWAP1 RETURN JUMPDEST PUSH2 0x5C0 PUSH2 0x10A7 JUMP JUMPDEST PUSH1 0x40 MLOAD PUSH2 0x5CD SWAP2 SWAP1 PUSH2 0x2F31 JUMP JUMPDEST PUSH1 0x40 MLOAD DUP1 SWAP2 SUB SWAP1 RETURN JUMPDEST PUSH2 0x5F0 PUSH1 0x4 DUP1 CALLDATASIZE SUB DUP2 ADD SWAP1 PUSH2 0x5EB SWAP2 SWAP1 PUSH2 0x2EE4 JUMP JUMPDEST PUSH2 0x10AF JUMP JUMPDEST PUSH1 0x40 MLOAD PUSH2 0x5FD SWAP2 SWAP1 PUSH2 0x2DAE JUMP JUMPDEST PUSH1 0x40 MLOAD DUP1 SWAP2 SUB SWAP1 RETURN JUMPDEST PUSH2 0x620 PUSH1 0x4 DUP1 CALLDATASIZE SUB DUP2 ADD SWAP1 PUSH2 0x61B SWAP2 SWAP1 PUSH2 0x2F4A JUMP JUMPDEST PUSH2 0x10D1 JUMP JUMPDEST STOP JUMPDEST PUSH2 0x62A PUSH2 0x1352 JUMP JUMPDEST PUSH1 0x40 MLOAD PUSH2 0x637 SWAP2 SWAP1 PUSH2 0x2F31 JUMP JUMPDEST PUSH1 0x40 MLOAD DUP1 SWAP2 SUB SWAP1 RETURN JUMPDEST PUSH2 0x65A PUSH1 0x4 DUP1 CALLDATASIZE SUB DUP2 ADD SWAP1 PUSH2 0x655 SWAP2 SWAP1 PUSH2 0x32AD JUMP JUMPDEST PUSH2 0x135A JUMP JUMPDEST STOP JUMPDEST PUSH2 0x676 PUSH1 0x4 DUP1 CALLDATASIZE SUB DUP2 ADD SWAP1 PUSH2 0x671 SWAP2 SWAP1 PUSH2 0x3076 JUMP JUMPDEST PUSH2 0x149F JUMP JUMPDEST STOP JUMPDEST PUSH2 0x692 PUSH1 0x4 DUP1 CALLDATASIZE SUB DUP2 ADD SWAP1 PUSH2 0x68D SWAP2 SWAP1 PUSH2 0x2EE4 JUMP JUMPDEST PUSH2 0x14C1 JUMP JUMPDEST PUSH1 0x40 MLOAD PUSH2 0x6A0 SWAP3 SWAP2 SWAP1 PUSH2 0x334A JUMP JUMPDEST PUSH1 0x40 MLOAD DUP1 SWAP2 SUB SWAP1 RETURN JUMPDEST PUSH2 0x6C3 PUSH1 0x4 DUP1 CALLDATASIZE SUB DUP2 ADD SWAP1 PUSH2 0x6BE SWAP2 SWAP1 PUSH2 0x3378 JUMP JUMPDEST PUSH2 0x1581 JUMP JUMPDEST PUSH1 0x40 MLOAD PUSH2 0x6D0 SWAP2 SWAP1 PUSH2 0x2F31 JUMP JUMPDEST PUSH1 0x40 MLOAD DUP1 SWAP2 SUB SWAP1 RETURN JUMPDEST PUSH2 0x6F3 PUSH1 0x4 DUP1 CALLDATASIZE SUB DUP2 ADD SWAP1 PUSH2 0x6EE SWAP2 SWAP1 PUSH2 0x34E2 JUMP JUMPDEST PUSH2 0x1611 JUMP JUMPDEST STOP JUMPDEST PUSH2 0x70F PUSH1 0x4 DUP1 CALLDATASIZE SUB DUP2 ADD SWAP1 PUSH2 0x70A SWAP2 SWAP1 PUSH2 0x2F4A JUMP JUMPDEST PUSH2 0x1717 JUMP JUMPDEST STOP JUMPDEST PUSH0 PUSH32 0x7965DB0B00000000000000000000000000000000000000000000000000000000 PUSH28 0xFFFFFFFFFFFFFFFFFFFFFFFFFFFFFFFFFFFFFFFFFFFFFFFFFFFFFFFF NOT AND DUP3 PUSH28 0xFFFFFFFFFFFFFFFFFFFFFFFFFFFFFFFFFFFFFFFFFFFFFFFFFFFFFFFF NOT AND EQ DUP1 PUSH2 0x783 JUMPI POP PUSH2 0x782 DUP3 PUSH2 0x179B JUMP JUMPDEST JUMPDEST SWAP1 POP SWAP2 SWAP1 POP JUMP JUMPDEST PUSH1 0x60 PUSH0 PUSH2 0x795 PUSH2 0x1804 JUMP JUMPDEST SWAP1 POP DUP1 PUSH1 0x3 ADD DUP1 SLOAD PUSH2 0x7A6 SWAP1 PUSH2 0x3569 JUMP JUMPDEST DUP1 PUSH1 0x1F ADD PUSH1 0x20 DUP1 SWAP2 DIV MUL PUSH1 0x20 ADD PUSH1 0x40 MLOAD SWAP1 DUP2 ADD PUSH1 0x40 MSTORE DUP1 SWAP3 SWAP2 SWAP1 DUP2 DUP2 MSTORE PUSH1 0x20 ADD DUP3 DUP1 SLOAD PUSH2 0x7D2 SWAP1 PUSH2 0x3569 JUMP JUMPDEST DUP1 ISZERO PUSH2 0x81D JUMPI DUP1 PUSH1 0x1F LT PUSH2 0x7F4 JUMPI PUSH2 0x100 DUP1 DUP4 SLOAD DIV MUL DUP4 MSTORE SWAP2 PUSH1 0x20 ADD SWAP2 PUSH2 0x81D JUMP JUMPDEST DUP3 ADD SWAP2 SWAP1 PUSH0 MSTORE PUSH1 0x20 PUSH0 KECCAK256 SWAP1 JUMPDEST DUP2 SLOAD DUP2 MSTORE SWAP1 PUSH1 0x1 ADD SWAP1 PUSH1 0x20 ADD DUP1 DUP4 GT PUSH2 0x800 JUMPI DUP3 SWAP1 SUB PUSH1 0x1F AND DUP3 ADD SWAP2 JUMPDEST POP POP POP POP POP SWAP2 POP POP SWAP1 JUMP JUMPDEST PUSH0 DUP1 PUSH2 0x832 PUSH2 0x182B JUMP JUMPDEST SWAP1 POP PUSH2 0x83F DUP2 DUP6 DUP6 PUSH2 0x1832 JUMP JUMPDEST PUSH1 0x1 SWAP2 POP POP SWAP3 SWAP2 POP POP JUMP JUMPDEST PUSH0 DUP1 PUSH2 0x854 PUSH2 0x1804 JUMP JUMPDEST SWAP1 POP DUP1 PUSH1 0x2 ADD SLOAD SWAP2 POP POP SWAP1 JUMP JUMPDEST PUSH1 0x2 PUSH1 0x20 MSTORE DUP1 PUSH0 MSTORE PUSH1 0x40 PUSH0 KECCAK256 PUSH0 SWAP2 POP SWAP1 POP DUP1 PUSH0 ADD SLOAD SWAP1 POP DUP2 JUMP JUMPDEST PUSH0 DUP1 PUSH2 0x885 PUSH2 0x182B JUMP JUMPDEST SWAP1 POP PUSH2 0x892 DUP6 DUP3 DUP6 PUSH2 0x1844 JUMP JUMPDEST PUSH2 0x89D DUP6 DUP6 DUP6 PUSH2 0x18D6 JUMP JUMPDEST PUSH1 0x1 SWAP2 POP POP SWAP4 SWAP3 POP POP POP JUMP JUMPDEST PUSH0 DUP1 PUSH2 0x8B3 PUSH2 0x19C6 JUMP JUMPDEST SWAP1 POP DUP1 PUSH0 ADD PUSH0 DUP5 DUP2 MSTORE PUSH1 0x20 ADD SWAP1 DUP2 MSTORE PUSH1 0x20 ADD PUSH0 KECCAK256 PUSH1 0x1 ADD SLOAD SWAP2 POP POP SWAP2 SWAP1 POP JUMP JUMPDEST PUSH0 DUP2 GT PUSH2 0x915 JUMPI PUSH1 0x40 MLOAD PUSH32 0x8C379A000000000000000000000000000000000000000000000000000000000 DUP2 MSTORE PUSH1 0x4 ADD PUSH2 0x90C SWAP1 PUSH2 0x35E3 JUMP JUMPDEST PUSH1 0x40 MLOAD DUP1 SWAP2 SUB SWAP1 REVERT JUMPDEST PUSH0 PUSH2 0x91E PUSH2 0xC98 JUMP JUMPDEST PUSH1 0xA PUSH2 0x92A SWAP2 SWAP1 PUSH2 0x375D JUMP JUMPDEST DUP3 PUSH2 0x935 SWAP2 SWAP1 PUSH2 0x37A7 JUMP JUMPDEST SWAP1 POP DUP1 PUSH2 0x941 CALLER PUSH2 0xD9B JUMP JUMPDEST LT ISZERO PUSH2 0x982 JUMPI PUSH1 0x40 MLOAD PUSH32 0x8C379A000000000000000000000000000000000000000000000000000000000 DUP2 MSTORE PUSH1 0x4 ADD PUSH2 0x979 SWAP1 PUSH2 0x3832 JUMP JUMPDEST PUSH1 0x40 MLOAD DUP1 SWAP2 SUB SWAP1 REVERT JUMPDEST PUSH2 0x98C CALLER DUP3 PUSH2 0x19ED JUMP JUMPDEST PUSH0 DUP2 SWAP1 POP PUSH0 PUSH1 0x60 JUMPDEST PUSH0 DUP4 GT DUP1 ISZERO PUSH2 0x9E2 JUMPI POP PUSH0 PUSH1 0x1 PUSH0 CALLER PUSH20 0xFFFFFFFFFFFFFFFFFFFFFFFFFFFFFFFFFFFFFFFF AND PUSH20 0xFFFFFFFFFFFFFFFFFFFFFFFFFFFFFFFFFFFFFFFF AND DUP2 MSTORE PUSH1 0x20 ADD SWAP1 DUP2 MSTORE PUSH1 0x20 ADD PUSH0 KECCAK256 DUP1 SLOAD SWAP1 POP GT JUMPDEST ISZERO PUSH2 0xC6F JUMPI PUSH0 PUSH1 0x1 PUSH0 CALLER PUSH20 0xFFFFFFFFFFFFFFFFFFFFFFFFFFFFFFFFFFFFFFFF AND PUSH20 0xFFFFFFFFFFFFFFFFFFFFFFFFFFFFFFFFFFFFFFFF AND DUP2 MSTORE PUSH1 0x20 ADD SWAP1 DUP2 MSTORE PUSH1 0x20 ADD PUSH0 KECCAK256 PUSH1 0x1 DUP1 PUSH0 CALLER PUSH20 0xFFFFFFFFFFFFFFFFFFFFFFFFFFFFFFFFFFFFFFFF AND PUSH20 0xFFFFFFFFFFFFFFFFFFFFFFFFFFFFFFFFFFFFFFFF AND DUP2 MSTORE PUSH1 0x20 ADD SWAP1 DUP2 MSTORE PUSH1 0x20 ADD PUSH0 KECCAK256 DUP1 SLOAD SWAP1 POP PUSH2 0xA71 SWAP2 SWAP1 PUSH2 0x3850 JUMP JUMPDEST DUP2 SLOAD DUP2 LT PUSH2 0xA82 JUMPI PUSH2 0xA81 PUSH2 0x3883 JUMP JUMPDEST JUMPDEST SWAP1 PUSH0 MSTORE PUSH1 0x20 PUSH0 KECCAK256 SWAP1 PUSH1 0x2 MUL ADD SWAP1 POP DUP4 DUP2 PUSH0 ADD SLOAD GT PUSH2 0xBBC JUMPI DUP1 PUSH0 ADD SLOAD SWAP3 POP DUP1 PUSH1 0x1 ADD DUP1 SLOAD PUSH2 0xAAF SWAP1 PUSH2 0x3569 JUMP JUMPDEST DUP1 PUSH1 0x1F ADD PUSH1 0x20 DUP1 SWAP2 DIV MUL PUSH1 0x20 ADD PUSH1 0x40 MLOAD SWAP1 DUP2 ADD PUSH1 0x40 MSTORE DUP1 SWAP3 SWAP2 SWAP1 DUP2 DUP2 MSTORE PUSH1 0x20 ADD DUP3 DUP1 SLOAD PUSH2 0xADB SWAP1 PUSH2 0x3569 JUMP JUMPDEST DUP1 ISZERO PUSH2 0xB26 JUMPI DUP1 PUSH1 0x1F LT PUSH2 0xAFD JUMPI PUSH2 0x100 DUP1 DUP4 SLOAD DIV MUL DUP4 MSTORE SWAP2 PUSH1 0x20 ADD SWAP2 PUSH2 0xB26 JUMP JUMPDEST DUP3 ADD SWAP2 SWAP1 PUSH0 MSTORE PUSH1 0x20 PUSH0 KECCAK256 SWAP1 JUMPDEST DUP2 SLOAD DUP2 MSTORE SWAP1 PUSH1 0x1 ADD SWAP1 PUSH1 0x20 ADD DUP1 DUP4 GT PUSH2 0xB09 JUMPI DUP3 SWAP1 SUB PUSH1 0x1F AND DUP3 ADD SWAP2 JUMPDEST POP POP POP POP POP SWAP2 POP DUP1 PUSH0 ADD SLOAD DUP5 PUSH2 0xB3C SWAP2 SWAP1 PUSH2 0x3850 JUMP JUMPDEST SWAP4 POP PUSH1 0x1 PUSH0 CALLER PUSH20 0xFFFFFFFFFFFFFFFFFFFFFFFFFFFFFFFFFFFFFFFF AND PUSH20 0xFFFFFFFFFFFFFFFFFFFFFFFFFFFFFFFFFFFFFFFF AND DUP2 MSTORE PUSH1 0x20 ADD SWAP1 DUP2 MSTORE PUSH1 0x20 ADD PUSH0 KECCAK256 DUP1 SLOAD DUP1 PUSH2 0xB8B JUMPI PUSH2 0xB8A PUSH2 0x38B0 JUMP JUMPDEST JUMPDEST PUSH1 0x1 SWAP1 SUB DUP2 DUP2 SWAP1 PUSH0 MSTORE PUSH1 0x20 PUSH0 KECCAK256 SWAP1 PUSH1 0x2 MUL ADD PUSH0 DUP1 DUP3 ADD PUSH0 SWAP1 SSTORE PUSH1 0x1 DUP3 ADD PUSH0 PUSH2 0xBB3 SWAP2 SWAP1 PUSH2 0x2CAB JUMP JUMPDEST POP POP SWAP1 SSTORE PUSH2 0xC69 JUMP JUMPDEST DUP4 SWAP3 POP DUP4 DUP2 PUSH0 ADD PUSH0 DUP3 DUP3 SLOAD PUSH2 0xBD1 SWAP2 SWAP1 PUSH2 0x3850 JUMP JUMPDEST SWAP3 POP POP DUP2 SWAP1 SSTORE POP PUSH0 SWAP4 POP DUP1 PUSH1 0x1 ADD DUP1 SLOAD PUSH2 0xBEA SWAP1 PUSH2 0x3569 JUMP JUMPDEST DUP1 PUSH1 0x1F ADD PUSH1 0x20 DUP1 SWAP2 DIV MUL PUSH1 0x20 ADD PUSH1 0x40 MLOAD SWAP1 DUP2 ADD PUSH1 0x40 MSTORE DUP1 SWAP3 SWAP2 SWAP1 DUP2 DUP2 MSTORE PUSH1 0x20 ADD DUP3 DUP1 SLOAD PUSH2 0xC16 SWAP1 PUSH2 0x3569 JUMP JUMPDEST DUP1 ISZERO PUSH2 0xC61 JUMPI DUP1 PUSH1 0x1F LT PUSH2 0xC38 JUMPI PUSH2 0x100 DUP1 DUP4 SLOAD DIV MUL DUP4 MSTORE SWAP2 PUSH1 0x20 ADD SWAP2 PUSH2 0xC61 JUMP JUMPDEST DUP3 ADD SWAP2 SWAP1 PUSH0 MSTORE PUSH1 0x20 PUSH0 KECCAK256 SWAP1 JUMPDEST DUP2 SLOAD DUP2 MSTORE SWAP1 PUSH1 0x1 ADD SWAP1 PUSH1 0x20 ADD DUP1 DUP4 GT PUSH2 0xC44 JUMPI DUP3 SWAP1 SUB PUSH1 0x1F AND DUP3 ADD SWAP2 JUMPDEST POP POP POP POP POP SWAP2 POP JUMPDEST POP PUSH2 0x994 JUMP JUMPDEST POP POP POP POP POP JUMP JUMPDEST PUSH2 0xC7F DUP3 PUSH2 0x8A9 JUMP JUMPDEST PUSH2 0xC88 DUP2 PUSH2 0x1A6C JUMP JUMPDEST PUSH2 0xC92 DUP4 DUP4 PUSH2 0x1A80 JUMP JUMPDEST POP POP POP POP JUMP JUMPDEST PUSH0 PUSH1 0x8 SWAP1 POP SWAP1 JUMP JUMPDEST PUSH0 PUSH2 0xCA9 PUSH2 0x1B78 JUMP JUMPDEST SWAP1 POP SWAP1 JUMP JUMPDEST PUSH2 0xCB6 PUSH2 0x182B JUMP JUMPDEST PUSH20 0xFFFFFFFFFFFFFFFFFFFFFFFFFFFFFFFFFFFFFFFF AND DUP2 PUSH20 0xFFFFFFFFFFFFFFFFFFFFFFFFFFFFFFFFFFFFFFFF AND EQ PUSH2 0xD1A JUMPI PUSH1 0x40 MLOAD PUSH32 0x6697B23200000000000000000000000000000000000000000000000000000000 DUP2 MSTORE PUSH1 0x4 ADD PUSH1 0x40 MLOAD DUP1 SWAP2 SUB SWAP1 REVERT JUMPDEST PUSH2 0xD24 DUP3 DUP3 PUSH2 0x1B86 JUMP JUMPDEST POP POP POP JUMP JUMPDEST PUSH2 0xD31 PUSH2 0x1C7E JUMP JUMPDEST PUSH2 0xD39 PUSH2 0x1D05 JUMP JUMPDEST JUMP JUMPDEST PUSH2 0xD4C PUSH2 0xD46 PUSH2 0x182B JUMP JUMPDEST DUP3 PUSH2 0x19ED JUMP JUMPDEST POP JUMP JUMPDEST PUSH0 DUP1 SLOAD SWAP1 PUSH2 0x100 EXP SWAP1 DIV PUSH20 0xFFFFFFFFFFFFFFFFFFFFFFFFFFFFFFFFFFFFFFFF AND DUP2 JUMP JUMPDEST PUSH0 DUP1 PUSH2 0xD7C PUSH2 0x1D73 JUMP JUMPDEST SWAP1 POP DUP1 PUSH0 ADD PUSH0 SWAP1 SLOAD SWAP1 PUSH2 0x100 EXP SWAP1 DIV PUSH1 0xFF AND SWAP2 POP POP SWAP1 JUMP JUMPDEST PUSH3 0x15180 DUP2 JUMP JUMPDEST PUSH0 DUP1 PUSH2 0xDA5 PUSH2 0x1804 JUMP JUMPDEST SWAP1 POP DUP1 PUSH0 ADD PUSH0 DUP5 PUSH20 0xFFFFFFFFFFFFFFFFFFFFFFFFFFFFFFFFFFFFFFFF AND PUSH20 0xFFFFFFFFFFFFFFFFFFFFFFFFFFFFFFFFFFFFFFFF AND DUP2 MSTORE PUSH1 0x20 ADD SWAP1 DUP2 MSTORE PUSH1 0x20 ADD PUSH0 KECCAK256 SLOAD SWAP2 POP POP SWAP2 SWAP1 POP JUMP JUMPDEST PUSH2 0xDF6 PUSH2 0x1C7E JUMP JUMPDEST PUSH2 0xDFF PUSH0 PUSH2 0x1D9A JUMP JUMPDEST JUMP JUMPDEST PUSH2 0xE13 DUP3 PUSH2 0xE0D PUSH2 0x182B JUMP JUMPDEST DUP4 PUSH2 0x1844 JUMP JUMPDEST PUSH2 0xE1D DUP3 DUP3 PUSH2 0x19ED JUMP JUMPDEST POP POP JUMP JUMPDEST PUSH0 PUSH2 0xE2B DUP3 PUSH2 0x1E6B JUMP JUMPDEST SWAP1 POP SWAP2 SWAP1 POP JUMP JUMPDEST PUSH2 0xE3A PUSH2 0x1C7E JUMP JUMPDEST PUSH2 0xE42 PUSH2 0x1EBE JUMP JUMPDEST JUMP JUMPDEST PUSH0 PUSH1 0x60 DUP1 PUSH0 DUP1 PUSH0 PUSH1 0x60 PUSH0 PUSH2 0xE56 PUSH2 0x1F2D JUMP JUMPDEST SWAP1 POP PUSH0 DUP1 SHL DUP2 PUSH0 ADD SLOAD EQ DUP1 ISZERO PUSH2 0xE71 JUMPI POP PUSH0 DUP1 SHL DUP2 PUSH1 0x1 ADD SLOAD EQ JUMPDEST PUSH2 0xEB0 JUMPI PUSH1 0x40 MLOAD PUSH32 0x8C379A000000000000000000000000000000000000000000000000000000000 DUP2 MSTORE PUSH1 0x4 ADD PUSH2 0xEA7 SWAP1 PUSH2 0x3927 JUMP JUMPDEST PUSH1 0x40 MLOAD DUP1 SWAP2 SUB SWAP1 REVERT JUMPDEST PUSH2 0xEB8 PUSH2 0x1F54 JUMP JUMPDEST PUSH2 0xEC0 PUSH2 0x1FF2 JUMP JUMPDEST CHAINID ADDRESS PUSH0 DUP1 SHL PUSH0 PUSH8 0xFFFFFFFFFFFFFFFF DUP2 GT ISZERO PUSH2 0xEDF JUMPI PUSH2 0xEDE PUSH2 0x33BE JUMP JUMPDEST JUMPDEST PUSH1 0x40 MLOAD SWAP1 DUP1 DUP3 MSTORE DUP1 PUSH1 0x20 MUL PUSH1 0x20 ADD DUP3 ADD PUSH1 0x40 MSTORE DUP1 ISZERO PUSH2 0xF0D JUMPI DUP2 PUSH1 0x20 ADD PUSH1 0x20 DUP3 MUL DUP1 CALLDATASIZE DUP4 CALLDATACOPY DUP1 DUP3 ADD SWAP2 POP POP SWAP1 POP JUMPDEST POP PUSH32 0xF00000000000000000000000000000000000000000000000000000000000000 SWAP6 SWAP5 SWAP4 SWAP3 SWAP2 SWAP1 SWAP8 POP SWAP8 POP SWAP8 POP SWAP8 POP SWAP8 POP SWAP8 POP SWAP8 POP POP SWAP1 SWAP2 SWAP3 SWAP4 SWAP5 SWAP6 SWAP7 JUMP JUMPDEST PUSH0 DUP1 PUSH2 0xF57 PUSH2 0x2090 JUMP JUMPDEST SWAP1 POP DUP1 PUSH0 ADD PUSH0 SWAP1 SLOAD SWAP1 PUSH2 0x100 EXP SWAP1 DIV PUSH20 0xFFFFFFFFFFFFFFFFFFFFFFFFFFFFFFFFFFFFFFFF AND SWAP2 POP POP SWAP1 JUMP JUMPDEST PUSH0 DUP1 PUSH2 0xF8C PUSH2 0x19C6 JUMP JUMPDEST SWAP1 POP DUP1 PUSH0 ADD PUSH0 DUP6 DUP2 MSTORE PUSH1 0x20 ADD SWAP1 DUP2 MSTORE PUSH1 0x20 ADD PUSH0 KECCAK256 PUSH0 ADD PUSH0 DUP5 PUSH20 0xFFFFFFFFFFFFFFFFFFFFFFFFFFFFFFFFFFFFFFFF AND PUSH20 0xFFFFFFFFFFFFFFFFFFFFFFFFFFFFFFFFFFFFFFFF AND DUP2 MSTORE PUSH1 0x20 ADD SWAP1 DUP2 MSTORE PUSH1 0x20 ADD PUSH0 KECCAK256 PUSH0 SWAP1 SLOAD SWAP1 PUSH2 0x100 EXP SWAP1 DIV PUSH1 0xFF AND SWAP2 POP POP SWAP3 SWAP2 POP POP JUMP JUMPDEST PUSH1 0x60 PUSH0 PUSH2 0xFFE PUSH2 0x1804 JUMP JUMPDEST SWAP1 POP DUP1 PUSH1 0x4 ADD DUP1 SLOAD PUSH2 0x100F SWAP1 PUSH2 0x3569 JUMP JUMPDEST DUP1 PUSH1 0x1F ADD PUSH1 0x20 DUP1 SWAP2 DIV MUL PUSH1 0x20 ADD PUSH1 0x40 MLOAD SWAP1 DUP2 ADD PUSH1 0x40 MSTORE DUP1 SWAP3 SWAP2 SWAP1 DUP2 DUP2 MSTORE PUSH1 0x20 ADD DUP3 DUP1 SLOAD PUSH2 0x103B SWAP1 PUSH2 0x3569 JUMP JUMPDEST DUP1 ISZERO PUSH2 0x1086 JUMPI DUP1 PUSH1 0x1F LT PUSH2 0x105D JUMPI PUSH2 0x100 DUP1 DUP4 SLOAD DIV MUL DUP4 MSTORE SWAP2 PUSH1 0x20 ADD SWAP2 PUSH2 0x1086 JUMP JUMPDEST DUP3 ADD SWAP2 SWAP1 PUSH0 MSTORE PUSH1 0x20 PUSH0 KECCAK256 SWAP1 JUMPDEST DUP2 SLOAD DUP2 MSTORE SWAP1 PUSH1 0x1 ADD SWAP1 PUSH1 0x20 ADD DUP1 DUP4 GT PUSH2 0x1069 JUMPI DUP3 SWAP1 SUB PUSH1 0x1F AND DUP3 ADD SWAP2 JUMPDEST POP POP POP POP POP SWAP2 POP POP SWAP1 JUMP JUMPDEST PUSH2 0x109F CALLER PUSH4 0x3B9ACA00 PUSH2 0x20B7 JUMP JUMPDEST JUMP JUMPDEST PUSH0 DUP1 SHL DUP2 JUMP JUMPDEST PUSH4 0x3B9ACA00 DUP2 JUMP JUMPDEST PUSH0 DUP1 PUSH2 0x10B9 PUSH2 0x182B JUMP JUMPDEST SWAP1 POP PUSH2 0x10C6 DUP2 DUP6 DUP6 PUSH2 0x18D6 JUMP JUMPDEST PUSH1 0x1 SWAP2 POP POP SWAP3 SWAP2 POP POP JUMP JUMPDEST PUSH0 PUSH2 0x10DA PUSH2 0x2136 JUMP JUMPDEST SWAP1 POP PUSH0 DUP2 PUSH0 ADD PUSH1 0x8 SWAP1 SLOAD SWAP1 PUSH2 0x100 EXP SWAP1 DIV PUSH1 0xFF AND ISZERO SWAP1 POP PUSH0 DUP3 PUSH0 ADD PUSH0 SWAP1 SLOAD SWAP1 PUSH2 0x100 EXP SWAP1 DIV PUSH8 0xFFFFFFFFFFFFFFFF AND SWAP1 POP PUSH0 DUP1 DUP3 PUSH8 0xFFFFFFFFFFFFFFFF AND EQ DUP1 ISZERO PUSH2 0x1122 JUMPI POP DUP3 JUMPDEST SWAP1 POP PUSH0 PUSH1 0x1 DUP4 PUSH8 0xFFFFFFFFFFFFFFFF AND EQ DUP1 ISZERO PUSH2 0x1155 JUMPI POP PUSH0 ADDRESS PUSH20 0xFFFFFFFFFFFFFFFFFFFFFFFFFFFFFFFFFFFFFFFF AND EXTCODESIZE EQ JUMPDEST SWAP1 POP DUP2 ISZERO DUP1 ISZERO PUSH2 0x1163 JUMPI POP DUP1 ISZERO JUMPDEST ISZERO PUSH2 0x119A JUMPI PUSH1 0x40 MLOAD PUSH32 0xF92EE8A900000000000000000000000000000000000000000000000000000000 DUP2 MSTORE PUSH1 0x4 ADD PUSH1 0x40 MLOAD DUP1 SWAP2 SUB SWAP1 REVERT JUMPDEST PUSH1 0x1 DUP6 PUSH0 ADD PUSH0 PUSH2 0x100 EXP DUP2 SLOAD DUP2 PUSH8 0xFFFFFFFFFFFFFFFF MUL NOT AND SWAP1 DUP4 PUSH8 0xFFFFFFFFFFFFFFFF AND MUL OR SWAP1 SSTORE POP DUP4 ISZERO PUSH2 0x11E7 JUMPI PUSH1 0x1 DUP6 PUSH0 ADD PUSH1 0x8 PUSH2 0x100 EXP DUP2 SLOAD DUP2 PUSH1 0xFF MUL NOT AND SWAP1 DUP4 ISZERO ISZERO MUL OR SWAP1 SSTORE POP JUMPDEST PUSH2 0x125B PUSH1 0x40 MLOAD DUP1 PUSH1 0x40 ADD PUSH1 0x40 MSTORE DUP1 PUSH1 0xA DUP2 MSTORE PUSH1 0x20 ADD PUSH32 0x42616E6B546F636B656E00000000000000000000000000000000000000000000 DUP2 MSTORE POP PUSH1 0x40 MLOAD DUP1 PUSH1 0x40 ADD PUSH1 0x40 MSTORE DUP1 PUSH1 0x4 DUP2 MSTORE PUSH1 0x20 ADD PUSH32 0x42414E4B00000000000000000000000000000000000000000000000000000000 DUP2 MSTORE POP PUSH2 0x215D JUMP JUMPDEST PUSH2 0x1263 PUSH2 0x2173 JUMP JUMPDEST PUSH2 0x126B PUSH2 0x217D JUMP JUMPDEST PUSH2 0x12A9 PUSH1 0x40 MLOAD DUP1 PUSH1 0x40 ADD PUSH1 0x40 MSTORE DUP1 PUSH1 0xA DUP2 MSTORE PUSH1 0x20 ADD PUSH32 0x42616E6B546F636B656E00000000000000000000000000000000000000000000 DUP2 MSTORE POP PUSH2 0x218F JUMP JUMPDEST PUSH2 0x12B1 PUSH2 0x21D9 JUMP JUMPDEST DUP6 PUSH0 DUP1 PUSH2 0x100 EXP DUP2 SLOAD DUP2 PUSH20 0xFFFFFFFFFFFFFFFFFFFFFFFFFFFFFFFFFFFFFFFF MUL NOT AND SWAP1 DUP4 PUSH20 0xFFFFFFFFFFFFFFFFFFFFFFFFFFFFFFFFFFFFFFFF AND MUL OR SWAP1 SSTORE POP DUP4 ISZERO PUSH2 0x134A JUMPI PUSH0 DUP6 PUSH0 ADD PUSH1 0x8 PUSH2 0x100 EXP DUP2 SLOAD DUP2 PUSH1 0xFF MUL NOT AND SWAP1 DUP4 ISZERO ISZERO MUL OR SWAP1 SSTORE POP PUSH32 0xC7F505B2F371AE2175EE4913F4499E1F2633A7B5936321EED1CDAEB6115181D2 PUSH1 0x1 PUSH1 0x40 MLOAD PUSH2 0x1341 SWAP2 SWAP1 PUSH2 0x399A JUMP JUMPDEST PUSH1 0x40 MLOAD DUP1 SWAP2 SUB SWAP1 LOG1 JUMPDEST POP POP POP POP POP POP JUMP JUMPDEST PUSH4 0x3B9ACA00 DUP2 JUMP JUMPDEST DUP4 TIMESTAMP GT ISZERO PUSH2 0x139F JUMPI DUP4 PUSH1 0x40 MLOAD PUSH32 0x6279130200000000000000000000000000000000000000000000000000000000 DUP2 MSTORE PUSH1 0x4 ADD PUSH2 0x1396 SWAP2 SWAP1 PUSH2 0x2F31 JUMP JUMPDEST PUSH1 0x40 MLOAD DUP1 SWAP2 SUB SWAP1 REVERT JUMPDEST PUSH0 PUSH32 0x6E71EDAE12B1B97F4D1F60370FEF10105FA2FAAE0126114A169C64845D6126C9 DUP9 DUP9 DUP9 PUSH2 0x13CD DUP13 PUSH2 0x21E3 JUMP JUMPDEST DUP10 PUSH1 0x40 MLOAD PUSH1 0x20 ADD PUSH2 0x13E3 SWAP7 SWAP6 SWAP5 SWAP4 SWAP3 SWAP2 SWAP1 PUSH2 0x39B3 JUMP JUMPDEST PUSH1 0x40 MLOAD PUSH1 0x20 DUP2 DUP4 SUB SUB DUP2 MSTORE SWAP1 PUSH1 0x40 MSTORE DUP1 MLOAD SWAP1 PUSH1 0x20 ADD KECCAK256 SWAP1 POP PUSH0 PUSH2 0x1405 DUP3 PUSH2 0x2243 JUMP JUMPDEST SWAP1 POP PUSH0 PUSH2 0x1414 DUP3 DUP8 DUP8 DUP8 PUSH2 0x225C JUMP JUMPDEST SWAP1 POP DUP10 PUSH20 0xFFFFFFFFFFFFFFFFFFFFFFFFFFFFFFFFFFFFFFFF AND DUP2 PUSH20 0xFFFFFFFFFFFFFFFFFFFFFFFFFFFFFFFFFFFFFFFF AND EQ PUSH2 0x1488 JUMPI DUP1 DUP11 PUSH1 0x40 MLOAD PUSH32 0x4B800E4600000000000000000000000000000000000000000000000000000000 DUP2 MSTORE PUSH1 0x4 ADD PUSH2 0x147F SWAP3 SWAP2 SWAP1 PUSH2 0x3A12 JUMP JUMPDEST PUSH1 0x40 MLOAD DUP1 SWAP2 SUB SWAP1 REVERT JUMPDEST PUSH2 0x1493 DUP11 DUP11 DUP11 PUSH2 0x1832 JUMP JUMPDEST POP POP POP POP POP POP POP POP POP POP JUMP JUMPDEST PUSH2 0x14A8 DUP3 PUSH2 0x8A9 JUMP JUMPDEST PUSH2 0x14B1 DUP2 PUSH2 0x1A6C JUMP JUMPDEST PUSH2 0x14BB DUP4 DUP4 PUSH2 0x1B86 JUMP JUMPDEST POP POP POP POP JUMP JUMPDEST PUSH1 0x1 PUSH1 0x20 MSTORE DUP2 PUSH0 MSTORE PUSH1 0x40 PUSH0 KECCAK256 DUP2 DUP2 SLOAD DUP2 LT PUSH2 0x14DA JUMPI PUSH0 DUP1 REVERT JUMPDEST SWAP1 PUSH0 MSTORE PUSH1 0x20 PUSH0 KECCAK256 SWAP1 PUSH1 0x2 MUL ADD PUSH0 SWAP2 POP SWAP2 POP POP DUP1 PUSH0 ADD SLOAD SWAP1 DUP1 PUSH1 0x1 ADD DUP1 SLOAD PUSH2 0x1500 SWAP1 PUSH2 0x3569 JUMP JUMPDEST DUP1 PUSH1 0x1F ADD PUSH1 0x20 DUP1 SWAP2 DIV MUL PUSH1 0x20 ADD PUSH1 0x40 MLOAD SWAP1 DUP2 ADD PUSH1 0x40 MSTORE DUP1 SWAP3 SWAP2 SWAP1 DUP2 DUP2 MSTORE PUSH1 0x20 ADD DUP3 DUP1 SLOAD PUSH2 0x152C SWAP1 PUSH2 0x3569 JUMP JUMPDEST DUP1 ISZERO PUSH2 0x1577 JUMPI DUP1 PUSH1 0x1F LT PUSH2 0x154E JUMPI PUSH2 0x100 DUP1 DUP4 SLOAD DIV MUL DUP4 MSTORE SWAP2 PUSH1 0x20 ADD SWAP2 PUSH2 0x1577 JUMP JUMPDEST DUP3 ADD SWAP2 SWAP1 PUSH0 MSTORE PUSH1 0x20 PUSH0 KECCAK256 SWAP1 JUMPDEST DUP2 SLOAD DUP2 MSTORE SWAP1 PUSH1 0x1 ADD SWAP1 PUSH1 0x20 ADD DUP1 DUP4 GT PUSH2 0x155A JUMPI DUP3 SWAP1 SUB PUSH1 0x1F AND DUP3 ADD SWAP2 JUMPDEST POP POP POP POP POP SWAP1 POP DUP3 JUMP JUMPDEST PUSH0 DUP1 PUSH2 0x158B PUSH2 0x1804 JUMP JUMPDEST SWAP1 POP DUP1 PUSH1 0x1 ADD PUSH0 DUP6 PUSH20 0xFFFFFFFFFFFFFFFFFFFFFFFFFFFFFFFFFFFFFFFF AND PUSH20 0xFFFFFFFFFFFFFFFFFFFFFFFFFFFFFFFFFFFFFFFF AND DUP2 MSTORE PUSH1 0x20 ADD SWAP1 DUP2 MSTORE PUSH1 0x20 ADD PUSH0 KECCAK256 PUSH0 DUP5 PUSH20 0xFFFFFFFFFFFFFFFFFFFFFFFFFFFFFFFFFFFFFFFF AND PUSH20 0xFFFFFFFFFFFFFFFFFFFFFFFFFFFFFFFFFFFFFFFF AND DUP2 MSTORE PUSH1 0x20 ADD SWAP1 DUP2 MSTORE PUSH1 0x20 ADD PUSH0 KECCAK256 SLOAD SWAP2 POP POP SWAP3 SWAP2 POP POP JUMP JUMPDEST PUSH0 DUP3 GT PUSH2 0x1653 JUMPI PUSH1 0x40 MLOAD PUSH32 0x8C379A000000000000000000000000000000000000000000000000000000000 DUP2 MSTORE PUSH1 0x4 ADD PUSH2 0x164A SWAP1 PUSH2 0x35E3 JUMP JUMPDEST PUSH1 0x40 MLOAD DUP1 SWAP2 SUB SWAP1 REVERT JUMPDEST PUSH1 0x1 PUSH0 CALLER PUSH20 0xFFFFFFFFFFFFFFFFFFFFFFFFFFFFFFFFFFFFFFFF AND PUSH20 0xFFFFFFFFFFFFFFFFFFFFFFFFFFFFFFFFFFFFFFFF AND DUP2 MSTORE PUSH1 0x20 ADD SWAP1 DUP2 MSTORE PUSH1 0x20 ADD PUSH0 KECCAK256 PUSH1 0x40 MLOAD DUP1 PUSH1 0x40 ADD PUSH1 0x40 MSTORE DUP1 DUP5 DUP2 MSTORE PUSH1 0x20 ADD DUP4 DUP2 MSTORE POP SWAP1 DUP1 PUSH1 0x1 DUP2 SLOAD ADD DUP1 DUP3 SSTORE DUP1 SWAP2 POP POP PUSH1 0x1 SWAP1 SUB SWAP1 PUSH0 MSTORE PUSH1 0x20 PUSH0 KECCAK256 SWAP1 PUSH1 0x2 MUL ADD PUSH0 SWAP1 SWAP2 SWAP1 SWAP2 SWAP1 SWAP2 POP PUSH0 DUP3 ADD MLOAD DUP2 PUSH0 ADD SSTORE PUSH1 0x20 DUP3 ADD MLOAD DUP2 PUSH1 0x1 ADD SWAP1 DUP2 PUSH2 0x16E8 SWAP2 SWAP1 PUSH2 0x3BCD JUMP JUMPDEST POP POP POP PUSH2 0x1713 CALLER PUSH2 0x16F7 PUSH2 0xC98 JUMP JUMPDEST PUSH1 0xA PUSH2 0x1703 SWAP2 SWAP1 PUSH2 0x375D JUMP JUMPDEST DUP5 PUSH2 0x170E SWAP2 SWAP1 PUSH2 0x37A7 JUMP JUMPDEST PUSH2 0x20B7 JUMP JUMPDEST POP POP JUMP JUMPDEST PUSH2 0x171F PUSH2 0x1C7E JUMP JUMPDEST PUSH0 PUSH20 0xFFFFFFFFFFFFFFFFFFFFFFFFFFFFFFFFFFFFFFFF AND DUP2 PUSH20 0xFFFFFFFFFFFFFFFFFFFFFFFFFFFFFFFFFFFFFFFF AND SUB PUSH2 0x178F JUMPI PUSH0 PUSH1 0x40 MLOAD PUSH32 0x1E4FBDF700000000000000000000000000000000000000000000000000000000 DUP2 MSTORE PUSH1 0x4 ADD PUSH2 0x1786 SWAP2 SWAP1 PUSH2 0x30F7 JUMP JUMPDEST PUSH1 0x40 MLOAD DUP1 SWAP2 SUB SWAP1 REVERT JUMPDEST PUSH2 0x1798 DUP2 PUSH2 0x1D9A JUMP JUMPDEST POP JUMP JUMPDEST PUSH0 PUSH32 0x1FFC9A700000000000000000000000000000000000000000000000000000000 PUSH28 0xFFFFFFFFFFFFFFFFFFFFFFFFFFFFFFFFFFFFFFFFFFFFFFFFFFFFFFFF NOT AND DUP3 PUSH28 0xFFFFFFFFFFFFFFFFFFFFFFFFFFFFFFFFFFFFFFFFFFFFFFFFFFFFFFFF NOT AND EQ SWAP1 POP SWAP2 SWAP1 POP JUMP JUMPDEST PUSH0 PUSH32 0x52C63247E1F47DB19D5CE0460030C497F067CA4CEBF71BA98EEADABE20BACE00 SWAP1 POP SWAP1 JUMP JUMPDEST PUSH0 CALLER SWAP1 POP SWAP1 JUMP JUMPDEST PUSH2 0x183F DUP4 DUP4 DUP4 PUSH1 0x1 PUSH2 0x228A JUMP JUMPDEST POP POP POP JUMP JUMPDEST PUSH0 PUSH2 0x184F DUP5 DUP5 PUSH2 0x1581 JUMP JUMPDEST SWAP1 POP PUSH32 0xFFFFFFFFFFFFFFFFFFFFFFFFFFFFFFFFFFFFFFFFFFFFFFFFFFFFFFFFFFFFFFFF DUP2 EQ PUSH2 0x18D0 JUMPI DUP2 DUP2 LT ISZERO PUSH2 0x18C1 JUMPI DUP3 DUP2 DUP4 PUSH1 0x40 MLOAD PUSH32 0xFB8F41B200000000000000000000000000000000000000000000000000000000 DUP2 MSTORE PUSH1 0x4 ADD PUSH2 0x18B8 SWAP4 SWAP3 SWAP2 SWAP1 PUSH2 0x3C9C JUMP JUMPDEST PUSH1 0x40 MLOAD DUP1 SWAP2 SUB SWAP1 REVERT JUMPDEST PUSH2 0x18CF DUP5 DUP5 DUP5 DUP5 SUB PUSH0 PUSH2 0x228A JUMP JUMPDEST JUMPDEST POP POP POP POP JUMP JUMPDEST PUSH0 PUSH20 0xFFFFFFFFFFFFFFFFFFFFFFFFFFFFFFFFFFFFFFFF AND DUP4 PUSH20 0xFFFFFFFFFFFFFFFFFFFFFFFFFFFFFFFFFFFFFFFF AND SUB PUSH2 0x1946 JUMPI PUSH0 PUSH1 0x40 MLOAD PUSH32 0x96C6FD1E00000000000000000000000000000000000000000000000000000000 DUP2 MSTORE PUSH1 0x4 ADD PUSH2 0x193D SWAP2 SWAP1 PUSH2 0x30F7 JUMP JUMPDEST PUSH1 0x40 MLOAD DUP1 SWAP2 SUB SWAP1 REVERT JUMPDEST PUSH0 PUSH20 0xFFFFFFFFFFFFFFFFFFFFFFFFFFFFFFFFFFFFFFFF AND DUP3 PUSH20 0xFFFFFFFFFFFFFFFFFFFFFFFFFFFFFFFFFFFFFFFF AND SUB PUSH2 0x19B6 JUMPI PUSH0 PUSH1 0x40 MLOAD PUSH32 0xEC442F0500000000000000000000000000000000000000000000000000000000 DUP2 MSTORE PUSH1 0x4 ADD PUSH2 0x19AD SWAP2 SWAP1 PUSH2 0x30F7 JUMP JUMPDEST PUSH1 0x40 MLOAD DUP1 SWAP2 SUB SWAP1 REVERT JUMPDEST PUSH2 0x19C1 DUP4 DUP4 DUP4 PUSH2 0x2467 JUMP JUMPDEST POP POP POP JUMP JUMPDEST PUSH0 PUSH32 0x2DD7BC7DEC4DCEEDDA775E58DD541E08A116C6C53815C0BD028192F7B626800 SWAP1 POP SWAP1 JUMP JUMPDEST PUSH0 PUSH20 0xFFFFFFFFFFFFFFFFFFFFFFFFFFFFFFFFFFFFFFFF AND DUP3 PUSH20 0xFFFFFFFFFFFFFFFFFFFFFFFFFFFFFFFFFFFFFFFF AND SUB PUSH2 0x1A5D JUMPI PUSH0 PUSH1 0x40 MLOAD PUSH32 0x96C6FD1E00000000000000000000000000000000000000000000000000000000 DUP2 MSTORE PUSH1 0x4 ADD PUSH2 0x1A54 SWAP2 SWAP1 PUSH2 0x30F7 JUMP JUMPDEST PUSH1 0x40 MLOAD DUP1 SWAP2 SUB SWAP1 REVERT JUMPDEST PUSH2 0x1A68 DUP3 PUSH0 DUP4 PUSH2 0x2467 JUMP JUMPDEST POP POP JUMP JUMPDEST PUSH2 0x1A7D DUP2 PUSH2 0x1A78 PUSH2 0x182B JUMP JUMPDEST PUSH2 0x2477 JUMP JUMPDEST POP JUMP JUMPDEST PUSH0 DUP1 PUSH2 0x1A8A PUSH2 0x19C6 JUMP JUMPDEST SWAP1 POP PUSH2 0x1A96 DUP5 DUP5 PUSH2 0xF82 JUMP JUMPDEST PUSH2 0x1B6D JUMPI PUSH1 0x1 DUP2 PUSH0 ADD PUSH0 DUP7 DUP2 MSTORE PUSH1 0x20 ADD SWAP1 DUP2 MSTORE PUSH1 0x20 ADD PUSH0 KECCAK256 PUSH0 ADD PUSH0 DUP6 PUSH20 0xFFFFFFFFFFFFFFFFFFFFFFFFFFFFFFFFFFFFFFFF AND PUSH20 0xFFFFFFFFFFFFFFFFFFFFFFFFFFFFFFFFFFFFFFFF AND DUP2 MSTORE PUSH1 0x20 ADD SWAP1 DUP2 MSTORE PUSH1 0x20 ADD PUSH0 KECCAK256 PUSH0 PUSH2 0x100 EXP DUP2 SLOAD DUP2 PUSH1 0xFF MUL NOT AND SWAP1 DUP4 ISZERO ISZERO MUL OR SWAP1 SSTORE POP PUSH2 0x1B09 PUSH2 0x182B JUMP JUMPDEST PUSH20 0xFFFFFFFFFFFFFFFFFFFFFFFFFFFFFFFFFFFFFFFF AND DUP4 PUSH20 0xFFFFFFFFFFFFFFFFFFFFFFFFFFFFFFFFFFFFFFFF AND DUP6 PUSH32 0x2F8788117E7EFF1D82E926EC794901D17C78024A50270940304540A733656F0D PUSH1 0x40 MLOAD PUSH1 0x40 MLOAD DUP1 SWAP2 SUB SWAP1 LOG4 PUSH1 0x1 SWAP2 POP POP PUSH2 0x1B72 JUMP JUMPDEST PUSH0 SWAP2 POP POP JUMPDEST SWAP3 SWAP2 POP POP JUMP JUMPDEST PUSH0 PUSH2 0x1B81 PUSH2 0x24C8 JUMP JUMPDEST SWAP1 POP SWAP1 JUMP JUMPDEST PUSH0 DUP1 PUSH2 0x1B90 PUSH2 0x19C6 JUMP JUMPDEST SWAP1 POP PUSH2 0x1B9C DUP5 DUP5 PUSH2 0xF82 JUMP JUMPDEST ISZERO PUSH2 0x1C73 JUMPI PUSH0 DUP2 PUSH0 ADD PUSH0 DUP7 DUP2 MSTORE PUSH1 0x20 ADD SWAP1 DUP2 MSTORE PUSH1 0x20 ADD PUSH0 KECCAK256 PUSH0 ADD PUSH0 DUP6 PUSH20 0xFFFFFFFFFFFFFFFFFFFFFFFFFFFFFFFFFFFFFFFF AND PUSH20 0xFFFFFFFFFFFFFFFFFFFFFFFFFFFFFFFFFFFFFFFF AND DUP2 MSTORE PUSH1 0x20 ADD SWAP1 DUP2 MSTORE PUSH1 0x20 ADD PUSH0 KECCAK256 PUSH0 PUSH2 0x100 EXP DUP2 SLOAD DUP2 PUSH1 0xFF MUL NOT AND SWAP1 DUP4 ISZERO ISZERO MUL OR SWAP1 SSTORE POP PUSH2 0x1C0F PUSH2 0x182B JUMP JUMPDEST PUSH20 0xFFFFFFFFFFFFFFFFFFFFFFFFFFFFFFFFFFFFFFFF AND DUP4 PUSH20 0xFFFFFFFFFFFFFFFFFFFFFFFFFFFFFFFFFFFFFFFF AND DUP6 PUSH32 0xF6391F5C32D9C69D2A47EA670B442974B53935D1EDC7FD64EB21E047A839171B PUSH1 0x40 MLOAD PUSH1 0x40 MLOAD DUP1 SWAP2 SUB SWAP1 LOG4 PUSH1 0x1 SWAP2 POP POP PUSH2 0x1C78 JUMP JUMPDEST PUSH0 SWAP2 POP POP JUMPDEST SWAP3 SWAP2 POP POP JUMP JUMPDEST PUSH2 0x1C86 PUSH2 0x182B JUMP JUMPDEST PUSH20 0xFFFFFFFFFFFFFFFFFFFFFFFFFFFFFFFFFFFFFFFF AND PUSH2 0x1CA4 PUSH2 0xF4D JUMP JUMPDEST PUSH20 0xFFFFFFFFFFFFFFFFFFFFFFFFFFFFFFFFFFFFFFFF AND EQ PUSH2 0x1D03 JUMPI PUSH2 0x1CC7 PUSH2 0x182B JUMP JUMPDEST PUSH1 0x40 MLOAD PUSH32 0x118CDAA700000000000000000000000000000000000000000000000000000000 DUP2 MSTORE PUSH1 0x4 ADD PUSH2 0x1CFA SWAP2 SWAP1 PUSH2 0x30F7 JUMP JUMPDEST PUSH1 0x40 MLOAD DUP1 SWAP2 SUB SWAP1 REVERT JUMPDEST JUMP JUMPDEST PUSH2 0x1D0D PUSH2 0x252B JUMP JUMPDEST PUSH0 PUSH2 0x1D16 PUSH2 0x1D73 JUMP JUMPDEST SWAP1 POP PUSH0 DUP2 PUSH0 ADD PUSH0 PUSH2 0x100 EXP DUP2 SLOAD DUP2 PUSH1 0xFF MUL NOT AND SWAP1 DUP4 ISZERO ISZERO MUL OR SWAP1 SSTORE POP PUSH32 0x5DB9EE0A495BF2E6FF9C91A7834C1BA4FDD244A5E8AA4E537BD38AEAE4B073AA PUSH2 0x1D5B PUSH2 0x182B JUMP JUMPDEST PUSH1 0x40 MLOAD PUSH2 0x1D68 SWAP2 SWAP1 PUSH2 0x30F7 JUMP JUMPDEST PUSH1 0x40 MLOAD DUP1 SWAP2 SUB SWAP1 LOG1 POP JUMP JUMPDEST PUSH0 PUSH32 0xCD5ED15C6E187E77E9AEE88184C21F4F2182AB5827CB3B7E07FBEDCD63F03300 SWAP1 POP SWAP1 JUMP JUMPDEST PUSH0 PUSH2 0x1DA3 PUSH2 0x2090 JUMP JUMPDEST SWAP1 POP PUSH0 DUP2 PUSH0 ADD PUSH0 SWAP1 SLOAD SWAP1 PUSH2 0x100 EXP SWAP1 DIV PUSH20 0xFFFFFFFFFFFFFFFFFFFFFFFFFFFFFFFFFFFFFFFF AND SWAP1 POP DUP3 DUP3 PUSH0 ADD PUSH0 PUSH2 0x100 EXP DUP2 SLOAD DUP2 PUSH20 0xFFFFFFFFFFFFFFFFFFFFFFFFFFFFFFFFFFFFFFFF MUL NOT AND SWAP1 DUP4 PUSH20 0xFFFFFFFFFFFFFFFFFFFFFFFFFFFFFFFFFFFFFFFF AND MUL OR SWAP1 SSTORE POP DUP3 PUSH20 0xFFFFFFFFFFFFFFFFFFFFFFFFFFFFFFFFFFFFFFFF AND DUP2 PUSH20 0xFFFFFFFFFFFFFFFFFFFFFFFFFFFFFFFFFFFFFFFF AND PUSH32 0x8BE0079C531659141344CD1FD0A4F28419497F9722A3DAAFE3B4186F6B6457E0 PUSH1 0x40 MLOAD PUSH1 0x40 MLOAD DUP1 SWAP2 SUB SWAP1 LOG3 POP POP POP JUMP JUMPDEST PUSH0 DUP1 PUSH2 0x1E75 PUSH2 0x256B JUMP JUMPDEST SWAP1 POP DUP1 PUSH0 ADD PUSH0 DUP5 PUSH20 0xFFFFFFFFFFFFFFFFFFFFFFFFFFFFFFFFFFFFFFFF AND PUSH20 0xFFFFFFFFFFFFFFFFFFFFFFFFFFFFFFFFFFFFFFFF AND DUP2 MSTORE PUSH1 0x20 ADD SWAP1 DUP2 MSTORE PUSH1 0x20 ADD PUSH0 KECCAK256 SLOAD SWAP2 POP POP SWAP2 SWAP1 POP JUMP JUMPDEST PUSH2 0x1EC6 PUSH2 0x2592 JUMP JUMPDEST PUSH0 PUSH2 0x1ECF PUSH2 0x1D73 JUMP JUMPDEST SWAP1 POP PUSH1 0x1 DUP2 PUSH0 ADD PUSH0 PUSH2 0x100 EXP DUP2 SLOAD DUP2 PUSH1 0xFF MUL NOT AND SWAP1 DUP4 ISZERO ISZERO MUL OR SWAP1 SSTORE POP PUSH32 0x62E78CEA01BEE320CD4E420270B5EA74000D11B0C9F74754EBDBFC544B05A258 PUSH2 0x1F15 PUSH2 0x182B JUMP JUMPDEST PUSH1 0x40 MLOAD PUSH2 0x1F22 SWAP2 SWAP1 PUSH2 0x30F7 JUMP JUMPDEST PUSH1 0x40 MLOAD DUP1 SWAP2 SUB SWAP1 LOG1 POP JUMP JUMPDEST PUSH0 PUSH32 0xA16A46D94261C7517CC8FF89F61C0CE93598E3C849801011DEE649A6A557D100 SWAP1 POP SWAP1 JUMP JUMPDEST PUSH1 0x60 PUSH0 PUSH2 0x1F5F PUSH2 0x1F2D JUMP JUMPDEST SWAP1 POP DUP1 PUSH1 0x2 ADD DUP1 SLOAD PUSH2 0x1F70 SWAP1 PUSH2 0x3569 JUMP JUMPDEST DUP1 PUSH1 0x1F ADD PUSH1 0x20 DUP1 SWAP2 DIV MUL PUSH1 0x20 ADD PUSH1 0x40 MLOAD SWAP1 DUP2 ADD PUSH1 0x40 MSTORE DUP1 SWAP3 SWAP2 SWAP1 DUP2 DUP2 MSTORE PUSH1 0x20 ADD DUP3 DUP1 SLOAD PUSH2 0x1F9C SWAP1 PUSH2 0x3569 JUMP JUMPDEST DUP1 ISZERO PUSH2 0x1FE7 JUMPI DUP1 PUSH1 0x1F LT PUSH2 0x1FBE JUMPI PUSH2 0x100 DUP1 DUP4 SLOAD DIV MUL DUP4 MSTORE SWAP2 PUSH1 0x20 ADD SWAP2 PUSH2 0x1FE7 JUMP JUMPDEST DUP3 ADD SWAP2 SWAP1 PUSH0 MSTORE PUSH1 0x20 PUSH0 KECCAK256 SWAP1 JUMPDEST DUP2 SLOAD DUP2 MSTORE SWAP1 PUSH1 0x1 ADD SWAP1 PUSH1 0x20 ADD DUP1 DUP4 GT PUSH2 0x1FCA JUMPI DUP3 SWAP1 SUB PUSH1 0x1F AND DUP3 ADD SWAP2 JUMPDEST POP POP POP POP POP SWAP2 POP POP SWAP1 JUMP JUMPDEST PUSH1 0x60 PUSH0 PUSH2 0x1FFD PUSH2 0x1F2D JUMP JUMPDEST SWAP1 POP DUP1 PUSH1 0x3 ADD DUP1 SLOAD PUSH2 0x200E SWAP1 PUSH2 0x3569 JUMP JUMPDEST DUP1 PUSH1 0x1F ADD PUSH1 0x20 DUP1 SWAP2 DIV MUL PUSH1 0x20 ADD PUSH1 0x40 MLOAD SWAP1 DUP2 ADD PUSH1 0x40 MSTORE DUP1 SWAP3 SWAP2 SWAP1 DUP2 DUP2 MSTORE PUSH1 0x20 ADD DUP3 DUP1 SLOAD PUSH2 0x203A SWAP1 PUSH2 0x3569 JUMP JUMPDEST DUP1 ISZERO PUSH2 0x2085 JUMPI DUP1 PUSH1 0x1F LT PUSH2 0x205C JUMPI PUSH2 0x100 DUP1 DUP4 SLOAD DIV MUL DUP4 MSTORE SWAP2 PUSH1 0x20 ADD SWAP2 PUSH2 0x2085 JUMP JUMPDEST DUP3 ADD SWAP2 SWAP1 PUSH0 MSTORE PUSH1 0x20 PUSH0 KECCAK256 SWAP1 JUMPDEST DUP2 SLOAD DUP2 MSTORE SWAP1 PUSH1 0x1 ADD SWAP1 PUSH1 0x20 ADD DUP1 DUP4 GT PUSH2 0x2068 JUMPI DUP3 SWAP1 SUB PUSH1 0x1F AND DUP3 ADD SWAP2 JUMPDEST POP POP POP POP POP SWAP2 POP POP SWAP1 JUMP JUMPDEST PUSH0 PUSH32 0x9016D09D72D40FDAE2FD8CEAC6B6234C7706214FD39C1CD1E609A0528C199300 SWAP1 POP SWAP1 JUMP JUMPDEST PUSH0 PUSH20 0xFFFFFFFFFFFFFFFFFFFFFFFFFFFFFFFFFFFFFFFF AND DUP3 PUSH20 0xFFFFFFFFFFFFFFFFFFFFFFFFFFFFFFFFFFFFFFFF AND SUB PUSH2 0x2127 JUMPI PUSH0 PUSH1 0x40 MLOAD PUSH32 0xEC442F0500000000000000000000000000000000000000000000000000000000 DUP2 MSTORE PUSH1 0x4 ADD PUSH2 0x211E SWAP2 SWAP1 PUSH2 0x30F7 JUMP JUMPDEST PUSH1 0x40 MLOAD DUP1 SWAP2 SUB SWAP1 REVERT JUMPDEST PUSH2 0x2132 PUSH0 DUP4 DUP4 PUSH2 0x2467 JUMP JUMPDEST POP POP JUMP JUMPDEST PUSH0 PUSH32 0xF0C57E16840DF040F15088DC2F81FE391C3923BEC73E23A9662EFC9C229C6A00 SWAP1 POP SWAP1 JUMP JUMPDEST PUSH2 0x2165 PUSH2 0x25D3 JUMP JUMPDEST PUSH2 0x216F DUP3 DUP3 PUSH2 0x2613 JUMP JUMPDEST POP POP JUMP JUMPDEST PUSH2 0x217B PUSH2 0x25D3 JUMP JUMPDEST JUMP JUMPDEST PUSH2 0x2185 PUSH2 0x25D3 JUMP JUMPDEST PUSH2 0x218D PUSH2 0x264F JUMP JUMPDEST JUMP JUMPDEST PUSH2 0x2197 PUSH2 0x25D3 JUMP JUMPDEST PUSH2 0x21D6 DUP2 PUSH1 0x40 MLOAD DUP1 PUSH1 0x40 ADD PUSH1 0x40 MSTORE DUP1 PUSH1 0x1 DUP2 MSTORE PUSH1 0x20 ADD PUSH32 0x3100000000000000000000000000000000000000000000000000000000000000 DUP2 MSTORE POP PUSH2 0x267F JUMP JUMPDEST POP JUMP JUMPDEST PUSH2 0x21E1 PUSH2 0x25D3 JUMP JUMPDEST JUMP JUMPDEST PUSH0 DUP1 PUSH2 0x21ED PUSH2 0x256B JUMP JUMPDEST SWAP1 POP DUP1 PUSH0 ADD PUSH0 DUP5 PUSH20 0xFFFFFFFFFFFFFFFFFFFFFFFFFFFFFFFFFFFFFFFF AND PUSH20 0xFFFFFFFFFFFFFFFFFFFFFFFFFFFFFFFFFFFFFFFF AND DUP2 MSTORE PUSH1 0x20 ADD SWAP1 DUP2 MSTORE PUSH1 0x20 ADD PUSH0 KECCAK256 PUSH0 DUP2 SLOAD DUP1 SWAP3 SWAP2 SWAP1 PUSH1 0x1 ADD SWAP2 SWAP1 POP SSTORE SWAP2 POP POP SWAP2 SWAP1 POP JUMP JUMPDEST PUSH0 PUSH2 0x2255 PUSH2 0x224F PUSH2 0x1B78 JUMP JUMPDEST DUP4 PUSH2 0x26D0 JUMP JUMPDEST SWAP1 POP SWAP2 SWAP1 POP JUMP JUMPDEST PUSH0 DUP1 PUSH0 DUP1 PUSH2 0x226C DUP9 DUP9 DUP9 DUP9 PUSH2 0x2710 JUMP JUMPDEST SWAP3 POP SWAP3 POP SWAP3 POP PUSH2 0x227C DUP3 DUP3 PUSH2 0x27F7 JUMP JUMPDEST DUP3 SWAP4 POP POP POP POP SWAP5 SWAP4 POP POP POP POP JUMP JUMPDEST PUSH0 PUSH2 0x2293 PUSH2 0x1804 JUMP JUMPDEST SWAP1 POP PUSH0 PUSH20 0xFFFFFFFFFFFFFFFFFFFFFFFFFFFFFFFFFFFFFFFF AND DUP6 PUSH20 0xFFFFFFFFFFFFFFFFFFFFFFFFFFFFFFFFFFFFFFFF AND SUB PUSH2 0x2305 JUMPI PUSH0 PUSH1 0x40 MLOAD PUSH32 0xE602DF0500000000000000000000000000000000000000000000000000000000 DUP2 MSTORE PUSH1 0x4 ADD PUSH2 0x22FC SWAP2 SWAP1 PUSH2 0x30F7 JUMP JUMPDEST PUSH1 0x40 MLOAD DUP1 SWAP2 SUB SWAP1 REVERT JUMPDEST PUSH0 PUSH20 0xFFFFFFFFFFFFFFFFFFFFFFFFFFFFFFFFFFFFFFFF AND DUP5 PUSH20 0xFFFFFFFFFFFFFFFFFFFFFFFFFFFFFFFFFFFFFFFF AND SUB PUSH2 0x2375 JUMPI PUSH0 PUSH1 0x40 MLOAD PUSH32 0x94280D6200000000000000000000000000000000000000000000000000000000 DUP2 MSTORE PUSH1 0x4 ADD PUSH2 0x236C SWAP2 SWAP1 PUSH2 0x30F7 JUMP JUMPDEST PUSH1 0x40 MLOAD DUP1 SWAP2 SUB SWAP1 REVERT JUMPDEST DUP3 DUP2 PUSH1 0x1 ADD PUSH0 DUP8 PUSH20 0xFFFFFFFFFFFFFFFFFFFFFFFFFFFFFFFFFFFFFFFF AND PUSH20 0xFFFFFFFFFFFFFFFFFFFFFFFFFFFFFFFFFFFFFFFF AND DUP2 MSTORE PUSH1 0x20 ADD SWAP1 DUP2 MSTORE PUSH1 0x20 ADD PUSH0 KECCAK256 PUSH0 DUP7 PUSH20 0xFFFFFFFFFFFFFFFFFFFFFFFFFFFFFFFFFFFFFFFF AND PUSH20 0xFFFFFFFFFFFFFFFFFFFFFFFFFFFFFFFFFFFFFFFF AND DUP2 MSTORE PUSH1 0x20 ADD SWAP1 DUP2 MSTORE PUSH1 0x20 ADD PUSH0 KECCAK256 DUP2 SWAP1 SSTORE POP DUP2 ISZERO PUSH2 0x2460 JUMPI DUP4 PUSH20 0xFFFFFFFFFFFFFFFFFFFFFFFFFFFFFFFFFFFFFFFF AND DUP6 PUSH20 0xFFFFFFFFFFFFFFFFFFFFFFFFFFFFFFFFFFFFFFFF AND PUSH32 0x8C5BE1E5EBEC7D5BD14F71427D1E84F3DD0314C0F7B2291E5B200AC8C7C3B925 DUP6 PUSH1 0x40 MLOAD PUSH2 0x2457 SWAP2 SWAP1 PUSH2 0x2F31 JUMP JUMPDEST PUSH1 0x40 MLOAD DUP1 SWAP2 SUB SWAP1 LOG3 JUMPDEST POP POP POP POP POP JUMP JUMPDEST PUSH2 0x2472 DUP4 DUP4 DUP4 PUSH2 0x2959 JUMP JUMPDEST POP POP POP JUMP JUMPDEST PUSH2 0x2481 DUP3 DUP3 PUSH2 0xF82 JUMP JUMPDEST PUSH2 0x24C4 JUMPI DUP1 DUP3 PUSH1 0x40 MLOAD PUSH32 0xE2517D3F00000000000000000000000000000000000000000000000000000000 DUP2 MSTORE PUSH1 0x4 ADD PUSH2 0x24BB SWAP3 SWAP2 SWAP1 PUSH2 0x3CD1 JUMP JUMPDEST PUSH1 0x40 MLOAD DUP1 SWAP2 SUB SWAP1 REVERT JUMPDEST POP POP JUMP JUMPDEST PUSH0 PUSH32 0x8B73C3C69BB8FE3D512ECC4CF759CC79239F7B179B0FFACAA9A75D522B39400F PUSH2 0x24F2 PUSH2 0x2971 JUMP JUMPDEST PUSH2 0x24FA PUSH2 0x29E7 JUMP JUMPDEST CHAINID ADDRESS PUSH1 0x40 MLOAD PUSH1 0x20 ADD PUSH2 0x2510 SWAP6 SWAP5 SWAP4 SWAP3 SWAP2 SWAP1 PUSH2 0x3CF8 JUMP JUMPDEST PUSH1 0x40 MLOAD PUSH1 0x20 DUP2 DUP4 SUB SUB DUP2 MSTORE SWAP1 PUSH1 0x40 MSTORE DUP1 MLOAD SWAP1 PUSH1 0x20 ADD KECCAK256 SWAP1 POP SWAP1 JUMP JUMPDEST PUSH2 0x2533 PUSH2 0xD72 JUMP JUMPDEST PUSH2 0x2569 JUMPI PUSH1 0x40 MLOAD PUSH32 0x8DFC202B00000000000000000000000000000000000000000000000000000000 DUP2 MSTORE PUSH1 0x4 ADD PUSH1 0x40 MLOAD DUP1 SWAP2 SUB SWAP1 REVERT JUMPDEST JUMP JUMPDEST PUSH0 PUSH32 0x5AB42CED628888259C08AC98DB1EB0CF702FC1501344311D8B100CD1BFE4BB00 SWAP1 POP SWAP1 JUMP JUMPDEST PUSH2 0x259A PUSH2 0xD72 JUMP JUMPDEST ISZERO PUSH2 0x25D1 JUMPI PUSH1 0x40 MLOAD PUSH32 0xD93C066500000000000000000000000000000000000000000000000000000000 DUP2 MSTORE PUSH1 0x4 ADD PUSH1 0x40 MLOAD DUP1 SWAP2 SUB SWAP1 REVERT JUMPDEST JUMP JUMPDEST PUSH2 0x25DB PUSH2 0x2A5E JUMP JUMPDEST PUSH2 0x2611 JUMPI PUSH1 0x40 MLOAD PUSH32 0xD7E6BCF800000000000000000000000000000000000000000000000000000000 DUP2 MSTORE PUSH1 0x4 ADD PUSH1 0x40 MLOAD DUP1 SWAP2 SUB SWAP1 REVERT JUMPDEST JUMP JUMPDEST PUSH2 0x261B PUSH2 0x25D3 JUMP JUMPDEST PUSH0 PUSH2 0x2624 PUSH2 0x1804 JUMP JUMPDEST SWAP1 POP DUP3 DUP2 PUSH1 0x3 ADD SWAP1 DUP2 PUSH2 0x2637 SWAP2 SWAP1 PUSH2 0x3BCD JUMP JUMPDEST POP DUP2 DUP2 PUSH1 0x4 ADD SWAP1 DUP2 PUSH2 0x2649 SWAP2 SWAP1 PUSH2 0x3BCD JUMP JUMPDEST POP POP POP POP JUMP JUMPDEST PUSH2 0x2657 PUSH2 0x25D3 JUMP JUMPDEST PUSH0 PUSH2 0x2660 PUSH2 0x1D73 JUMP JUMPDEST SWAP1 POP PUSH0 DUP2 PUSH0 ADD PUSH0 PUSH2 0x100 EXP DUP2 SLOAD DUP2 PUSH1 0xFF MUL NOT AND SWAP1 DUP4 ISZERO ISZERO MUL OR SWAP1 SSTORE POP POP JUMP JUMPDEST PUSH2 0x2687 PUSH2 0x25D3 JUMP JUMPDEST PUSH0 PUSH2 0x2690 PUSH2 0x1F2D JUMP JUMPDEST SWAP1 POP DUP3 DUP2 PUSH1 0x2 ADD SWAP1 DUP2 PUSH2 0x26A3 SWAP2 SWAP1 PUSH2 0x3BCD JUMP JUMPDEST POP DUP2 DUP2 PUSH1 0x3 ADD SWAP1 DUP2 PUSH2 0x26B5 SWAP2 SWAP1 PUSH2 0x3BCD JUMP JUMPDEST POP PUSH0 DUP1 SHL DUP2 PUSH0 ADD DUP2 SWAP1 SSTORE POP PUSH0 DUP1 SHL DUP2 PUSH1 0x1 ADD DUP2 SWAP1 SSTORE POP POP POP POP JUMP JUMPDEST PUSH0 PUSH1 0x40 MLOAD PUSH32 0x1901000000000000000000000000000000000000000000000000000000000000 DUP2 MSTORE DUP4 PUSH1 0x2 DUP3 ADD MSTORE DUP3 PUSH1 0x22 DUP3 ADD MSTORE PUSH1 0x42 DUP2 KECCAK256 SWAP2 POP POP SWAP3 SWAP2 POP POP JUMP JUMPDEST PUSH0 DUP1 PUSH0 PUSH32 0x7FFFFFFFFFFFFFFFFFFFFFFFFFFFFFFF5D576E7357A4501DDFE92F46681B20A0 DUP5 PUSH0 SHR GT ISZERO PUSH2 0x274C JUMPI PUSH0 PUSH1 0x3 DUP6 SWAP3 POP SWAP3 POP SWAP3 POP PUSH2 0x27ED JUMP JUMPDEST PUSH0 PUSH1 0x1 DUP9 DUP9 DUP9 DUP9 PUSH1 0x40 MLOAD PUSH0 DUP2 MSTORE PUSH1 0x20 ADD PUSH1 0x40 MSTORE PUSH1 0x40 MLOAD PUSH2 0x276F SWAP5 SWAP4 SWAP3 SWAP2 SWAP1 PUSH2 0x3D49 JUMP JUMPDEST PUSH1 0x20 PUSH1 0x40 MLOAD PUSH1 0x20 DUP2 SUB SWAP1 DUP1 DUP5 SUB SWAP1 DUP6 GAS STATICCALL ISZERO DUP1 ISZERO PUSH2 0x278F JUMPI RETURNDATASIZE PUSH0 DUP1 RETURNDATACOPY RETURNDATASIZE PUSH0 REVERT JUMPDEST POP POP POP PUSH1 0x20 PUSH1 0x40 MLOAD SUB MLOAD SWAP1 POP PUSH0 PUSH20 0xFFFFFFFFFFFFFFFFFFFFFFFFFFFFFFFFFFFFFFFF AND DUP2 PUSH20 0xFFFFFFFFFFFFFFFFFFFFFFFFFFFFFFFFFFFFFFFF AND SUB PUSH2 0x27E0 JUMPI PUSH0 PUSH1 0x1 PUSH0 DUP1 SHL SWAP4 POP SWAP4 POP SWAP4 POP POP PUSH2 0x27ED JUMP JUMPDEST DUP1 PUSH0 DUP1 PUSH0 SHL SWAP4 POP SWAP4 POP SWAP4 POP POP JUMPDEST SWAP5 POP SWAP5 POP SWAP5 SWAP2 POP POP JUMP JUMPDEST PUSH0 PUSH1 0x3 DUP2 GT ISZERO PUSH2 0x280A JUMPI PUSH2 0x2809 PUSH2 0x3D8C JUMP JUMPDEST JUMPDEST DUP3 PUSH1 0x3 DUP2 GT ISZERO PUSH2 0x281D JUMPI PUSH2 0x281C PUSH2 0x3D8C JUMP JUMPDEST JUMPDEST SUB ISZERO PUSH2 0x2955 JUMPI PUSH1 0x1 PUSH1 0x3 DUP2 GT ISZERO PUSH2 0x2837 JUMPI PUSH2 0x2836 PUSH2 0x3D8C JUMP JUMPDEST JUMPDEST DUP3 PUSH1 0x3 DUP2 GT ISZERO PUSH2 0x284A JUMPI PUSH2 0x2849 PUSH2 0x3D8C JUMP JUMPDEST JUMPDEST SUB PUSH2 0x2881 JUMPI PUSH1 0x40 MLOAD PUSH32 0xF645EEDF00000000000000000000000000000000000000000000000000000000 DUP2 MSTORE PUSH1 0x4 ADD PUSH1 0x40 MLOAD DUP1 SWAP2 SUB SWAP1 REVERT JUMPDEST PUSH1 0x2 PUSH1 0x3 DUP2 GT ISZERO PUSH2 0x2895 JUMPI PUSH2 0x2894 PUSH2 0x3D8C JUMP JUMPDEST JUMPDEST DUP3 PUSH1 0x3 DUP2 GT ISZERO PUSH2 0x28A8 JUMPI PUSH2 0x28A7 PUSH2 0x3D8C JUMP JUMPDEST JUMPDEST SUB PUSH2 0x28EC JUMPI DUP1 PUSH0 SHR PUSH1 0x40 MLOAD PUSH32 0xFCE698F700000000000000000000000000000000000000000000000000000000 DUP2 MSTORE PUSH1 0x4 ADD PUSH2 0x28E3 SWAP2 SWAP1 PUSH2 0x2F31 JUMP JUMPDEST PUSH1 0x40 MLOAD DUP1 SWAP2 SUB SWAP1 REVERT JUMPDEST PUSH1 0x3 DUP1 DUP2 GT ISZERO PUSH2 0x28FF JUMPI PUSH2 0x28FE PUSH2 0x3D8C JUMP JUMPDEST JUMPDEST DUP3 PUSH1 0x3 DUP2 GT ISZERO PUSH2 0x2912 JUMPI PUSH2 0x2911 PUSH2 0x3D8C JUMP JUMPDEST JUMPDEST SUB PUSH2 0x2954 JUMPI DUP1 PUSH1 0x40 MLOAD PUSH32 0xD78BCE0C00000000000000000000000000000000000000000000000000000000 DUP2 MSTORE PUSH1 0x4 ADD PUSH2 0x294B SWAP2 SWAP1 PUSH2 0x3032 JUMP JUMPDEST PUSH1 0x40 MLOAD DUP1 SWAP2 SUB SWAP1 REVERT JUMPDEST JUMPDEST POP POP JUMP JUMPDEST PUSH2 0x2961 PUSH2 0x2592 JUMP JUMPDEST PUSH2 0x296C DUP4 DUP4 DUP4 PUSH2 0x2A7C JUMP JUMPDEST POP POP POP JUMP JUMPDEST PUSH0 DUP1 PUSH2 0x297B PUSH2 0x1F2D JUMP JUMPDEST SWAP1 POP PUSH0 PUSH2 0x2986 PUSH2 0x1F54 JUMP JUMPDEST SWAP1 POP PUSH0 DUP2 MLOAD GT ISZERO PUSH2 0x29A2 JUMPI DUP1 DUP1 MLOAD SWAP1 PUSH1 0x20 ADD KECCAK256 SWAP3 POP POP POP PUSH2 0x29E4 JUMP JUMPDEST PUSH0 DUP3 PUSH0 ADD SLOAD SWAP1 POP PUSH0 DUP1 SHL DUP2 EQ PUSH2 0x29BD JUMPI DUP1 SWAP4 POP POP POP POP PUSH2 0x29E4 JUMP JUMPDEST PUSH32 0xC5D2460186F7233C927E7DB2DCC703C0E500B653CA82273B7BFAD8045D85A470 SWAP4 POP POP POP POP JUMPDEST SWAP1 JUMP JUMPDEST PUSH0 DUP1 PUSH2 0x29F1 PUSH2 0x1F2D JUMP JUMPDEST SWAP1 POP PUSH0 PUSH2 0x29FC PUSH2 0x1FF2 JUMP JUMPDEST SWAP1 POP PUSH0 DUP2 MLOAD GT ISZERO PUSH2 0x2A18 JUMPI DUP1 DUP1 MLOAD SWAP1 PUSH1 0x20 ADD KECCAK256 SWAP3 POP POP POP PUSH2 0x2A5B JUMP JUMPDEST PUSH0 DUP3 PUSH1 0x1 ADD SLOAD SWAP1 POP PUSH0 DUP1 SHL DUP2 EQ PUSH2 0x2A34 JUMPI DUP1 SWAP4 POP POP POP POP PUSH2 0x2A5B JUMP JUMPDEST PUSH32 0xC5D2460186F7233C927E7DB2DCC703C0E500B653CA82273B7BFAD8045D85A470 SWAP4 POP POP POP POP JUMPDEST SWAP1 JUMP JUMPDEST PUSH0 PUSH2 0x2A67 PUSH2 0x2136 JUMP JUMPDEST PUSH0 ADD PUSH1 0x8 SWAP1 SLOAD SWAP1 PUSH2 0x100 EXP SWAP1 DIV PUSH1 0xFF AND SWAP1 POP SWAP1 JUMP JUMPDEST PUSH0 PUSH2 0x2A85 PUSH2 0x1804 JUMP JUMPDEST SWAP1 POP PUSH0 PUSH20 0xFFFFFFFFFFFFFFFFFFFFFFFFFFFFFFFFFFFFFFFF AND DUP5 PUSH20 0xFFFFFFFFFFFFFFFFFFFFFFFFFFFFFFFFFFFFFFFF AND SUB PUSH2 0x2AD9 JUMPI DUP2 DUP2 PUSH1 0x2 ADD PUSH0 DUP3 DUP3 SLOAD PUSH2 0x2ACD SWAP2 SWAP1 PUSH2 0x3DB9 JUMP JUMPDEST SWAP3 POP POP DUP2 SWAP1 SSTORE POP PUSH2 0x2BAB JUMP JUMPDEST PUSH0 DUP2 PUSH0 ADD PUSH0 DUP7 PUSH20 0xFFFFFFFFFFFFFFFFFFFFFFFFFFFFFFFFFFFFFFFF AND PUSH20 0xFFFFFFFFFFFFFFFFFFFFFFFFFFFFFFFFFFFFFFFF AND DUP2 MSTORE PUSH1 0x20 ADD SWAP1 DUP2 MSTORE PUSH1 0x20 ADD PUSH0 KECCAK256 SLOAD SWAP1 POP DUP3 DUP2 LT ISZERO PUSH2 0x2B64 JUMPI DUP5 DUP2 DUP5 PUSH1 0x40 MLOAD PUSH32 0xE450D38C00000000000000000000000000000000000000000000000000000000 DUP2 MSTORE PUSH1 0x4 ADD PUSH2 0x2B5B SWAP4 SWAP3 SWAP2 SWAP1 PUSH2 0x3C9C JUMP JUMPDEST PUSH1 0x40 MLOAD DUP1 SWAP2 SUB SWAP1 REVERT JUMPDEST DUP3 DUP2 SUB DUP3 PUSH0 ADD PUSH0 DUP8 PUSH20 0xFFFFFFFFFFFFFFFFFFFFFFFFFFFFFFFFFFFFFFFF AND PUSH20 0xFFFFFFFFFFFFFFFFFFFFFFFFFFFFFFFFFFFFFFFF AND DUP2 MSTORE PUSH1 0x20 ADD SWAP1 DUP2 MSTORE PUSH1 0x20 ADD PUSH0 KECCAK256 DUP2 SWAP1 SSTORE POP POP JUMPDEST PUSH0 PUSH20 0xFFFFFFFFFFFFFFFFFFFFFFFFFFFFFFFFFFFFFFFF AND DUP4 PUSH20 0xFFFFFFFFFFFFFFFFFFFFFFFFFFFFFFFFFFFFFFFF AND SUB PUSH2 0x2BF4 JUMPI DUP2 DUP2 PUSH1 0x2 ADD PUSH0 DUP3 DUP3 SLOAD SUB SWAP3 POP POP DUP2 SWAP1 SSTORE POP PUSH2 0x2C40 JUMP JUMPDEST DUP2 DUP2 PUSH0 ADD PUSH0 DUP6 PUSH20 0xFFFFFFFFFFFFFFFFFFFFFFFFFFFFFFFFFFFFFFFF AND PUSH20 0xFFFFFFFFFFFFFFFFFFFFFFFFFFFFFFFFFFFFFFFF AND DUP2 MSTORE PUSH1 0x20 ADD SWAP1 DUP2 MSTORE PUSH1 0x20 ADD PUSH0 KECCAK256 PUSH0 DUP3 DUP3 SLOAD ADD SWAP3 POP POP DUP2 SWAP1 SSTORE POP JUMPDEST DUP3 PUSH20 0xFFFFFFFFFFFFFFFFFFFFFFFFFFFFFFFFFFFFFFFF AND DUP5 PUSH20 0xFFFFFFFFFFFFFFFFFFFFFFFFFFFFFFFFFFFFFFFF AND PUSH32 0xDDF252AD1BE2C89B69C2B068FC378DAA952BA7F163C4A11628F55A4DF523B3EF DUP5 PUSH1 0x40 MLOAD PUSH2 0x2C9D SWAP2 SWAP1 PUSH2 0x2F31 JUMP JUMPDEST PUSH1 0x40 MLOAD DUP1 SWAP2 SUB SWAP1 LOG3 POP POP POP POP JUMP JUMPDEST POP DUP1 SLOAD PUSH2 0x2CB7 SWAP1 PUSH2 0x3569 JUMP JUMPDEST PUSH0 DUP3 SSTORE DUP1 PUSH1 0x1F LT PUSH2 0x2CC8 JUMPI POP PUSH2 0x2CE5 JUMP JUMPDEST PUSH1 0x1F ADD PUSH1 0x20 SWAP1 DIV SWAP1 PUSH0 MSTORE PUSH1 0x20 PUSH0 KECCAK256 SWAP1 DUP2 ADD SWAP1 PUSH2 0x2CE4 SWAP2 SWAP1 PUSH2 0x2CE8 JUMP JUMPDEST JUMPDEST POP JUMP JUMPDEST JUMPDEST DUP1 DUP3 GT ISZERO PUSH2 0x2CFF JUMPI PUSH0 DUP2 PUSH0 SWAP1 SSTORE POP PUSH1 0x1 ADD PUSH2 0x2CE9 JUMP JUMPDEST POP SWAP1 JUMP JUMPDEST PUSH0 PUSH1 0x40 MLOAD SWAP1 POP SWAP1 JUMP JUMPDEST PUSH0 DUP1 REVERT JUMPDEST PUSH0 DUP1 REVERT JUMPDEST PUSH0 PUSH32 0xFFFFFFFF00000000000000000000000000000000000000000000000000000000 DUP3 AND SWAP1 POP SWAP2 SWAP1 POP JUMP JUMPDEST PUSH2 0x2D48 DUP2 PUSH2 0x2D14 JUMP JUMPDEST DUP2 EQ PUSH2 0x2D52 JUMPI PUSH0 DUP1 REVERT JUMPDEST POP JUMP JUMPDEST PUSH0 DUP2 CALLDATALOAD SWAP1 POP PUSH2 0x2D63 DUP2 PUSH2 0x2D3F JUMP JUMPDEST SWAP3 SWAP2 POP POP JUMP JUMPDEST PUSH0 PUSH1 0x20 DUP3 DUP5 SUB SLT ISZERO PUSH2 0x2D7E JUMPI PUSH2 0x2D7D PUSH2 0x2D0C JUMP JUMPDEST JUMPDEST PUSH0 PUSH2 0x2D8B DUP5 DUP3 DUP6 ADD PUSH2 0x2D55 JUMP JUMPDEST SWAP2 POP POP SWAP3 SWAP2 POP POP JUMP JUMPDEST PUSH0 DUP2 ISZERO ISZERO SWAP1 POP SWAP2 SWAP1 POP JUMP JUMPDEST PUSH2 0x2DA8 DUP2 PUSH2 0x2D94 JUMP JUMPDEST DUP3 MSTORE POP POP JUMP JUMPDEST PUSH0 PUSH1 0x20 DUP3 ADD SWAP1 POP PUSH2 0x2DC1 PUSH0 DUP4 ADD DUP5 PUSH2 0x2D9F JUMP JUMPDEST SWAP3 SWAP2 POP POP JUMP JUMPDEST PUSH0 DUP2 MLOAD SWAP1 POP SWAP2 SWAP1 POP JUMP JUMPDEST PUSH0 DUP3 DUP3 MSTORE PUSH1 0x20 DUP3 ADD SWAP1 POP SWAP3 SWAP2 POP POP JUMP JUMPDEST DUP3 DUP2 DUP4 MCOPY PUSH0 DUP4 DUP4 ADD MSTORE POP POP POP JUMP JUMPDEST PUSH0 PUSH1 0x1F NOT PUSH1 0x1F DUP4 ADD AND SWAP1 POP SWAP2 SWAP1 POP JUMP JUMPDEST PUSH0 PUSH2 0x2E09 DUP3 PUSH2 0x2DC7 JUMP JUMPDEST PUSH2 0x2E13 DUP2 DUP6 PUSH2 0x2DD1 JUMP JUMPDEST SWAP4 POP PUSH2 0x2E23 DUP2 DUP6 PUSH1 0x20 DUP7 ADD PUSH2 0x2DE1 JUMP JUMPDEST PUSH2 0x2E2C DUP2 PUSH2 0x2DEF JUMP JUMPDEST DUP5 ADD SWAP2 POP POP SWAP3 SWAP2 POP POP JUMP JUMPDEST PUSH0 PUSH1 0x20 DUP3 ADD SWAP1 POP DUP2 DUP2 SUB PUSH0 DUP4 ADD MSTORE PUSH2 0x2E4F DUP2 DUP5 PUSH2 0x2DFF JUMP JUMPDEST SWAP1 POP SWAP3 SWAP2 POP POP JUMP JUMPDEST PUSH0 PUSH20 0xFFFFFFFFFFFFFFFFFFFFFFFFFFFFFFFFFFFFFFFF DUP3 AND SWAP1 POP SWAP2 SWAP1 POP JUMP JUMPDEST PUSH0 PUSH2 0x2E80 DUP3 PUSH2 0x2E57 JUMP JUMPDEST SWAP1 POP SWAP2 SWAP1 POP JUMP JUMPDEST PUSH2 0x2E90 DUP2 PUSH2 0x2E76 JUMP JUMPDEST DUP2 EQ PUSH2 0x2E9A JUMPI PUSH0 DUP1 REVERT JUMPDEST POP JUMP JUMPDEST PUSH0 DUP2 CALLDATALOAD SWAP1 POP PUSH2 0x2EAB DUP2 PUSH2 0x2E87 JUMP JUMPDEST SWAP3 SWAP2 POP POP JUMP JUMPDEST PUSH0 DUP2 SWAP1 POP SWAP2 SWAP1 POP JUMP JUMPDEST PUSH2 0x2EC3 DUP2 PUSH2 0x2EB1 JUMP JUMPDEST DUP2 EQ PUSH2 0x2ECD JUMPI PUSH0 DUP1 REVERT JUMPDEST POP JUMP JUMPDEST PUSH0 DUP2 CALLDATALOAD SWAP1 POP PUSH2 0x2EDE DUP2 PUSH2 0x2EBA JUMP JUMPDEST SWAP3 SWAP2 POP POP JUMP JUMPDEST PUSH0 DUP1 PUSH1 0x40 DUP4 DUP6 SUB SLT ISZERO PUSH2 0x2EFA JUMPI PUSH2 0x2EF9 PUSH2 0x2D0C JUMP JUMPDEST JUMPDEST PUSH0 PUSH2 0x2F07 DUP6 DUP3 DUP7 ADD PUSH2 0x2E9D JUMP JUMPDEST SWAP3 POP POP PUSH1 0x20 PUSH2 0x2F18 DUP6 DUP3 DUP7 ADD PUSH2 0x2ED0 JUMP JUMPDEST SWAP2 POP POP SWAP3 POP SWAP3 SWAP1 POP JUMP JUMPDEST PUSH2 0x2F2B DUP2 PUSH2 0x2EB1 JUMP JUMPDEST DUP3 MSTORE POP POP JUMP JUMPDEST PUSH0 PUSH1 0x20 DUP3 ADD SWAP1 POP PUSH2 0x2F44 PUSH0 DUP4 ADD DUP5 PUSH2 0x2F22 JUMP JUMPDEST SWAP3 SWAP2 POP POP JUMP JUMPDEST PUSH0 PUSH1 0x20 DUP3 DUP5 SUB SLT ISZERO PUSH2 0x2F5F JUMPI PUSH2 0x2F5E PUSH2 0x2D0C JUMP JUMPDEST JUMPDEST PUSH0 PUSH2 0x2F6C DUP5 DUP3 DUP6 ADD PUSH2 0x2E9D JUMP JUMPDEST SWAP2 POP POP SWAP3 SWAP2 POP POP JUMP JUMPDEST PUSH0 DUP1 PUSH0 PUSH1 0x60 DUP5 DUP7 SUB SLT ISZERO PUSH2 0x2F8C JUMPI PUSH2 0x2F8B PUSH2 0x2D0C JUMP JUMPDEST JUMPDEST PUSH0 PUSH2 0x2F99 DUP7 DUP3 DUP8 ADD PUSH2 0x2E9D JUMP JUMPDEST SWAP4 POP POP PUSH1 0x20 PUSH2 0x2FAA DUP7 DUP3 DUP8 ADD PUSH2 0x2E9D JUMP JUMPDEST SWAP3 POP POP PUSH1 0x40 PUSH2 0x2FBB DUP7 DUP3 DUP8 ADD PUSH2 0x2ED0 JUMP JUMPDEST SWAP2 POP POP SWAP3 POP SWAP3 POP SWAP3 JUMP JUMPDEST PUSH0 DUP2 SWAP1 POP SWAP2 SWAP1 POP JUMP JUMPDEST PUSH2 0x2FD7 DUP2 PUSH2 0x2FC5 JUMP JUMPDEST DUP2 EQ PUSH2 0x2FE1 JUMPI PUSH0 DUP1 REVERT JUMPDEST POP JUMP JUMPDEST PUSH0 DUP2 CALLDATALOAD SWAP1 POP PUSH2 0x2FF2 DUP2 PUSH2 0x2FCE JUMP JUMPDEST SWAP3 SWAP2 POP POP JUMP JUMPDEST PUSH0 PUSH1 0x20 DUP3 DUP5 SUB SLT ISZERO PUSH2 0x300D JUMPI PUSH2 0x300C PUSH2 0x2D0C JUMP JUMPDEST JUMPDEST PUSH0 PUSH2 0x301A DUP5 DUP3 DUP6 ADD PUSH2 0x2FE4 JUMP JUMPDEST SWAP2 POP POP SWAP3 SWAP2 POP POP JUMP JUMPDEST PUSH2 0x302C DUP2 PUSH2 0x2FC5 JUMP JUMPDEST DUP3 MSTORE POP POP JUMP JUMPDEST PUSH0 PUSH1 0x20 DUP3 ADD SWAP1 POP PUSH2 0x3045 PUSH0 DUP4 ADD DUP5 PUSH2 0x3023 JUMP JUMPDEST SWAP3 SWAP2 POP POP JUMP JUMPDEST PUSH0 PUSH1 0x20 DUP3 DUP5 SUB SLT ISZERO PUSH2 0x3060 JUMPI PUSH2 0x305F PUSH2 0x2D0C JUMP JUMPDEST JUMPDEST PUSH0 PUSH2 0x306D DUP5 DUP3 DUP6 ADD PUSH2 0x2ED0 JUMP JUMPDEST SWAP2 POP POP SWAP3 SWAP2 POP POP JUMP JUMPDEST PUSH0 DUP1 PUSH1 0x40 DUP4 DUP6 SUB SLT ISZERO PUSH2 0x308C JUMPI PUSH2 0x308B PUSH2 0x2D0C JUMP JUMPDEST JUMPDEST PUSH0 PUSH2 0x3099 DUP6 DUP3 DUP7 ADD PUSH2 0x2FE4 JUMP JUMPDEST SWAP3 POP POP PUSH1 0x20 PUSH2 0x30AA DUP6 DUP3 DUP7 ADD PUSH2 0x2E9D JUMP JUMPDEST SWAP2 POP POP SWAP3 POP SWAP3 SWAP1 POP JUMP JUMPDEST PUSH0 PUSH1 0xFF DUP3 AND SWAP1 POP SWAP2 SWAP1 POP JUMP JUMPDEST PUSH2 0x30C9 DUP2 PUSH2 0x30B4 JUMP JUMPDEST DUP3 MSTORE POP POP JUMP JUMPDEST PUSH0 PUSH1 0x20 DUP3 ADD SWAP1 POP PUSH2 0x30E2 PUSH0 DUP4 ADD DUP5 PUSH2 0x30C0 JUMP JUMPDEST SWAP3 SWAP2 POP POP JUMP JUMPDEST PUSH2 0x30F1 DUP2 PUSH2 0x2E76 JUMP JUMPDEST DUP3 MSTORE POP POP JUMP JUMPDEST PUSH0 PUSH1 0x20 DUP3 ADD SWAP1 POP PUSH2 0x310A PUSH0 DUP4 ADD DUP5 PUSH2 0x30E8 JUMP JUMPDEST SWAP3 SWAP2 POP POP JUMP JUMPDEST PUSH0 PUSH32 0xFF00000000000000000000000000000000000000000000000000000000000000 DUP3 AND SWAP1 POP SWAP2 SWAP1 POP JUMP JUMPDEST PUSH2 0x3144 DUP2 PUSH2 0x3110 JUMP JUMPDEST DUP3 MSTORE POP POP JUMP JUMPDEST PUSH0 DUP2 MLOAD SWAP1 POP SWAP2 SWAP1 POP JUMP JUMPDEST PUSH0 DUP3 DUP3 MSTORE PUSH1 0x20 DUP3 ADD SWAP1 POP SWAP3 SWAP2 POP POP JUMP JUMPDEST PUSH0 DUP2 SWAP1 POP PUSH1 0x20 DUP3 ADD SWAP1 POP SWAP2 SWAP1 POP JUMP JUMPDEST PUSH2 0x317C DUP2 PUSH2 0x2EB1 JUMP JUMPDEST DUP3 MSTORE POP POP JUMP JUMPDEST PUSH0 PUSH2 0x318D DUP4 DUP4 PUSH2 0x3173 JUMP JUMPDEST PUSH1 0x20 DUP4 ADD SWAP1 POP SWAP3 SWAP2 POP POP JUMP JUMPDEST PUSH0 PUSH1 0x20 DUP3 ADD SWAP1 POP SWAP2 SWAP1 POP JUMP JUMPDEST PUSH0 PUSH2 0x31AF DUP3 PUSH2 0x314A JUMP JUMPDEST PUSH2 0x31B9 DUP2 DUP6 PUSH2 0x3154 JUMP JUMPDEST SWAP4 POP PUSH2 0x31C4 DUP4 PUSH2 0x3164 JUMP JUMPDEST DUP1 PUSH0 JUMPDEST DUP4 DUP2 LT ISZERO PUSH2 0x31F4 JUMPI DUP2 MLOAD PUSH2 0x31DB DUP9 DUP3 PUSH2 0x3182 JUMP JUMPDEST SWAP8 POP PUSH2 0x31E6 DUP4 PUSH2 0x3199 JUMP JUMPDEST SWAP3 POP POP PUSH1 0x1 DUP2 ADD SWAP1 POP PUSH2 0x31C7 JUMP JUMPDEST POP DUP6 SWAP4 POP POP POP POP SWAP3 SWAP2 POP POP JUMP JUMPDEST PUSH0 PUSH1 0xE0 DUP3 ADD SWAP1 POP PUSH2 0x3214 PUSH0 DUP4 ADD DUP11 PUSH2 0x313B JUMP JUMPDEST DUP2 DUP2 SUB PUSH1 0x20 DUP4 ADD MSTORE PUSH2 0x3226 DUP2 DUP10 PUSH2 0x2DFF JUMP JUMPDEST SWAP1 POP DUP2 DUP2 SUB PUSH1 0x40 DUP4 ADD MSTORE PUSH2 0x323A DUP2 DUP9 PUSH2 0x2DFF JUMP JUMPDEST SWAP1 POP PUSH2 0x3249 PUSH1 0x60 DUP4 ADD DUP8 PUSH2 0x2F22 JUMP JUMPDEST PUSH2 0x3256 PUSH1 0x80 DUP4 ADD DUP7 PUSH2 0x30E8 JUMP JUMPDEST PUSH2 0x3263 PUSH1 0xA0 DUP4 ADD DUP6 PUSH2 0x3023 JUMP JUMPDEST DUP2 DUP2 SUB PUSH1 0xC0 DUP4 ADD MSTORE PUSH2 0x3275 DUP2 DUP5 PUSH2 0x31A5 JUMP JUMPDEST SWAP1 POP SWAP9 SWAP8 POP POP POP POP POP POP POP POP JUMP JUMPDEST PUSH2 0x328C DUP2 PUSH2 0x30B4 JUMP JUMPDEST DUP2 EQ PUSH2 0x3296 JUMPI PUSH0 DUP1 REVERT JUMPDEST POP JUMP JUMPDEST PUSH0 DUP2 CALLDATALOAD SWAP1 POP PUSH2 0x32A7 DUP2 PUSH2 0x3283 JUMP JUMPDEST SWAP3 SWAP2 POP POP JUMP JUMPDEST PUSH0 DUP1 PUSH0 DUP1 PUSH0 DUP1 PUSH0 PUSH1 0xE0 DUP9 DUP11 SUB SLT ISZERO PUSH2 0x32C8 JUMPI PUSH2 0x32C7 PUSH2 0x2D0C JUMP JUMPDEST JUMPDEST PUSH0 PUSH2 0x32D5 DUP11 DUP3 DUP12 ADD PUSH2 0x2E9D JUMP JUMPDEST SWAP8 POP POP PUSH1 0x20 PUSH2 0x32E6 DUP11 DUP3 DUP12 ADD PUSH2 0x2E9D JUMP JUMPDEST SWAP7 POP POP PUSH1 0x40 PUSH2 0x32F7 DUP11 DUP3 DUP12 ADD PUSH2 0x2ED0 JUMP JUMPDEST SWAP6 POP POP PUSH1 0x60 PUSH2 0x3308 DUP11 DUP3 DUP12 ADD PUSH2 0x2ED0 JUMP JUMPDEST SWAP5 POP POP PUSH1 0x80 PUSH2 0x3319 DUP11 DUP3 DUP12 ADD PUSH2 0x3299 JUMP JUMPDEST SWAP4 POP POP PUSH1 0xA0 PUSH2 0x332A DUP11 DUP3 DUP12 ADD PUSH2 0x2FE4 JUMP JUMPDEST SWAP3 POP POP PUSH1 0xC0 PUSH2 0x333B DUP11 DUP3 DUP12 ADD PUSH2 0x2FE4 JUMP JUMPDEST SWAP2 POP POP SWAP3 SWAP6 SWAP9 SWAP2 SWAP5 SWAP8 POP SWAP3 SWAP6 POP JUMP JUMPDEST PUSH0 PUSH1 0x40 DUP3 ADD SWAP1 POP PUSH2 0x335D PUSH0 DUP4 ADD DUP6 PUSH2 0x2F22 JUMP JUMPDEST DUP2 DUP2 SUB PUSH1 0x20 DUP4 ADD MSTORE PUSH2 0x336F DUP2 DUP5 PUSH2 0x2DFF JUMP JUMPDEST SWAP1 POP SWAP4 SWAP3 POP POP POP JUMP JUMPDEST PUSH0 DUP1 PUSH1 0x40 DUP4 DUP6 SUB SLT ISZERO PUSH2 0x338E JUMPI PUSH2 0x338D PUSH2 0x2D0C JUMP JUMPDEST JUMPDEST PUSH0 PUSH2 0x339B DUP6 DUP3 DUP7 ADD PUSH2 0x2E9D JUMP JUMPDEST SWAP3 POP POP PUSH1 0x20 PUSH2 0x33AC DUP6 DUP3 DUP7 ADD PUSH2 0x2E9D JUMP JUMPDEST SWAP2 POP POP SWAP3 POP SWAP3 SWAP1 POP JUMP JUMPDEST PUSH0 DUP1 REVERT JUMPDEST PUSH0 DUP1 REVERT JUMPDEST PUSH32 0x4E487B7100000000000000000000000000000000000000000000000000000000 PUSH0 MSTORE PUSH1 0x41 PUSH1 0x4 MSTORE PUSH1 0x24 PUSH0 REVERT JUMPDEST PUSH2 0x33F4 DUP3 PUSH2 0x2DEF JUMP JUMPDEST DUP2 ADD DUP2 DUP2 LT PUSH8 0xFFFFFFFFFFFFFFFF DUP3 GT OR ISZERO PUSH2 0x3413 JUMPI PUSH2 0x3412 PUSH2 0x33BE JUMP JUMPDEST JUMPDEST DUP1 PUSH1 0x40 MSTORE POP POP POP JUMP JUMPDEST PUSH0 PUSH2 0x3425 PUSH2 0x2D03 JUMP JUMPDEST SWAP1 POP PUSH2 0x3431 DUP3 DUP3 PUSH2 0x33EB JUMP JUMPDEST SWAP2 SWAP1 POP JUMP JUMPDEST PUSH0 PUSH8 0xFFFFFFFFFFFFFFFF DUP3 GT ISZERO PUSH2 0x3450 JUMPI PUSH2 0x344F PUSH2 0x33BE JUMP JUMPDEST JUMPDEST PUSH2 0x3459 DUP3 PUSH2 0x2DEF JUMP JUMPDEST SWAP1 POP PUSH1 0x20 DUP2 ADD SWAP1 POP SWAP2 SWAP1 POP JUMP JUMPDEST DUP3 DUP2 DUP4 CALLDATACOPY PUSH0 DUP4 DUP4 ADD MSTORE POP POP POP JUMP JUMPDEST PUSH0 PUSH2 0x3486 PUSH2 0x3481 DUP5 PUSH2 0x3436 JUMP JUMPDEST PUSH2 0x341C JUMP JUMPDEST SWAP1 POP DUP3 DUP2 MSTORE PUSH1 0x20 DUP2 ADD DUP5 DUP5 DUP5 ADD GT ISZERO PUSH2 0x34A2 JUMPI PUSH2 0x34A1 PUSH2 0x33BA JUMP JUMPDEST JUMPDEST PUSH2 0x34AD DUP5 DUP3 DUP6 PUSH2 0x3466 JUMP JUMPDEST POP SWAP4 SWAP3 POP POP POP JUMP JUMPDEST PUSH0 DUP3 PUSH1 0x1F DUP4 ADD SLT PUSH2 0x34C9 JUMPI PUSH2 0x34C8 PUSH2 0x33B6 JUMP JUMPDEST JUMPDEST DUP2 CALLDATALOAD PUSH2 0x34D9 DUP5 DUP3 PUSH1 0x20 DUP7 ADD PUSH2 0x3474 JUMP JUMPDEST SWAP2 POP POP SWAP3 SWAP2 POP POP JUMP JUMPDEST PUSH0 DUP1 PUSH1 0x40 DUP4 DUP6 SUB SLT ISZERO PUSH2 0x34F8 JUMPI PUSH2 0x34F7 PUSH2 0x2D0C JUMP JUMPDEST JUMPDEST PUSH0 PUSH2 0x3505 DUP6 DUP3 DUP7 ADD PUSH2 0x2ED0 JUMP JUMPDEST SWAP3 POP POP PUSH1 0x20 DUP4 ADD CALLDATALOAD PUSH8 0xFFFFFFFFFFFFFFFF DUP2 GT ISZERO PUSH2 0x3526 JUMPI PUSH2 0x3525 PUSH2 0x2D10 JUMP JUMPDEST JUMPDEST PUSH2 0x3532 DUP6 DUP3 DUP7 ADD PUSH2 0x34B5 JUMP JUMPDEST SWAP2 POP POP SWAP3 POP SWAP3 SWAP1 POP JUMP JUMPDEST PUSH32 0x4E487B7100000000000000000000000000000000000000000000000000000000 PUSH0 MSTORE PUSH1 0x22 PUSH1 0x4 MSTORE PUSH1 0x24 PUSH0 REVERT JUMPDEST PUSH0 PUSH1 0x2 DUP3 DIV SWAP1 POP PUSH1 0x1 DUP3 AND DUP1 PUSH2 0x3580 JUMPI PUSH1 0x7F DUP3 AND SWAP2 POP JUMPDEST PUSH1 0x20 DUP3 LT DUP2 SUB PUSH2 0x3593 JUMPI PUSH2 0x3592 PUSH2 0x353C JUMP JUMPDEST JUMPDEST POP SWAP2 SWAP1 POP JUMP JUMPDEST PUSH32 0x416D6F756E74206D7573742062652067726561746572207468616E207A65726F PUSH0 DUP3 ADD MSTORE POP JUMP JUMPDEST PUSH0 PUSH2 0x35CD PUSH1 0x20 DUP4 PUSH2 0x2DD1 JUMP JUMPDEST SWAP2 POP PUSH2 0x35D8 DUP3 PUSH2 0x3599 JUMP JUMPDEST PUSH1 0x20 DUP3 ADD SWAP1 POP SWAP2 SWAP1 POP JUMP JUMPDEST PUSH0 PUSH1 0x20 DUP3 ADD SWAP1 POP DUP2 DUP2 SUB PUSH0 DUP4 ADD MSTORE PUSH2 0x35FA DUP2 PUSH2 0x35C1 JUMP JUMPDEST SWAP1 POP SWAP2 SWAP1 POP JUMP JUMPDEST PUSH32 0x4E487B7100000000000000000000000000000000000000000000000000000000 PUSH0 MSTORE PUSH1 0x11 PUSH1 0x4 MSTORE PUSH1 0x24 PUSH0 REVERT JUMPDEST PUSH0 DUP2 PUSH1 0x1 SHR SWAP1 POP SWAP2 SWAP1 POP JUMP JUMPDEST PUSH0 DUP1 DUP3 SWAP2 POP DUP4 SWAP1 POP JUMPDEST PUSH1 0x1 DUP6 GT ISZERO PUSH2 0x3683 JUMPI DUP1 DUP7 DIV DUP2 GT ISZERO PUSH2 0x365F JUMPI PUSH2 0x365E PUSH2 0x3601 JUMP JUMPDEST JUMPDEST PUSH1 0x1 DUP6 AND ISZERO PUSH2 0x366E JUMPI DUP1 DUP3 MUL SWAP2 POP JUMPDEST DUP1 DUP2 MUL SWAP1 POP PUSH2 0x367C DUP6 PUSH2 0x362E JUMP JUMPDEST SWAP5 POP PUSH2 0x3643 JUMP JUMPDEST SWAP5 POP SWAP5 SWAP3 POP POP POP JUMP JUMPDEST PUSH0 DUP3 PUSH2 0x369B JUMPI PUSH1 0x1 SWAP1 POP PUSH2 0x3756 JUMP JUMPDEST DUP2 PUSH2 0x36A8 JUMPI PUSH0 SWAP1 POP PUSH2 0x3756 JUMP JUMPDEST DUP2 PUSH1 0x1 DUP2 EQ PUSH2 0x36BE JUMPI PUSH1 0x2 DUP2 EQ PUSH2 0x36C8 JUMPI PUSH2 0x36F7 JUMP JUMPDEST PUSH1 0x1 SWAP2 POP POP PUSH2 0x3756 JUMP JUMPDEST PUSH1 0xFF DUP5 GT ISZERO PUSH2 0x36DA JUMPI PUSH2 0x36D9 PUSH2 0x3601 JUMP JUMPDEST JUMPDEST DUP4 PUSH1 0x2 EXP SWAP2 POP DUP5 DUP3 GT ISZERO PUSH2 0x36F1 JUMPI PUSH2 0x36F0 PUSH2 0x3601 JUMP JUMPDEST JUMPDEST POP PUSH2 0x3756 JUMP JUMPDEST POP PUSH1 0x20 DUP4 LT PUSH2 0x133 DUP4 LT AND PUSH1 0x4E DUP5 LT PUSH1 0xB DUP5 LT AND OR ISZERO PUSH2 0x372C JUMPI DUP3 DUP3 EXP SWAP1 POP DUP4 DUP2 GT ISZERO PUSH2 0x3727 JUMPI PUSH2 0x3726 PUSH2 0x3601 JUMP JUMPDEST JUMPDEST PUSH2 0x3756 JUMP JUMPDEST PUSH2 0x3739 DUP5 DUP5 DUP5 PUSH1 0x1 PUSH2 0x363A JUMP JUMPDEST SWAP3 POP SWAP1 POP DUP2 DUP5 DIV DUP2 GT ISZERO PUSH2 0x3750 JUMPI PUSH2 0x374F PUSH2 0x3601 JUMP JUMPDEST JUMPDEST DUP2 DUP2 MUL SWAP1 POP JUMPDEST SWAP4 SWAP3 POP POP POP JUMP JUMPDEST PUSH0 PUSH2 0x3767 DUP3 PUSH2 0x2EB1 JUMP JUMPDEST SWAP2 POP PUSH2 0x3772 DUP4 PUSH2 0x30B4 JUMP JUMPDEST SWAP3 POP PUSH2 0x379F PUSH32 0xFFFFFFFFFFFFFFFFFFFFFFFFFFFFFFFFFFFFFFFFFFFFFFFFFFFFFFFFFFFFFFFF DUP5 DUP5 PUSH2 0x368C JUMP JUMPDEST SWAP1 POP SWAP3 SWAP2 POP POP JUMP JUMPDEST PUSH0 PUSH2 0x37B1 DUP3 PUSH2 0x2EB1 JUMP JUMPDEST SWAP2 POP PUSH2 0x37BC DUP4 PUSH2 0x2EB1 JUMP JUMPDEST SWAP3 POP DUP3 DUP3 MUL PUSH2 0x37CA DUP2 PUSH2 0x2EB1 JUMP JUMPDEST SWAP2 POP DUP3 DUP3 DIV DUP5 EQ DUP4 ISZERO OR PUSH2 0x37E1 JUMPI PUSH2 0x37E0 PUSH2 0x3601 JUMP JUMPDEST JUMPDEST POP SWAP3 SWAP2 POP POP JUMP JUMPDEST PUSH32 0x496E73756666696369656E7420746F6B656E2062616C616E6365000000000000 PUSH0 DUP3 ADD MSTORE POP JUMP JUMPDEST PUSH0 PUSH2 0x381C PUSH1 0x1A DUP4 PUSH2 0x2DD1 JUMP JUMPDEST SWAP2 POP PUSH2 0x3827 DUP3 PUSH2 0x37E8 JUMP JUMPDEST PUSH1 0x20 DUP3 ADD SWAP1 POP SWAP2 SWAP1 POP JUMP JUMPDEST PUSH0 PUSH1 0x20 DUP3 ADD SWAP1 POP DUP2 DUP2 SUB PUSH0 DUP4 ADD MSTORE PUSH2 0x3849 DUP2 PUSH2 0x3810 JUMP JUMPDEST SWAP1 POP SWAP2 SWAP1 POP JUMP JUMPDEST PUSH0 PUSH2 0x385A DUP3 PUSH2 0x2EB1 JUMP JUMPDEST SWAP2 POP PUSH2 0x3865 DUP4 PUSH2 0x2EB1 JUMP JUMPDEST SWAP3 POP DUP3 DUP3 SUB SWAP1 POP DUP2 DUP2 GT ISZERO PUSH2 0x387D JUMPI PUSH2 0x387C PUSH2 0x3601 JUMP JUMPDEST JUMPDEST SWAP3 SWAP2 POP POP JUMP JUMPDEST PUSH32 0x4E487B7100000000000000000000000000000000000000000000000000000000 PUSH0 MSTORE PUSH1 0x32 PUSH1 0x4 MSTORE PUSH1 0x24 PUSH0 REVERT JUMPDEST PUSH32 0x4E487B7100000000000000000000000000000000000000000000000000000000 PUSH0 MSTORE PUSH1 0x31 PUSH1 0x4 MSTORE PUSH1 0x24 PUSH0 REVERT JUMPDEST PUSH32 0x4549503731323A20556E696E697469616C697A65640000000000000000000000 PUSH0 DUP3 ADD MSTORE POP JUMP JUMPDEST PUSH0 PUSH2 0x3911 PUSH1 0x15 DUP4 PUSH2 0x2DD1 JUMP JUMPDEST SWAP2 POP PUSH2 0x391C DUP3 PUSH2 0x38DD JUMP JUMPDEST PUSH1 0x20 DUP3 ADD SWAP1 POP SWAP2 SWAP1 POP JUMP JUMPDEST PUSH0 PUSH1 0x20 DUP3 ADD SWAP1 POP DUP2 DUP2 SUB PUSH0 DUP4 ADD MSTORE PUSH2 0x393E DUP2 PUSH2 0x3905 JUMP JUMPDEST SWAP1 POP SWAP2 SWAP1 POP JUMP JUMPDEST PUSH0 DUP2 SWAP1 POP SWAP2 SWAP1 POP JUMP JUMPDEST PUSH0 PUSH8 0xFFFFFFFFFFFFFFFF DUP3 AND SWAP1 POP SWAP2 SWAP1 POP JUMP JUMPDEST PUSH0 DUP2 SWAP1 POP SWAP2 SWAP1 POP JUMP JUMPDEST PUSH0 PUSH2 0x3984 PUSH2 0x397F PUSH2 0x397A DUP5 PUSH2 0x3945 JUMP JUMPDEST PUSH2 0x3961 JUMP JUMPDEST PUSH2 0x394E JUMP JUMPDEST SWAP1 POP SWAP2 SWAP1 POP JUMP JUMPDEST PUSH2 0x3994 DUP2 PUSH2 0x396A JUMP JUMPDEST DUP3 MSTORE POP POP JUMP JUMPDEST PUSH0 PUSH1 0x20 DUP3 ADD SWAP1 POP PUSH2 0x39AD PUSH0 DUP4 ADD DUP5 PUSH2 0x398B JUMP JUMPDEST SWAP3 SWAP2 POP POP JUMP JUMPDEST PUSH0 PUSH1 0xC0 DUP3 ADD SWAP1 POP PUSH2 0x39C6 PUSH0 DUP4 ADD DUP10 PUSH2 0x3023 JUMP JUMPDEST PUSH2 0x39D3 PUSH1 0x20 DUP4 ADD DUP9 PUSH2 0x30E8 JUMP JUMPDEST PUSH2 0x39E0 PUSH1 0x40 DUP4 ADD DUP8 PUSH2 0x30E8 JUMP JUMPDEST PUSH2 0x39ED PUSH1 0x60 DUP4 ADD DUP7 PUSH2 0x2F22 JUMP JUMPDEST PUSH2 0x39FA PUSH1 0x80 DUP4 ADD DUP6 PUSH2 0x2F22 JUMP JUMPDEST PUSH2 0x3A07 PUSH1 0xA0 DUP4 ADD DUP5 PUSH2 0x2F22 JUMP JUMPDEST SWAP8 SWAP7 POP POP POP POP POP POP POP JUMP JUMPDEST PUSH0 PUSH1 0x40 DUP3 ADD SWAP1 POP PUSH2 0x3A25 PUSH0 DUP4 ADD DUP6 PUSH2 0x30E8 JUMP JUMPDEST PUSH2 0x3A32 PUSH1 0x20 DUP4 ADD DUP5 PUSH2 0x30E8 JUMP JUMPDEST SWAP4 SWAP3 POP POP POP JUMP JUMPDEST PUSH0 DUP2 SWAP1 POP DUP2 PUSH0 MSTORE PUSH1 0x20 PUSH0 KECCAK256 SWAP1 POP SWAP2 SWAP1 POP JUMP JUMPDEST PUSH0 PUSH1 0x20 PUSH1 0x1F DUP4 ADD DIV SWAP1 POP SWAP2 SWAP1 POP JUMP JUMPDEST PUSH0 DUP3 DUP3 SHL SWAP1 POP SWAP3 SWAP2 POP POP JUMP JUMPDEST PUSH0 PUSH1 0x8 DUP4 MUL PUSH2 0x3A95 PUSH32 0xFFFFFFFFFFFFFFFFFFFFFFFFFFFFFFFFFFFFFFFFFFFFFFFFFFFFFFFFFFFFFFFF DUP3 PUSH2 0x3A5A JUMP JUMPDEST PUSH2 0x3A9F DUP7 DUP4 PUSH2 0x3A5A JUMP JUMPDEST SWAP6 POP DUP1 NOT DUP5 AND SWAP4 POP DUP1 DUP7 AND DUP5 OR SWAP3 POP POP POP SWAP4 SWAP3 POP POP POP JUMP JUMPDEST PUSH0 PUSH2 0x3AD1 PUSH2 0x3ACC PUSH2 0x3AC7 DUP5 PUSH2 0x2EB1 JUMP JUMPDEST PUSH2 0x3961 JUMP JUMPDEST PUSH2 0x2EB1 JUMP JUMPDEST SWAP1 POP SWAP2 SWAP1 POP JUMP JUMPDEST PUSH0 DUP2 SWAP1 POP SWAP2 SWAP1 POP JUMP JUMPDEST PUSH2 0x3AEA DUP4 PUSH2 0x3AB7 JUMP JUMPDEST PUSH2 0x3AFE PUSH2 0x3AF6 DUP3 PUSH2 0x3AD8 JUMP JUMPDEST DUP5 DUP5 SLOAD PUSH2 0x3A66 JUMP JUMPDEST DUP3 SSTORE POP POP POP POP JUMP JUMPDEST PUSH0 SWAP1 JUMP JUMPDEST PUSH2 0x3B12 PUSH2 0x3B06 JUMP JUMPDEST PUSH2 0x3B1D DUP2 DUP5 DUP5 PUSH2 0x3AE1 JUMP JUMPDEST POP POP POP JUMP JUMPDEST JUMPDEST DUP2 DUP2 LT ISZERO PUSH2 0x3B40 JUMPI PUSH2 0x3B35 PUSH0 DUP3 PUSH2 0x3B0A JUMP JUMPDEST PUSH1 0x1 DUP2 ADD SWAP1 POP PUSH2 0x3B23 JUMP JUMPDEST POP POP JUMP JUMPDEST PUSH1 0x1F DUP3 GT ISZERO PUSH2 0x3B85 JUMPI PUSH2 0x3B56 DUP2 PUSH2 0x3A39 JUMP JUMPDEST PUSH2 0x3B5F DUP5 PUSH2 0x3A4B JUMP JUMPDEST DUP2 ADD PUSH1 0x20 DUP6 LT ISZERO PUSH2 0x3B6E JUMPI DUP2 SWAP1 POP JUMPDEST PUSH2 0x3B82 PUSH2 0x3B7A DUP6 PUSH2 0x3A4B JUMP JUMPDEST DUP4 ADD DUP3 PUSH2 0x3B22 JUMP JUMPDEST POP POP JUMPDEST POP POP POP JUMP JUMPDEST PUSH0 DUP3 DUP3 SHR SWAP1 POP SWAP3 SWAP2 POP POP JUMP JUMPDEST PUSH0 PUSH2 0x3BA5 PUSH0 NOT DUP5 PUSH1 0x8 MUL PUSH2 0x3B8A JUMP JUMPDEST NOT DUP1 DUP4 AND SWAP2 POP POP SWAP3 SWAP2 POP POP JUMP JUMPDEST PUSH0 PUSH2 0x3BBD DUP4 DUP4 PUSH2 0x3B96 JUMP JUMPDEST SWAP2 POP DUP3 PUSH1 0x2 MUL DUP3 OR SWAP1 POP SWAP3 SWAP2 POP POP JUMP JUMPDEST PUSH2 0x3BD6 DUP3 PUSH2 0x2DC7 JUMP JUMPDEST PUSH8 0xFFFFFFFFFFFFFFFF DUP2 GT ISZERO PUSH2 0x3BEF JUMPI PUSH2 0x3BEE PUSH2 0x33BE JUMP JUMPDEST JUMPDEST PUSH2 0x3BF9 DUP3 SLOAD PUSH2 0x3569 JUMP JUMPDEST PUSH2 0x3C04 DUP3 DUP3 DUP6 PUSH2 0x3B44 JUMP JUMPDEST PUSH0 PUSH1 0x20 SWAP1 POP PUSH1 0x1F DUP4 GT PUSH1 0x1 DUP2 EQ PUSH2 0x3C35 JUMPI PUSH0 DUP5 ISZERO PUSH2 0x3C23 JUMPI DUP3 DUP8 ADD MLOAD SWAP1 POP JUMPDEST PUSH2 0x3C2D DUP6 DUP3 PUSH2 0x3BB2 JUMP JUMPDEST DUP7 SSTORE POP PUSH2 0x3C94 JUMP JUMPDEST PUSH1 0x1F NOT DUP5 AND PUSH2 0x3C43 DUP7 PUSH2 0x3A39 JUMP JUMPDEST PUSH0 JUMPDEST DUP3 DUP2 LT ISZERO PUSH2 0x3C6A JUMPI DUP5 DUP10 ADD MLOAD DUP3 SSTORE PUSH1 0x1 DUP3 ADD SWAP2 POP PUSH1 0x20 DUP6 ADD SWAP5 POP PUSH1 0x20 DUP2 ADD SWAP1 POP PUSH2 0x3C45 JUMP JUMPDEST DUP7 DUP4 LT ISZERO PUSH2 0x3C87 JUMPI DUP5 DUP10 ADD MLOAD PUSH2 0x3C83 PUSH1 0x1F DUP10 AND DUP3 PUSH2 0x3B96 JUMP JUMPDEST DUP4 SSTORE POP JUMPDEST PUSH1 0x1 PUSH1 0x2 DUP9 MUL ADD DUP9 SSTORE POP POP POP JUMPDEST POP POP POP POP POP POP JUMP JUMPDEST PUSH0 PUSH1 0x60 DUP3 ADD SWAP1 POP PUSH2 0x3CAF PUSH0 DUP4 ADD DUP7 PUSH2 0x30E8 JUMP JUMPDEST PUSH2 0x3CBC PUSH1 0x20 DUP4 ADD DUP6 PUSH2 0x2F22 JUMP JUMPDEST PUSH2 0x3CC9 PUSH1 0x40 DUP4 ADD DUP5 PUSH2 0x2F22 JUMP JUMPDEST SWAP5 SWAP4 POP POP POP POP JUMP JUMPDEST PUSH0 PUSH1 0x40 DUP3 ADD SWAP1 POP PUSH2 0x3CE4 PUSH0 DUP4 ADD DUP6 PUSH2 0x30E8 JUMP JUMPDEST PUSH2 0x3CF1 PUSH1 0x20 DUP4 ADD DUP5 PUSH2 0x3023 JUMP JUMPDEST SWAP4 SWAP3 POP POP POP JUMP JUMPDEST PUSH0 PUSH1 0xA0 DUP3 ADD SWAP1 POP PUSH2 0x3D0B PUSH0 DUP4 ADD DUP9 PUSH2 0x3023 JUMP JUMPDEST PUSH2 0x3D18 PUSH1 0x20 DUP4 ADD DUP8 PUSH2 0x3023 JUMP JUMPDEST PUSH2 0x3D25 PUSH1 0x40 DUP4 ADD DUP7 PUSH2 0x3023 JUMP JUMPDEST PUSH2 0x3D32 PUSH1 0x60 DUP4 ADD DUP6 PUSH2 0x2F22 JUMP JUMPDEST PUSH2 0x3D3F PUSH1 0x80 DUP4 ADD DUP5 PUSH2 0x30E8 JUMP JUMPDEST SWAP7 SWAP6 POP POP POP POP POP POP JUMP JUMPDEST PUSH0 PUSH1 0x80 DUP3 ADD SWAP1 POP PUSH2 0x3D5C PUSH0 DUP4 ADD DUP8 PUSH2 0x3023 JUMP JUMPDEST PUSH2 0x3D69 PUSH1 0x20 DUP4 ADD DUP7 PUSH2 0x30C0 JUMP JUMPDEST PUSH2 0x3D76 PUSH1 0x40 DUP4 ADD DUP6 PUSH2 0x3023 JUMP JUMPDEST PUSH2 0x3D83 PUSH1 0x60 DUP4 ADD DUP5 PUSH2 0x3023 JUMP JUMPDEST SWAP6 SWAP5 POP POP POP POP POP JUMP JUMPDEST PUSH32 0x4E487B7100000000000000000000000000000000000000000000000000000000 PUSH0 MSTORE PUSH1 0x21 PUSH1 0x4 MSTORE PUSH1 0x24 PUSH0 REVERT JUMPDEST PUSH0 PUSH2 0x3DC3 DUP3 PUSH2 0x2EB1 JUMP JUMPDEST SWAP2 POP PUSH2 0x3DCE DUP4 PUSH2 0x2EB1 JUMP JUMPDEST SWAP3 POP DUP3 DUP3 ADD SWAP1 POP DUP1 DUP3 GT ISZERO PUSH2 0x3DE6 JUMPI PUSH2 0x3DE5 PUSH2 0x3601 JUMP JUMPDEST JUMPDEST SWAP3 SWAP2 POP POP JUMP INVALID LOG2 PUSH5 0x6970667358 0x22 SLT KECCAK256 SWAP4 0xE6 MCOPY 0xAE 0x25 DUP14 CREATE SHL SAR 0xDB ADDRESS CALL EQ 0x21 0xD2 0xC7 PUSH31 0x9BF062F305BD476D0A3B3AD7AAF41D64736F6C634300081900330000000000 "
		},
		"gasEstimates": {
			"creation": {
				"codeDepositCost": "3181200",
				"executionCost": "infinite",
				"totalCost": "infinite"
			},
			"external": {
				"DEFAULT_ADMIN_ROLE()": "463",
				"DOMAIN_SEPARATOR()": "infinite",
				"MINING_REWARD()": "370",
				"NODE_REWARD()": "436",
				"REWARD_INTERVAL()": "414",
				"allowance(address,address)": "infinite",
				"approve(address,uint256)": "infinite",
				"balanceOf(address)": "2992",
				"burn(uint256)": "infinite",
				"burnFrom(address,uint256)": "infinite",
				"decimals()": "384",
				"deposit(uint256,string)": "infinite",
				"deposits(address,uint256)": "infinite",
				"eip712Domain()": "infinite",
				"getRoleAdmin(bytes32)": "infinite",
				"grantRole(bytes32,address)": "infinite",
				"hasRole(bytes32,address)": "3241",
				"initialize(address)": "infinite",
				"mine()": "infinite",
				"name()": "infinite",
				"nodeMaintainer()": "2550",
				"nodes(address)": "2861",
				"nonces(address)": "2991",
				"owner()": "2612",
				"pause()": "infinite",
				"paused()": "2592",
				"permit(address,address,uint256,uint256,uint8,bytes32,bytes32)": "infinite",
				"renounceOwnership()": "infinite",
				"renounceRole(bytes32,address)": "infinite",
				"revokeRole(bytes32,address)": "infinite",
				"supportsInterface(bytes4)": "764",
				"symbol()": "infinite",
				"totalSupply()": "2598",
				"transfer(address,uint256)": "infinite",
				"transferFrom(address,address,uint256)": "infinite",
				"transferOwnership(address)": "infinite",
				"unpause()": "infinite",
				"withdraw(uint256)": "infinite"
			},
			"internal": {
				"_update(address,address,uint256)": "infinite"
			}
		},
		"methodIdentifiers": {
			"DEFAULT_ADMIN_ROLE()": "a217fddf",
			"DOMAIN_SEPARATOR()": "3644e515",
			"MINING_REWARD()": "a8469ce9",
			"NODE_REWARD()": "c5b779de",
			"REWARD_INTERVAL()": "5dbdda69",
			"allowance(address,address)": "dd62ed3e",
			"approve(address,uint256)": "095ea7b3",
			"balanceOf(address)": "70a08231",
			"burn(uint256)": "42966c68",
			"burnFrom(address,uint256)": "79cc6790",
			"decimals()": "313ce567",
			"deposit(uint256,string)": "f1215d25",
			"deposits(address,uint256)": "d6d68177",
			"eip712Domain()": "84b0196e",
			"getRoleAdmin(bytes32)": "248a9ca3",
			"grantRole(bytes32,address)": "2f2ff15d",
			"hasRole(bytes32,address)": "91d14854",
			"initialize(address)": "c4d66de8",
			"mine()": "99f4b251",
			"name()": "06fdde03",
			"nodeMaintainer()": "528fdc63",
			"nodes(address)": "189a5a17",
			"nonces(address)": "7ecebe00",
			"owner()": "8da5cb5b",
			"pause()": "8456cb59",
			"paused()": "5c975abb",
			"permit(address,address,uint256,uint256,uint8,bytes32,bytes32)": "d505accf",
			"renounceOwnership()": "715018a6",
			"renounceRole(bytes32,address)": "36568abe",
			"revokeRole(bytes32,address)": "d547741f",
			"supportsInterface(bytes4)": "01ffc9a7",
			"symbol()": "95d89b41",
			"totalSupply()": "18160ddd",
			"transfer(address,uint256)": "a9059cbb",
			"transferFrom(address,address,uint256)": "23b872dd",
			"transferOwnership(address)": "f2fde38b",
			"unpause()": "3f4ba83a",
			"withdraw(uint256)": "2e1a7d4d"
		}
	},
	"abi": [
		{
			"inputs": [],
			"stateMutability": "nonpayable",
			"type": "constructor"
		},
		{
			"inputs": [],
			"name": "AccessControlBadConfirmation",
			"type": "error"
		},
		{
			"inputs": [
				{
					"internalType": "address",
					"name": "account",
					"type": "address"
				},
				{
					"internalType": "bytes32",
					"name": "neededRole",
					"type": "bytes32"
				}
			],
			"name": "AccessControlUnauthorizedAccount",
			"type": "error"
		},
		{
			"inputs": [],
			"name": "ECDSAInvalidSignature",
			"type": "error"
		},
		{
			"inputs": [
				{
					"internalType": "uint256",
					"name": "length",
					"type": "uint256"
				}
			],
			"name": "ECDSAInvalidSignatureLength",
			"type": "error"
		},
		{
			"inputs": [
				{
					"internalType": "bytes32",
					"name": "s",
					"type": "bytes32"
				}
			],
			"name": "ECDSAInvalidSignatureS",
			"type": "error"
		},
		{
			"inputs": [
				{
					"internalType": "address",
					"name": "spender",
					"type": "address"
				},
				{
					"internalType": "uint256",
					"name": "allowance",
					"type": "uint256"
				},
				{
					"internalType": "uint256",
					"name": "needed",
					"type": "uint256"
				}
			],
			"name": "ERC20InsufficientAllowance",
			"type": "error"
		},
		{
			"inputs": [
				{
					"internalType": "address",
					"name": "sender",
					"type": "address"
				},
				{
					"internalType": "uint256",
					"name": "balance",
					"type": "uint256"
				},
				{
					"internalType": "uint256",
					"name": "needed",
					"type": "uint256"
				}
			],
			"name": "ERC20InsufficientBalance",
			"type": "error"
		},
		{
			"inputs": [
				{
					"internalType": "address",
					"name": "approver",
					"type": "address"
				}
			],
			"name": "ERC20InvalidApprover",
			"type": "error"
		},
		{
			"inputs": [
				{
					"internalType": "address",
					"name": "receiver",
					"type": "address"
				}
			],
			"name": "ERC20InvalidReceiver",
			"type": "error"
		},
		{
			"inputs": [
				{
					"internalType": "address",
					"name": "sender",
					"type": "address"
				}
			],
			"name": "ERC20InvalidSender",
			"type": "error"
		},
		{
			"inputs": [
				{
					"internalType": "address",
					"name": "spender",
					"type": "address"
				}
			],
			"name": "ERC20InvalidSpender",
			"type": "error"
		},
		{
			"inputs": [
				{
					"internalType": "uint256",
					"name": "deadline",
					"type": "uint256"
				}
			],
			"name": "ERC2612ExpiredSignature",
			"type": "error"
		},
		{
			"inputs": [
				{
					"internalType": "address",
					"name": "signer",
					"type": "address"
				},
				{
					"internalType": "address",
					"name": "owner",
					"type": "address"
				}
			],
			"name": "ERC2612InvalidSigner",
			"type": "error"
		},
		{
			"inputs": [],
			"name": "EnforcedPause",
			"type": "error"
		},
		{
			"inputs": [],
			"name": "ExpectedPause",
			"type": "error"
		},
		{
			"inputs": [
				{
					"internalType": "address",
					"name": "account",
					"type": "address"
				},
				{
					"internalType": "uint256",
					"name": "currentNonce",
					"type": "uint256"
				}
			],
			"name": "InvalidAccountNonce",
			"type": "error"
		},
		{
			"inputs": [],
			"name": "InvalidInitialization",
			"type": "error"
		},
		{
			"inputs": [],
			"name": "NotInitializing",
			"type": "error"
		},
		{
			"inputs": [
				{
					"internalType": "address",
					"name": "owner",
					"type": "address"
				}
			],
			"name": "OwnableInvalidOwner",
			"type": "error"
		},
		{
			"inputs": [
				{
					"internalType": "address",
					"name": "account",
					"type": "address"
				}
			],
			"name": "OwnableUnauthorizedAccount",
			"type": "error"
		},
		{
			"anonymous": false,
			"inputs": [
				{
					"indexed": true,
					"internalType": "address",
					"name": "owner",
					"type": "address"
				},
				{
					"indexed": true,
					"internalType": "address",
					"name": "spender",
					"type": "address"
				},
				{
					"indexed": false,
					"internalType": "uint256",
					"name": "value",
					"type": "uint256"
				}
			],
			"name": "Approval",
			"type": "event"
		},
		{
			"anonymous": false,
			"inputs": [],
			"name": "EIP712DomainChanged",
			"type": "event"
		},
		{
			"anonymous": false,
			"inputs": [
				{
					"indexed": false,
					"internalType": "uint64",
					"name": "version",
					"type": "uint64"
				}
			],
			"name": "Initialized",
			"type": "event"
		},
		{
			"anonymous": false,
			"inputs": [
				{
					"indexed": true,
					"internalType": "address",
					"name": "previousOwner",
					"type": "address"
				},
				{
					"indexed": true,
					"internalType": "address",
					"name": "newOwner",
					"type": "address"
				}
			],
			"name": "OwnershipTransferred",
			"type": "event"
		},
		{
			"anonymous": false,
			"inputs": [
				{
					"indexed": false,
					"internalType": "address",
					"name": "account",
					"type": "address"
				}
			],
			"name": "Paused",
			"type": "event"
		},
		{
			"anonymous": false,
			"inputs": [
				{
					"indexed": true,
					"internalType": "bytes32",
					"name": "role",
					"type": "bytes32"
				},
				{
					"indexed": true,
					"internalType": "bytes32",
					"name": "previousAdminRole",
					"type": "bytes32"
				},
				{
					"indexed": true,
					"internalType": "bytes32",
					"name": "newAdminRole",
					"type": "bytes32"
				}
			],
			"name": "RoleAdminChanged",
			"type": "event"
		},
		{
			"anonymous": false,
			"inputs": [
				{
					"indexed": true,
					"internalType": "bytes32",
					"name": "role",
					"type": "bytes32"
				},
				{
					"indexed": true,
					"internalType": "address",
					"name": "account",
					"type": "address"
				},
				{
					"indexed": true,
					"internalType": "address",
					"name": "sender",
					"type": "address"
				}
			],
			"name": "RoleGranted",
			"type": "event"
		},
		{
			"anonymous": false,
			"inputs": [
				{
					"indexed": true,
					"internalType": "bytes32",
					"name": "role",
					"type": "bytes32"
				},
				{
					"indexed": true,
					"internalType": "address",
					"name": "account",
					"type": "address"
				},
				{
					"indexed": true,
					"internalType": "address",
					"name": "sender",
					"type": "address"
				}
			],
			"name": "RoleRevoked",
			"type": "event"
		},
		{
			"anonymous": false,
			"inputs": [
				{
					"indexed": true,
					"internalType": "address",
					"name": "from",
					"type": "address"
				},
				{
					"indexed": true,
					"internalType": "address",
					"name": "to",
					"type": "address"
				},
				{
					"indexed": false,
					"internalType": "uint256",
					"name": "value",
					"type": "uint256"
				}
			],
			"name": "Transfer",
			"type": "event"
		},
		{
			"anonymous": false,
			"inputs": [
				{
					"indexed": false,
					"internalType": "address",
					"name": "account",
					"type": "address"
				}
			],
			"name": "Unpaused",
			"type": "event"
		},
		{
			"inputs": [],
			"name": "DEFAULT_ADMIN_ROLE",
			"outputs": [
				{
					"internalType": "bytes32",
					"name": "",
					"type": "bytes32"
				}
			],
			"stateMutability": "view",
			"type": "function"
		},
		{
			"inputs": [],
			"name": "DOMAIN_SEPARATOR",
			"outputs": [
				{
					"internalType": "bytes32",
					"name": "",
					"type": "bytes32"
				}
			],
			"stateMutability": "view",
			"type": "function"
		},
		{
			"inputs": [],
			"name": "MINING_REWARD",
			"outputs": [
				{
					"internalType": "uint256",
					"name": "",
					"type": "uint256"
				}
			],
			"stateMutability": "view",
			"type": "function"
		},
		{
			"inputs": [],
			"name": "NODE_REWARD",
			"outputs": [
				{
					"internalType": "uint256",
					"name": "",
					"type": "uint256"
				}
			],
			"stateMutability": "view",
			"type": "function"
		},
		{
			"inputs": [],
			"name": "REWARD_INTERVAL",
			"outputs": [
				{
					"internalType": "uint256",
					"name": "",
					"type": "uint256"
				}
			],
			"stateMutability": "view",
			"type": "function"
		},
		{
			"inputs": [
				{
					"internalType": "address",
					"name": "owner",
					"type": "address"
				},
				{
					"internalType": "address",
					"name": "spender",
					"type": "address"
				}
			],
			"name": "allowance",
			"outputs": [
				{
					"internalType": "uint256",
					"name": "",
					"type": "uint256"
				}
			],
			"stateMutability": "view",
			"type": "function"
		},
		{
			"inputs": [
				{
					"internalType": "address",
					"name": "spender",
					"type": "address"
				},
				{
					"internalType": "uint256",
					"name": "value",
					"type": "uint256"
				}
			],
			"name": "approve",
			"outputs": [
				{
					"internalType": "bool",
					"name": "",
					"type": "bool"
				}
			],
			"stateMutability": "nonpayable",
			"type": "function"
		},
		{
			"inputs": [
				{
					"internalType": "address",
					"name": "account",
					"type": "address"
				}
			],
			"name": "balanceOf",
			"outputs": [
				{
					"internalType": "uint256",
					"name": "",
					"type": "uint256"
				}
			],
			"stateMutability": "view",
			"type": "function"
		},
		{
			"inputs": [
				{
					"internalType": "uint256",
					"name": "value",
					"type": "uint256"
				}
			],
			"name": "burn",
			"outputs": [],
			"stateMutability": "nonpayable",
			"type": "function"
		},
		{
			"inputs": [
				{
					"internalType": "address",
					"name": "account",
					"type": "address"
				},
				{
					"internalType": "uint256",
					"name": "value",
					"type": "uint256"
				}
			],
			"name": "burnFrom",
			"outputs": [],
			"stateMutability": "nonpayable",
			"type": "function"
		},
		{
			"inputs": [],
			"name": "decimals",
			"outputs": [
				{
					"internalType": "uint8",
					"name": "",
					"type": "uint8"
				}
			],
			"stateMutability": "view",
			"type": "function"
		},
		{
			"inputs": [
				{
					"internalType": "uint256",
					"name": "amount",
					"type": "uint256"
				},
				{
					"internalType": "string",
					"name": "bankId",
					"type": "string"
				}
			],
			"name": "deposit",
			"outputs": [],
			"stateMutability": "nonpayable",
			"type": "function"
		},
		{
			"inputs": [
				{
					"internalType": "address",
					"name": "",
					"type": "address"
				},
				{
					"internalType": "uint256",
					"name": "",
					"type": "uint256"
				}
			],
			"name": "deposits",
			"outputs": [
				{
					"internalType": "uint256",
					"name": "amount",
					"type": "uint256"
				},
				{
					"internalType": "string",
					"name": "bankId",
					"type": "string"
				}
			],
			"stateMutability": "view",
			"type": "function"
		},
		{
			"inputs": [],
			"name": "eip712Domain",
			"outputs": [
				{
					"internalType": "bytes1",
					"name": "fields",
					"type": "bytes1"
				},
				{
					"internalType": "string",
					"name": "name",
					"type": "string"
				},
				{
					"internalType": "string",
					"name": "version",
					"type": "string"
				},
				{
					"internalType": "uint256",
					"name": "chainId",
					"type": "uint256"
				},
				{
					"internalType": "address",
					"name": "verifyingContract",
					"type": "address"
				},
				{
					"internalType": "bytes32",
					"name": "salt",
					"type": "bytes32"
				},
				{
					"internalType": "uint256[]",
					"name": "extensions",
					"type": "uint256[]"
				}
			],
			"stateMutability": "view",
			"type": "function"
		},
		{
			"inputs": [
				{
					"internalType": "bytes32",
					"name": "role",
					"type": "bytes32"
				}
			],
			"name": "getRoleAdmin",
			"outputs": [
				{
					"internalType": "bytes32",
					"name": "",
					"type": "bytes32"
				}
			],
			"stateMutability": "view",
			"type": "function"
		},
		{
			"inputs": [
				{
					"internalType": "bytes32",
					"name": "role",
					"type": "bytes32"
				},
				{
					"internalType": "address",
					"name": "account",
					"type": "address"
				}
			],
			"name": "grantRole",
			"outputs": [],
			"stateMutability": "nonpayable",
			"type": "function"
		},
		{
			"inputs": [
				{
					"internalType": "bytes32",
					"name": "role",
					"type": "bytes32"
				},
				{
					"internalType": "address",
					"name": "account",
					"type": "address"
				}
			],
			"name": "hasRole",
			"outputs": [
				{
					"internalType": "bool",
					"name": "",
					"type": "bool"
				}
			],
			"stateMutability": "view",
			"type": "function"
		},
		{
			"inputs": [
				{
					"internalType": "address",
					"name": "_nodeMaintainer",
					"type": "address"
				}
			],
			"name": "initialize",
			"outputs": [],
			"stateMutability": "nonpayable",
			"type": "function"
		},
		{
			"inputs": [],
			"name": "mine",
			"outputs": [],
			"stateMutability": "nonpayable",
			"type": "function"
		},
		{
			"inputs": [],
			"name": "name",
			"outputs": [
				{
					"internalType": "string",
					"name": "",
					"type": "string"
				}
			],
			"stateMutability": "view",
			"type": "function"
		},
		{
			"inputs": [],
			"name": "nodeMaintainer",
			"outputs": [
				{
					"internalType": "address",
					"name": "",
					"type": "address"
				}
			],
			"stateMutability": "view",
			"type": "function"
		},
		{
			"inputs": [
				{
					"internalType": "address",
					"name": "",
					"type": "address"
				}
			],
			"name": "nodes",
			"outputs": [
				{
					"internalType": "uint256",
					"name": "lastRewardTime",
					"type": "uint256"
				}
			],
			"stateMutability": "view",
			"type": "function"
		},
		{
			"inputs": [
				{
					"internalType": "address",
					"name": "owner",
					"type": "address"
				}
			],
			"name": "nonces",
			"outputs": [
				{
					"internalType": "uint256",
					"name": "",
					"type": "uint256"
				}
			],
			"stateMutability": "view",
			"type": "function"
		},
		{
			"inputs": [],
			"name": "owner",
			"outputs": [
				{
					"internalType": "address",
					"name": "",
					"type": "address"
				}
			],
			"stateMutability": "view",
			"type": "function"
		},
		{
			"inputs": [],
			"name": "pause",
			"outputs": [],
			"stateMutability": "nonpayable",
			"type": "function"
		},
		{
			"inputs": [],
			"name": "paused",
			"outputs": [
				{
					"internalType": "bool",
					"name": "",
					"type": "bool"
				}
			],
			"stateMutability": "view",
			"type": "function"
		},
		{
			"inputs": [
				{
					"internalType": "address",
					"name": "owner",
					"type": "address"
				},
				{
					"internalType": "address",
					"name": "spender",
					"type": "address"
				},
				{
					"internalType": "uint256",
					"name": "value",
					"type": "uint256"
				},
				{
					"internalType": "uint256",
					"name": "deadline",
					"type": "uint256"
				},
				{
					"internalType": "uint8",
					"name": "v",
					"type": "uint8"
				},
				{
					"internalType": "bytes32",
					"name": "r",
					"type": "bytes32"
				},
				{
					"internalType": "bytes32",
					"name": "s",
					"type": "bytes32"
				}
			],
			"name": "permit",
			"outputs": [],
			"stateMutability": "nonpayable",
			"type": "function"
		},
		{
			"inputs": [],
			"name": "renounceOwnership",
			"outputs": [],
			"stateMutability": "nonpayable",
			"type": "function"
		},
		{
			"inputs": [
				{
					"internalType": "bytes32",
					"name": "role",
					"type": "bytes32"
				},
				{
					"internalType": "address",
					"name": "callerConfirmation",
					"type": "address"
				}
			],
			"name": "renounceRole",
			"outputs": [],
			"stateMutability": "nonpayable",
			"type": "function"
		},
		{
			"inputs": [
				{
					"internalType": "bytes32",
					"name": "role",
					"type": "bytes32"
				},
				{
					"internalType": "address",
					"name": "account",
					"type": "address"
				}
			],
			"name": "revokeRole",
			"outputs": [],
			"stateMutability": "nonpayable",
			"type": "function"
		},
		{
			"inputs": [
				{
					"internalType": "bytes4",
					"name": "interfaceId",
					"type": "bytes4"
				}
			],
			"name": "supportsInterface",
			"outputs": [
				{
					"internalType": "bool",
					"name": "",
					"type": "bool"
				}
			],
			"stateMutability": "view",
			"type": "function"
		},
		{
			"inputs": [],
			"name": "symbol",
			"outputs": [
				{
					"internalType": "string",
					"name": "",
					"type": "string"
				}
			],
			"stateMutability": "view",
			"type": "function"
		},
		{
			"inputs": [],
			"name": "totalSupply",
			"outputs": [
				{
					"internalType": "uint256",
					"name": "",
					"type": "uint256"
				}
			],
			"stateMutability": "view",
			"type": "function"
		},
		{
			"inputs": [
				{
					"internalType": "address",
					"name": "to",
					"type": "address"
				},
				{
					"internalType": "uint256",
					"name": "value",
					"type": "uint256"
				}
			],
			"name": "transfer",
			"outputs": [
				{
					"internalType": "bool",
					"name": "",
					"type": "bool"
				}
			],
			"stateMutability": "nonpayable",
			"type": "function"
		},
		{
			"inputs": [
				{
					"internalType": "address",
					"name": "from",
					"type": "address"
				},
				{
					"internalType": "address",
					"name": "to",
					"type": "address"
				},
				{
					"internalType": "uint256",
					"name": "value",
					"type": "uint256"
				}
			],
			"name": "transferFrom",
			"outputs": [
				{
					"internalType": "bool",
					"name": "",
					"type": "bool"
				}
			],
			"stateMutability": "nonpayable",
			"type": "function"
		},
		{
			"inputs": [
				{
					"internalType": "address",
					"name": "newOwner",
					"type": "address"
				}
			],
			"name": "transferOwnership",
			"outputs": [],
			"stateMutability": "nonpayable",
			"type": "function"
		},
		{
			"inputs": [],
			"name": "unpause",
			"outputs": [],
			"stateMutability": "nonpayable",
			"type": "function"
		},
		{
			"inputs": [
				{
					"internalType": "uint256",
					"name": "amount",
					"type": "uint256"
				}
			],
			"name": "withdraw",
			"outputs": [],
			"stateMutability": "nonpayable",
			"type": "function"
		}
	]
}